:020000040800F2
:1000000000000824110802083DEB01083FEB01083D
:1000100041EB010843EB010845EB0108000000003B
:10002000000000000000000000000000412701085F
:1000300047EB010800000000D1270108651F0108F7
:1000400061080208610802086108020861080208E4
:1000500061080208610802086108020861080208D4
:100060006108020849EB01086108020861080208FA
:1000700061080208610802086108020861080208B4
:1000800061080208610802086108020851EB0108D2
:100090005DEB010869EB01086DEB010861080208DE
:1000A0006108020861080208610802086108020884
:1000B00071EB010861080208610802086108020882
:1000C0006108020861080208610802086108020864
:1000D0006108020861080208610802086108020854
:1000E00061080208610802080000000061080208B7
:1000F0006108020861080208610802086108020834
:100100006108020861080208610802086108020823
:100110006108020861080208610802086108020813
:100120006108020861080208610802086108020803
:1001300061080208610802086108020861080208F3
:1001400061080208610802080000000000000000C9
:1001500061080208610802086108020861080208D3
:1001600061080208610802086108020861080208C3
:10017000610802087DEB01086108020861080208B5
:1001800061080208610802086108020861080208A3
:100190006108020861080208610802086108020893
:1001A00089EB010861080208E5F40008610802080B
:1001B0006108020861080208610802086108020873
:1001C0006108020861080208610802086108020863
:1001D0006108020861080208610802086108020853
:1001E0006108020861080208610802086108020843
:1001F0006108020861080208610802086108020833
:100200006108020861080208610802086108020822
:100210006108020861080208610802086108020812
:100220006108020895EB0108A1EB010861080208CA
:1002300061080208610802086108020861080208F2
:1002400061080208610802086108020861080208E2
:1002500061080208610802086108020861080208D2
:1002600061080208610802086108020861080208C2
:1002700061080208610802086108020861080208B2
:100280006108020861080208610802080000000015
:08029000610802086108020880
:1002C00002780B78012A28BF9A4240F0D8806DE965
:1002D000044540EA0104CDE902676FF0000C4FEAE3
:1002E00044721AB380EA010414F0070F6BD100F0D6
:1002F000070420F0070004F0030521F007014FEA8E
:10030000C505F0E8042314F0040FF1E804670CFAC3
:1003100005F462EA040266EA04060BD063EA040309
:10032000624667EA0407664604E000BFF0E804237B
:10033000F1E8046782FA4CF582EA0604A4FA8CF428
:100340006CBB83FA4CF583EA0705A5FA8CF595B9E1
:1003500050E9022351E9026782FA4CF582EA060469
:10036000A4FA8CF483FA4CF583EA0705A5FA8CF518
:100370002543DBD09CB92DBAB5FA85F424F00704E7
:1003800027FA04F1DDE9026723FA04F303F0FF0022
:1003900001F0FF01FDE80445A0EB0100704724BA1D
:1003A000B4FA84F424F0070426FA04F1DDE90267C4
:1003B00022FA04F202F0FF0001F0FF01FDE804451B
:1003C000A0EB0100704714F0030F3CD110F00304C0
:1003D00028D150F8082B51F8083B82FA4CF582EAF4
:1003E0000305A5FA8CF55DB950F8042C51F8043CCE
:1003F00082FA4CF582EA0305A5FA8CF5002DE8D0C7
:100400002DBAB5FA85F424F0070423FA04F122FA90
:1004100004F202F0FF0001F0FF01FDE80445A0EB4B
:10042000010070474FEAC40420F0030050F8082B85
:1004300021F0030151F8083B0CFA04F462EA0402CB
:1004400063EA0403C9E710F003041DD0A1EB040123
:1004500020F00300E40750F8042B06D012D28B786A
:100460005FFAA2F4E41A06D12BB1CB785FFAB2F4AA
:10047000E41A00D133B920465DF8104B7047A2EB67
:100480000300704701F1040150F8042BCC0721F060
:10049000030151F8043B48D824D222F07F4482FA69
:1004A0004CF594EA1325A5FA8CF50AD165B951F8F3
:1004B000043B84EA0204B4EB036F0ED150F8042B22
:1004C000EBE74FEA132355E035F07F454DD108782F
:1004D000FDE80445C0F1000070474FEA126203F0E6
:1004E000FF0347E002EA1C4482FA4CF594EA134504
:1004F000A5FA8CF50AD165B951F8043B84EA0204E7
:10050000B4EB034F0CD150F8042BEBE74FEA134345
:1005100030E015EA1C4528D10B884FEA124229E049
:100520004FEA124203EA1C4324E002F0FF0482FA7D
:100530004CF594EA1365A5FA8CF50AD165B951F822
:10054000043B84EA0204B4EB032F09D150F8042BD6
:10055000EBE74FEA13630DE015F0FF0F05D10B68D1
:100560004FEA122223F07F4304E04FF00000FDE841
:100570000445704712BA1BBA82FA4CF482EA0304AB
:10058000A4FA8CF5B5FA85F402FA04F203FA04F33E
:100590004FEA1260FDE80445A0EB1360704700BF0E
:1005A00001F0FF01102A2BDB10F0070F08D010F824
:1005B000013B013A8B422DD010F0070F42B3F6D128
:1005C000F0B441EA012141EA014122F007047FF041
:1005D00000070023F0E80256083C85EA010586EA98
:1005E000010685FA47F5A3FA87F586FA47F6A5FAD4
:1005F00087F68EB9EED1F0BC01F0FF0102F00702E0
:1006000032B110F8013B013A83EA010313B1F8D18A
:100610000020704701387047002D06BF354603386B
:10062000073815F0010F07D1013015F4807F02BFA4
:10063000013015F4C03F0130F0BC0138704700BFF5
:10064000844641EA000313F003036DD1403A41D3DD
:1006500051F8043B40F8043B51F8043B40F8043B9C
:1006600051F8043B40F8043B51F8043B40F8043B8C
:1006700051F8043B40F8043B51F8043B40F8043B7C
:1006800051F8043B40F8043B51F8043B40F8043B6C
:1006900051F8043B40F8043B51F8043B40F8043B5C
:1006A00051F8043B40F8043B51F8043B40F8043B4C
:1006B00051F8043B40F8043B51F8043B40F8043B3C
:1006C00051F8043B40F8043B51F8043B40F8043B2C
:1006D000403ABDD2303211D351F8043B40F8043BCC
:1006E00051F8043B40F8043B51F8043B40F8043B0C
:1006F00051F8043B40F8043B103AEDD20C3205D3DC
:1007000051F8043B40F8043B043AF9D2043208D0D3
:10071000D2071CBF11F8013B00F8013B01D30B8845
:1007200003806046704700BF082A13D38B078DD023
:1007300010F003038AD0C3F10403D21ADB071CBFF5
:1007400011F8013B00F8013B80D331F8023B20F85F
:10075000023B7BE7043AD9D3013A11F8013B00F898
:10076000013BF9D20B7803704B7843708B78837020
:10077000604670470000000000000000000000001C
:1007800030B490F800F020F007016FF0000C10F08A
:10079000070491F820F040F048804FF000046FF01B
:1007A0000700D1E9002391F840F000F1080082FA37
:1007B0004CF2A4FA8CF283FA4CF3A2FA8CF34BBB02
:1007C000D1E9022382FA4CF200F10800A4FA8CF27B
:1007D00083FA4CF3A2FA8CF3E3B9D1E9042382FA49
:1007E0004CF200F10800A4FA8CF283FA4CF3A2FA5E
:1007F0008CF37BB9D1E9062301F1200182FA4CF296
:1008000000F10800A4FA8CF283FA4CF3A2FA8CF3FC
:10081000002BC6D0002A04BF04301A4612BAB2FA1E
:1008200082F200EBD20030BC7047D1E9002304F023
:100830000305C4F100004FEAC50514F0040F91F858
:1008400040F00CFA05F562EA05021CBF63EA0503F5
:1008500062464FF00004AAE781F0004102E000BFC9
:1008600083F0004330B54FEA41044FEA430594EA70
:10087000050F08BF90EA020F1FBF54EA000C55EAAB
:10088000020C7FEA645C7FEA655C00F0E2804FEA7C
:100890005454D4EB5555B8BF6D420CDD2C4480EA5E
:1008A000020281EA030382EA000083EA010180EA8E
:1008B000020281EA0303362D88BF30BD11F0004FDC
:1008C0004FEA01314FF4801C4CEA113102D0404212
:1008D00061EB410113F0004F4FEA03334CEA13334D
:1008E00002D0524263EB430394EA050F00F0A78065
:1008F000A4F10104D5F1200E0DDB02FA0EFC22FA60
:1009000005F2801841F1000103FA0EF2801843FA53
:1009100005F359410EE0A5F120050EF1200E012A44
:1009200003FA0EFC28BF4CF0020C43FA05F3C01882
:1009300051EBE37101F0004507D54FF0000EDCF1FB
:10094000000C7EEB00006EEB0101B1F5801F1BD3A4
:10095000B1F5001F0CD349085FEA30004FEA3C0CA8
:1009600004F101044FEA445212F5800F80F09A809E
:10097000BCF1004F08BF5FEA500C50F1000041EBA2
:10098000045141EA050130BD5FEA4C0C404141EBA6
:100990000101013C28BFB1F5801FE9D291F0000FA1
:1009A00004BF01460020B1FA81F308BF2033A3F150
:1009B0000B03B3F120020CDA0C3208DD02F1140C47
:1009C000C2F10C0201FA0CF021FA02F10CE002F182
:1009D0001402D8BFC2F1200C01FA02F120FA0CFC7B
:1009E000DCBF41EA0C019040E41AA2BF01EB0451C4
:1009F000294330BD6FEA04041F3C1CDA0C340EDCC2
:100A000004F11404C4F1200220FA04F001FA02F304
:100A100040EA030021FA04F345EA030130BDC4F1C2
:100A20000C04C4F1200220FA02F001FA04F340EAB7
:100A30000300294630BD21FA04F0294630BD94F068
:100A4000000F83F4801306BF81F480110134013D4F
:100A50004EE77FEA645C18BF7FEA655C29D094EAC0
:100A6000050F08BF90EA020F05D054EA000C04BF3E
:100A70001946104630BD91EA030F1EBF0021002029
:100A800030BD5FEA545C05D14000494128BF41F0C8
:100A9000004130BD14F580043CBF01F5801130BD2C
:100AA00001F0004545F0FE4141F470014FF00000B7
:100AB00030BD7FEA645C1ABF194610467FEA655C68
:100AC0001CBF0B46024650EA013406BF52EA03350A
:100AD00091EA030F41F4002130BD00BF90F0000FF8
:100AE00004BF0021704730B54FF4806404F1320434
:100AF0004FF000054FF0000150E700BF90F0000FED
:100B000004BF0021704730B54FF4806404F1320413
:100B100010F0004548BF40424FF000013EE700BFE3
:100B200042004FEAE2014FEA31014FEA02701FBF73
:100B300012F07F4393F07F4F81F06051704732F0A5
:100B40007F4208BF704793F07F4F04BF41F40021FC
:100B5000704730B54FF4607401F0004521F000415A
:100B60001CE700BF50EA010208BF704730B54FF0E4
:100B700000050AE050EA010208BF704730B511F0E5
:100B8000004502D5404261EB41014FF4806404F11D
:100B900032045FEA915C3FF4D8AE4FF003025FEAA3
:100BA000DC0C18BF03325FEADC0C18BF033202EB27
:100BB000DC02C2F1200300FA03FC20FA02F001FA81
:100BC00003FE40EA0E0021FA02F11444BDE600BF24
:100BD00080F0004002E000BF81F0004142001FBFF2
:100BE0005FEA410392EA030F7FEA226C7FEA236CFB
:100BF0006AD04FEA1262D2EB1363C1BFD2184140F0
:100C000048404140B8BF5B42192B88BF704710F085
:100C1000004F40F4000020F07F4018BF404211F028
:100C2000004F41F4000121F07F4118BF494292EA90
:100C3000030F3FD0A2F1010241FA03FC10EB0C00BC
:100C4000C3F1200301FA03F100F0004302D5494249
:100C500060EB4000B0F5000F13D3B0F1807F06D3F6
:100C600040084FEA310102F10102FE2A51D2B1F1EE
:100C7000004F40EBC25008BF20F0010040EA0300E3
:100C80007047490040EB0000013A28BFB0F5000F63
:100C9000EDD2B0FA80FCACF1080CB2EB0C0200FA19
:100CA0000CF0AABF00EBC25052421843BCBFD04068
:100CB0001843704792F0000F81F4000106BF80F4E2
:100CC00000000132013BB5E74FEA41037FEA226CA5
:100CD00018BF7FEA236C21D092EA030F04D092F070
:100CE000000F08BF0846704790EA010F1CBF0020A4
:100CF000704712F07F4F04D1400028BF40F0004001
:100D0000704712F100723CBF00F50000704700F020
:100D1000004343F0FE4040F4000070477FEA226247
:100D200016BF08467FEA23630146420206BF5FEA18
:100D3000412390EA010F40F4800070474FF0000318
:100D400004E000BF10F0004348BF40425FEA000CDF
:100D500008BF704743F0964301464FF000001CE087
:100D600050EA010208BF70474FF000030AE000BFDD
:100D700050EA010208BF704711F0004302D540421B
:100D800061EB41015FEA010C02BF8446014600208D
:100D900043F0B64308BFA3F18053A3F50003BCFAA8
:100DA0008CF2083AA3EBC25310DB01FA02FC634455
:100DB00000FA02FCC2F12002BCF1004F20FA02F25C
:100DC00043EB020008BF20F00100704702F120024F
:100DD00001FA02FCC2F1200250EA4C0021FA02F2B0
:100DE00043EB020008BF20EADC70704753B94AB9F0
:100DF000002908BF00281CBF4FF0FF314FF0FF3023
:100E000000F0E2B8ADF1080C6DE904CE44F07CF8D6
:100E1000DDF804E0DDE9022304B0704700F134019D
:100E200091E838009C46A6464CF8045D90E8FF0F18
:100E3000E54600BD90EC210B704700BF80EC210B14
:100E4000704700BF90EC200B704700BF80EC200B78
:100E5000704700BFD0EC200B704700BFC0EC200BE8
:100E6000704700BFF0EC0201F0EC0211F0EC02213F
:100E7000F0EC0231F0EC0241F0EC0251F0EC0261D6
:100E8000F0EC0271F0EC0281F0EC0291F0EC02A1C6
:100E9000F0EC02B1F0EC02C1F0EC02D1F0EC02E1B6
:100EA000F0EC02F1704700BFE0EC0201E0EC02114F
:100EB000E0EC0221E0EC0231E0EC0241E0EC025116
:100EC000E0EC0261E0EC0271E0EC0281E0EC029106
:100ED000E0EC02A1E0EC02B1E0EC02C1E0EC02D1F6
:100EE000E0EC02E1E0EC02F1704700BFB0FC0181F0
:100EF000B0FC0191B0FC01A1B0FC01B1704700BF92
:100F0000A0FC0181A0FC0191A0FC01A1A0FC01B109
:100F1000704700BFEC4600B52DE900502DE9FF1FDA
:100F20004FF000032DE90C0001A944F0A7FADDF809
:100F300040E012B0704700BFEC4600B52DE900500C
:100F40002DE9FF1F4FF000032DE90C0001A944F02B
:100F5000D1FADDF840E012B0704700BFEC4600B5B2
:100F60002DE900502DE9FF1F4FF000032DE90C0083
:100F700001A944F0E1FADDF840E012B0704700BF8B
:100F8000EC4600B52DE900502DE9FF1F4FF000039E
:100F90002DE90C0001AB44F0A5FADDF840E012B0F9
:100FA000704700BFEC4600B52DE900502DE9FF1F4A
:100FB0004FF000032DE90C0001AA44F01DFBDDF801
:100FC00040E012B0704700BF704700BF0348044BB9
:100FD000834202D0034B03B118477047C007002477
:100FE000C0070024000000000548064B1B1AD90F5B
:100FF00001EBA301491002D0034B03B1184770471E
:10100000C0070024C00700240000000010B5064CF3
:10101000237843B9FFF7DAFF044B13B10448AFF369
:1010200000800123237010BDC08100240000000057
:101030007460040808B5054B1BB105490548AFF3BA
:101040000080BDE80840FFF7CFBF00BF00000000F0
:10105000C4810024746004087047043870477047E6
:1010600010B50446102136F043F9204610BDA0F11A
:101070000400F5E784B0F0B58BB0074611AE14ADAF
:101080006C4686E80E000FCD0FC40FCD0FC495E857
:10109000030084E8030096E80E00F86802F01CF8EC
:1010A0000BB0BDE8F04004B07047A0F10400FFF7BA
:1010B000E1BF84B037B507AC054684E80E00DDE932
:1010C0000A018DE8030094E80E00E86800F0F6FEDF
:1010D00003B0BDE8304004B07047A0F10400FFF752
:1010E000E8BF84B0F0B587B007460DAE10AD6C46D2
:1010F00086E80E000FCD0FC42B682360F86896E8D1
:101100000E0001F0EBF807B0BDE8F04004B0704706
:10111000A0F10400FFF7E5BF84B013B505AC84E887
:101120000E00089B0093C06894E80E0001F016F9C9
:1011300002B0BDE8104004B07047A0F10400FFF712
:10114000EBBF84B013B505AC84E80E00BDF82030C9
:10115000ADF80030C06894E80E0001F05BF902B011
:10116000BDE8104004B07047A0F10400FFF7E9BFEC
:1011700082B0C0686B4683E8060093E8060002B0C0
:1011800001F088B9A0F10400FFF7F2BF82B0C06897
:101190006B4683E8060093E8060002B001F0BEB992
:1011A000A0F10400FFF7F2BF84B013B505AC84E8EA
:1011B0000E00089B0093C06894E80E0001F0D6F979
:1011C00002B0BDE8104004B07047A0F10400FFF782
:1011D000EBBF82B0C0686B4683E8060093E8060068
:1011E00002B001F099BBA0F10400FFF7F2BF84B098
:1011F000F0B58BB0074611AE14AD6C4686E80E0014
:101200000FCD0FC40FCD0FC42B682360F86896E88C
:101210000E0000F039FF0BB0BDE8F04004B070479D
:10122000A0F10400FFF7E3BF82B0C0686B4683E81B
:10123000060093E8060002B001F0EABBA0F104004A
:10124000FFF7F2BF82B0C0686B4683E8060093E800
:10125000060002B001F058BCA0F10400FFF7F2BF95
:1012600082B0C0686B4683E8060093E8060002B0CF
:1012700001F0C6BCA0F10400FFF7F2BF84B030B5A6
:1012800085B0054609AC84E80E000CAB0FCB8DE8A9
:101290000F0094E80E00E86800F03EFA05B0BDE8E3
:1012A000304004B07047A0F10400FFF7E7BF84B0FE
:1012B00030B585B0054609AC84E80E000CAB0FCB09
:1012C0008DE80F0094E80E00E86800F0F0FA05B031
:1012D000BDE8304004B07047A0F10400FFF7E7BF5D
:1012E00084B030B585B0054609AC84E80E000CAB7F
:1012F0000FCB8DE80F0094E80E00E86800F0A3FB28
:1013000005B0BDE8304004B07047A0F10400FFF71D
:10131000E7BF82B0C0686B4683E8060093E806002A
:1013200002B001F0E9BCA0F10400FFF7F2BF82B007
:10133000C0686B4683E8060093E8060002B001F03F
:1013400055BDA0F10400FFF7F2BF84B0C06804B03F
:1013500001F0C8BDA0F10400FFF7F7BF10B485B0DD
:10136000C06801AC84E80E0094E80E0005B05DF89A
:10137000044B01F00DBEA0F10400FFF7EFBF84B0F5
:1013800037B507AC054684E80E00DDE90A018DE8B3
:10139000030094E80E00E86801F03AFE03B0BDE8EF
:1013A000304004B07047A0F10400FFF7E8BF000030
:1013B0000022C1608260024A02606C324260704763
:1013C0002461040884B037B507AC054684E80E00F4
:1013D000DDE90A010090ADF80410A86894E80E0059
:1013E00004F0E2F903B0BDE8304004B0704782B0C9
:1013F00080686B4683E8060093E8060002B004F0BC
:10140000E4B970477047704770477047704770B4D1
:1014100045680346C4689B68661005EB6400E407F2
:1014200044BFAC59E35870BC18470346406830B11C
:101430009A681AB9D86800F0010070470120704717
:1014400030B444680346C2689B68551004EB6200E0
:10145000D20748BF625930BC48BFD358184703462B
:10146000406830B19A681AB9D86800F00100704736
:101470000120704710B50446102135F039FF204691
:1014800010BD10B50446102135F032FF204610BDC6
:1014900000F5E04313B593F87C240446D3F88C148C
:1014A00003F27C4382F00102D8681A700090ADF814
:1014B0000410E06B0ECBFFF785FF02B010BD0000FB
:1014C000034B10B5044603600CF0E2FE204610BD4D
:1014D0001C81040810B50446FFF7F2FF47F264517F
:1014E000204635F005FF204610BD00F5E04313B55A
:1014F00093F87C2404467AB193F8852403F27C4364
:10150000D86882F0010219695A720090ADF804108F
:10151000E06B0ECBFFF756FF02B010BD00F5E043C5
:1015200013B593F87C2404467AB193F8862403F229
:101530007C43D86882F0010219699A720090ADF874
:101540000410E06B0ECBFFF73DFF02B010BD00F5BD
:10155000E04313B593F87C2404467AB193F88724CA
:1015600003F27C43D86882F001021969DA720090B4
:10157000ADF80410E06B0ECBFFF724FF02B010BDF6
:1015800000F5E04313B593F87C240446B2B100F5AE
:101590000362914214D000F507628A1A5142514108
:1015A000490083F87E1403F27C43D86819690090DF
:1015B000ADF80410E06B0ECBFFF704FF02B010BDD6
:1015C0000121EEE700F5E04313B593F87C240446CF
:1015D000CAB100F62C12914217D000F66C1291425B
:1015E00015D000F6AC128A1A5142514183F87D148D
:1015F00003F27C43D86819690090ADF80410E06BE1
:101600000ECBFFF7DFFE02B010BD0021EEE7022196
:10161000ECE700F5E04313B593F87C240446F2B1FF
:1016200000F62C2291421CD000F66C2291421AD076
:1016300000F6AC22914218D000F6EC2291420CBF89
:101640000321002183F8801403F27C43D8681969D0
:101650000090ADF80410E06B0ECBFFF7B3FE02B0C4
:1016600010BD0021EEE70121ECE70221EAE70000CE
:10167000012908D00229054B18BF4FF0FF338362C0
:1016800003685B691847024BF9E700BF00BFFFFF23
:1016900076E600FF10B5044604F0F8FC174B184935
:1016A000236004F5E043174AC3F8AC14C3F8BC1434
:1016B000C3F8CC1414491548C3F8D4141449C3F81A
:1016C000B4240022C3F8DC141249C3F8C404204631
:1016D000C3F8B044C3F8B824C3F8C044C3F8C8245E
:1016E000C3F8D044C3F8D824C3F8E044C3F8E414E2
:1016F000C3F8E824C3F8EC2410BD00BF1C81040823
:10170000EC8004088115000813160008C5150008B0
:1017100004810408E11D000884B010B5044603A844
:1017200080E80E0004F502509DF80C101C30FFF705
:101730009FFF04F5EB509DF80D101030FFF798FF58
:1017400004F5EF509DF80E100430FFF791FF04F5FB
:10175000F2509DF80F101830FFF78AFF04F5F6508D
:101760009DF810100C30FFF783FF9DF8111004F561
:10177000FA50FFF77DFF04F5FD509DF8121014306C
:10178000FFF776FF04F500509DF813102830FFF79F
:101790006FFF04F504509DF814101030FFF768FF38
:1017A00004F506509DF815100430FFF761FF04F5AD
:1017B00007509DF816103830FFF75AFF04F509500E
:1017C0009DF817102C30FFF753FF04F50B509DF8D0
:1017D00018102030FFF74CFF04F50D509DF819103C
:1017E0001430FFF745FF04F50F509DF81A1008302C
:1017F000FFF73EFF04F510509DF81B103C30FFF73B
:1018000037FF04F512509DF81C103030FFF730FF01
:1018100004F514509DF81D102430FFF729FF04F53E
:1018200016509DF81E101830FFF722FF04F51850CF
:101830009DF81F100C30FFF71BFF9DF8201004F5DA
:101840001A50FFF715FF04F51B509DF82110343096
:10185000FFF70EFF04F51D509DF822102830FFF70A
:1018600007FF04F51F509DF823101C30FFF700FF01
:1018700004F521509DF824101030FFF7F9FE04F50F
:1018800023509DF825100430FFF7F2FE04F5245094
:101890009DF826103830FFF7EBFE04F5E7509DF871
:1018A00027101C30BDE8104004B0FFF7E1BE84B043
:1018B00010B5044603A880E80E0004F56F509DF8AB
:1018C0000C100830FFF7D4FE04F562509DF80D109F
:1018D0001C30FFF7CDFE04F564509DF80E1010305B
:1018E000FFF7C6FE04F566509DF80F100430FFF7B1
:1018F000BFFE04F567509DF810103830FFF7B8FEB2
:1019000004F569509DF811102C30FFF7B1FE04F575
:101910006B509DF812102030FFF7AAFE04F56D50B1
:101920009DF813101430FFF7A3FE04F570509DF8D6
:1019300014103C30FFF79CFE04F572509DF8151012
:101940003030FFF795FE04F574509DF816102430E2
:10195000FFF78EFE04F576509DF817101830FFF74C
:1019600087FE04F578509DF818100C30FFF780FEC4
:101970009DF8191004F57A50FFF77AFE04F57B50B4
:101980009DF81A103430FFF773FE04F57D509DF872
:101990001B102830FFF76CFE04F57F509DF81C10DB
:1019A0001C30FFF765FE04F580409DF81D10503097
:1019B000FFF75EFE04F581409DF81E104430FFF7EE
:1019C00057FE04F582409DF81F103830FFF750FE97
:1019D00004F583409DF820102C30FFF749FE04F5F4
:1019E00084409DF821102030FFF742FE04F5854029
:1019F0009DF822101430FFF73BFE04F586409DF859
:101A000023100830FFF734FE04F586409DF82410BB
:101A10007C30FFF72DFE04F587409DF825107030CF
:101A2000FFF726FE04F588409DF826106430FFF786
:101A30001FFE04F560509DF827102830BDE81040C7
:101A400004B0FFF715BE84B038B5044605A804F508
:101A5000285580E80E0004F5355020359DF8141007
:101A60002830FFF705FE9DF815102846FFF700FE09
:101A70009DF81610284604F54455FFF7F9FD04F5C6
:101A80002A509DF8171024351830FFF7F1FD04F5A2
:101A90002C509DF818101030FFF7EAFD04F52E5079
:101AA0009DF819100830FFF7E3FD9DF81A1004F5B2
:101AB0003050FFF7DDFD04F531509DF81B10383034
:101AC000FFF7D6FD04F533509DF81C103030FFF7BA
:101AD000CFFD04F537509DF81D102030FFF7C8FDED
:101AE00004F539509DF81E101830FFF7C1FD04F5BC
:101AF0003D509DF81F100830FFF7BAFD9DF82010EB
:101B000004F53F50FFF7B4FD04F540509DF8211057
:101B10003830FFF7ADFD04F551509DF822102C3000
:101B2000FFF7A6FD9DF823102846FFF7A1FD9DF8BD
:101B300024102846FFF79CFD04F546509DF825101B
:101B40001C30FFF795FD04F548509DF82610143021
:101B5000FFF78EFD04F54A509DF827100C30FFF773
:101B600087FD04F54C509DF828100430FFF780FDE8
:101B700004F54D509DF829103C30FFF779FD04F530
:101B80004F509DF82A103430FFF772FD04F5535082
:101B90009DF82B102430FFF76BFD04F555509DF890
:101BA0002C101C30FFF764FD04F559509DF82D10E2
:101BB0000C30FFF75DFD04F55B509DF82E100430EE
:101BC000FFF756FD04F55C509DF82F103C30BDE842
:101BD000384004B0FFF74CBD38B5044603F0B4FEFE
:101BE00000237D4A04F5DC40052104F5E04566301C
:101BF00026F0AFFD04F5D6501C3024F07FFE04F52E
:101C0000DC400023744A05217A3026F0A2FD04F559
:101C1000DB50143024F072FE04F5DD4000236E4AE0
:101C200005210E3026F095FD04F5E0500C3024F02F
:101C300065FE04F5DD400023674A0521183026F0D3
:101C400088FD04F5E250183024F058FE04F5DD401C
:101C5000D5F8EC340A21614A223026F07AFD04F5E9
:101C60008A40203024F04AFE04F5DD40D5F8F034F7
:101C70000A215A4A363026F06CFD04F58A406C3051
:101C800024F03CFE04F5E94304F5EA422C33283203
:101C9000C4F8283804F5E9433C33C4F8243904F582
:101CA000E9434C33C4F8243A04F535532833C5F8D6
:101CB000F43404F528532033C5F8F83404F52A53D6
:101CC0001833C5F8FC3404F52C531033C5F800352F
:101CD00004F52E530833C5F8043504F53053C5F820
:101CE000083504F531533833C5F80C3504F5335352
:101CF0003033C5F8103504F537532033C5F81435A3
:101D000004F539531833C5F8183504F53B5310332F
:101D1000C5F81C3504F53D530833C5F8203504F5E6
:101D20003F53C5F8243504F540533833C5F82835FA
:101D300004F551532C33C5F82C3504F544532433A2
:101D4000C5F8303504F546531C33C5F8343504F571
:101D500048531433C5F8383504F54A530C33C5F8E5
:101D60003C3504F54C530433C5F8403504F54D5368
:101D70003C33C5F8443504F54F533433C5F8483582
:101D800004F553532433C5F84C3504F555531C332F
:101D9000C5F8503504F557531433C5F8543504F5D8
:101DA00059530C33C5F8583504F55B530433C5F863
:101DB0005C3504F55C533C33C5F8603504F5E94304
:101DC00004F5E94470335C3453F8041FCC62934249
:101DD000996BCC62F8D138BDEC610408EF6104085E
:101DE000F8B513790446002B65D100F5E94004F5F8
:101DF000E0450127703050F8042F91420CD1D5F8FE
:101E0000EC2407FA03F622FA03FC1CF0010F14BFBE
:101E1000B2433243C5F8EC2401330E2BEBD104F569
:101E2000EA40002204F5E0450127283050F8043F3D
:101E300099420CD1D5F8F03407FA02F623FA02FCE5
:101E40001CF0010F14BFB3433343C5F8F034013223
:101E50000E2AEBD104F5E04504F5DD40164A0A21CF
:101E6000D5F8EC34223026F074FC04F58A4020309A
:101E700024F044FD04F5DD40D5F8F0340A210E4A83
:101E8000363026F066FC04F58A406C3024F036FDCE
:101E900095F87C347BB1D5F8EC34E06BC5F8A4340C
:101EA000D5F8F034D5F8A4141A46C5F8A834BDE81E
:101EB000F840FFF79CBAF8BDEF61040884B0F8B5AC
:101EC00000F5E04507AE044605F5926786E80E008A
:101ED0000FCE0FC7336804F52B769DF821203B60A9
:101EE0003046BDF81C309DF820105BBA85F881247F
:101EF000BDF82220A5F87C349DF81E30A5F8822478
:101F000085F87E349DF81F3085F87F14003985F8F8
:101F100080349DF8243018BF012185F884349DF861
:101F2000253085F88B34BDF82630A5F88C3420F0A8
:101F30008EFC304624F0E2FC95F8811404F53976E5
:101F40000039304618BF012120F081FC304624F0D2
:101F5000D5FC95F8821404F563760039304618BF35
:101F6000012120F074FC304624F0C8FC95F884145C
:101F700004F547760039304618BF012120F067FC90
:101F8000304624F0BBFC95F8831404F555760039EF
:101F9000304618BF012120F05AFC304624F0AEFC38
:101FA00095F88B1404F2AC660039304618BF012155
:101FB00020F04DFC304624F0A1FC95F88C1404F27E
:101FC00074760039304618BF012120F040FC3046BD
:101FD00024F094FC95F87D14A1B9012104F62C108D
:101FE00021F06EFC95F87E14B9B9012104F50B605F
:101FF00021F066FC95F88034032B1ED8DFE803F04F
:1020000018363A3E012902D104F66C10E8E702299D
:10201000E8D1012104F6AC10E2E7012902D104F570
:102020000360E5E70229E5D1012104F50760DFE758
:10203000012104F62C2021F043FC04F5D6409DF844
:102040002830104A0A21463026F083FB04F5D6409A
:102050009DF829300A210B4A5A3026F07AFB04F603
:102060004C40BDE8F84004B024F048BC012104F61F
:102070006C20E0E7012104F6AC20DCE7012104F646
:10208000EC20D8E7EC61040884B037B59DED0D7AFB
:10209000044607A8B7EEC77A80E80E0004F5D840DA
:1020A000844A0A2136308DED007B26F052FB04F580
:1020B0008A50083024F022FC9DED0E7A04F5D840B9
:1020C0007C4AB7EEC77A0A214A308DED007B26F0B4
:1020D00040FB04F58C50143024F010FC9DED0F7A79
:1020E00004F5D840734AB7EEC77A0A215E308DED09
:1020F000007B26F02EFB04F58F5024F0FFFB9DEDB6
:10210000107A04F5D8406B4AB7EEC77A0A217230CC
:102110008DED007B26F01DFB04F591500C3024F072
:10212000EDFB9DED117A04F5D940624AB7EEC77A0E
:102130000A2106308DED007B26F00BFB04F5935051
:10214000183024F0DBFB9DED127A04F5D940594A92
:10215000B7EEC77A0A211A308DED007B26F0F9FA26
:1021600004F59650043024F0C9FB04F5DB400C9BC9
:102170000A21504A5A3026F0ECFA04F5C0500830D3
:1021800024F0BCFB04F5DA40079B7630002B64D0CA
:10219000494B0A21494A26F0DCFA494B04F580559F
:1021A00004F5B450C5F8BC360C3024F0A7FB04F598
:1021B000DB40099B4630002B57D0424B0A213F4A57
:1021C00026F0C7FA3E4B04F5BD50C5F8EC371C307D
:1021D00024F094FB04F5DB40089B3230002B4CD0FC
:1021E000384B0A21354A26F0B4FA354B04F5BB507A
:1021F000C5F8A037103024F081FB0B9B04F5DB40C1
:10220000012B00F10A0040D0022B40D12E4B2B4A6B
:102210000A2126F09EFA2A4B04F5B650C5F8083775
:10222000183024F06BFB0A9B04F5DB40012B00F116
:102230001E0034D0022B34D1234B204A0A2126F031
:1022400088FA1F4B04F5B950C5F85437043003B071
:10225000BDE8304004B024F051BB1C4B0A21174AA2
:1022600026F077FA4FF0FF3398E7194B0A21134A0B
:1022700026F06FFA4FF0FF33A5E7154B0A210F4AFE
:1022800026F067FA4FF0FF33B0E7124BBFE7124B6F
:102290000A210A4A26F05DFA4FF0FF33BCE70D4BE6
:1022A000CBE70D4B0A21054A26F053FA4FF0FF33D6
:1022B000C8E700BFEC610408547F0408F261040819
:1022C00076E600FF887F0408A47F0408747F040872
:1022D000947F0408B07F0408807F040884B038B578
:1022E000044605A81C4D80E80E0004F5DC400B46B2
:1022F0002A460521663026F02CFA04F5D6501C300B
:1023000024F0FCFA04F5DC40069B2A4605217A30CD
:1023100026F01FFA04F5DB50143024F0EFFA04F530
:10232000DD40079B2A4605210E3026F012FA04F5FF
:10233000E0500C3024F0E2FA04F5DD40089B2A4618
:102340000521183026F005FA04F5E250BDE83840C2
:10235000183004B024F0D2BAEC61040884B0F8B5A7
:10236000044607A82A4DBDF92A6080E80E0004F54E
:10237000D740BDF926302A460A213E30BDF92270E9
:1023800026F0E7F904F6FC6024F0B8FA04F5D7402B
:102390003B462A460A21523026F0DBF904F6487003
:1023A00024F0ACFA04F5D74033462A460A216630B9
:1023B00026F0CFF904F6947024F0A0FA04F5D74083
:1023C000BDF920302A460A217A3026F0C2F904F5F8
:1023D0007E6024F093FA04F5D8403B462A460A2151
:1023E0000E3026F0B6F904F581500C3024F086FA50
:1023F00004F5D84033462A460A21223026F0A9F9AE
:1024000004F58350BDE8F840183004B024F076BAE3
:10241000EC61040884B038B5044605A81C4D80E87A
:102420000E0004F5D640BDF914302A460A216E305C
:1024300026F08FF904F6CC5024F060FA04F5D7406A
:10244000BDF920302A460A21023026F082F904F62E
:10245000186024F053FA04F5D740BDF81C302A4622
:102460000A21163026F075F904F6646024F046FA65
:1024700004F5D740BDF91E302A460A212A3026F03D
:1024800068F904F56B60BDE8384004B024F036BA52
:10249000EC61040837B504461F4D02AB00F5D94086
:1024A00003E906007E30BDF800302A46032126F0FD
:1024B00050F904F5A450183024F020FA04F5DA405D
:1024C000BDF802302A460321123026F042F904F505
:1024D000A750043024F012FA04F5DA40BDF80630B3
:1024E0002A460A21263026F034F904F5A950103086
:1024F00024F004FA04F5DA40BDF804302A460A2133
:102500003A3026F026F904F5AB501C3003B0BDE894
:10251000304024F0F3B900BFEC61040837B504463D
:1025200002AB114D00F5DA4003E906006230BDF858
:1025300000302A460A2126F00CF904F5B050143078
:1025400024F0DCF904F5DA40BDF802302A460A210D
:102550004E3026F0FEF804F5AE50083003B0BDE86A
:10256000304024F0CBB900BFEC61040884B073B5EF
:10257000044607A8354D364E80E80E00BDF81C30E5
:1025800004F5DC402A460A2107EE903A2A3001ABD6
:10259000F8EE677ACDED017A26F002FB04F5CC5017
:1025A000183024F0ABF9BDF81E3004F5DC402A46A3
:1025B00007EE903A0A2101AB5230F8EE677ACDED82
:1025C000017A26F0EDFA04F5D150103024F096F996
:1025D00004F5D940BDF8203032460A21423026F0B9
:1025E000B8F804F59C50083024F088F904F5D94077
:1025F000BDF8223032460A216A3026F0AAF804F5E6
:10260000A15024F07BF9099B04F5D9402A460A2100
:1026100001932E3001AB26F0C3FA04F599501C301B
:1026200024F06CF90A9B04F5D9402A4601930A214B
:1026300001AB563026F0B4FA04F59E50143002B0C7
:10264000BDE8704004B024F059B900BFF56104083A
:10265000EC61040800F5E04313B593F87C240446CC
:102660008AB193F87F2403F27C43D86882F0010298
:102670001969DA700090ADF80410E06B0ECBFEF72C
:10268000A1FE02B010BD93F8941400F52B7400392C
:10269000204618BF012120F0DAF8204602B0BDE83C
:1026A000104024F02BB900F5E04313B593F87C24D7
:1026B00004468AB193F8812403F27C43D86882F0FF
:1026C000010219695A710090ADF80410E06B0ECB4D
:1026D000FEF778FE02B010BD93F8951400F539743A
:1026E0000039204618BF012120F0B1F8204602B081
:1026F000BDE8104024F002B900F5E04313B593F8AB
:102700007C2404468AB193F8822403F27C43D8687F
:1027100082F0010219699A710090ADF80410E06B23
:102720000ECBFEF74FFE02B010BD93F8961400F5E5
:1027300063740039204618BF012120F088F8204634
:1027400002B0BDE8104024F0D9B800F5E04313B55D
:1027500093F87C2404468AB193F8842403F27C43E2
:10276000D86882F0010219691A720090ADF804105D
:10277000E06B0ECBFEF726FE02B010BD93F8981466
:1027800000F547740039204618BF012120F05FF89A
:10279000204602B0BDE8104024F0B0B800F5E04398
:1027A00013B593F87C2404468AB193F8832403F28A
:1027B0007C43D86882F001021969DA710090ADF8A3
:1027C0000410E06B0ECBFEF7FDFD02B010BD93F8D8
:1027D000971400F555740039204618BF012120F0E8
:1027E00036F8204602B0BDE8104024F087B800F566
:1027F000E04313B593F87C2404468AB193F88B2404
:1028000003F27C43196982F00102DA73D868ADF8EB
:1028100004100090E06B0ECBFEF7D4FD02B010BDAB
:1028200093F8991400F2AC640039204618BF0121D6
:1028300020F00DF8204602B0BDE8104024F05EB84C
:1028400000F5E04313B593F87C2404468AB193F86D
:102850008C2403F27C43D86882F001021A7419694F
:102860000090ADF80410E06B0ECBFEF7ABFD02B0AC
:1028700010BD93F89A1400F274740039204618BF02
:1028800001211FF0E4FF204602B0BDE8104024F013
:1028900035B800F5E04310B593F87C2462B1D3F865
:1028A000EC24C06BC3F8A424D3F8A824D3F8A41450
:1028B000BDE81040FEF79BBDD3F8A41400F58C448E
:1028C0000039204618BF01211FF0C1FF2046BDE896
:1028D000104024F013B800F5E04310B593F87C24C1
:1028E00052B1D3F8F024D3F8A414C06BC3F8A824D1
:1028F000BDE81040FEF77BBDD3F8A81400F58D4469
:102900000039204618BF01211FF0A1FF2046BDE875
:10291000104023F0F3BF000037B504463B4D02AB37
:1029200000F5E34003E9060042309DF800302A46F6
:102930000A2125F00EFF04F5A6403C3023F0DEFF0F
:1029400004F5E3409DF801302A460A212E3025F097
:1029500000FF04F5A540703023F0D0FF04F5E240FD
:102960009DF802302A460A21223025F0F2FE04F5B5
:10297000A1405C3023F0C2FF04F5E1409DF8033034
:102980002A460A213E3025F0E4FE04F59E406030E0
:1029900023F0B4FF04F5E1409DF804302A460A21F3
:1029A0007A3025F0D6FE04F5A040443023F0A6FF8F
:1029B00004F5E1409DF805302A460A21523025F001
:1029C000C8FE04F59F402C3023F098FF04F5E24048
:1029D0009DF806302A460A210E3025F0BAFE04F58D
:1029E000A140103023F08AFF04F5E1409DF8073044
:1029F0002A460A21663025F0ACFE04F59F40783067
:102A000003B0BDE8304023F079BF00BFEC6104089B
:102A100037B504463B4D02AB00F5E44003E9060040
:102A200076309DF800302A460A2125F092FE04F502
:102A3000AB40683023F062FF04F5E1409DF80130BF
:102A40002A460A212A3025F084FE04F59E401430DF
:102A500023F054FF04F5E3409DF802302A460A2192
:102A60006A3025F076FE04F5A740543023F046FF87
:102A700004F5E2409DF803302A460A21363025F05D
:102A800068FE04F5A240283023F038FF04F5E34047
:102A90009DF804302A460A21063025F05AFE04F536
:102AA000A440583023F02AFF04F5E2409DF8053099
:102AB0002A460A214A3025F04CFE04F5A240743023
:102AC00023F01CFF04F5E2409DF806302A460A2157
:102AD000723025F03EFE04F5A4400C3023F00EFFCA
:102AE00004F5E2409DF807302A460A215E3025F0C1
:102AF00030FE04F5A340403003B0BDE8304023F081
:102B0000FDBE00BFEC61040837B504463B4D02AB87
:102B100000F5E44003E9060062309DF800302A46E3
:102B20000A2125F016FE04F5AB401C3023F0E6FE2A
:102B300004F5E3409DF801302A460A21563025F07D
:102B400008FE04F5A740083023F0D8FE04F5E34062
:102B50009DF802302A460A211A3025F0FAFD04F5C4
:102B6000A540243023F0CAFE04F5E3409DF803306D
:102B70002A460A217E3025F0ECFD04F5A8402030DD
:102B800023F0BCFE04F5E4409DF804302A460A21F7
:102B90004E3025F0DEFD04F5AA40503023F0AEFEA5
:102BA00004F5E4409DF805302A460A21123025F04C
:102BB000D0FD04F5A8406C3023F0A0FE04F5E440FD
:102BC0009DF806302A460A213A3025F0C2FD04F568
:102BD000AA40043023F092FE04F5E4409DF807304B
:102BE0002A460A21263025F0B4FD04F5A9403830E4
:102BF00003B0BDE8304023F081BE00BFEC610408A3
:102C000037B504463B4D02AB00F5E74003E906004B
:102C100022309DF800302A460A2125F09AFD04F55D
:102C2000C2407C3023F06AFE04F5E7409DF8013095
:102C30002A460A210E3025F08CFD04F5C2403030C2
:102C400023F05CFE04F5E6409DF802302A460A2196
:102C5000023025F07EFD04F5BE401C3023F04EFE10
:102C600004F5E5409DF803302A460A211E3025F080
:102C700070FD04F5BB40203023F040FE04F5E54034
:102C80009DF804302A460A215A3025F062FD04F5E9
:102C9000BD40043023F032FE04F5E5409DF80530D8
:102CA0002A460A21323025F054FD04F5BB406C3031
:102CB00023F024FE04F5E5409DF806302A460A215B
:102CC0006E3025F046FD04F5BD40503023F016FE71
:102CD00004F5E5409DF807302A460A21463025F0E4
:102CE00038FD04F5BC40383003B0BDE8304023F077
:102CF00005BE00BFEC61040837B504463A4D02AB8F
:102D000000F5E84003E9060056309DF800302A46F9
:102D10000A2125F01EFD04F5C840283023F0EEFD01
:102D20000A2104F5E5409DF801302A46084425F0C3
:102D300010FD04F5BA40543023F0E0FD04F5E740FF
:102D40009DF802302A460A214A3025F002FD04F59A
:102D5000C440143023F0D2FD04F5E6409DF8033062
:102D60002A460A21163025F0F4FC04F5BE406830EE
:102D700023F0C4FD04F5E6409DF804302A460A21FC
:102D8000663025F0E6FC04F5C140183023F0B6FDAE
:102D900004F5E6409DF805302A460A212A3025F040
:102DA000D8FC04F5BF40343023F0A8FD04F5E6401C
:102DB0009DF806302A460A21523025F0CAFC04F557
:102DC000C0404C3023F09AFD04F5E6409DF80730F2
:102DD0002A460A213E3025F0BCFC04F5C04003B071
:102DE000BDE8304023F08ABDEC61040837B50446E5
:102DF0003B4D02AB00F5E84003E9060042309DF888
:102E000000302A460A2125F0A4FC04F5C7405C30B6
:102E100023F074FD04F5E7409DF801302A460A21AD
:102E2000363025F096FC04F5C340483023F066FDAB
:102E300004F5E6409DF802302A460A217A3025F052
:102E400088FC04F5C140643023F058FD04F5E740E8
:102E50009DF803302A460A215E3025F07AFC04F5FD
:102E6000C440603023F04AFD04F5E8409DF804308A
:102E70002A460A212E3025F06CFC04F5C74010309C
:102E800023F03CFD04F5E7409DF805302A460A2171
:102E9000723025F05EFC04F5C5402C3023F02EFD89
:102EA00004F5E8409DF806302A460A211A3025F03C
:102EB00050FC04F5C640443023F020FD04F5E84002
:102EC0009DF807302A460A21063025F042FC04F519
:102ED000C540783003B0BDE8304023F00FBD00BFDF
:102EE000EC61040830B587B00446284D00F5DD409C
:102EF000CDED030AB7EEC00A2A460A214A308DED0D
:102F0000041ACDED051A8DED000B25F022FC9DED88
:102F1000037A04F5DD402A46B7EEC77A0A215E300F
:102F20008DED007B25F015FC9DED047A04F5DD4068
:102F30002A46B7EEC77A0A2172308DED007B25F064
:102F400008FC9DED057A04F5DE402A46B7EEC77A07
:102F50000A2106308DED007B25F0FBFB04F58F4048
:102F6000143023F0CBFC04F58F40603023F0C6FC16
:102F700004F590402C3023F0C1FC04F590407830EB
:102F800007B0BDE8304023F0B9BC00BFF5610408CC
:102F900030B587B004461C4D06A800E90E0004F5C4
:102FA000DE400B46194A0A211A3025F0D2FB9DED6E
:102FB000047A04F5DE402A46B7EEC77A0A212E309D
:102FC0008DED007B25F0C5FB9DED057A04F5DE4017
:102FD0002A46B7EEC77A0A2142308DED007B25F0F4
:102FE000B8FB04F59140443023F088FC04F592408E
:102FF000103023F083FC04F592405C3007B0BDE84C
:10300000304023F07BBC00BFF5610408EC6104088C
:1030100084B037B5044607A82D4D80E80E009DED1D
:10302000077A04F5DE402A460A21B7EEC77A563001
:103030008DED007B25F08DFB9DED087A04F5DE40DB
:103040002A46B7EEC77A0A216A308DED007B25F05B
:1030500080FB9DED097A04F5DE402A46B7EEC77A7B
:103060000A217E308DED007B25F073FB04F5DF40F7
:103070000A9B0A21174A123025F06BFB9DED0B7A53
:1030800004F5DF402A46B7EEC77A0A2126308DEDD7
:10309000007B25F05EFB04F595400C3023F02EFC00
:1030A00004F59440403023F029FC04F5934074303B
:1030B00023F024FC04F59340283023F01FFC04F592
:1030C0009540583003B0BDE8304004B023F016BC42
:1030D000F5610408EC61040884B07FB5044609A8D2
:1030E0000F9E04F69C4580E80E009DF844301BB10D
:1030F000012B21D00D2300E00E2303A92846ADF8B3
:103100000C3020F07AFA284623F0F8FB04F5E14071
:10311000099B0A21A94A163025F01BFB04F59C40A7
:10312000683023F0EBFB04F5E1400A9B02302BB141
:10313000012B1BD0A24B02E00F23DEE7A14BA24ADA
:103140000A2125F006FBA14B04F5804504F59C40BF
:10315000C5F84C3E1C3023F0D1FB04F5E0400B9B3E
:103160006E305BB1012B1FD0954B08E0944B0A21C8
:10317000954A25F0EEFA4FF0FF23E5E7914B924A8E
:103180000A2125F0E6FA914B04F59B40C5F8003E74
:10319000503023F0B3FB04F5E0400C9B5A305BB198
:1031A000012B1FD0864B08E0854B0A21864A25F06B
:1031B000D0FA4FF0FF23E7E7824B834A0A2125F03C
:1031C000C8FA824B04F59B40C5F8B43D043023F0A7
:1031D00095FB04F5E0400D9B46305BB1012B21D0FF
:1031E000774B08E0764B0A21774A25F0B2FA4FF088
:1031F000FF23E7E7734B744A0A2125F0AAFA734BC1
:1032000004F59A40C5F8683D383023F077FB04F5A3
:10321000E0400E9B3230032B00F29980DFE803F090
:103220000A818890664B0A21674A25F092FA4FF08E
:10323000FF23E5E7664B0A21634A25F08AFA4FF03F
:10324000FF33C5F81C3D04F599406C3023F056FB64
:1032500004F5E0400A30002E7FD15E4B0A215A4A25
:1032600025F077FA4FF0FF2304F59840C5F8843C29
:10327000543023F043FB9DED107A04F5E040564AAC
:10328000B7EEC77A0A211E308DED007B25F061FA7A
:1032900004F59940203023F031FB129B002B75D0B0
:1032A000012B7FD004F59840083023F027FB9DEDDB
:1032B000137A04F5DF40494AB7EEC77A0A21623033
:1032C0008DED007B25F045FA04F597403C3023F066
:1032D00015FB9DED147A04F5DF40404AB7EEC77A3E
:1032E0000A214E308DED007B25F033FA04F596402F
:1032F000703023F003FB9DED157A04F5DF40374A6B
:10330000B7EEC77A0A213A308DED007B25F021FA1D
:1033100004F59640243004B0BDE8704004B023F0BA
:10332000EDBA2F4B0A21284A25F013FA2D4B88E7D6
:103330002D4B0A21244A25F00CFA4FF0FF2380E799
:103340002A4B0A21204A25F004FA204B79E7284B22
:103350000A211D4A25F0FDF975E7052E06D8254BF3
:103360000A21194A25F0F5F91E4B7DE70A2E06D8E9
:10337000214B0A21144A25F0ECF9144B74E71F4B3A
:103380000A21114A25F0E5F91D4B6DE704F5DF40F0
:103390000C4B0D4A0A21763025F0DBF90B4BC5F8B2
:1033A000383C7FE704F5DF40164B074A0A217630A8
:1033B00025F0CFF94FF0FF23F1E700BFEC610408DF
:1033C000BC7F0408747F0408F26104080000FFFF5A
:1033D000D47F040848800408FA610408F5610408F1
:1033E000E87F040800A5FFFF10800408548004084B
:1033F000288004086C8004088C800408A4800408D9
:10340000000080FFC88004080022C0F88C217047AB
:1034100030B585B0002504A8089C00E90E00012203
:1034200002A8002119F04CFB236801228D4208BF3D
:103430008342114618BF206002A818BF012519F069
:103440003FFB63680122002908BF83424FF002015D
:1034500018BF606002A818BF012519F031FBA368EE
:103460000322002908BF8342114618BFA06002A8AA
:1034700018BF012519F024FBE3680322002908BFC7
:1034800083424FF0060118BFE06002A818BF012573
:1034900019F016FB23690722002908BF83424FF069
:1034A000090118BF206102A818BF012519F008FB07
:1034B00063690822002908BF83424FF0100118BF3A
:1034C00060610DEB020018BF012519F0F9FA3238DE
:1034D00061F10001FDF744FC94ED067A07EE900AD5
:1034E00008221821B4EE677A0DEB0200F1EE10FA13
:1034F0001CBFC4ED067A012519F0E2FA323861F1F9
:103500000001FDF72DFC94ED077A07EE900A0822E2
:103510002021B4EE677A0DEB0200F1EE10FA1CBF29
:10352000C4ED077A012519F0CBFA323861F10001B8
:10353000FDF716FC94ED087A07EE900A0822282180
:10354000B4EE677A0DEB0200F1EE10FA1CBFC4ED89
:10355000087A012519F0B4FA323861F10001FDF75B
:10356000FFFB94ED097A07EE900A08223021B4EEB1
:10357000677A0DEB0200F1EE10FA1CBFC4ED097A78
:10358000012519F09DFA323861F10001FDF7E8FBE1
:1035900094ED0A7A07EE900A08223821B4EE677A91
:1035A0000DEB0200F1EE10FA1CBFC4ED0A7A012502
:1035B00019F086FA323861F10001FDF7D1FB94ED84
:1035C0000B7A07EE900AB4EE677AF1EE10FA1CBFA0
:1035D0000125C4ED0B7A284605B030BD30B585B065
:1035E000002504A8089C00E90E00032202A800217F
:1035F00019F066FA237801228D4208BF83424FF00A
:10360000030118BF207002A818BF012519F058FA4D
:1036100063780322002908BF83424FF0040118BFDA
:10362000607002A818BF012519F04AFAA378042295
:10363000002908BF83424FF0070118BFA07002A8FD
:1036400018BF012519F03CFAE3780122002908BFD0
:1036500083424FF00B0118BFE07002A818BF01258C
:1036600019F02EFA23790122002908BF83424FF076
:103670000C0118BF207102A818BF012519F020FA0B
:1036800063790122002908BF83424FF00D0118BF62
:10369000607102A818BF012519F012FAA37901225E
:1036A000002908BF83424FF00E0118BFA07102A885
:1036B00018BF012519F004FAE3790122002908BF97
:1036C00083424FF00F0118BFE07102A818BF012517
:1036D00019F0F6F9237A0122002908BF83424FF03E
:1036E000100118BF207202A818BF012519F0E8F9CF
:1036F000637A0122002908BF83424FF0110118BFED
:10370000607202A818BF012519F0DAF9A37A012224
:10371000002908BF83424FF0120118BFA07202A80F
:1037200018BF012519F0CCF9E37A0522002908BF5A
:1037300083424FF0130118BFE07202A818BF0125A1
:1037400019F0BEF9237B0822002908BF83424FF0FD
:10375000180118BF20730DEB020018BF012519F0E6
:10376000AFF9637B2022002908BF8342114618BFAE
:10377000607302A818BF012519F0A2F92369002976
:1037800008BF83421CBF01252061284605B030BD1B
:1037900030B585B0002504A8089C00E90E0002227F
:1037A00002A8002119F08CF9237802228D4208BF6B
:1037B0008342114618BF207002A818BF012519F0D6
:1037C0007FF963780222002908BF83424FF0040189
:1037D00018BF607002A818BF012519F071F9A3780D
:1037E0000222002908BF83424FF0060118BFA070D3
:1037F00002A818BF012519F063F9E3780222002915
:1038000008BF83424FF0080118BFE0700DEB0100C4
:1038100018BF012519F054F923790222002908BFA5
:1038200083424FF00A0118BF207102A818BF01257A
:1038300019F046F963790222002908BF83424FF04C
:103840000C0118BF607102A818BF012519F038F9E2
:10385000A3790222002908BF83424FF00E0118BF4E
:10386000A07102A818BF012519F02AF9E3790222F4
:10387000002908BF83424FF0100118BFE07102A871
:1038800018BF012519F01CF9237A0222002908BF6C
:1038900083424FF0120118BF207202A818BF012501
:1038A00019F00EF9637A0222002908BF83424FF013
:1038B000140118BF607202A818BF012519F000F9A1
:1038C000A37A0222002908BF83424FF0160118BFD5
:1038D000A07202A818BF012519F0F2F8E37A0222BB
:1038E000002908BF83424FF0180118BFE07202A8F8
:1038F00018BF012519F0E4F8237B0222002908BF34
:1039000083424FF01A0118BF207302A818BF012587
:1039100019F0D6F8637B0222002908BF83424FF0DA
:103920001C0118BF607302A818BF012519F0C8F860
:10393000A37B0222002908BF83424FF01E0118BF5B
:10394000A07302A818BF012519F0BAF8E37B022280
:10395000002908BF83424FF0200118BFE07302A87E
:1039600018BF012519F0ACF8237C0222002908BFFA
:1039700083424FF0220118BF207402A818BF01250E
:1039800019F09EF8637C0222002908BF83424FF0A1
:10399000240118BF607402A818BF012519F090F81F
:1039A000A37C0222002908BF83424FF0260118BFE2
:1039B000A07402A818BF012519F082F8E37C022246
:1039C000002908BF83424FF0280118BFE07402A805
:1039D00018BF012519F074F8237D0222002908BFC1
:1039E00083424FF02A0118BF207502A818BF012595
:1039F00019F066F8637D0222002908BF83424FF068
:103A00002C0118BF607502A818BF012519F058F8DD
:103A1000A37D0222002908BF83424FF02E0118BF68
:103A2000A07502A818BF012519F04AF8E37D02220B
:103A3000002908BF83424FF0300118BFE07502A88B
:103A400018BF012519F03CF8237E0222002908BF87
:103A500083424FF0320118BF207602A818BF01251B
:103A600019F02EF8637E0222002908BF83424FF02E
:103A7000340118BF607602A818BF012519F020F89C
:103A8000A37E0222002908BF83424FF0360118BFEF
:103A9000A07602A818BF012519F012F8E37E0029CC
:103AA00008BF83421CBF0125E076284605B030BD23
:103AB00030B585B0002504A8089C00E90E0002225C
:103AC00002A8002118F0FCFF237802228D4208BFD3
:103AD0008342114618BF207002A818BF012518F0B4
:103AE000EFFF63780222002908BF83424FF00401F0
:103AF00018BF607002A818BF012518F0E1FFA37875
:103B00000222002908BF83424FF0060118BFA070AF
:103B100002A818BF012518F0D3FFE378022200297C
:103B200008BF83424FF0080118BFE0700DEB0100A1
:103B300018BF012518F0C4FF23790222002908BF0D
:103B400083424FF00A0118BF207102A818BF012557
:103B500018F0B6FF63790222002908BF83424FF0B4
:103B60000C0118BF607102A818BF012518F0A8FF4A
:103B7000A3790222002908BF83424FF00E0118BF2B
:103B8000A07102A818BF012518F09AFFE37902225C
:103B9000002908BF83424FF0100118BFE07102A84E
:103BA00018BF012518F08CFF237A0222002908BFD4
:103BB00083424FF0120118BF207202A818BF0125DE
:103BC00018F07EFF637A0222002908BF83424FF07B
:103BD000140118BF607202A818BF012518F070FF09
:103BE000A37A0222002908BF83424FF0160118BFB2
:103BF000A07202A818BF012518F062FFE37A022222
:103C0000002908BF83424FF0180118BFE07202A8D4
:103C100018BF012518F054FF237B0222002908BF9A
:103C200083424FF01A0118BF207302A818BF012564
:103C300018F046FF637B0222002908BF83424FF041
:103C40001C0118BF607302A818BF012518F038FFC7
:103C5000A37B0222002908BF83424FF01E0118BF38
:103C6000A07302A818BF012518F02AFFE37B0222E7
:103C7000002908BF83424FF0200118BFE07302A85B
:103C800018BF012518F01CFF237C0222002908BF61
:103C900083424FF0220118BF207402A818BF0125EB
:103CA00018F00EFF637C0222002908BF83424FF008
:103CB000240118BF607402A818BF012518F000FF86
:103CC000A37C0222002908BF83424FF0260118BFBF
:103CD000A07402A818BF012518F0F2FEE37C0222AE
:103CE000002908BF83424FF0280118BFE07402A8E2
:103CF00018BF012518F0E4FE237D0222002908BF29
:103D000083424FF02A0118BF207502A818BF012571
:103D100018F0D6FE637D0222002908BF83424FF0CF
:103D20002C0118BF607502A818BF012518F0C8FE45
:103D3000A37D0222002908BF83424FF02E0118BF45
:103D4000A07502A818BF012518F0BAFEE37D022273
:103D5000002908BF83424FF0300118BFE07502A868
:103D600018BF012518F0ACFE237E0222002908BFEF
:103D700083424FF0320118BF207602A818BF0125F8
:103D800018F09EFE637E0222002908BF83424FF096
:103D9000340118BF607602A818BF012518F090FE04
:103DA000A37E0222002908BF83424FF0360118BFCC
:103DB000A07602A818BF012518F082FEE37E002934
:103DC00008BF83421CBF0125E076284605B030BD00
:103DD00030B585B0002504A8089C00E90E00022239
:103DE00002A8002118F06CFE237802228D4208BF41
:103DF0008342114618BF207002A818BF012518F091
:103E00005FFE63780222002908BF83424FF004015D
:103E100018BF607002A818BF012518F051FEA378E2
:103E20000222002908BF83424FF0060118BFA0708C
:103E300002A818BF012518F043FEE37802220029EA
:103E400008BF83424FF0080118BFE0700DEB01007E
:103E500018BF012518F034FE23790222002908BF7B
:103E600083424FF00A0118BF207102A818BF012534
:103E700018F026FE63790222002908BF83424FF022
:103E80000C0118BF607102A818BF012518F018FEB8
:103E9000A3790222002908BF83424FF00E0118BF08
:103EA000A07102A818BF012518F00AFEE3790222CA
:103EB000002908BF83424FF0100118BFE07102A82B
:103EC00018BF012518F0FCFD237A0222002908BF43
:103ED00083424FF0120118BF207202A818BF0125BB
:103EE00018F0EEFD637A0222002908BF83424FF0EA
:103EF000140118BF607202A818BF012518F0E0FD78
:103F0000A37A0222002908BF83424FF0160118BF8E
:103F1000A07202A818BF012518F0D2FDE37A022290
:103F2000002908BF83424FF0180118BFE07202A8B1
:103F300018BF012518F0C4FD237B0222002908BF09
:103F400083424FF01A0118BF207302A818BF012541
:103F500018F0B6FD637B0222002908BF83424FF0B0
:103F60001C0118BF607302A818BF012518F0A8FD36
:103F7000A37B0222002908BF83424FF01E0118BF15
:103F8000A07302A818BF012518F09AFDE37B022256
:103F9000002908BF83424FF0200118BFE07302A838
:103FA00018BF012518F08CFD237C0222002908BFD0
:103FB00083424FF0220118BF207402A818BF0125C8
:103FC00018F07EFD637C0222002908BF83424FF077
:103FD000240118BF607402A818BF012518F070FDF5
:103FE000A37C0222002908BF83424FF0260118BF9C
:103FF000A07402A818BF012518F062FDE37C02221C
:10400000002908BF83424FF0280118BFE07402A8BE
:1040100018BF012518F054FD237D0222002908BF96
:1040200083424FF02A0118BF207502A818BF01254E
:1040300018F046FD637D0222002908BF83424FF03D
:104040002C0118BF607502A818BF012518F038FDB3
:10405000A37D0222002908BF83424FF02E0118BF22
:10406000A07502A818BF012518F02AFDE37D0222E1
:10407000002908BF83424FF0300118BFE07502A845
:1040800018BF012518F01CFD237E0222002908BF5D
:1040900083424FF0320118BF207602A818BF0125D5
:1040A00018F00EFD637E0222002908BF83424FF004
:1040B000340118BF607602A818BF012518F000FD72
:1040C000A37E0222002908BF83424FF0360118BFA9
:1040D000A07602A818BF012518F0F2FCE37E0029A3
:1040E00008BF83421CBF0125E076284605B030BDDD
:1040F00030B52DED028B85B000259FED3E8A04A8DA
:104100000A9C00E90E00092202A8002118F0D8FC40
:10411000C83823884FF0090261F100018D4208BFC1
:104120008342114618BF208002A818BF012518F04D
:10413000C7FCC83863884FF0100261F10001002904
:1041400008BF83424FF0120118BF608002A818BF59
:10415000012518F0B5FCA3880A22002908BF834274
:104160004FF0220118BFA08002A818BF012518F047
:10417000A7FCE3880A22002908BF83424FF02C01E4
:1041800018BFE08002A818BF012518F099FCFCF7C1
:10419000E7FD07EE100AD4ED027A082227EE087A2E
:1041A00036210DEB020077EEC77AF0EEE77AF4EEF7
:1041B000C87AF1EE10FAC4BF84ED027A012518F036
:1041C0007FFCFCF7CDFD07EE100AD4ED037A27EE55
:1041D000087A77EEC77AF0EEE77AF4EEC87AF1EE75
:1041E00010FAC4BF012584ED037A284605B0BDEC62
:1041F000028B30BDCDCCCC3D30B585B0002504A8B8
:10420000089C00E90E00052202A8002118F058FCC5
:10421000236805228D4208BF8342114618BF2060E3
:1042200002A818BF012518F04BFC6368052200297D
:1042300008BF83424FF00A0118BF606002A818BF90
:10424000012518F03DFCA3680522002908BF834220
:104250004FF00F0118BFA06002A818BF012518F089
:104260002FFCE3680122002908BF83424FF01401AC
:1042700018BFE06002A818BF012518F021FC237CBC
:104280000122002908BF83424FF0150118BF207496
:1042900002A818BF012518F013FC637C0122002935
:1042A00008BF83424FF0160118BF607402A818BF00
:1042B000012518F005FCA37C0122002908BF8342D8
:1042C0004FF0170118BFA07402A818BF012518F0FD
:1042D000F7FBE37C0C22002908BF83424FF0180152
:1042E00018BFE07402A818BF012518F0E9FB194BAC
:1042F0000C22C018636961F10001002908BF8342E4
:104300004FF0240118BF606102A818BF012518F002
:10431000D7FB104B0C22C018A36961F100010029E2
:1043200008BF83424FF0300118BFA06102A818BF38
:10433000012518F0C5FB074BC018E36961F10001C6
:10434000002908BF83421CBF0125E061284605B053
:1043500030BD00BF3CF6FFFF30B585B004A8089C17
:1043600000E90E00082200210DEB020018F0A8FB66
:10437000B4F9003032384FEAE37261F100018A4249
:1043800008BF83424FF0080218BF208011460DEB92
:10439000020014BF0125002518F092FBB4F900308B
:1043A00032384FEAE37261F100018A4208BF83426A
:1043B0004FF008024FF0100118BF20800DEB0200F3
:1043C00018BF012518F07CFBB4F9043032384FEAED
:1043D000E37261F100018A4208BF83424FF0080294
:1043E0004FF0180118BFA0800DEB020018BF012587
:1043F00018F066FBB4F9063032384FEAE37261F127
:1044000000018A4208BF83424FF008024FF02001AA
:1044100018BFE0800DEB020018BF012518F050FB1B
:10442000B4F9083032384FEAE37261F100018A4290
:1044300008BF83424FF008024FF0280118BF2081C7
:104440000DEB020018BF012518F03AFBB4F90A3051
:1044500032384FEAE37261F100018A4208BF8342B9
:104460004FF008024FF0300118BF60810DEB0200E1
:1044700018BF012518F024FBB4F90C3032384FEA8C
:10448000E37261F100018A4208BF83424FF00802E3
:104490004FF0380118BFA0810DEB020018BF0125B5
:1044A00018F00EFBB4F90E3032384FEAE37261F1C6
:1044B00000018A4208BF83421CBF0125E0812846D3
:1044C00005B030BD30B585B004A8089C00E90E00E9
:1044D000082200210DEB020018F0F2FAB4F90030C6
:1044E00032384FEAE37261F100018A4208BF834229
:1044F0004FF0080218BF208011460DEB020014BFD8
:104500000125002518F0DCFAB4F9023032384FEA00
:10451000E37261F100018A4208BF83424FF0080252
:104520004FF0100118BF60800DEB020018BF01258D
:1045300018F0C6FAB4F9043032384FEAE37261F188
:1045400000018A4208BF83424FF008024FF0180171
:1045500018BFA0800DEB020018BF012518F0B0FABB
:10456000B4F9063032384FEAE37261F100018A4251
:1045700008BF83424FF010024FF0200118BFE080C7
:1045800002A818BF012518F09BFA238908220029E8
:1045900008BF83424FF0300118BF20810DEB0200AD
:1045A00018BF012518F08CFAB4F90A3032384FEAF6
:1045B000E37261F100018A4208BF83424FF00802B2
:1045C0004FF02E0118BF60810DEB020018BF0125CE
:1045D00018F076FAB4F90C3032384FEAE37261F130
:1045E00000018A4208BF83421CBF0125A0812846E2
:1045F00005B030BD30B585B0002404A8089D00E9A1
:104600000E00102202A8002118F05AFA214B2A8825
:104610001B1802A861F100018C4208BF9A424FF0BA
:10462000100218BF6B80114618BF012418F048FA19
:10463000184B6A881B1802A861F10001002908BF05
:104640009A424FF010024FF020011CBF6B800124F2
:1046500018F036FA0F4BAA881B1802A861F1000166
:10466000002908BF9A424FF010024FF030011CBFE2
:10467000AB80012418F024FA064BEA881B1861F17C
:104680000001002908BF9A421CBF0124EB8020468C
:1046900005B030BD78ECFFFF30B585B0002404A82C
:1046A000089D00E90E00102202A8002118F008FA67
:1046B000214B2A881B1802A861F100018C4208BF17
:1046C0009A424FF0100218BF2B80114618BF0124E8
:1046D00018F0F6F9184B6A881B1802A861F100015E
:1046E000002908BF9A424FF010024FF020011CBF72
:1046F0006B80012418F0E4F9104BAA881B1802A85B
:1047000061F10001002908BF9A424FF010024FF0FA
:1047100030011CBFAB80012418F0D2F9064BEA88A7
:104720001B1861F10001002908BF9A421CBF012437
:10473000EB80204605B030BD78ECFFFF3CF6FFFF74
:1047400030B585B0002504A8089C00E90E000822B9
:1047500000210DEB020018F0B3F9323863784FF006
:10476000080261F100018D4208BF8342114618BF63
:1047700060700DEB020018BF012518F0A1F9323866
:1047800023784FF0080261F10001002908BF83423D
:104790004FF0100118BF20700DEB020018BF01256B
:1047A00018F08EF93238A3784FF0080261F1000159
:1047B000002908BF83424FF0180118BFA0700DEB0D
:1047C000020018BF012518F07BF93238E3784FF06A
:1047D000080261F10001002908BF83424FF0200167
:1047E00018BFE0700DEB020018BF012518F068F942
:1047F000323823794FF0080261F10001002908BF27
:1048000083424FF0280118BF20710DEB020018BF42
:10481000012518F055F9323863794FF0080261F13B
:104820000001002908BF83424FF0300118BF6071BA
:104830000DEB020018BF012518F042F93238A379B8
:104840004FF0080261F10001002908BF83424FF0D8
:10485000380118BFA0710DEB020018BF012518F038
:104860002FF93238E37961F10001002908BF834252
:104870001CBF0125E071284605B030BD30B585B0BC
:10488000002504A8089C00E90E00082200210DEB79
:10489000020018F015F9323823784FF0080261F160
:1048A00000018D4208BF8342114618BF20700DEBF6
:1048B000020018BF012518F003F9323823784FF0B1
:1048C000080261F10001002908BF83424FF0100186
:1048D00018BF20700DEB020018BF012518F0F0F88A
:1048E0003238A3784FF0080261F10001002908BFB7
:1048F00083424FF0180118BFA0700DEB020018BFE3
:10490000012518F0DDF83238E3784FF0080261F144
:104910000001002908BF83424FF0200118BFE0705A
:104920000DEB020018BF012518F0CAF832382379C0
:104930004FF0080261F10001002908BF83424FF0E7
:10494000280118BF20710DEB020018BF012518F0D7
:10495000B7F8323863794FF0080261F1000100299D
:1049600008BF83424FF0300118BF60710DEB0200A9
:1049700018BF012518F0A4F83238A3794FF00802C7
:1049800061F10001002908BF83424FF0380118BFD0
:10499000A0710DEB020018BF012518F091F8323814
:1049A000E37961F10001002908BF83421CBF0125A2
:1049B000E071284605B030BD30B585B0002504A8AB
:1049C000089C00E90E00082200210DEB020018F0FF
:1049D00077F8323863784FF0080261F100018D42B8
:1049E00008BF8342114618BF60700DEB020018BF6C
:1049F000012518F065F8323823784FF0080261F18C
:104A00000001002908BF83424FF0100118BF207039
:104A10000DEB020018BF012518F052F83238A378C8
:104A20004FF0080261F10001002908BF83424FF0F6
:104A3000180118BFA0700DEB020018BF012518F077
:104A40003FF83238E3784FF0080261F100010029A5
:104A500008BF83424FF0200118BFE0700DEB020049
:104A600018BF012518F02CF8323823794FF00802CE
:104A700061F10001002908BF83424FF0280118BFEF
:104A800020710DEB020018BF012518F019F832381B
:104A900063794FF0080261F10001002908BF8342E9
:104AA0004FF0300118BF60710DEB020018BF0125F7
:104AB00018F006F83238A3794FF0080261F10001CE
:104AC000002908BF83424FF0380118BFA0710DEBD9
:104AD000020018BF012517F0F3FF3238E37961F1C6
:104AE0000001002908BF83421CBF0125E071284650
:104AF00005B030BD30B585B0002504A8089C00E99C
:104B00000E00082200210DEB020017F0D9FF323809
:104B100023784FF0080261F100018D4208BF834203
:104B2000114618BF20700DEB020018BF012517F0C9
:104B3000C7FF323823784FF0080261F100010029E5
:104B400008BF83424FF0100118BF20700DEB020028
:104B500018BF012517F0B4FF3238A3784FF00802D0
:104B600061F10001002908BF83424FF0180118BF0E
:104B7000A0700DEB020018BF012517F0A1FF32381D
:104B8000E3784FF0080261F10001002908BF834279
:104B90004FF0200118BFE0700DEB020018BF012597
:104BA00017F08EFF323823794FF0080261F10001CF
:104BB000002908BF83424FF0280118BF20710DEB78
:104BC000020018BF012517F07BFF323863794FF0E0
:104BD000080261F10001002908BF83424FF0300153
:104BE00018BF60710DEB020018BF012517F068FFB8
:104BF0003238A3794FF0080261F10001002908BFA3
:104C000083424FF0380118BFA0710DEB020018BFAE
:104C1000012517F055FF3238E37961F100010029D1
:104C200008BF83421CBF0125E071284605B030BD96
:104C300030B585B0002504A8089C00E90E000822C4
:104C400000210DEB020017F03BFF323823784FF0C4
:104C5000080261F100018D4208BF8342114618BF6E
:104C600020700DEB020018BF012517F029FF323824
:104C700023784FF0080261F10001002908BF834248
:104C80004FF0100118BF20700DEB020018BF012576
:104C900017F016FF3238A3784FF0080261F10001D7
:104CA000002908BF83424FF0180118BFA0700DEB18
:104CB000020018BF012517F003FF3238E3784FF0E8
:104CC000080261F10001002908BF83424FF0200172
:104CD00018BFE0700DEB020018BF012517F0F0FEC1
:104CE000323823794FF0080261F10001002908BF32
:104CF00083424FF0280118BF20710DEB020018BF4E
:104D0000012517F0DDFE323863794FF0080261F1BA
:104D10000001002908BF83424FF0300118BF6071C5
:104D20000DEB020018BF012517F0CAFE3238A37937
:104D30004FF0080261F10001002908BF83424FF0E3
:104D4000380118BFA0710DEB020018BF012517F044
:104D5000B7FE3238E37961F10001002908BF8342D0
:104D60001CBF0125E071284605B030BD30B585B0C7
:104D7000002504A8089C00E90E00082200210DEB84
:104D8000020017F09DFE323823784FF0080261F1DF
:104D900000018D4208BF8342114618BF20700DEB01
:104DA000020018BF012517F08BFE323863784FF0F0
:104DB000080261F10001002908BF83424FF0100191
:104DC00018BF60700DEB020018BF012517F078FEC8
:104DD0003238A3784FF0080261F10001002908BFC2
:104DE00083424FF0180118BFA0700DEB020018BFEE
:104DF000012517F065FE3238E3784FF0080261F1C3
:104E00000001002908BF83424FF0200118BFE07065
:104E10000DEB020018BF012517F052FE323823793E
:104E20004FF0080261F10001002908BF83424FF0F2
:104E3000280118BF20710DEB020018BF012517F0E3
:104E40003FFE323863794FF0080261F1000100291A
:104E500008BF83424FF0300118BF60710DEB0200B4
:104E600018BF012517F02CFE3238A3794FF0080245
:104E700061F10001002908BF83424FF0380118BFDB
:104E8000A0710DEB020018BF012517F019FE323892
:104E9000E37961F10001002908BF83421CBF0125AD
:104EA000E071284605B030BD30B52DED048B85B0DE
:104EB00004A80C9C9FED368B00E90E00102202A87E
:104EC000002117F0FDFDFBF74DFEB0EE487B1022F0
:104ED0009FED319B41EC160B114602A8A6EE097B13
:104EE000B7EEC77BD4ED007AF4EE477AF1EE10FA14
:104EF0001ABF84ED007A0125002517F0E1FDFBF7CC
:104F000031FEB0EE487B102241EC160BA6EE097B79
:104F100002A82021B7EEC77BD4ED017AF4EE477AE0
:104F2000F1EE10FA1CBF84ED017A012517F0C8FDDF
:104F3000FBF718FEB0EE487B102241EC160BA6EEF4
:104F4000097B02A83021B7EEC77BD4ED027AF4EEDC
:104F5000477AF1EE10FA1CBF84ED027A012517F0B2
:104F6000AFFDFBF7FFFD41EC170BA7EE098BD4ED6E
:104F7000037AB7EEC88BF4EE487AF1EE10FA1CBF54
:104F8000012584ED038A284605B0BDEC048B30BDB5
:104F9000000000000058ABC09A9999999999B93FBF
:104FA00030B52DED028B85B0002404A80A9D00E9E0
:104FB0000E00102202A8002117F082FD2B68182293
:104FC0008C4208BF83424FF0100118BF286002A82E
:104FD00018BF012417F074FDFBF7C4FD18229FEDE4
:104FE000168B41EC170B02A8282127EE087BB7EEA1
:104FF000C77BD5ED017AF4EE477AF1EE10FA1CBFCB
:1050000085ED017A012417F05BFDFBF7ABFD41EC68
:10501000170B27EE087BB7EEC77BD5ED027AF4EECF
:10502000477AF1EE10FA1CBF012485ED027A204682
:1050300005B0BDEC028B30BD7B14AE47E17A843FF6
:1050400030B585B0002504A8089C00E90E000522B3
:1050500002A8002117F034FD236801228D4208BF09
:1050600083424FF0050118BF206002A818BF012538
:1050700017F026FD63680122002908BF83424FF024
:10508000060118BF606002A818BF012517F018FDBF
:10509000A3680122002908BF83424FF0070118BF0F
:1050A000A06002A818BF012517F00AFDE3680122DD
:1050B000002908BF83424FF0080118BFE0600DEBE4
:1050C000010018BF012517F0FBFC23690422002909
:1050D00008BF83424FF0090118BF206102A818BF22
:1050E000012517F0EDFC63690422002908BF834203
:1050F0004FF00D0118BF606102A818BF012517F01D
:10510000DFFCA3691022002908BF83424FF0110180
:1051100018BFA06102A818BF012517F0D1FCFBF74A
:1051200021FD03229FED3C6B41EC170B02A82121CE
:1051300027EE067BB7EEC77BD4ED077AF4EE477A0D
:10514000F1EE10FA1CBF84ED077A012517F0B8FCC8
:1051500094F820300122002908BF83424FF0240137
:1051600018BF84F8200002A818BF012517F0A8FC7A
:10517000636A0822002908BF83424FF0280118BF44
:1051800060620DEB020018BF012517F099FC323860
:1051900061F10001FBF7E4FD94ED0A7A07EE900A55
:1051A00008223021B4EE677A0DEB0200F1EE10FA1E
:1051B0001CBFC4ED0A7A012517F082FC323861F178
:1051C0000001FBF7CDFD94ED0B7A07EE900A082263
:1051D0003821B4EE677A0DEB0200F1EE10FA1CBF35
:1051E000C4ED0B7A012517F06BFC323861F1000138
:1051F000FBF7B6FD94ED0C7A07EE900AB4EE677AF1
:10520000F1EE10FA1CBF0125C4ED0C7A284605B05A
:1052100030BD00BFAFF300807B14AE47E17A843F1E
:1052200030B52DED048B85B004A80C9C9FED3C8B14
:1052300000E90E00102202A8002117F041FCFBF744
:1052400091FCB0EE487B10229FED379B41EC160B92
:10525000114602A8A6EE097BB7EEC77BD4ED007A13
:10526000F4EE477AF1EE10FA1ABF84ED007A0125C8
:10527000002517F025FCFBF775FC102241EC170BFD
:10528000A7EE098BD4ED017A02A82021B7EEC88BD6
:10529000F4EE487AF1EE10FA1CBF84ED018A012584
:1052A00017F00EFCFBF75EFC082241EC170B27EE13
:1052B000097B0DEB02003021B7EEC77BD4ED027AFB
:1052C000F4EE477AF1EE10FA1CBF84ED027A012564
:1052D00017F0F6FBE3680822002908BF83424FF06D
:1052E000380118BFE0600DEB020018BF012517F070
:1052F000E7FB323861F10001FBF732FD94ED047AEF
:1053000007EE900AB4EE677AF1EE10FA1CBF0125A1
:10531000C4ED047A284605B0BDEC048B30BD00BF57
:10532000000000000058ABC09A9999999999B93F2B
:105330002DE9F04F04468FB00A27DFF86084DFF8CC
:105340006094DFF860A40BAD0023D8F800001A4683
:1053500029460DF044F8002847D10B9B4B4500F23D
:10536000F68153453FD903F17043043B202B3AD8D3
:10537000DFE813F066007A0039003E005200210099
:10538000390039003900390039003900030139008A
:10539000A901C2016601D5018D00A000B300C700BC
:1053A000390039003900390039003900DB00EF00DD
:1053B000890139004C010094204695E80E00FEF763
:1053C0001BFF80B104F10C06D4F88CC16D46DCF8EB
:1053D00000E00FCE0FC5336860462B60DEF8085042
:1053E00094E80E00A847013FADD10FB0BDE8F08FA3
:1053F00004F120062046009695E80E00FEF7ACFF6B
:105400000028F0D0D4F88C01E36A05680093ED68B9
:1054100096E80E00A847E6E704F13006204600961D
:1054200095E80E00FFF74EF80028DCD0D4F88C0188
:10543000A38F0568ADF800302D6996E80E00E9E706
:1054400004F13E032046009395E80E00FFF7D2F8E2
:105450000028C8D0D4F88C01D4F83E100368D4F8E2
:1054600042205B699847BEE704F14603204600935B
:1054700095E80E00FFF710F90028B4D0D4F88C019D
:10548000D4F846100368D4F84A209B69EAE704F18F
:105490004E032046009395E80E00FFF751F90028CF
:1054A000A1D0D4F88C01D4F84E100368D4F852205F
:1054B000DB69D7E704F156032046009395E80E0018
:1054C000FFF7DCF900288ED0D4F88C01D4F8561000
:1054D0000368D4F85A201B6AC4E704F15E0320462F
:1054E000009395E80E00FFF767FA00283FF47BAFC2
:1054F000D4F88C01D4F85E100368D4F862205B6A9B
:10550000B0E704F166032046009395E80E00FFF72C
:10551000F1FA00283FF467AFD4F88C01D4F8661094
:105520000368D4F86A209B6A9CE704F16E03204666
:10553000009395E80E00FFF77BFB00283FF453AF84
:10554000D4F88C01D4F86E100368D4F87220DB6AAA
:1055500088E704F176032046009395E80E00FFF7F4
:1055600005FC00283FF43FAFD4F88C01D4F8761046
:105570000368D4F87A201B6B74E704F18006204698
:10558000009695E80E00FEF7B3FD00283FF42BAF20
:10559000D4F88C01D4F88C30056800936D6B96E8D4
:1055A0000E0037E704F190062046009695E80E00BD
:1055B000FEF77EFA00283FF416AFD4F88C5104F1C0
:1055C0009C03D5F800C00FCB8DE80F0096E80E00C5
:1055D000DCF838602846B04705E704F1AC06204601
:1055E000009695E80E00FEF7F3FB00283FF4FBAEB3
:1055F000D4F88C5104F1B803D5F800C00FCB8DE876
:105600000F0096E80E00DCF83C60E3E704F1E406E6
:105610002046009695E80E00FDF7E0FF00283FF4D5
:10562000E2AED4F88C51D4E93C01D5F800C08DE845
:10563000030096E80E00DCF844602846B047D2E646
:1056400004F1F8062046009695E80E00FFF7F8FCF6
:1056500000283FF4C8AE04F5827CD4F88CE16D4696
:10566000DEF800B0BCE80F000FC5BCE80F000FC5A6
:105670009CE8030085E8030096E80E00DBF848503C
:105680007046A847AFE604F5AE762046009695E84A
:105690000E00FDF7BDFE00283FF4A5AE04F5B47C76
:1056A000D4F88CE16D46DEF800B0BCE80F000FC501
:1056B000BCE80F000FC5DCF800302B60DBF84C5065
:1056C00096E80E00DCE704F596732046009395E813
:1056D0000E00FFF7E9FB00283FF485AED4F88C01FB
:1056E00094ED4B0A0368D4ED4C0A1B6D94ED4D1AF2
:1056F000D4ED4E1A984776E604F59E76204600963D
:1057000095E80E00FFF74CFC00283FF46CAED4F88F
:105710008C0103685D6D96E80E00A84763E604F50A
:10572000A4762046009695E80E00FFF779FD002844
:105730003FF459AED4F88C51D4E95501D5F800C0E6
:105740008DE8030096E80E00DCF8586075E7124A11
:1057500093423FF427AF013293423FF43EAF023A07
:1057600093427FF440AE04F1C8062046009695E8C7
:105770000E00FEF70DF800283FF435AED4F88C513A
:1057800004F1D403D5F800C00FCB8DE80F0096E8E4
:105790000E00DCF840601DE744000010481E0324A2
:1057A000240000100300001084B007B505A880E8AD
:1057B0000E00BDF82430ADF800300FC817F0C4FA61
:1057C00003B05DF804EB04B0704782B06B4683E829
:1057D000060093E8030002B017F0D4BA704700F552
:1057E00098730868496803C37047704708F092BE11
:1057F00010B504464FF4AE7131F07AFD204610BD6D
:1058000010B50446D0F85801FFF792FD2046BDE8D8
:1058100010401FF05BBF10B50446D0F8400158B1EE
:105820000368DB68984738B1D4F8400103689B6887
:1058300098470023C4F8403110BD000010B504465D
:1058400008F034FE014B2046236010BD8881040817
:105850000020704781807047C18070470181704788
:10586000418170477047704770477047704710B468
:10587000C4880368121B84885B6D091B12B25DF833
:10588000044B09B218474FF6FF7383814FF0FF3383
:1058900003621368C36110607047704770477047B8
:1058A000704730B585B00368044601816D460146F6
:1058B000D3F884303C342846984795E8070084E8BC
:1058C000070005B030BD30B585B00368044641819E
:1058D0006D460146D3F884303C342846984795E815
:1058E000070084E8070005B030BD00220280428036
:1058F0008280C280704780F836107047036870B5A8
:1059000004461B6B154698472368204629465B6E64
:10591000BDE87040184700207047806C7047806C6D
:105920007047C06C7047704770477047704770474A
:1059300070477047704770477047704770477047AF
:105940007047704770477047704700F51D73994264
:1059500070B504460D4602D10368DB6A984704F52A
:105960002B739D4203D1236820461B6B984704F597
:1059700039739D4203D1236820465B6B984704F539
:1059800047739D4203D1236820469B6B984704F5DB
:1059900055739D4203D123682046DB6B984704F57D
:1059A00063739D4203D1236820461B6C984704F221
:1059B00004639D4203D1236820465B6C984704F240
:1059C0003C639D4203D1236820469B6C984704F2B8
:1059D00074639D4203D123682046DB6C984704F230
:1059E000AC639D4203D1236820461B6D984704F2A7
:1059F00074739D4203D1236820465B6D984704F57C
:105A00008C439D4203D1236820469B6D984704F543
:105A10008D439D4203D123682046DB6D984704F5F2
:105A200051639D4205D1236820461B6EBDE870403E
:105A3000184770BD704770477047704730B444686E
:105A40000346C2689B68551004EB6200D20748BF4A
:105A5000625930BC48BFD35818470346406830B13C
:105A60009A681AB9D86800F00100704701207047A1
:105A7000838A8B4286BF00EB81004068002070471C
:105A80000346818A002010B582B2914202D84FF0BD
:105A9000FF3010BD53F8044F421C94F83740002CDF
:105AA000F7D11046F0E7036810B51B690446984724
:105AB000011E06DB2368204689B2DB68BDE8104082
:105AC0001847002010BD838A00EB8303984200D161
:105AD000704750F8042F82F83810F7E70346808AA1
:105AE00010B15B6893F83800704730B444680346DF
:105AF000C2689B68551004EB6200D20748BF625928
