:020000040800F2
:1000000000000824F1E101081DC501081FC5010811
:1000100021C5010823C5010825C50108000000000D
:1000200000000000000000000000000021010108A5
:1000300027C5010800000000B10101084DF90008C2
:1000400041E2010841E2010841E2010841E2010800
:1000500041E2010841E2010841E2010841E20108F0
:1000600041E2010829C5010841E2010841E2010815
:1000700041E2010841E2010841E2010841E20108D0
:1000800041E2010841E2010841E2010831C50108ED
:100090003DC5010849C501084DC5010841E20108F7
:1000A00041E2010841E2010841E2010841E20108A0
:1000B00051C5010841E2010841E2010841E201089D
:1000C00041E2010841E2010841E2010841E2010880
:1000D00041E2010841E2010841E2010841E2010870
:1000E00041E2010841E201080000000041E201088C
:1000F00041E2010841E2010841E2010841E2010850
:1001000041E2010841E2010841E2010841E201083F
:1001100041E2010841E2010841E2010841E201082F
:1001200041E2010841E2010841E2010841E201081F
:1001300041E2010841E2010841E2010841E201080F
:1001400041E2010841E20108000000000000000057
:1001500041E2010841E2010841E2010841E20108EF
:1001600041E2010841E2010841E2010841E20108DF
:1001700041E201085DC5010841E2010841E20108D0
:1001800041E2010841E2010841E2010841E20108BF
:1001900041E2010841E2010841E2010841E20108AF
:1001A00069C5010841E20108D1CE000841E2010819
:1001B00041E2010841E2010841E2010841E201088F
:1001C00041E2010841E2010841E2010841E201087F
:1001D00041E2010841E2010841E2010841E201086F
:1001E00041E2010841E2010841E2010841E201085F
:1001F00041E2010841E2010841E2010841E201084F
:1002000041E2010841E2010841E2010841E201083E
:1002100041E2010841E2010841E2010841E201082E
:1002200041E2010875C5010881C5010841E20108E4
:1002300041E2010841E2010841E2010841E201080E
:1002400041E2010841E2010841E2010841E20108FE
:1002500041E2010841E2010841E2010841E20108EE
:1002600041E2010841E2010841E2010841E20108DE
:1002700041E2010841E2010841E2010841E20108CE
:1002800041E2010841E2010841E2010800000000EA
:0802900041E2010841E201080E
:1002C00002780B78012A28BF9A4240F0D8806DE965
:1002D000044540EA0104CDE902676FF0000C4FEAE3
:1002E00044721AB380EA010414F0070F6BD100F0D6
:1002F000070420F0070004F0030521F007014FEA8E
:10030000C505F0E8042314F0040FF1E804670CFAC3
:1003100005F462EA040266EA04060BD063EA040309
:10032000624667EA0407664604E000BFF0E804237B
:10033000F1E8046782FA4CF582EA0604A4FA8CF428
:100340006CBB83FA4CF583EA0705A5FA8CF595B9E1
:1003500050E9022351E9026782FA4CF582EA060469
:10036000A4FA8CF483FA4CF583EA0705A5FA8CF518
:100370002543DBD09CB92DBAB5FA85F424F00704E7
:1003800027FA04F1DDE9026723FA04F303F0FF0022
:1003900001F0FF01FDE80445A0EB0100704724BA1D
:1003A000B4FA84F424F0070426FA04F1DDE90267C4
:1003B00022FA04F202F0FF0001F0FF01FDE804451B
:1003C000A0EB0100704714F0030F3CD110F00304C0
:1003D00028D150F8082B51F8083B82FA4CF582EAF4
:1003E0000305A5FA8CF55DB950F8042C51F8043CCE
:1003F00082FA4CF582EA0305A5FA8CF5002DE8D0C7
:100400002DBAB5FA85F424F0070423FA04F122FA90
:1004100004F202F0FF0001F0FF01FDE80445A0EB4B
:10042000010070474FEAC40420F0030050F8082B85
:1004300021F0030151F8083B0CFA04F462EA0402CB
:1004400063EA0403C9E710F003041DD0A1EB040123
:1004500020F00300E40750F8042B06D012D28B786A
:100460005FFAA2F4E41A06D12BB1CB785FFAB2F4AA
:10047000E41A00D133B920465DF8104B7047A2EB67
:100480000300704701F1040150F8042BCC0721F060
:10049000030151F8043B48D824D222F07F4482FA69
:1004A0004CF594EA1325A5FA8CF50AD165B951F8F3
:1004B000043B84EA0204B4EB036F0ED150F8042B22
:1004C000EBE74FEA132355E035F07F454DD108782F
:1004D000FDE80445C0F1000070474FEA126203F0E6
:1004E000FF0347E002EA1C4482FA4CF594EA134504
:1004F000A5FA8CF50AD165B951F8043B84EA0204E7
:10050000B4EB034F0CD150F8042BEBE74FEA134345
:1005100030E015EA1C4528D10B884FEA124229E049
:100520004FEA124203EA1C4324E002F0FF0482FA7D
:100530004CF594EA1365A5FA8CF50AD165B951F822
:10054000043B84EA0204B4EB032F09D150F8042BD6
:10055000EBE74FEA13630DE015F0FF0F05D10B68D1
:100560004FEA122223F07F4304E04FF00000FDE841
:100570000445704712BA1BBA82FA4CF482EA0304AB
:10058000A4FA8CF5B5FA85F402FA04F203FA04F33E
:100590004FEA1260FDE80445A0EB1360704700BF0E
:1005A00001F0FF01102A2BDB10F0070F08D010F824
:1005B000013B013A8B422DD010F0070F42B3F6D128
:1005C000F0B441EA012141EA014122F007047FF041
:1005D00000070023F0E80256083C85EA010586EA98
:1005E000010685FA47F5A3FA87F586FA47F6A5FAD4
:1005F00087F68EB9EED1F0BC01F0FF0102F00702E0
:1006000032B110F8013B013A83EA010313B1F8D18A
:100610000020704701387047002D06BF354603386B
:10062000073815F0010F07D1013015F4807F02BFA4
:10063000013015F4C03F0130F0BC0138704700BFF5
:10064000844641EA000313F003036DD1403A41D3DD
:1006500051F8043B40F8043B51F8043B40F8043B9C
:1006600051F8043B40F8043B51F8043B40F8043B8C
:1006700051F8043B40F8043B51F8043B40F8043B7C
:1006800051F8043B40F8043B51F8043B40F8043B6C
:1006900051F8043B40F8043B51F8043B40F8043B5C
:1006A00051F8043B40F8043B51F8043B40F8043B4C
:1006B00051F8043B40F8043B51F8043B40F8043B3C
:1006C00051F8043B40F8043B51F8043B40F8043B2C
:1006D000403ABDD2303211D351F8043B40F8043BCC
:1006E00051F8043B40F8043B51F8043B40F8043B0C
:1006F00051F8043B40F8043B103AEDD20C3205D3DC
:1007000051F8043B40F8043B043AF9D2043208D0D3
:10071000D2071CBF11F8013B00F8013B01D30B8845
:1007200003806046704700BF082A13D38B078DD023
:1007300010F003038AD0C3F10403D21ADB071CBFF5
:1007400011F8013B00F8013B80D331F8023B20F85F
:10075000023B7BE7043AD9D3013A11F8013B00F898
:10076000013BF9D20B7803704B7843708B78837020
:10077000604670470000000000000000000000001C
:1007800030B490F800F020F007016FF0000C10F08A
:10079000070491F820F040F048804FF000046FF01B
:1007A0000700D1E9002391F840F000F1080082FA37
:1007B0004CF2A4FA8CF283FA4CF3A2FA8CF34BBB02
:1007C000D1E9022382FA4CF200F10800A4FA8CF27B
:1007D00083FA4CF3A2FA8CF3E3B9D1E9042382FA49
:1007E0004CF200F10800A4FA8CF283FA4CF3A2FA5E
:1007F0008CF37BB9D1E9062301F1200182FA4CF296
:1008000000F10800A4FA8CF283FA4CF3A2FA8CF3FC
:10081000002BC6D0002A04BF04301A4612BAB2FA1E
:1008200082F200EBD20030BC7047D1E9002304F023
:100830000305C4F100004FEAC50514F0040F91F858
:1008400040F00CFA05F562EA05021CBF63EA0503F5
:1008500062464FF00004AAE780F0004002E000BFCB
:1008600081F0004142001FBF5FEA410392EA030F9B
:100870007FEA226C7FEA236C6AD04FEA1262D2EBE5
:100880001363C1BFD218414048404140B8BF5B42EA
:10089000192B88BF704710F0004F40F4000020F083
:1008A0007F4018BF404211F0004F41F4000121F099
:1008B0007F4118BF494292EA030F3FD0A2F10102E3
:1008C00041FA03FC10EB0C00C3F1200301FA03F121
:1008D00000F0004302D5494260EB4000B0F5000F44
:1008E00013D3B0F1807F06D340084FEA310102F103
:1008F0000102FE2A51D2B1F1004F40EBC25008BFB5
:1009000020F0010040EA03007047490040EB00007E
:10091000013A28BFB0F5000FEDD2B0FA80FCACF17F
:10092000080CB2EB0C0200FA0CF0AABF00EBC250AC
:1009300052421843BCBFD0401843704792F0000F9A
:1009400081F4000106BF80F400000132013BB5E7ED
:100950004FEA41037FEA226C18BF7FEA236C21D063
:1009600092EA030F04D092F0000F08BF08467047C8
:1009700090EA010F1CBF0020704712F07F4F04D196
:10098000400028BF40F00040704712F100723CBFA9
:1009900000F50000704700F0004343F0FE4040F4D3
:1009A000000070477FEA226216BF08467FEA236391
:1009B0000146420206BF5FEA412390EA010F40F47C
:1009C000800070474FF0000304E000BF10F00043C8
:1009D00048BF40425FEA000C08BF704743F09643AF
:1009E00001464FF000001CE050EA010208BF7047CA
:1009F0004FF000030AE000BF50EA010208BF704751
:100A000011F0004302D5404261EB41015FEA010C65
:100A100002BF84460146002043F0B64308BFA3F15D
:100A20008053A3F50003BCFA8CF2083AA3EBC2533F
:100A300010DB01FA02FC634400FA02FCC2F120025E
:100A4000BCF1004F20FA02F243EB020008BF20F095
:100A50000100704702F1200201FA02FCC2F12002FB
:100A600050EA4C0021FA02F243EB020008BF20EAF0
:100A7000DC70704753B94AB9002908BF00281CBF71
:100A80004FF0FF314FF0FF3000F0E2B8ADF1080C4D
:100A90006DE904CE41F028FFDDF804E0DDE9022332
:100AA00004B0704700F1340191E838009C46A64636
:100AB0004CF8045D90E8FF0FE54600BD90EC210B7B
:100AC000704700BF80EC210B704700BF90EC200BFB
:100AD000704700BF80EC200B704700BFD0EC200BAC
:100AE000704700BFC0EC200B704700BFF0EC020164
:100AF000F0EC0211F0EC0221F0EC0231F0EC0241DA
:100B0000F0EC0251F0EC0261F0EC0271F0EC0281C9
:100B1000F0EC0291F0EC02A1F0EC02B1F0EC02C1B9
:100B2000F0EC02D1F0EC02E1F0EC02F1704700BF12
:100B3000E0EC0201E0EC0211E0EC0221E0EC023119
:100B4000E0EC0241E0EC0251E0EC0261E0EC027109
:100B5000E0EC0281E0EC0291E0EC02A1E0EC02B1F9
:100B6000E0EC02C1E0EC02D1E0EC02E1E0EC02F1E9
:100B7000704700BFB0FC0181B0FC0191B0FC01A145
:100B8000B0FC01B1704700BFA0FC0181A0FC019145
:100B9000A0FC01A1A0FC01B1704700BFEC4600B56C
:100BA0002DE900502DE9FF1F4FF000032DE90C0047
:100BB00001A942F053F9DDF840E012B0704700BFE0
:100BC000EC4600B52DE900502DE9FF1F4FF0000362
:100BD0002DE90C0001A942F07DF9DDF840E012B0EA
:100BE000704700BFEC4600B52DE900502DE9FF1F0E
:100BF0004FF000032DE90C0001A942F08DF9DDF85A
:100C000040E012B0704700BFEC4600B52DE900503F
:100C10002DE9FF1F4FF000032DE90C0001AB42F05E
:100C200051F9DDF840E012B0704700BFEC4600B566
:100C30002DE900502DE9FF1F4FF000032DE90C00B6
:100C400001AA42F0C9F9DDF840E012B0704700BFD8
:100C5000704700BF0348044B834202D0034B03B1EB
:100C600018477047C0070024C00700240000000098
:100C70000548064B1B1AD90F01EBA301491002D0FE
:100C8000034B03B118477047C0070024C007002476
:100C90000000000010B5064C237843B9FFF7DAFFD7
:100CA000044B13B10448AFF300800123237010BD3F
:100CB000C081002400000000543A040808B5054B28
:100CC0001BB105490548AFF30080BDE80840FFF7B8
:100CD000CFBF00BF00000000C4810024543A0408C4
:100CE000704704387047704782B002AB03E90600D2
:100CF00002B0704782B002AB03E9060002B0704751
:100D000010B50446102133F0E3FF204610BDA0F1DA
:100D10000400F5E784B0F0B58BB0074611AE14AD12
:100D20006C4686E80E000FCD0FC40FCD0FC495E8BA
:100D3000030084E8030096E80E00F86801F056FC12
:100D40000BB0BDE8F04004B07047A0F10400FFF71D
:100D5000E1BF84B037B507AC054684E80E00DDE995
:100D60000A018DE8030094E80E00E86800F048FEF0
:100D700003B0BDE8304004B07047A0F10400FFF7B5
:100D8000E8BF84B0F0B587B007460DAE10AD6C4635
:100D900086E80E000FCD0FC42B682360F86896E834
:100DA0000E0000F013FF07B0BDE8F04004B070473C
:100DB000A0F10400FFF7E5BF84B013B505AC84E8EB
:100DC0000E00089B0093C06894E80E0000F03EFF00
:100DD00002B0BDE8104004B07047A0F10400FFF776
:100DE000EBBF84B013B505AC84E80E00BDF820302D
:100DF000ADF80030C06894E80E0000F087FF02B044
:100E0000BDE8104004B07047A0F10400FFF7E9BF4F
:100E100082B0C0686B4683E8060093E8060002B023
:100E200000F0B8BFA0F10400FFF7F2BF82B0C068C5
:100E30006B4683E8060093E8060002B000F0EABFC4
:100E4000A0F10400FFF7F2BF84B013B505AC84E84D
:100E50000E00089B0093C06894E80E0001F000F8B3
:100E600002B0BDE8104004B07047A0F10400FFF7E5
:100E7000EBBF82B0C0686B4683E8060093E80600CB
:100E800002B001F0C5B9A0F10400FFF7F2BF82B0D3
:100E9000C0686B4683E8060093E8060002B001F0E4
:100EA00033BAA0F10400FFF7F2BF82B0C0686B460E
:100EB00083E8060093E8060002B001F09FBAA0F1B3
:100EC0000400FFF7F2BF82B0C0686B4683E80600FB
:100ED00093E8060002B001F00DBBA0F10400FFF79B
:100EE000F2BF84B030B585B0054609AC84E80E0089
:100EF0000CAB0FCB8DE80F0094E80E00E86800F013
:100F0000FBF905B0BDE8304004B07047A0F1040023
:100F1000FFF7E7BF84B030B585B0054609AC84E87B
:100F20000E000CAB0FCB8DE80F0094E80E00E868C4
:100F300000F0ACFA05B0BDE8304004B07047A0F155
:100F40000400FFF7E7BF84B030B585B0054609ACB3
:100F500084E80E000CAB0FCB8DE80F0094E80E0078
:100F6000E86800F05EFB05B0BDE8304004B07047B3
:100F7000A0F10400FFF7E7BF82B002AB03E906006F
:100F800002B0704782B002AB03E9060002B07047BE
:100F90000022C1608260024A02605C324260704797
:100FA000043B040884B037B507AC054684E80E005E
:100FB000DDE90A010090ADF80410A86894E80E007D
:100FC00003F08EF903B0BDE8304004B0704782B042
:100FD00080686B4683E8060093E8060002B003F0E1
:100FE00090B970477047704770477047704770B44A
:100FF00045680346C4689B68661005EB6400E40717
:1010000044BFAC59E35870BC18470346406830B140
:101010009A681AB9D86800F001007047012070473B
:1010200030B444680346C2689B68551004EB620004
:10103000D20748BF625930BC48BFD358184703464F
:10104000406830B19A681AB9D86800F0010070475A
:101050000120704710B50446102133F039FE2046B8
:1010600010BD10B50446102133F032FE204610BDED
:1010700000F5C04313B593F804250446D3F81415BE
:1010800003F2045382F00102D8681A700090ADF8A0
:101090000410E06B0ECBFFF785FF02B010BD00001F
:1010A000034B10B5044603600AF0ECFD204610BD6A
:1010B0004459040810B50446FFF7F2FF46F2785190
:1010C000204633F005FE204610BD00F5C04313B5A1
:1010D00093F8042504467AB193F80D2503F20453DE
:1010E000D86882F0010219695A720090ADF80410B4
:1010F000E06B0ECBFFF756FF02B010BD00F5C0430A
:1011000013B593F8042504467AB193F80E2503F23B
:101110000453D86882F0010219699A720090ADF800
:101120000410E06B0ECBFFF73DFF02B010BD00F5E1
:10113000C04313B593F8042504467AB193F80F25FC
:1011400003F20453D86882F001021969DA72009040
:10115000ADF80410E06B0ECBFFF724FF02B010BD1A
:1011600000F5C04313B593F804250446B2B100F569
:101170000362914214D000F507628A1A514251412C
:10118000490083F8061503F20453D86819690090E2
:10119000ADF80410E06B0ECBFFF704FF02B010BDFA
:1011A0000121EEE700F5C04313B593F8042504468A
:1011B000CAB100F62C12914217D000F66C1291427F
:1011C00015D000F6AC128A1A5142514183F8051528
:1011D00003F20453D86819690090ADF80410E06B6D
:1011E0000ECBFFF7DFFE02B010BD0021EEE70221BB
:1011F000ECE700F5C04313B593F804250446F2B1BB
:1012000000F62C2291421CD000F66C2291421AD09A
:1012100000F6AC22914218D000F6EC2291420CBFAD
:101220000321002183F8081503F20453D8681969D3
:101230000090ADF80410E06B0ECBFFF7B3FE02B0E8
:1012400010BD0021EEE70121ECE70221EAE70000F2
:10125000012908D00229054B18BF4FF0FF338362E4
:1012600003685B691847024BF9E700BF00BFFFFF47
:1012700076E600FF10B5044603F0A6FC174B1849AC
:10128000236004F5C043174AC3F83415C3F8441566
:10129000C3F8541514491548C3F85C151449C3F82C
:1012A0003C250022C3F864151249C3F84C052046BA
:1012B000C3F83845C3F84025C3F84845C3F850255E
:1012C000C3F85845C3F86025C3F86845C3F86C15E2
:1012D000C3F87025C3F8742510BD00BF4459040835
:1012E0001459040861110008F3110008A511000841
:1012F0002C590408A118000884B010B5044603A8AE
:1013000080E80E0004F5E0509DF80C100430FFF763
:101310009FFF04F5C6509DF80D101830FFF798FF99
:1013200004F5CA509DF80E100C30FFF791FF9DF8A0
:101330000F1004F5CE50FFF78BFF04F5D1509DF848
:1013400010101430FFF784FF04F5D5509DF81110EC
:101350000830FFF77DFF04F5D8509DF812101C30BF
:10136000FFF776FF04F5DC509DF813101030FFF7FF
:101370006FFF04F5E3509DF814101830FFF768FF75
:1013800004F5E7509DF815100C30FFF761FF9DF84C
:10139000161004F5EB50FFF75BFF04F5EE509DF8D7
:1013A00017101430FFF754FF04F5F2509DF8181091
:1013B0000830FFF74DFF04F5F5509DF819101C306B
:1013C000FFF746FF04F5F9509DF81A101030FFF7AB
:1013D0003FFF04F5FD509DF81B100430FFF738FF68
:1013E00004F500509DF81C101830FFF731FF04F58C
:1013F00002509DF81D100C30FFF72AFF9DF81E10BB
:1014000004F50450FFF724FF04F505509DF81F1064
:101410003430FFF71DFF04F507509DF820102830E9
:10142000FFF716FF04F509509DF821101C30FFF757
:101430000FFF04F50B509DF822101030FFF708FF46
:1014400004F50D509DF823100430FFF701FF04F55B
:101450000E509DF824103830FFF7FAFE04F51050B6
:101460009DF825102C30FFF7F3FE04F512509DF87F
:1014700026102030FFF7ECFE04F5C3509DF827102E
:101480000430BDE8104004B0FFF7E2BE84B010B5F0
:10149000044603A880E80E0004F55B509DF80C108C
:1014A0003830FFF7D5FE04F54F509DF80D100C3085
:1014B000FFF7CEFE9DF80E1004F55150FFF7C8FE61
:1014C00004F552509DF80F103430FFF7C1FE04F5BB
:1014D00054509DF810102830FFF7BAFE04F556500E
:1014E0009DF811101C30FFF7B3FE04F558509DF81D
:1014F00012101030FFF7ACFE04F55A509DF813108F
:101500000430FFF7A5FE04F55D509DF814102C3053
:10151000FFF79EFE04F55F509DF815102030FFF791
:1015200097FE04F561509DF816101430FFF790FEF9
:1015300004F563509DF817100830FFF789FE04F595
:1015400064509DF818103C30FFF782FE04F5665099
:101550009DF819103030FFF77BFE04F568509DF8B8
:101560001A102430FFF774FE04F56A509DF81B1022
:101570001830FFF76DFE04F56C509DF81C100C3010
:10158000FFF766FE9DF81D1004F56E50FFF760FE34
:1015900004F56F509DF81E103430FFF759FE04F526
:1015A00071509DF81F102830FFF752FE04F573505C
:1015B0009DF820101C30FFF74BFE04F575509DF888
:1015C00021101030FFF744FE04F577509DF82210EB
:1015D0000430FFF73DFE04F578509DF823103830B5
:1015E000FFF736FE04F57A509DF824102C30FFF7F3
:1015F0002FFE04F57C509DF825102030FFF728FEC3
:1016000004F57E509DF826101430FFF721FE04F5F6
:101610004D509DF827101830BDE8104004B0FFF77A
:1016200017BE84B038B5044605A804F5165580E801
:101630000E0004F5235008359DF814101030FFF704
:1016400007FE9DF815102846FFF702FE9DF81610BC
:10165000284604F53255FFF7FBFD9DF8171004F5F9
:1016600018500C35FFF7F4FD04F519509DF81810CB
:101670003830FFF7EDFD04F51B509DF819103030A0
:10168000FFF7E6FD04F51D509DF81A102830FFF70E
:10169000DFFD04F51F509DF81B102030FFF7D8FD2B
:1016A00004F521509DF81C101830FFF7D1FD04F50A
:1016B00025509DF81D100830FFF7CAFD9DF81E103B
:1016C00004F52750FFF7C4FD04F52A509DF81F10BC
:1016D0003030FFF7BDFD04F52C509DF82010283068
:1016E000FFF7B6FD04F52E509DF821102030FFF7CE
:1016F000AFFD04F53E509DF822103830FFF7A8FDED
:101700009DF823102846FFF7A3FD9DF824102846D6
:10171000FFF79EFD9DF8251004F53450FFF798FD66
:1017200004F535509DF826103430FFF791FD04F58F
:1017300037509DF827102830FFF78AFD04F53950FF
:101740009DF828101C30FFF783FD04F53B509DF8F1
:1017500029101030FFF77CFD04F53D509DF82A104C
:101760000430FFF775FD04F540509DF82B102C3028
:10177000FFF76EFD04F542509DF82C102030FFF766
:1017800067FD04F546509DF82D100830FFF760FD09
:1017900004F547509DF82E103C30FFF759FD04F535
:1017A00049509DF82F103030BDE8384004B0FFF7A5
:1017B0004FBD000038B50446384D02F061FE0023ED
:1017C00004F5C1402A460521623024F0B2FC04F53C
:1017D000B250043022F082FD04F5C14000232A46B5
:1017E0000521763024F0A5FC04F5B6501C3022F01B
:1017F00075FD04F5C24000232A4605210A3024F075
:1018000098FC04F5BB50143022F068FD04F5C2408A
:1018100000232A460521143024F08BFC04F5BE5029
:1018200022F05CFD04F5C24000232A460A211E3046
:1018300024F07FFC04F58040503022F04FFD04F589
:10184000CA433433C4F8283804F5CA434433C4F8CF
:10185000243904F5CA435433C4F8243A04F5CA437E
:1018600004F500546433C4F8FC38C4F8B435C4F843
:101870002C36C4F8A436C4F81C37C4F89437C4F81E
:101880000C38C4F88438C4F87439C4F8EC39C4F896
:10189000643AC4F8DC3AC4F8CC3B38BDAC3B04082D
:1018A00000F523531033994200F5C04304BFD3F829
:1018B000742542F0010210B508BFC3F8742500F585
:1018C000165204460832914202BFD3F8742542F002
:1018D0000202C3F8742500F51852914202BFD3F8F2
:1018E000742542F00402C3F8742500F51952383209
:1018F000914202BFD3F8742542F00802C3F8742560
:1019000000F51B523032914202BFD3F8742542F0E9
:101910001002C3F8742500F51D522832914202BF0F
:10192000D3F8742542F02002C3F8742500F51F5245
:101930002032914202BFD3F8742542F04002C3F82E
:10194000742500F521521832914202BFD3F8742554
:1019500042F08002C3F8742500F525520832914206
:1019600002BFD3F8742542F48072C3F8742500F5E1
:101970002752914202BFD3F8742542F40072C3F893
:10198000742500F528523832914202BFD3F87425ED
:1019900042F48062C3F8742500F52A523032914235
:1019A00002BFD3F8742542F40062C3F8742500F531
:1019B0002C522832914202BFD3F8742542F480524F
:1019C000C3F8742500F52E5200F5C24020321E30B7
:1019D00091424FF00A0102BFD3F8742542F400523D
:1019E000C3F87425054AD3F8743524F0A2FB04F536
:1019F0008040BDE81040503022F070BCAF3B04087E
:101A000084B0F8B500F5C04507AE044605F5A367F8
:101A100086E80E000FCE0FC7336804F52B769DF8CD
:101A200021203B603046BDF81C309DF820105BBA89
:101A300085F80925BDF82220A5F804359DF81E304B
:101A4000A5F80A2585F806359DF81F3085F8071595
:101A5000003985F808359DF8243018BF012185F834
:101A60000C359DF8253085F81335BDF82630A5F8DE
:101A700014351EF0DCFB304622F030FC95F80915D9
:101A800004F539760039304618BF01211EF0CFFB2E
:101A9000304622F023FC95F80A1504F563760039E8
:101AA000304618BF01211EF0C2FB304622F016FC62
:101AB00095F80C1504F547760039304618BF01211A
:101AC0001EF0B5FB304622F009FC95F80B1504F525
:101AD00055760039304618BF01211EF0A8FB30466C
:101AE00022F0FCFB95F8131504F2AC660039304681
:101AF00018BF01211EF09BFB304622F0EFFB95F84A
:101B0000141504F274760039304618BF01211EF016
:101B10008EFB304622F0E2FB95F80515A1B90121B4
:101B200004F62C101FF0BCFB95F80615B9B901217D
:101B300004F50B601FF0B4FB95F80835032B1ED895
:101B4000DFE803F018363A3E012902D104F66C10A2
:101B5000E8E70229E8D1012104F6AC10E2E7012907
:101B600002D104F50360E5E70229E5D1012104F57E
:101B70000760DFE7012104F62C201FF091FB04F53C
:101B8000BD409DF82830104A0A21323024F0D1FAA5
:101B900004F5BD409DF829300A210B4A463024F057
:101BA000C8FA04F64C40BDE8F84004B022F096BBF9
:101BB000012104F66C20E0E7012104F6AC20DCE70B
:101BC000012104F6EC20D8E7AC3B040884B038B51A
:101BD000044605A81C4D80E80E0004F5C1400B46E4
:101BE0002A460521623024F0A4FA04F5B2500430EC
:101BF00022F074FB04F5C140069B2A46052176308D
:101C000024F097FA04F5B6501C3022F067FB04F577
:101C1000C240079B2A4605210A3024F08AFA04F5BF
:101C2000BB50143022F05AFB04F5C240089B2A46F0
:101C30000521143024F07DFA04F5BE50BDE838408B
:101C400004B022F04BBB00BFAC3B040884B0F8B535
:101C5000044607A82C4DBDF92A6080E80E0004F563
:101C6000BF40BDF926302A460A214A30BDF922700C
:101C700024F05FFA04F58A501C3022F02FFB04F5A3
:101C8000BF403B462A460A215E3024F052FA04F552
:101C90008D50083022F022FB04F5BF4033462A461F
:101CA0000A21723024F045FA04F58F50143022F0E6
:101CB00015FB04F5C040BDF920302A460A21063044
:101CC00024F037FA04F5925022F008FB04F5C040E6
:101CD0003B462A460A211A3024F02BFA04F5945088
:101CE0000C3022F0FBFA04F5C04033462A460A21A4
:101CF0002E3024F01EFA04F59650BDE8F840183056
:101D000004B022F0EBBA00BFAC3B040884B038B595
:101D1000044605A81E4D80E80E0004F5BE40BDF93E
:101D200014302A460A21663024F003FA04F57E6056
:101D300022F0D4FA04F5BE40BDF920302A460A212B
:101D40007A3024F0F6F904F581500C3022F0C6FA0E
:101D500004F5BF40BDF81C302A460A210E3024F09D
:101D6000E8F904F58350183022F0B8FA04F5BF40C2
:101D7000BDF91E302A460A21363024F0DAF904F57E
:101D80008850BDE83840103004B022F0A7BA00BF38
:101D9000AC3B040837B504461D4D02AB00F5BD4011
:101DA00003E906005A30BDF800302A46032124F02A
:101DB000C0F904F6CC5022F091FA04F5BE40BDF80B
:101DC00002302A460321023024F0B3F904F664609D
:101DD00022F084FA04F5BE40BDF806302A460A21F6
:101DE000163024F0A6F904F56B6022F077FA04F5BA
:101DF000BE40BDF804302A460A212A3024F099F961
:101E000004F6FC6003B0BDE8304022F067BA00BFC2
:101E1000AC3B040837B5044602AB104D00F5BE409C
:101E200003E906005230BDF800302A460A2124F0AA
:101E300080F904F6947022F051FA04F5BE40BDF822
:101E400002302A460A213E3024F073F904F6487025
:101E500003B0BDE8304022F041BA00BFAC3B0408FB
:101E600084B073B5044607A8344D354E80E80E00A3
:101E7000BDF81C3004F5C1402A460A2107EE903A0D
:101E8000263001ABF8EE677ACDED017A24F078FBCD
:101E900004F5A85022F022FABDF81E3004F5C14026
:101EA0002A4607EE903A0A2101AB4E30F8EE677AE7
:101EB000CDED017A24F064FB04F5AC50183022F02B
:101EC0000DFA04F5BF40BDF8203032460A21223019
:101ED00024F02FF904F58650043022F0FFF904F5C0
:101EE000C040BDF8223032460A21563024F021F994
:101EF00004F59B50103022F0F1F9099B04F5BD4028
:101F00002A460A2101936E3001AB24F039FB04F616
:101F1000186022F0E3F90A9B04F5C0402A460193B9
:101F20000A2101AB423024F02BFB04F59950043018
:101F300002B0BDE8704004B022F0D0B9B23B040852
:101F4000AC3B040800F5C04313B593F804250446E0
:101F50008AB193F8072503F20453D86882F001028E
:101F60001969DA700090ADF80410E06B0ECBFFF742
:101F700019F802B010BD93F81C1500F52B74003948
:101F8000204618BF01211EF052F9204602B0BDE8DC
:101F9000104022F0A3B900F5C04313B593F804250F
:101FA00004468AB193F8092503F20453D86882F0F5
:101FB000010219695A710090ADF80410E06B0ECB64
:101FC000FEF7F0FF02B010BD93F81D1500F539744F
:101FD0000039204618BF01211EF029F9204602B021
:101FE000BDE8104022F07AB900F5C04313B593F86C
:101FF000042504468AB193F80A2503F20453D868ED
:1020000082F0010219699A710090ADF80410E06B3A
:102010000ECBFEF7C7FF02B010BD93F81E1500F5FA
:1020200063740039204618BF01211EF000F92046D4
:1020300002B0BDE8104022F051B900F5C04313B51D
:1020400093F8042504468AB193F80C2503F204534F
:10205000D86882F0010219691A720090ADF8041074
:10206000E06B0ECBFEF79EFF02B010BD93F820157B
:1020700000F547740039204618BF01211EF0D7F83B
:10208000204602B0BDE8104022F028B900F5C04358
:1020900013B593F8042504468AB193F80B2503F28F
:1020A0000453D86882F001021969DA710090ADF822
:1020B0000410E06B0ECBFEF775FF02B010BD93F875
:1020C0001F1500F555740039204618BF01211EF078
:1020D000AEF8204602B0BDE8104022F0FFB800F58F
:1020E000C04313B593F8042504468AB193F8132529
:1020F00003F20453196982F00102DA73D868ADF86B
:1021000004100090E06B0ECBFEF74CFF02B010BD48
:1021100093F8211500F2AC640039204618BF012164
:102120001EF085F8204602B0BDE8104022F0D6B877
:1021300000F5C04313B593F8042504468AB193F81B
:10214000142503F20453D86882F001021A74196945
:102150000090ADF80410E06B0ECBFEF723FF02B049
:1021600010BD93F8221500F274740039204618BF90
:1021700001211EF05CF8204602B0BDE8104022F0BC
:10218000ADB800F5C04310B593F8042562B1D3F89B
:102190007425C06BC3F82C25D3F83025D3F82C1543
:1021A000BDE81040FEF713BF00F58144D3F82C15AD
:1021B00064340039204618BF01211EF038F820464B
:1021C000BDE8104022F08AB800F5C04310B593F87E
:1021D0000425D3F830155AB181F00101C06B0A46CD
:1021E000C3F83015D3F82C15BDE81040FEF7EFBE4C
:1021F00000F58244003904F1640418BF012120462F
:102200001EF015F82046BDE8104022F067B8000027
:1022100037B504463B4D02AB00F5C44003E9060068
:102220004A309DF800302A460A2123F082FF04F547
:102230008D40283022F052F804F5C4409DF801305A
:102240002A460A21363023F074FF04F58C405C30B6
:1022500022F044F804F5C3409DF802302A460A21D2
:102260002A3023F066FF04F58840483022F036F823
:1022700004F5C2409DF803302A460A21463023F077
:1022800058FF04F585404C3022F028F804F5C3408F
:102290009DF804302A460A21023023F04AFF04F553
:1022A0008740303022F01AF804F5C2409DF805301E
:1022B0002A460A215A3023F03CFF04F586401830A4
:1022C00022F00CF804F5C3409DF806302A460A2196
:1022D000163023F02EFF04F587407C3021F0FEFFFE
:1022E00004F5C2409DF807302A460A216E3023F0DB
:1022F00020FF04F58640643003B0BDE8304021F093
:10230000EDBF00BFAC3B040837B504463A4D02AB05
:1023100000F5C54003E906007E309DF800302A46EE
:102320000A2123F006FF04F59240543021F0D6FF35
:1023300004F5C2409DF801302A460A21323023F0CC
:10234000F8FE04F5854021F0C9FF04F5C4409DF86E
:1023500002302A460A21723023F0EBFE04F58E404B
:10236000403021F0BBFF04F5C3409DF803302A46FE
:102370000A213E3023F0DDFE04F58940143021F0BF
:10238000ADFF04F5C4409DF804302A460A210E3002
:1023900023F0CFFE04F58B40443021F09FFF04F57D
:1023A000C3409DF805302A460A21523023F0C1FE71
:1023B00004F58940603021F091FF04F5C3409DF899
:1023C00006302A460A217A3023F0B3FE04F58A400B
:1023D000783021F083FF04F5C3409DF807302A468A
:1023E0000A21663023F0A5FE04F58A402C3003B0A4
:1023F000BDE8304021F072BFAC3B040837B504465D
:102400003B4D02AB00F5C54003E906006A309DF87C
:1024100000302A460A2123F08CFE04F59240083051
:1024200021F05CFF04F5C4409DF801302A460A21E2
:102430005E3023F07EFE04F58D40743021F04EFFB7
:1024400004F5C4409DF802302A460A21223023F0C8
:1024500070FE04F58C40103021F040FF04F5C540BB
:102460009DF803302A460A21063023F062FE04F567
:102470008F400C3021F032FF04F5C5409DF8043048
:102480002A460A21563023F054FE04F591403C3090
:1024900021F024FF04F5C5409DF805302A460A21A5
:1024A0001A3023F046FE04F58F40583021F016FF15
:1024B00004F5C5409DF806302A460A21423023F033
:1024C00038FE04F59040703021F008FF04F5C54057
:1024D0009DF807302A460A212E3023F02AFE04F503
:1024E0009040243003B0BDE8304021F0F7BE00BF7B
:1024F000AC3B040837B504463B4D02AB00F5C84081
:1025000003E906002A309DF800302A460A2123F00C
:1025100010FE04F5A940683021F0E0FE04F5C84043
:102520009DF801302A460A21163023F002FE04F5F8
:10253000A9401C3021F0D2FE0A2104F5C7409DF8C5
:1025400002302A46084423F0F4FD04F5A540083083
:1025500021F0C4FE04F5C6409DF803302A460A2146
:10256000263023F0E6FD04F5A2400C3021F0B6FE43
:1025700004F5C6409DF804302A460A21623023F053
:10258000D8FD04F5A340703021F0A8FE04F5C64044
:102590009DF805302A460A213A3023F0CAFD04F599
:1025A000A240583021F09AFE04F5C6409DF806304E
:1025B0002A460A21763023F0BCFD04F5A4403C30C5
:1025C00021F08CFE04F5C6409DF807302A460A210A
:1025D0004E3023F0AEFD04F5A340243003B0BDE837
:1025E000304021F07BBE00BFAC3B040884B013B583
:1025F00005AC84E80E009DF8343000F69C441BB115
:10260000012B0FD00C2300E00D23204601A9ADF8CB
:1026100004301EF0E2FC204602B0BDE8104004B0D9
:1026200021F05CBE0E23F0E70022C0F82C21704799
:102630001FB504A8069C00E90E00032202A8212170
:1026400017F02EFF94F8202000238B4208BF82420F
:102650000EBF184684F82000012004B010BD30B52C
:1026600085B0002504A8089C00E90E00032202A8FA
:10267000002117F015FF237801228D4208BF834205
:102680004FF0030118BF207002A818BF012517F0F2
:1026900007FF63780322002908BF83424FF004013B
:1026A00018BF607002A818BF012517F0F9FEA378C3
:1026B0000422002908BF83424FF0070118BFA07011
:1026C00002A818BF012517F0EBFEE37801220029CC
:1026D00008BF83424FF00B0118BFE07002A818BF7B
:1026E000012517F0DDFE23790122002908BF83426E
:1026F0004FF00C0118BF207102A818BF012517F078
:10270000CFFE63790122002908BF83424FF00D01FB
:1027100018BF607102A818BF012517F0C1FEA37988
:102720000122002908BF83424FF00E0118BFA0719B
:1027300002A818BF012517F0B3FEE3790122002992
:1027400008BF83424FF00F0118BFE07102A818BF05
:10275000012517F0A5FE237A0122002908BF834234
:102760004FF0100118BF207202A818BF012517F002
:1027700097FE637A0122002908BF83424FF01101BE
:1027800018BF607202A818BF012517F089FEA37A4E
:102790000122002908BF83424FF0120118BFA07226
:1027A00002A818BF012517F07BFEE37A0522002955
:1027B00008BF83424FF0130118BFE07202A818BF90
:1027C000012517F06DFE237B0822002908BF8342F4
:1027D0004FF0180118BF20730DEB020018BF012540
:1027E00017F05EFE637B2022002908BF834211465A
:1027F00018BF607302A818BF012517F051FE2369A6
:10280000002908BF83421CBF01252061284605B06E
:1028100030BD30B585B0002504A8089C00E90E0045
:10282000022202A8002117F03BFE237802228D42EB
:1028300008BF8342114618BF207002A818BF0125A7
:1028400017F02EFE63780222002908BF83424FF062
:10285000040118BF607002A818BF012517F020FE00
:10286000A3780222002908BF83424FF0060118BF57
:10287000A07002A818BF012517F012FEE37802220B
:10288000002908BF83424FF0080118BFE0700DEB2C
:10289000010018BF012517F003FE23790222002949
:1028A00008BF83424FF00A0118BF207102A818BF69
:1028B000012517F0F5FD63790222002908BF834244
:1028C0004FF00C0118BF607102A818BF012517F066
:1028D000E7FDA3790222002908BF83424FF00E01D1
:1028E00018BFA07102A818BF012517F0D9FDE37920
:1028F0000222002908BF83424FF0100118BFE07187
:1029000002A818BF012517F0CBFD237A0222002967
:1029100008BF83424FF0120118BF207202A818BFEF
:10292000012517F0BDFD637A0222002908BF83420A
:102930004FF0140118BF607202A818BF012517F0EC
:10294000AFFDA37A0222002908BF83424FF016018F
:1029500018BFA07202A818BF012517F0A1FDE37AE5
:102960000222002908BF83424FF0180118BFE0720D
:1029700002A818BF012517F093FD237B022200292E
:1029800008BF83424FF01A0118BF207302A818BF76
:10299000012517F085FD637B0222002908BF8342D1
:1029A0004FF01C0118BF607302A818BF012517F073
:1029B00077FDA37B0222002908BF83424FF01E014E
:1029C00018BFA07302A818BF012517F069FDE37BAB
:1029D0000222002908BF83424FF0200118BFE07394
:1029E00002A818BF012517F05BFD237C02220029F5
:1029F00008BF83424FF0220118BF207402A818BFFD
:102A0000012517F04DFD637C0222002908BF834297
:102A10004FF0240118BF607402A818BF012517F0F9
:102A20003FFDA37C0222002908BF83424FF026010C
:102A300018BFA07402A818BF012517F031FDE37C70
:102A40000222002908BF83424FF0280118BFE0741A
:102A500002A818BF012517F023FD237D02220029BB
:102A600008BF83424FF02A0118BF207502A818BF83
:102A7000012517F015FD637D0222002908BF83425E
:102A80004FF02C0118BF607502A818BF012517F080
:102A900007FDA37D0222002908BF83424FF02E01CB
:102AA00018BFA07502A818BF012517F0F9FCE37D37
:102AB0000222002908BF83424FF0300118BFE075A1
:102AC00002A818BF012517F0EBFC237E0222002983
:102AD00008BF83424FF0320118BF207602A818BF0A
:102AE000012517F0DDFC637E0222002908BF834226
:102AF0004FF0340118BF607602A818BF012517F007
:102B0000CFFCA37E0222002908BF83424FF036018A
:102B100018BFA07602A818BF012517F0C1FCE37EFC
:102B2000002908BF83421CBF0125E076284605B076
:102B300030BD30B585B0002504A8089C00E90E0022
:102B4000022202A8002117F0ABFC237802228D425A
:102B500008BF8342114618BF207002A818BF012584
:102B600017F09EFC63780222002908BF83424FF0D1
:102B7000040118BF607002A818BF012517F090FC6F
:102B8000A3780222002908BF83424FF0060118BF34
:102B9000A07002A818BF012517F082FCE37802227A
:102BA000002908BF83424FF0080118BFE0700DEB09
:102BB000010018BF012517F073FC237902220029B8
:102BC00008BF83424FF00A0118BF207102A818BF46
:102BD000012517F065FC63790222002908BF8342B2
:102BE0004FF00C0118BF607102A818BF012517F043
:102BF00057FCA3790222002908BF83424FF00E013F
:102C000018BFA07102A818BF012517F049FCE3798D
:102C10000222002908BF83424FF0100118BFE07163
:102C200002A818BF012517F03BFC237A02220029D5
:102C300008BF83424FF0120118BF207202A818BFCC
:102C4000012517F02DFC637A0222002908BF834278
:102C50004FF0140118BF607202A818BF012517F0C9
:102C60001FFCA37A0222002908BF83424FF01601FD
:102C700018BFA07202A818BF012517F011FCE37A53
:102C80000222002908BF83424FF0180118BFE072EA
:102C900002A818BF012517F003FC237B022200299C
:102CA00008BF83424FF01A0118BF207302A818BF53
:102CB000012517F0F5FB637B0222002908BF834240
:102CC0004FF01C0118BF607302A818BF012517F050
:102CD000E7FBA37B0222002908BF83424FF01E01BD
:102CE00018BFA07302A818BF012517F0D9FBE37B1A
:102CF0000222002908BF83424FF0200118BFE07371
:102D000002A818BF012517F0CBFB237C0222002963
:102D100008BF83424FF0220118BF207402A818BFD9
:102D2000012517F0BDFB637C0222002908BF834206
:102D30004FF0240118BF607402A818BF012517F0D6
:102D4000AFFBA37C0222002908BF83424FF026017B
:102D500018BFA07402A818BF012517F0A1FBE37CDF
:102D60000222002908BF83424FF0280118BFE074F7
:102D700002A818BF012517F093FB237D022200292A
:102D800008BF83424FF02A0118BF207502A818BF60
:102D9000012517F085FB637D0222002908BF8342CD
:102DA0004FF02C0118BF607502A818BF012517F05D
:102DB00077FBA37D0222002908BF83424FF02E013A
:102DC00018BFA07502A818BF012517F069FBE37DA5
:102DD0000222002908BF83424FF0300118BFE0757E
:102DE00002A818BF012517F05BFB237E02220029F1
:102DF00008BF83424FF0320118BF207602A818BFE7
:102E0000012517F04DFB637E0222002908BF834293
:102E10004FF0340118BF607602A818BF012517F0E3
:102E20003FFBA37E0222002908BF83424FF03601F8
:102E300018BFA07602A818BF012517F031FBE37E6A
:102E4000002908BF83421CBF0125E076284605B053
:102E500030BD30B585B0002504A8089C00E90E00FF
:102E6000022202A8002117F01BFB237802228D42C8
:102E700008BF8342114618BF207002A818BF012561
:102E800017F00EFB63780222002908BF83424FF03F
:102E9000040118BF607002A818BF012517F000FBDD
:102EA000A3780222002908BF83424FF0060118BF11
:102EB000A07002A818BF012517F0F2FAE3780222E9
:102EC000002908BF83424FF0080118BFE0700DEBE6
:102ED000010018BF012517F0E3FA23790222002927
:102EE00008BF83424FF00A0118BF207102A818BF23
:102EF000012517F0D5FA63790222002908BF834221
:102F00004FF00C0118BF607102A818BF012517F01F
:102F1000C7FAA3790222002908BF83424FF00E01AD
:102F200018BFA07102A818BF012517F0B9FAE379FC
:102F30000222002908BF83424FF0100118BFE07140
:102F400002A818BF012517F0ABFA237A0222002944
:102F500008BF83424FF0120118BF207202A818BFA9
:102F6000012517F09DFA637A0222002908BF8342E7
:102F70004FF0140118BF607202A818BF012517F0A6
:102F80008FFAA37A0222002908BF83424FF016016C
:102F900018BFA07202A818BF012517F081FAE37AC2
:102FA0000222002908BF83424FF0180118BFE072C7
:102FB00002A818BF012517F073FA237B022200290B
:102FC00008BF83424FF01A0118BF207302A818BF30
:102FD000012517F065FA637B0222002908BF8342AE
:102FE0004FF01C0118BF607302A818BF012517F02D
:102FF00057FAA37B0222002908BF83424FF01E012B
:1030000018BFA07302A818BF012517F049FAE37B87
:103010000222002908BF83424FF0200118BFE0734D
:1030200002A818BF012517F03BFA237C02220029D1
:1030300008BF83424FF0220118BF207402A818BFB6
:10304000012517F02DFA637C0222002908BF834274
:103050004FF0240118BF607402A818BF012517F0B3
:103060001FFAA37C0222002908BF83424FF02601E9
:1030700018BFA07402A818BF012517F011FAE37C4D
:103080000222002908BF83424FF0280118BFE074D4
:1030900002A818BF012517F003FA237D0222002998
:1030A00008BF83424FF02A0118BF207502A818BF3D
:1030B000012517F0F5F9637D0222002908BF83423C
:1030C0004FF02C0118BF607502A818BF012517F03A
:1030D000E7F9A37D0222002908BF83424FF02E01A9
:1030E00018BFA07502A818BF012517F0D9F9E37D14
:1030F0000222002908BF83424FF0300118BFE0755B
:1031000002A818BF012517F0CBF9237E022200295F
:1031100008BF83424FF0320118BF207602A818BFC3
:10312000012517F0BDF9637E0222002908BF834202
:103130004FF0340118BF607602A818BF012517F0C0
:10314000AFF9A37E0222002908BF83424FF0360167
:1031500018BFA07602A818BF012517F0A1F9E37ED9
:10316000002908BF83421CBF0125E076284605B030
:1031700030BD000030B52DED028B85B000259FEDF0
:103180003E8A04A80A9C00E90E00092202A8002138
:1031900017F086F9C83823884FF0090261F1000161
:1031A0008D4208BF8342114618BF208002A818BF75
:1031B000012517F075F9C83863884FF0100261F1E6
:1031C0000001002908BF83424FF0120118BF608040
:1031D00002A818BF012517F063F9A3880A22002965
:1031E00008BF83424FF0220118BFA08002A818BF79
:1031F000012517F055F9E3880A22002908BF834208
:103200004FF02C0118BFE08002A818BF012517F06D
:1032100047F9FDF7E9FB07EE100AD4ED027A082220
:1032200027EE087A36210DEB020077EEC77AF0EE32
:10323000E77AF4EEC87AF1EE10FAC4BF84ED027AB0
:10324000012517F02DF9FDF7CFFB07EE100AD4ED9D
:10325000037A27EE087A77EEC77AF0EEE77AF4EE93
:10326000C87AF1EE10FAC4BF012584ED037A28462E
:1032700005B0BDEC028B30BDCDCCCC3D30B585B0BA
:10328000002504A8089C00E90E00052202A80021E0
:1032900017F006F9236805228D4208BF83421146C4
:1032A00018BF206002A818BF012517F0F9F863685D
:1032B0000522002908BF83424FF00A0118BF606051
:1032C00002A818BF012517F0EBF8A3680522002912
:1032D00008BF83424FF00F0118BFA06002A818BFBB
:1032E000012517F0DDF8E3680122002908BF8342B9
:1032F0004FF0140118BFE06002A818BF012517F0B5
:10330000CFF8237C0122002908BF83424FF015012A
:1033100018BF207402A818BF012517F0C1F8637CFC
:103320000122002908BF83424FF0160118BF6074C4
:1033300002A818BF012517F0B3F8A37C01220029C9
:1033400008BF83424FF0170118BFA07402A818BF2E
:10335000012517F0A5F8E37C0C22002908BF834261
:103360004FF0180118BFE07402A818BF012517F02C
:1033700097F8194B0C22C018636961F1000100290C
:1033800008BF83424FF0240118BF606102A818BF34
:10339000012517F085F8104B0C22C018A36961F1C4
:1033A0000001002908BF83424FF0300118BFA0611F
:1033B00002A818BF012517F073F8074BC018E3697E
:1033C00061F10001002908BF83421CBF0125E061B3
:1033D000284605B030BD00BF3CF6FFFF30B585B0D4
:1033E00004A8089C00E90E00082200210DEB020051
:1033F00017F056F8B4F9003032384FEAE37261F151
:1034000000018A4208BF83424FF0080218BF2080A3
:1034100011460DEB020014BF0125002517F040F8FE
:10342000B4F9003032384FEAE37261F100018A42A8
:1034300008BF83424FF008024FF0100118BF2080F0
:103440000DEB020018BF012517F02AF8B4F904307B
:1034500032384FEAE37261F100018A4208BF8342C9
:103460004FF008024FF0180118BFA0800DEB0200CA
:1034700018BF012517F014F8B4F9063032384FEAB6
:10348000E37261F100018A4208BF83424FF00802F3
:103490004FF0200118BFE0800DEB020018BF01259E
:1034A00016F0FEFFB4F9083032384FEAE37261F1EA
:1034B00000018A4208BF83424FF008024FF0280102
:1034C00018BF20810DEB020018BF012516F0E8FFA0
:1034D000B4F90A3032384FEAE37261F100018A42EE
:1034E00008BF83424FF008024FF0300118BF6081DF
:1034F0000DEB020018BF012516F0D2FFB4F90C3015
:1035000032384FEAE37261F100018A4208BF834218
:103510004FF008024FF0380118BFA0810DEB0200F8
:1035200018BF012516F0BCFFB4F90E3032384FEA4F
:10353000E37261F100018A4208BF83421CBF01258A
:10354000E081284605B030BD30B585B004A8089CA0
:1035500000E90E00082200210DEB020016F0A0FF8A
:10356000B4F9003032384FEAE37261F100018A4267
:1035700008BF83424FF0080218BF208011460DEBB0
:10358000020014BF0125002516F08AFFB4F90230AD
:1035900032384FEAE37261F100018A4208BF834288
:1035A0004FF008024FF0100118BF60800DEB0200D1
:1035B00018BF012516F074FFB4F9043032384FEA11
:1035C000E37261F100018A4208BF83424FF00802B2
:1035D0004FF0180118BFA0800DEB020018BF0125A5
:1035E00016F05EFFB4F9063032384FEAE37261F14B
:1035F00000018A4208BF83424FF010024FF02001C1
:1036000018BFE08002A818BF012516F049FF2389E2
:103610000822002908BF83424FF0300118BF2081E3
:103620000DEB020018BF012516F03AFFB4F90A307D
:1036300032384FEAE37261F100018A4208BF8342E7
:103640004FF008024FF02E0118BF60810DEB020011
:1036500018BF012516F024FFB4F90C3032384FEAB8
:10366000E37261F100018A4208BF83421CBF012559
:10367000A081284605B030BD30B585B0002404A82F
:10368000089D00E90E00102202A8002116F008FF94
:10369000214B2A881B1802A861F100018C4208BF47
:1036A0009A424FF0100218BF6B80114618BF0124D8
:1036B00016F0F6FE184B6A881B1802A861F100018B
:1036C000002908BF9A424FF010024FF020011CBFA2
:1036D0006B80012416F0E4FE0F4BAA881B1802A889
:1036E00061F10001002908BF9A424FF010024FF02B
:1036F00030011CBFAB80012416F0D2FE064BEA88D5
:103700001B1861F10001002908BF9A421CBF012467
:10371000EB80204605B030BD78ECFFFF30B585B0BA
:10372000002404A8089D00E90E00102202A8002130
:1037300016F0B6FE214B2A881B1802A861F1000181
:103740008C4208BF9A424FF0100218BF2B801146DE
:1037500018BF012416F0A4FE184B6A881B1802A893
:1037600061F10001002908BF9A424FF010024FF0AA
:1037700020011CBF6B80012416F092FE104BAA881A
:103780001B1802A861F10001002908BF9A424FF0FE
:1037900010024FF030011CBFAB80012416F080FEF8
:1037A000064BEA881B1861F10001002908BF9A4204
:1037B0001CBF0124EB80204605B030BD78ECFFFF34
:1037C0003CF6FFFF30B585B0002504A8089C00E951
:1037D0000E00082200210DEB020016F061FE3238C7
:1037E00063784FF0080261F100018D4208BF834207
:1037F000114618BF60700DEB020018BF012516F0CE
:103800004FFE323823784FF0080261F100010029A1
:1038100008BF83424FF0100118BF20700DEB02006B
:1038200018BF012516F03CFE3238A3784FF008028D
:1038300061F10001002908BF83424FF0180118BF51
:10384000A0700DEB020018BF012516F029FE3238DA
:10385000E3784FF0080261F10001002908BF8342BC
:103860004FF0200118BFE0700DEB020018BF0125DA
:1038700016F016FE323823794FF0080261F100018C
:10388000002908BF83424FF0280118BF20710DEBBB
:10389000020018BF012516F003FE323863794FF09D
:1038A000080261F10001002908BF83424FF0300196
:1038B00018BF60710DEB020018BF012516F0F0FD76
:1038C0003238A3794FF0080261F10001002908BFE6
:1038D00083424FF0380118BFA0710DEB020018BFF2
:1038E000012516F0DDFD3238E37961F10001002990
:1038F00008BF83421CBF0125E071284605B030BDDA
:1039000030B585B0002504A8089C00E90E00082207
:1039100000210DEB020016F0C3FD323823784FF082
:10392000080261F100018D4208BF8342114618BFB1
:1039300020700DEB020018BF012516F0B1FD3238E2
:1039400023784FF0080261F10001002908BF83428B
:103950004FF0100118BF20700DEB020018BF0125B9
:1039600016F09EFD3238A3784FF0080261F1000195
:10397000002908BF83424FF0180118BFA0700DEB5B
:10398000020018BF012516F08BFD3238E3784FF0A6
:10399000080261F10001002908BF83424FF02001B5
:1039A00018BFE0700DEB020018BF012516F078FD7E
:1039B000323823794FF0080261F10001002908BF75
:1039C00083424FF0280118BF20710DEB020018BF91
:1039D000012516F065FD323863794FF0080261F178
:1039E0000001002908BF83424FF0300118BF607109
:1039F0000DEB020018BF012516F052FD3238A379F5
:103A00004FF0080261F10001002908BF83424FF026
:103A1000380118BFA0710DEB020018BF012516F088
:103A20003FFD3238E37961F10001002908BF83428C
:103A30001CBF0125E071284605B030BD30B585B00A
:103A4000002504A8089C00E90E00082200210DEBC7
:103A5000020016F025FD323863784FF0080261F15C
:103A600000018D4208BF8342114618BF60700DEB04
:103A7000020018BF012516F013FD323823784FF0ED
:103A8000080261F10001002908BF83424FF01001D4
:103A900018BF20700DEB020018BF012516F000FDC5
:103AA0003238A3784FF0080261F10001002908BF05
:103AB00083424FF0180118BFA0700DEB020018BF31
:103AC000012516F0EDFC3238E3784FF0080261F181
:103AD0000001002908BF83424FF0200118BFE070A9
:103AE0000DEB020018BF012516F0DAFC32382379FD
:103AF0004FF0080261F10001002908BF83424FF036
:103B0000280118BF20710DEB020018BF012516F027
:103B1000C7FC323863794FF0080261F100010029D7
:103B200008BF83424FF0300118BF60710DEB0200F7
:103B300018BF012516F0B4FC3238A3794FF0080203
:103B400061F10001002908BF83424FF0380118BF1E
:103B5000A0710DEB020018BF012516F0A1FC323850
:103B6000E37961F10001002908BF83421CBF0125F0
:103B7000E071284605B030BD30B585B0002504A8F9
:103B8000089C00E90E00082200210DEB020016F04F
:103B900087FC323823784FF0080261F100018D4232
:103BA00008BF8342114618BF20700DEB020018BFFA
:103BB000012516F075FC323823784FF0080261F1C8
:103BC0000001002908BF83424FF0100118BF207088
:103BD0000DEB020018BF012516F062FC3238A37805
:103BE0004FF0080261F10001002908BF83424FF045
:103BF000180118BFA0700DEB020018BF012516F0C8
:103C00004FFC3238E3784FF0080261F100010029DF
:103C100008BF83424FF0200118BFE0700DEB020097
:103C200018BF012516F03CFC323823794FF008020A
:103C300061F10001002908BF83424FF0280118BF3D
:103C400020710DEB020018BF012516F029FC323857
:103C500063794FF0080261F10001002908BF834237
:103C60004FF0300118BF60710DEB020018BF012545
:103C700016F016FC3238A3794FF0080261F100010A
:103C8000002908BF83424FF0380118BFA0710DEB27
:103C9000020018BF012516F003FC3238E37961F108
:103CA0000001002908BF83421CBF0125E07128469E
:103CB00005B030BD30B585B0002504A8089C00E9EA
:103CC0000E00082200210DEB020016F0E9FB32384D
:103CD00023784FF0080261F100018D4208BF834252
:103CE000114618BF20700DEB020018BF012516F019
:103CF000D7FB323823784FF0080261F10001002928
:103D000008BF83424FF0100118BF20700DEB020076
:103D100018BF012516F0C4FB3238A3784FF0080213
:103D200061F10001002908BF83424FF0180118BF5C
:103D3000A0700DEB020018BF012516F0B1FB323860
:103D4000E3784FF0080261F10001002908BF8342C7
:103D50004FF0200118BFE0700DEB020018BF0125E5
:103D600016F09EFB323823794FF0080261F1000112
:103D7000002908BF83424FF0280118BF20710DEBC6
:103D8000020018BF012516F08BFB323863794FF023
:103D9000080261F10001002908BF83424FF03001A1
:103DA00018BF60710DEB020018BF012516F078FBFB
:103DB0003238A3794FF0080261F10001002908BFF1
:103DC00083424FF0380118BFA0710DEB020018BFFD
:103DD000012516F065FB3238E37961F10001002915
:103DE00008BF83421CBF0125E071284605B030BDE5
:103DF00030B585B0002504A8089C00E90E00082213
:103E000000210DEB020016F04BFB323823784FF007
:103E1000080261F100018D4208BF8342114618BFBC
:103E200020700DEB020018BF012516F039FB323867
:103E300063784FF0080261F10001002908BF834256
:103E40004FF0100118BF60700DEB020018BF012584
:103E500016F026FB3238A3784FF0080261F100011A
:103E6000002908BF83424FF0180118BFA0700DEB66
:103E7000020018BF012516F013FB3238E3784FF02B
:103E8000080261F10001002908BF83424FF02001C0
:103E900018BFE0700DEB020018BF012516F000FB03
:103EA000323823794FF0080261F10001002908BF80
:103EB00083424FF0280118BF20710DEB020018BF9C
:103EC000012516F0EDFA323863794FF0080261F1FE
:103ED0000001002908BF83424FF0300118BF607114
:103EE0000DEB020018BF012516F0DAFA3238A3797B
:103EF0004FF0080261F10001002908BF83424FF032
:103F0000380118BFA0710DEB020018BF012516F093
:103F1000C7FA3238E37961F10001002908BF834212
:103F20001CBF0125E071284605B030BD2DE9F04FDA
:103F300004468FB00A27DFF80C83DFF80C93DFF814
:103F40000CA30BAD0023D8F800001A4629460BF04D
:103F50003AFF002848D10B9B4B4500F29C81B84AA0
:103F600093423FD903F17043043B202B3AD8DFE85A
:103F700013F066007A0039003E005200210039003B
:103F8000390039003900390039000301390039009E
:103F900039006F0139008D00A000B300C70039005F
:103FA00039003900390039003900DB00EF003900F1
:103FB00039004C010094204695E80E00FFF75EF9A9
:103FC00080B104F10C06D4F82CC16D46DCF800E099
:103FD0000FCE0FC5336860462B60DEF8085094E8BA
:103FE0000E00A847013FACD10FB0BDE8F08F04F13F
:103FF00020062046009695E80E00FFF7EFF900280E
:10400000F0D0D4F82C01E36A05680093ED6896E8D7
:104010000E00A847E6E704F130062046009695E832
:104020000E00FFF791FA0028DCD0D4F82C01A38F02
:104030000568ADF800302D6996E80E00E9E704F157
:104040003E032046009395E80E00FFF715FB00287D
:10405000C8D0D4F82C01D4F83E100368D4F842201C
:104060005B699847BEE704F146032046009395E854
:104070000E00FFF753FB0028B4D0D4F82C01D4F87D
:1040800046100368D4F84A209B69EAE704F14E031E
:104090002046009395E80E00FFF794FB0028A1D07E
:1040A000D4F82C01D4F84E100368D4F85220DB6900
:1040B000D7E704F156032046009395E80E00FFF77A
:1040C0001FFC00288ED0D4F82C01D4F856100368B9
:1040D000D4F85A201B6AC4E704F15E03204600931B
:1040E00095E80E00FFF7AAFC00283FF47BAFD4F858
:1040F0002C01D4F85E100368D4F862205B6AB0E744
:1041000004F166032046009395E80E00FFF734FDA6
:1041100000283FF467AFD4F82C01D4F86610036888
:10412000D4F86A209B6A9CE704F16E032046009352
:1041300095E80E00FFF7BEFD00283FF453AFD4F81A
:104140002C01D4F86E100368D4F87220DB6A88E77B
:1041500004F176032046009395E80E00FFF748FE31
:1041600000283FF43FAFD4F82C01D4F87610036850
:10417000D4F87A201B6B74E704F180062046009681
:1041800095E80E00FEF7F6FF00283FF42BAFD4F8B9
:104190002C01D4F88C30056800936D6B96E80E0006
:1041A00037E704F190062046009695E80E00FEF7EA
:1041B000C0FC00283FF416AFD4F82C5104F19C0346
:1041C000D5F800C00FCB8DE80F0096E80E00DCF8A4
:1041D00038602846B04705E704F1AC062046009653
:1041E00095E80E00FEF735FE00283FF4FBAED4F84C
:1041F0002C5104F1B803D5F800C00FCB8DE80F00A7
:1042000096E80E00DCF83C60E3E704F1E4062046A3
:10421000009695E80E00FEF722FA00283FF4E2AE81
:10422000D4F82C51D4E93C01D5F800C08DE8030046
:10423000284696E80E00DCF84460B047D2E600BF9E
:1042400003000010000E032424000010440000109E
:1042500004F1F8062046009695E80E00FEF7E8F90E
:1042600000283FF4BFAE04F5827CD4F82CE16D4603
:10427000DEF800B0BCE80F000FC5BCE80F000FC5AA
:104280009CE8030085E803007046DBF8485096E898
:104290000E00A847A6E6534583D0104A93429BD010
:1042A000023A93427FF49EAE04F1C806204600967F
:1042B00095E80E00FEF7ADFA00283FF493AED4F86F
:1042C0002C5104F1D403D5F800C00FCB8DE80F00BA
:1042D00096E80E00DCF840607BE700BF4500001068
:1042E00084B007B505A880E80E00BDF82430ADF80D
:1042F00000300FC816F018FA03B05DF804EB04B0F4
:10430000704782B06B4683E8060093E8030002B072
:1043100016F028BA704700F598730868496803C317
:104320007047704707F0F0BD10B504464FF4AE710A
:1043300030F0CEFC204610BD10B50446D0F8580130
:10434000FFF7F4FD2046BDE810401EF0AFBE10B5EB
:104350000446D0F8400158B10368DB68984738B18B
:10436000D4F8400103689B6898470023C4F84031A3
:1043700010BD000010B5044607F092FD014B204629
:10438000236010BDB0590408002070478180704739
:10439000C180704701817047418170477047704705
:1043A00070477047704710B4C4880368121B848834
:1043B0005B6D091B12B25DF8044B09B218474FF64A
:1043C000FF7383814FF0FF3303621368C361106092
:1043D0007047704770477047704730B585B00368C5
:1043E000044601816D460146D3F884303C342846AA
:1043F000984795E8070084E8070005B030BD30B560
:1044000085B00368044641816D460146D3F8843087
:104410003C342846984795E8070084E8070005B033
:1044200030BD0022028042808280C280704780F8C6
:1044300036107047036870B504461B6B15469847E5
:104440002368204629465B6EBDE87040184700206F
:104450007047806C7047806C7047C06C70477047C5
:104460007047704770477047704770477047704794
:104470007047704770477047704770477047704784
:10448000704700F51D73994270B504460D4602D180
:104490000368DB6A984704F52B739D4203D12368B8
:1044A00020461B6B984704F539739D4203D123685E
:1044B00020465B6B984704F547739D4203D1236800
:1044C00020469B6B984704F555739D4203D12368A2
:1044D0002046DB6B984704F563739D4203D1236844
:1044E00020461B6C984704F204639D4203D1236865
:1044F00020465B6C984704F23C639D4203D12368DD
:1045000020469B6C984704F274639D4203D1236854
:104510002046DB6C984704F2AC639D4203D12368CC
:1045200020461B6D984704F274739D4203D12368A3
:1045300020465B6D984704F5814364339D4203D167
:10454000236820469B6D984704F5824364339D425F
:1045500003D123682046DB6D984704F551639D42E3
:1045600005D1236820461B6EBDE87040184770BD1A
:10457000704770477047704730B444680346C2685C
:104580009B68551004EB6200D20748BF625930BCEB
:1045900048BFD35818470346406830B19A681AB9E3
:1045A000D86800F00100704701207047838A8B4271
:1045B00086BF00EB81004068002070470346818A77
:1045C000002010B582B2914202D84FF0FF3010BDEA
:1045D00053F8044F421C94F83740002CF7D1104692
:1045E000F0E7036810B51B6904469847011E06DB17
:1045F0002368204689B2DB68BDE8104018470020D8
:1046000010BD838A00EB8303984200D1704750F8B5
:10461000042F82F83810F7E70346808A10B15B68F0
:1046200093F83800704730B444680346C2689B680A
:10463000551004EB6200D20748BF625930BC48BF36
:10464000D35818470346406830B19A681AB9D868F9
:1046500000F00100704701207047038A8B4286BF3B
:1046600000EB81004068002070470346018A00206B
:1046700010B582B2914202D84FF0FF3010BD53F80E
:10468000044F421C94F83740002CF7D11046F0E755
:10469000036810B51B6904469847011E06DB2368B2
:1046A000204689B2DB68BDE810401847002010BDE5
:1046B000038A00EB8303984200D1704750F8042F1F
:1046C00082F83810F7E70346008A10B15B6893F868
:1046D0003800704730B444680346C2689B68551080
:1046E00004EB6200D20748BF625930BC48BFD358C0
:1046F00018470346406830B19A681AB9D86800F084
:10470000010070470120704770B50D460446012135
:1047100028461CF0C5FD2368294620465B6ABDE893
:104720007040184770B50D460446012128461CF01C
:10473000B7FD2368294620465B6ABDE870401847EC
:1047400010B50446082130F0C3FA204610BD10B55C
:104750000446502130F0BCFA204610BD10B5044686
:104760004C2130F0B5FA204610BD10B5044630217A
:1047700030F0AEFA204610BD10B504463C2130F0B2
:10478000A7FA204610BD10B50446102130F0A0FA5B
:10479000204610BD10B50446402130F099FA20465D
:1047A00010BD10B50446102130F092FA204610BD1D
:1047B00010B50446102130F08BFA204610BD90F859
:1047C000252012B103685B691847704708B590F857
:1047D00026300BB1FFF7F3FF08BD08B5FFF7EFFF79
:1047E00008BD70B50446C06A0D4658B10368DB6861
:1047F000984738B1E06A2A4621460368BDE8704010
:104800009B68184770BD90F825201AB190F82420B5
:1048100002B1186070470000036870B55E6B044613
:10482000114B8DB21B682BB9104B6C21104A1148EB
:1048300037F0CCFD1049828D0988914203D80F4B87
:104840006D210B4AF3E713F812200D4B1B6853F848
:10485000220003681B6B9847291A3346204609B289
:10486000BDE87040184700BF441E0324B73B04084E
:10487000F93B0408343C0408381E0324793C04083E
:104880003C1E032408B5038A022B05D9084B41219D
:10489000084A094837F09AFD00F114028A6200F1D3
:1048A0002402CA635A1C028200EB8300416008BDE7
:1048B000B73C0408F03C04085E3D040808B5838A50
:1048C000032B05D9084B4121084A094837F07EFDE2
:1048D00000F118028A6200F12802CA635A1C82821F
:1048E00000EB8300416008BDB73C0408B23D0408FA
:1048F0005E3D040870B504460D460026A28AB3B298
:104900009A420CD8A06BC0B10368DB689847A0B18D
:10491000A06B29460368BDE870409B681847B3B296
:1049200004EB83035868A84205D090F8373013B1E0
:1049300000211CF0B5FC0136E0E770BD70B50446FF
:104940000D460026228AB3B29A420CD8606BC0B1E1
:104950000368DB689847A0B1606B29460368BDE82F
:1049600070409B681847B3B204EB83035868A842B1
:1049700005D090F8373013B100211CF091FC0136BE
:10498000E0E770BD70B50446C06B0D4650B10368DA
:10499000DB68984730B1E06B29460368BDE870409A
:1049A0009B68184770BD70B50446806B0D4650B1CA
:1049B0000368DB68984730B1A06B29460368BDE8FF
:1049C00070409B68184770BD036870B504461B6B48
:1049D000154698472368204629465B6BBDE8704022
:1049E000184770B504461D46BDF91060FFF7ECFF8F
:1049F0002368294620469B6B98472368314620460A
:104A0000DB6BBDE8704018474FF480710022818451
:104A1000054982620160C0E90122C0E90322C0E9C0
:104A20000522C0E907227047886804080022C0E90F
:104A30000122C0E90322C0E90522C0E907224FF4A0
:104A400080728284014A0260704700BF045A0408E1
:104A500010B50446262200213AF01EF82046FFF742
:104A6000E5FF044B20462360FF2384F82630002313
:104A7000A36210BDA46D040838B504460D46262275
:104A800000213AF009F82046FFF7D0FF064B2046F8
:104A9000294623602B88E384FF2384F828301CF008
:104AA0009CFA204638BD00BF906E040800224FF0EB
:104AB000FF318260C0E90021704710B50446FFF75E
:104AC000F5FF204610BD000010B504460021262247
:104AD00039F0E2FF2046FFF7A9FF094B4FF47F02B0
:104AE00004F13C002360074BA3624FF6FF73A385DC
:104AF0000023C4E90C322387FFF7D8FF204610BDFE
:104B0000146D04086C5A040810B50446FFF7DCFF66
:104B1000024B204623600023A36410BD7C5A040886
:104B200010B504462622002139F0B6FF2046FFF7D3
:104B30007DFF054B204623600023A36284F82C30C0
:104B4000012384F8243010BD306C04081388838658
:104B50001CF035B910B50446FFF7E2FF084B4FF0E3
:104B6000FF32204623604FF6FF73E3856FF07F43EB
:104B7000C4E90C23002384F83830E36310BD00BF80
:104B8000FC6E040810B50446FFF7CAFF4FF6FF732A
:104B9000044A2046E385238684F832302260A386C7
:104BA00010BD00BFA06C040810B50446FFF750FF0D
:104BB000044B204623600023E362012384F8243061
:104BC00010BD00BF345C04082DE9F04F0446ADF27F
:104BD000EC5D00251FF01CFE2246E94BE56304F561
:104BE000B27942F8403B1046CDF89C25FFF730FFE4
:104BF00004F16C0304F5C87804F5EE7A0126184632
:104C00000B9319F09BFF4846FFF7FEFE4046FFF767
:104C10007BFF5046FFF778FF04F50A73D94F4FF03A
:104C2000280B18460993FFF76FFF04F51D7318460C
:104C3000CDF82835FFF7A6FF04F52B731846CDF8FD
:104C40002C35FFF79FFF04F539731846CDF8303542
:104C5000FFF798FF04F547731846CDF83435FFF792
:104C600091FF04F555731846CDF83835FFF78AFFE4
:104C700004F563731846CDF83C35FFF783FF04F560
:104C8000717318469693FFF71FFF04F20C43184602
:104C90009793FFF719FF04F2544318469893FFF7D0
:104CA00013FF04F29C4318469993FFF70DFF04F29B
:104CB000E44318469093FFF707FF04F22C5318467D
:104CC0009193FFF701FF04F2745318469293FFF794
:104CD000FBFE04F2BC5318469393FFF7F5FE04F273
:104CE00004631846CDF84035FFF74CFF04F23C63EF
:104CF0001846CDF84435FFF745FF04F274631846B3
:104D0000CDF84835FFF73EFF04F2AC631846CDF806
:104D10004C35FFF737FF04F2E46318469493FFF72E
:104D2000D3FE04F22C7318469593FFF7CDFE04F2E0
:104D300074731846CDF85035FFF724FF04F2AC73B6
:104D400018469A93FFF7C0FE04F2F4738E4AFC9360
:104D5000C4F80C382423C4F8F427C4F81038FC9B9A
:104D6000A4F80458C4F81C3804F50363C4F80878A0
:104D7000C4F814681846C4F81878C4F820B8C4F801
:104D80002468C4F82858C4F82C589B93FFF7E2FE17
:104D900004F5076318469C93FFF7DCFE04F50B63EC
:104DA00018469D93FFF7D6FE04F50F63764AFD93F0
:104DB000C4F808392423C4F8F028C4F80C39FD9B42
:104DC000A4F80059C4F8183904F62C13C4F804796F
:104DD000C4F810691846C4F814790027C4F81CB93F
:104DE000C4F82069C4F82459C4F828599E93FFF7E1
:104DF000B1FE04F66C1318469F93FFF7ABFE04F662
:104E0000AC131846A093FFF7A5FE04F6EC135F4A17
:104E1000A193C4F8083A2423C4F8EC29C4F80C3A46
:104E2000A19B5B4AC4F8183A04F62C23C4F8042A60
:104E3000C4F8142A1846A4F8005AC4F8106AC4F832
:104E40001CBA04F5C15BC4F8206AC4F8245A0BF1FB
:104E5000180BC4F8285AA293FFF77CFE04F66C23C3
:104E60001846A393FFF776FE04F6AC231846A493E6
:104E7000FFF770FE04F6EC231846A593FFF76AFED1
:104E800004F62C331846A693FFF71EFE04F674337F
:104E90001846A793FFF718FE04F6BC331846A893EC
:104EA000FFF712FE04F604431846A993FFF70CFE21
:104EB00004F64C431846CDF89835FFF705FE354B00
:104EC000C4F8945C0DF2DC51C4F84C3C04F69C43ED
:104ED000C4F8985C4FF6FF751846CDF85435ADF818
:104EE000DC55FFF7C9FD04F6C8432E461846AA93C1
:104EF000FFF7EAFD04F551631846CDF85835FFF782
:104F000041FE04F6485318460893FFF77DFD04F66A
:104F100074530DF2DC51ADF8DC551846CDF85C3514
:104F2000FFF7AAFD04F55A630DF2DC51ADF8DC552C
:104F30001846CDF86035FFF79FFD04F6CC531846B0
:104F4000CDF86435FFF7E0FD04F618631846CDF898
:104F50006835FFF7D9FD04F664631846CDF86C3563
:104F6000FFF7D2FD04F56B631846CDF87035FFF7F7
:104F7000CBFD04F6FC631846CDF874350CE000BF99
:104F8000B45C04089C5B0408B45B0408005C04087F
:104F9000E85B04080C5B0408FFF7B6FD04F64873F1
:104FA0001846CDF87835FFF7AFFD04F69473184630
:104FB000CDF87C35FFF7A8FD04F57E631846CDF8E3
:104FC0008035FFF7A1FD04F581530C331846AB93F0
:104FD000FFF79AFD04F5835318331846AC93FFF797
:104FE00093FD04F5865304331846AD93FFF78CFD0B
:104FF00004F5885310331846AE93FFF785FD04F58A
:105000008A531C331846AF93FFF77EFD04F58D538A
:1050100008331846B093FFF777FD04F58F53143328
:105020001846B193FFF770FD04F592531846CDF87A
:105030008435FFF769FD04F594530C331846B29399
:10504000FFF762FD04F5965318331846B393FFF744
:105050005BFD04F5995304331846B493FFF754FDF0
:1050600004F59B5310331846B593FFF74DFD04F537
:105070009D531C3318460C9319F004FC04F5A053FF
:105080001C331846B693FFF73FFD04F5A3530833CE
:105090001846B793FFF738FD04F5A55314331846A7
:1050A000B893FFF731FD04F5A8531846CDF88835BD
:1050B000FFF72AFD04F5AA530C331846B993FFF7FE
:1050C00023FD04F5AC5318331846BA93FFF71CFDC3
:1050D00004F5AF53043318460D9319F0D3FB04F5D0
:1050E000B25304331846BB93FFF70EFD04F5B453D7
:1050F00010331846BC93FFF707FD04F5B6531C3375
:105100001846BD93FFF700FD04F5B9530833184660
:10511000BE93FFF7F9FC04F5BB5314331846BF9355
:10512000FFF7F2FC04F5BE531846CDF88C35FFF7B7
:10513000EBFC04F5C0530C3318460A93FFF764FCEC
:105140005846FFF761FC04F5C35304331846FE9339
:10515000FFF77EFC04F5C453103318461093FFF795
:10516000B3FC04F5C65318331846FF93FFF770FCE1
:1051700004F5C853043318461193FFF7A5FC04F552
:10518000CA530C331846CDF80034FFF761FC04F520
:10519000CB53183318461293FFF796FC04F5CE5301
:1051A0001846CDF8A035FFF753FC04F5CF530C3368
:1051B00018461393FFF788FC04F5D15314331846AF
:1051C000CDF80434FFF744FC04F5D3531846C093DC
:1051D000FFF77AFC04F5D55308331846CDF80834A8
:1051E000FFF736FC04F5D653143318461493FFF733
:1051F0006BFC04F5D8531C331846CDF80C34FFF77C
:1052000027FC04F5DA53083318461593FFF75CFCC6
:1052100004F5DC5310331846CDF81034FFF718FCB2
:1052200004F5DD531C3318461693FFF74DFC04F5C7
:10523000E05304331846CDF81434FFF709FC04F5A5
:10524000E153103318461793FFF73EFC04F5E35380
:1052500018331846CDF81834FFF7FAFB04F5E55378
:10526000043318461893FFF72FFC04F5E7530C336B
:105270001846CDF81C34FFF7EBFB04F5E853183360
:1052800018461993FFF720FC04F5EB531846CDF8A8
:10529000A435FFF7DDFB04F5EC530C3318461A93E5
:1052A000FFF712FC04F5EE5314331846CDF8203402
:1052B000FFF7CEFB04F5F0531846C193FFF704FC4B
:1052C00004F5F25308331846CDF82434FFF7C0FB39
:1052D00004F5F353143318461B93FFF7F5FB04F55D
:1052E000F5531C331846CDF82834FFF7B1FB04F50D
:1052F000F753083318461C93FFF7E6FB04F5F95300
:1053000010331846CDF82C34FFF7A2FB04F5FA53FE
:105310001C3318461D93FFF7D7FB04F5FD530433E8
:105320001846CDF83034FFF793FB04F5FE531033E5
:1053300018461E93FFF7C8FB04F5005318331846B0
:10534000CDF83434FFF784FB04F5015304331846D9
:105350001F93FFF7B9FB04F502530C331846CDF841
:105360003834FFF775FB04F50253383318462093A1
:10537000FFF7AAFB04F504531846CDF8A835FFF74C
:1053800067FB04F504532C3318462193FFF79CFB6D
:1053900004F5055334331846CDF83C34FFF758FB79
:1053A00004F50653203318462293FFF78DFB04F5CE
:1053B000075328331846CDF84034FFF749FB04F56E
:1053C0000853143318462393FFF77EFB04F5095363
:1053D0001C331846CDF84434FFF73AFB04F50A5362
:1053E000083318462493FFF76FFB04F50B53103373
:1053F0001846CDF84834FFF72BFB04F50B533C332C
:1054000018462593FFF760FB04F50D530433184647
:10541000CDF84C34FFF71CFB04F50D533033184620
:105420002693FFF751FB04F50E5338331846CDF899
:105430005034FFF70DFB04F50F5324331846279320
:10544000FFF742FB04F510532C331846CDF85434C3
:10545000FFF7FEFA04F51153183318462893FFF7A7
:1054600033FB04F5125320331846CDF85834FFF7B8
:10547000EFFA04F513530C3318462993FFF724FB76
:1054800004F51453143318462A93FFF71DFB04F553
:1054900015531C3318460693FFF7B6FA04F5165356
:1054A00008331846CDF85C34FFF77EFB04F516533D
:1054B000383318462B93FFF707FB04F518531846AB
:1054C000CDF8AC35FFF770FB04F5185330331846B0
:1054D0002C93FFF7F9FA04F5195338331846CDF831
:1054E0006034FFF761FB04F51A53283318462D93F7
:1054F000FFF7EAFA04F51B5330331846CDF864344D
:10550000FFF752FB04F51C53203318462E93FFF788
:10551000DBFA04F51D5328331846CDF86834FFF73D
:1055200043FB04F51E53183318462F93FFF7CCFAAC
:1055300004F51F5320331846CDF86C34FFF734FBC5
:1055400004F52053103318463093FFF7BDFA04F5E5
:10555000215318331846CDF87034FFF725FB04F5B6
:105560002253083318463193FFF7AEFA04F523535C
:1055700010331846CDF87434FFF716FB04F52453A6
:105580001846C293FFF7A0FA04F5255308331846CE
:10559000CDF87834FFF708FB04F525533833184667
:1055A0003293FFF791FA04F527531846CDF8B0353A
:1055B000FFF7FAFA04F52753303318463393FFF711
:1055C00083FA04F5285338331846CDF87C34FFF7B6
:1055D000EBFA04F52953283318463493FFF774FA8D
:1055E00004F52A5330331846CDF88034FFF7DCFA3F
:1055F00004F52B53203318463593FFF765FA04F56D
:105600002C5328331846CDF88434FFF7CDFA04F52F
:105610002D53183318463693FFF756FA04F52E53D8
:1056200020331846CDF88834FFF7BEFA04F52F531F
:10563000103318463793FFF747FA04F53053183301
:1056400018463893FFF740FA04F5315320331846D3
:105650000793FFF7D9F904F532530C331846CDF808
:105660008C34FFF7F5F904F5325338331846399383
:10567000FFF72AFA04F534531846CDF8B435FFF78E
:10568000E7F904F534532C3318463A93FFF71CFA24
:1056900004F5355334331846CDF89034FFF7D8F974
:1056A00004F53653203318463B93FFF70DFA04F503
:1056B000375328331846CDF89434FFF7C9F904F569
:1056C0003853143318463C93FFF7FEF904F5395369
:1056D0001C331846CDF89834FFF7BAF904F53A535D
:1056E000083318463D93FFF7EFF904F53B531033A9
:1056F0001846CDF89C34FFF7ABF904F53B533C3327
:1057000018463E93FFF7E0F904F53D53043318467D
:10571000CDF8A034FFF79CF904F53D53303318461B
:105720003F93FFF7D1F904F53E5338331846CDF8CF
:10573000A434FFF78DF904F53F5324331846409302
:10574000FFF7C2F904F540532C331846CDF8A834BE
:10575000FFF77EF904F54153183318464193FFF7DC
:10576000B3F904F5425320331846CDF8AC34FFF7B3
:105770006FF904F543530C3318464293FFF7A4F92D
:1057800004F5445314331846CDF8B034FFF760F9EC
:1057900004F545531846C393FFF796F904F54653AD
:1057A00008331846CDF8B434FFF752F904F54653E0
:1057B000343318464393FFF787F904F547533C33D6
:1057C0001846CDF8B834FFF743F904F548532833A9
:1057D00018464493FFF778F904F5495330331846D7
:1057E000CDF8BC34FFF734F904F54A531C3318469E
:1057F0004593FFF769F904F54B5324331846469354
:10580000FFF762F904F54C532C3318460393FFF766
:10581000FBF804F54D5318331846CDF8C034FFF7A4
:1058200017F904F54E53043318464793FFF74CF924
:1058300004F54F530C331846CDF8C434FFF708F97C
:1058400004F54F53383318464893FFF73DF904F5F4
:1058500051531846CDF8B835FFF7FAF804F551530F
:105860002C3318464993FFF72FF904F5525334337C
:105870001846CDF8C834FFF7EBF804F5535320333E
:1058800018464A93FFF720F904F554532833184675
:10589000CDF8CC34FFF7DCF804F555531433184633
:1058A0004B93FFF711F904F556531C331846CDF806
:1058B000D034FFF7CDF804F55753083318464C930E
:1058C000FFF702F904F5585310331846CDF8D434D5
:1058D000FFF7BEF804F558533C3318464D93FFF7D5
:1058E000F3F804F55A5304331846CDF8D834FFF7CB
:1058F000AFF804F55A53303318464E93FFF7E4F8E7
:1059000004F55B5338331846CDF8DC34FFF7A0F8C4
:1059100004F55C53243318464F93FFF7D5F804F58C
:105920005D532C331846CDF8E034FFF791F804F5B9
:105930005E53183318465093FFF7C6F804F55F53CB
:1059400020331846CDF8E434FFF782F804F56053AD
:105950000C3318465193FFF7B7F804F5615314332D
:105960001846CDF8E834FFF773F804F5625318468B
:10597000C493FFF7A9F804F5635308331846CDF82C
:10598000EC34FFF765F804F563533433184652934B
:10599000FFF79AF804F564533C331846CDF8F03419
:1059A000FFF756F804F56553283318465393FFF76D
:1059B0008BF804F5665330331846CDF8F434FFF70E
:1059C00047F804F567531C3318465493FFF77CF8E7
:1059D00004F5685324331846CDF8F834FFF738F847
:1059E00004F56953103318465593FFF76DF804F525
:1059F0006A5318331846CDF8FC34FFF729F804F53C
:105A00006B53043318465693FFF75EF804F56C5356
:105A10000C331846CDF80035FFF71AF804F56C532F
:105A2000383318465793FFF74FF804F56E5318466E
:105A3000CDF8BC35FFF70CF804F56E532C3318463F
:105A40005893FFF741F804F56F5334331846CDF8F7
:105A50000435FEF7FDFF04F57053203318465993C3
:105A6000FFF732F804F5715328331846CDF808359E
:105A7000FEF7EEFF04F57253143318465A93FFF7FE
:105A800023F804F573531C331846CDF80C35FEF794
:105A9000DFFF04F57453083318465B93FFF714F8DF
:105AA00004F5755310331846CDF81035FEF7D0FFC6
:105AB00004F575533C3318465C93FFF705F804F57D
:105AC000775304331846CDF81435FEF7C1FF04F5BB
:105AD0007753303318465D93FEF7F6FF04F578539D
:105AE00038331846CDF81835FEF7B2FF04F5795370
:105AF000243318465E93FEF7E7FF04F57A532C3300
