:020000040800F2
:1000000000000824A1DD0108CDC00108CFC001080F
:10001000D1C00108D3C00108D5C00108000000000C
:10002000000000000000000000000000D1FC0008FB
:10003000D7C001080000000061FD000801F50008BC
:10004000F1DD0108F1DD0108F1DD0108F1DD010854
:10005000F1DD0108F1DD0108F1DD0108F1DD010844
:10006000F1DD0108D9C00108F1DD0108F1DD010869
:10007000F1DD0108F1DD0108F1DD0108F1DD010824
:10008000F1DD0108F1DD0108F1DD0108E1C0010841
:10009000EDC00108F9C00108FDC00108F1DD01084B
:1000A000F1DD0108F1DD0108F1DD0108F1DD0108F4
:1000B00001C10108F1DD0108F1DD0108F1DD0108F0
:1000C000F1DD0108F1DD0108F1DD0108F1DD0108D4
:1000D000F1DD0108F1DD0108F1DD0108F1DD0108C4
:1000E000F1DD0108F1DD010800000000F1DD01088B
:1000F000F1DD0108F1DD0108F1DD0108F1DD0108A4
:10010000F1DD0108F1DD0108F1DD0108F1DD010893
:10011000F1DD0108F1DD0108F1DD0108F1DD010883
:10012000F1DD0108F1DD0108F1DD0108F1DD010873
:10013000F1DD0108F1DD0108F1DD0108F1DD010863
:10014000F1DD0108F1DD0108000000000000000001
:10015000F1DD0108F1DD0108F1DD0108F1DD010843
:10016000F1DD0108F1DD0108F1DD0108F1DD010833
:10017000F1DD01080DC10108F1DD0108F1DD010823
:10018000F1DD0108F1DD0108F1DD0108F1DD010813
:10019000F1DD0108F1DD0108F1DD0108F1DD010803
:1001A00019C10108F1DD010881CA0008F1DD01086B
:1001B000F1DD0108F1DD0108F1DD0108F1DD0108E3
:1001C000F1DD0108F1DD0108F1DD0108F1DD0108D3
:1001D000F1DD0108F1DD0108F1DD0108F1DD0108C3
:1001E000F1DD0108F1DD0108F1DD0108F1DD0108B3
:1001F000F1DD0108F1DD0108F1DD0108F1DD0108A3
:10020000F1DD0108F1DD0108F1DD0108F1DD010892
:10021000F1DD0108F1DD0108F1DD0108F1DD010882
:10022000F1DD010825C1010831C10108F1DD010836
:10023000F1DD0108F1DD0108F1DD0108F1DD010862
:10024000F1DD0108F1DD0108F1DD0108F1DD010852
:10025000F1DD0108F1DD0108F1DD0108F1DD010842
:10026000F1DD0108F1DD0108F1DD0108F1DD010832
:10027000F1DD0108F1DD0108F1DD0108F1DD010822
:10028000F1DD0108F1DD0108F1DD010800000000E9
:08029000F1DD0108F1DD0108B8
:1002C00002780B78012A28BF9A4240F0D8806DE965
:1002D000044540EA0104CDE902676FF0000C4FEAE3
:1002E00044721AB380EA010414F0070F6BD100F0D6
:1002F000070420F0070004F0030521F007014FEA8E
:10030000C505F0E8042314F0040FF1E804670CFAC3
:1003100005F462EA040266EA04060BD063EA040309
:10032000624667EA0407664604E000BFF0E804237B
:10033000F1E8046782FA4CF582EA0604A4FA8CF428
:100340006CBB83FA4CF583EA0705A5FA8CF595B9E1
:1003500050E9022351E9026782FA4CF582EA060469
:10036000A4FA8CF483FA4CF583EA0705A5FA8CF518
:100370002543DBD09CB92DBAB5FA85F424F00704E7
:1003800027FA04F1DDE9026723FA04F303F0FF0022
:1003900001F0FF01FDE80445A0EB0100704724BA1D
:1003A000B4FA84F424F0070426FA04F1DDE90267C4
:1003B00022FA04F202F0FF0001F0FF01FDE804451B
:1003C000A0EB0100704714F0030F3CD110F00304C0
:1003D00028D150F8082B51F8083B82FA4CF582EAF4
:1003E0000305A5FA8CF55DB950F8042C51F8043CCE
:1003F00082FA4CF582EA0305A5FA8CF5002DE8D0C7
:100400002DBAB5FA85F424F0070423FA04F122FA90
:1004100004F202F0FF0001F0FF01FDE80445A0EB4B
:10042000010070474FEAC40420F0030050F8082B85
:1004300021F0030151F8083B0CFA04F462EA0402CB
:1004400063EA0403C9E710F003041DD0A1EB040123
:1004500020F00300E40750F8042B06D012D28B786A
:100460005FFAA2F4E41A06D12BB1CB785FFAB2F4AA
:10047000E41A00D133B920465DF8104B7047A2EB67
:100480000300704701F1040150F8042BCC0721F060
:10049000030151F8043B48D824D222F07F4482FA69
:1004A0004CF594EA1325A5FA8CF50AD165B951F8F3
:1004B000043B84EA0204B4EB036F0ED150F8042B22
:1004C000EBE74FEA132355E035F07F454DD108782F
:1004D000FDE80445C0F1000070474FEA126203F0E6
:1004E000FF0347E002EA1C4482FA4CF594EA134504
:1004F000A5FA8CF50AD165B951F8043B84EA0204E7
:10050000B4EB034F0CD150F8042BEBE74FEA134345
:1005100030E015EA1C4528D10B884FEA124229E049
:100520004FEA124203EA1C4324E002F0FF0482FA7D
:100530004CF594EA1365A5FA8CF50AD165B951F822
:10054000043B84EA0204B4EB032F09D150F8042BD6
:10055000EBE74FEA13630DE015F0FF0F05D10B68D1
:100560004FEA122223F07F4304E04FF00000FDE841
:100570000445704712BA1BBA82FA4CF482EA0304AB
:10058000A4FA8CF5B5FA85F402FA04F203FA04F33E
:100590004FEA1260FDE80445A0EB1360704700BF0E
:1005A00001F0FF01102A2BDB10F0070F08D010F824
:1005B000013B013A8B422DD010F0070F42B3F6D128
:1005C000F0B441EA012141EA014122F007047FF041
:1005D00000070023F0E80256083C85EA010586EA98
:1005E000010685FA47F5A3FA87F586FA47F6A5FAD4
:1005F00087F68EB9EED1F0BC01F0FF0102F00702E0
:1006000032B110F8013B013A83EA010313B1F8D18A
:100610000020704701387047002D06BF354603386B
:10062000073815F0010F07D1013015F4807F02BFA4
:10063000013015F4C03F0130F0BC0138704700BFF5
:10064000844641EA000313F003036DD1403A41D3DD
:1006500051F8043B40F8043B51F8043B40F8043B9C
:1006600051F8043B40F8043B51F8043B40F8043B8C
:1006700051F8043B40F8043B51F8043B40F8043B7C
:1006800051F8043B40F8043B51F8043B40F8043B6C
:1006900051F8043B40F8043B51F8043B40F8043B5C
:1006A00051F8043B40F8043B51F8043B40F8043B4C
:1006B00051F8043B40F8043B51F8043B40F8043B3C
:1006C00051F8043B40F8043B51F8043B40F8043B2C
:1006D000403ABDD2303211D351F8043B40F8043BCC
:1006E00051F8043B40F8043B51F8043B40F8043B0C
:1006F00051F8043B40F8043B103AEDD20C3205D3DC
:1007000051F8043B40F8043B043AF9D2043208D0D3
:10071000D2071CBF11F8013B00F8013B01D30B8845
:1007200003806046704700BF082A13D38B078DD023
:1007300010F003038AD0C3F10403D21ADB071CBFF5
:1007400011F8013B00F8013B80D331F8023B20F85F
:10075000023B7BE7043AD9D3013A11F8013B00F898
:10076000013BF9D20B7803704B7843708B78837020
:10077000604670470000000000000000000000001C
:1007800030B490F800F020F007016FF0000C10F08A
:10079000070491F820F040F048804FF000046FF01B
:1007A0000700D1E9002391F840F000F1080082FA37
:1007B0004CF2A4FA8CF283FA4CF3A2FA8CF34BBB02
:1007C000D1E9022382FA4CF200F10800A4FA8CF27B
:1007D00083FA4CF3A2FA8CF3E3B9D1E9042382FA49
:1007E0004CF200F10800A4FA8CF283FA4CF3A2FA5E
:1007F0008CF37BB9D1E9062301F1200182FA4CF296
:1008000000F10800A4FA8CF283FA4CF3A2FA8CF3FC
:10081000002BC6D0002A04BF04301A4612BAB2FA1E
:1008200082F200EBD20030BC7047D1E9002304F023
:100830000305C4F100004FEAC50514F0040F91F858
:1008400040F00CFA05F562EA05021CBF63EA0503F5
:1008500062464FF00004AAE780F0004002E000BFCB
:1008600081F0004142001FBF5FEA410392EA030F9B
:100870007FEA226C7FEA236C6AD04FEA1262D2EBE5
:100880001363C1BFD218414048404140B8BF5B42EA
:10089000192B88BF704710F0004F40F4000020F083
:1008A0007F4018BF404211F0004F41F4000121F099
:1008B0007F4118BF494292EA030F3FD0A2F10102E3
:1008C00041FA03FC10EB0C00C3F1200301FA03F121
:1008D00000F0004302D5494260EB4000B0F5000F44
:1008E00013D3B0F1807F06D340084FEA310102F103
:1008F0000102FE2A51D2B1F1004F40EBC25008BFB5
:1009000020F0010040EA03007047490040EB00007E
:10091000013A28BFB0F5000FEDD2B0FA80FCACF17F
:10092000080CB2EB0C0200FA0CF0AABF00EBC250AC
:1009300052421843BCBFD0401843704792F0000F9A
:1009400081F4000106BF80F400000132013BB5E7ED
:100950004FEA41037FEA226C18BF7FEA236C21D063
:1009600092EA030F04D092F0000F08BF08467047C8
:1009700090EA010F1CBF0020704712F07F4F04D196
:10098000400028BF40F00040704712F100723CBFA9
:1009900000F50000704700F0004343F0FE4040F4D3
:1009A000000070477FEA226216BF08467FEA236391
:1009B0000146420206BF5FEA412390EA010F40F47C
:1009C000800070474FF0000304E000BF10F00043C8
:1009D00048BF40425FEA000C08BF704743F09643AF
:1009E00001464FF000001CE050EA010208BF7047CA
:1009F0004FF000030AE000BF50EA010208BF704751
:100A000011F0004302D5404261EB41015FEA010C65
:100A100002BF84460146002043F0B64308BFA3F15D
:100A20008053A3F50003BCFA8CF2083AA3EBC2533F
:100A300010DB01FA02FC634400FA02FCC2F120025E
:100A4000BCF1004F20FA02F243EB020008BF20F095
:100A50000100704702F1200201FA02FCC2F12002FB
:100A600050EA4C0021FA02F243EB020008BF20EAF0
:100A7000DC70704753B94AB9002908BF00281CBF71
:100A80004FF0FF314FF0FF3000F0E2B8ADF1080C4D
:100A90006DE904CE41F008FDDDF804E0DDE9022354
:100AA00004B0704700F1340191E838009C46A64636
:100AB0004CF8045D90E8FF0FE54600BD90EC210B7B
:100AC000704700BF80EC210B704700BF90EC200BFB
:100AD000704700BF80EC200B704700BFD0EC200BAC
:100AE000704700BFC0EC200B704700BFF0EC020164
:100AF000F0EC0211F0EC0221F0EC0231F0EC0241DA
:100B0000F0EC0251F0EC0261F0EC0271F0EC0281C9
:100B1000F0EC0291F0EC02A1F0EC02B1F0EC02C1B9
:100B2000F0EC02D1F0EC02E1F0EC02F1704700BF12
:100B3000E0EC0201E0EC0211E0EC0221E0EC023119
:100B4000E0EC0241E0EC0251E0EC0261E0EC027109
:100B5000E0EC0281E0EC0291E0EC02A1E0EC02B1F9
:100B6000E0EC02C1E0EC02D1E0EC02E1E0EC02F1E9
:100B7000704700BFB0FC0181B0FC0191B0FC01A145
:100B8000B0FC01B1704700BFA0FC0181A0FC019145
:100B9000A0FC01A1A0FC01B1704700BFEC4600B56C
:100BA0002DE900502DE9FF1F4FF000032DE90C0047
:100BB00001A941F033FFDDF840E012B0704700BFFB
:100BC000EC4600B52DE900502DE9FF1F4FF0000362
:100BD0002DE90C0001A941F05DFFDDF840E012B005
:100BE000704700BFEC4600B52DE900502DE9FF1F0E
:100BF0004FF000032DE90C0001A941F06DFFDDF875
:100C000040E012B0704700BFEC4600B52DE900503F
:100C10002DE9FF1F4FF000032DE90C0001AB41F05F
:100C200031FFDDF840E012B0704700BFEC4600B580
:100C30002DE900502DE9FF1F4FF000032DE90C00B6
:100C400001AA41F0A9FFDDF840E012B0704700BFF3
:100C5000704700BF0348044B834202D0034B03B1EB
:100C600018477047C0070024C00700240000000098
:100C70000548064B1B1AD90F01EBA301491002D0FE
:100C8000034B03B118477047C0070024C007002476
:100C90000000000010B5064C237843B9FFF7DAFFD7
:100CA000044B13B10448AFF300800123237010BD3F
:100CB000C0810024000000001436040808B5054B6C
:100CC0001BB105490548AFF30080BDE80840FFF7B8
:100CD000CFBF00BF00000000C48100241436040808
:100CE000704704387047704782B002AB03E90600D2
:100CF00002B0704782B002AB03E9060002B0704751
:100D000010B50446102133F0C5FD204610BDA0F1FA
:100D10000400F5E784B0F0B58BB0074611AE14AD12
:100D20006C4686E80E000FCD0FC40FCD0FC495E8BA
:100D3000030084E8030096E80E00F86801F0F2FA78
:100D40000BB0BDE8F04004B07047A0F10400FFF71D
:100D5000E1BF84B037B507AC054684E80E00DDE995
:100D60000A018DE8030094E80E00E86800F0F4FC46
:100D700003B0BDE8304004B07047A0F10400FFF7B5
:100D8000E8BF84B0F0B587B007460DAE10AD6C4635
:100D900086E80E000FCD0FC42B682360F86896E834
:100DA0000E0000F0B9FD07B0BDE8F04004B0704798
:100DB000A0F10400FFF7E5BF84B013B505AC84E8EB
:100DC0000E00089B0093C06894E80E0000F0E4FD5C
:100DD00002B0BDE8104004B07047A0F10400FFF776
:100DE000EBBF84B013B505AC84E80E00BDF820302D
:100DF000ADF80030C06894E80E0000F02DFE02B09F
:100E0000BDE8104004B07047A0F10400FFF7E9BF4F
:100E100082B0C0686B4683E8060093E8060002B023
:100E200000F05CBEA0F10400FFF7F2BF84B0C06820
:100E300004B000F093BEA0F10400FFF7F7BF84B048
:100E400030B585B0054609AC84E80E000CAB93E8DC
:100E500007008DE8070094E80E00E86800F0AAFE9D
:100E600005B0BDE8304004B07047A0F10400FFF7C2
:100E7000E6BF82B0C0686B4683E8060093E80600D0
:100E800002B001F0DBB8A0F10400FFF7F2BF82B0BE
:100E9000C0686B4683E8060093E8060002B001F0E4
:100EA00049B9A0F10400FFF7F2BF82B0C0686B46F9
:100EB00083E8060093E8060002B001F0B7B9A0F19C
:100EC0000400FFF7F2BF82B0C0686B4683E80600FB
:100ED00093E8060002B000F0EFBBA0F10400FFF7BA
:100EE000F2BF84B030B585B0054609AC84E80E0089
:100EF0000CAB0FCB8DE80F0094E80E00E86800F013
:100F00007DF905B0BDE8304004B07047A0F10400A1
:100F1000FFF7E7BF84B030B585B0054609AC84E87B
:100F20000E000CAB0FCB8DE80F0094E80E00E868C4
:100F300000F02EFA05B0BDE8304004B07047A0F1D3
:100F40000400FFF7E7BF84B030B585B0054609ACB3
:100F500084E80E000CAB0FCB8DE80F0094E80E0078
:100F6000E86800F0E0FA05B0BDE8304004B0704732
:100F7000A0F10400FFF7E7BF82B002AB03E906006F
:100F800002B0704782B002AB03E9060002B07047BE
:100F90000022C1608260024A02605C324260704797
:100FA000C436040884B037B507AC054684E80E00A3
:100FB000DDE90A010090ADF80410A86894E80E007D
:100FC00003F03EF803B0BDE8304004B0704782B093
:100FD00080686B4683E8060093E8060002B003F0E1
:100FE00040B8704770477047704730B44468034654
:100FF000C2689B68551004EB6200D20748BF625973
:1010000030BC48BFD35818470346406830B19A688F
:101010001AB9D86800F0010070470120704710B578
:101020000446102133F036FC204610BD00F5C043C5
:1010300013B593F8EC23044682F00102D3E9FE01D4
:1010400083F8EC2303F57B730090ADF80410E06B9C
:101050000ECBFFF7A7FF02B010BD0000034B10B589
:10106000044603600AF0E6FB204610BDEC54040879
:1010700010B50446FFF7F2FF46F23841204633F040
:1010800009FC204610BD00F5C04313B593F8EC23CE
:101090000446B2B100F50362914214D000F5076234
:1010A0008A1A51425141490083F8EE13D3E9FE01F7
:1010B00003F57B730090ADF80410E06B0ECBFFF7E7
:1010C00071FF02B010BD0121EEE700F5C04313B57A
:1010D00093F8EC230446CAB100F62C12914217D0C3
:1010E00000F66C12914215D000F6AC128A1A5142E9
:1010F000514183F8ED13D3E9FE0103F57B730090B2
:10110000ADF80410E06B0ECBFFF74CFF02B010BD42
:101110000021EEE70221ECE700F5C04313B593F898
:10112000EC230446F2B100F62C2291421CD000F6CA
:101130006C2291421AD000F6AC22914218D000F6EF
:10114000EC2291420CBF0321002183F8F013D3E974
:10115000FE0103F57B730090ADF80410E06B0ECB3D
:10116000FFF720FF02B010BD0021EEE70121ECE700
:101170000221EAE7012908D00229054B18BF4FF0E8
:10118000FF33836203685B691847024BF9E700BFCE
:1011900000BFFFFF76E600FF10B5044603F08AFBB0
:1011A000114B1249236004F5C043114A1148C3F89A
:1011B0000814C3F810240022C3F81814C3F8281424
:1011C0000D49C3F820042046C3F80C44C3F8142486
:1011D000C3F81C44C3F82424C3F82C44C3F83014C7
:1011E000C3F8342410BD00BFEC540408D4540408E0
:1011F00087100008CB1000081911000884B010B542
:10120000044603A880E80E0004F5DC509DF80C109D
:101210000430FFF7AFFF04F5C2509DF80D101830F1
:10122000FFF7A8FF04F5C6509DF80E100C30FFF72D
:10123000A1FF9DF80F1004F5CA50FFF79BFF04F5BE
:10124000CD509DF810101430FFF794FF04F5D150E5
:101250009DF811100830FFF78DFF04F5D4509DF86C
:1012600012101C30FFF786FF04F5D8509DF81310BC
:101270001030FFF77FFF04F5DF509DF81410183091
:10128000FFF778FF04F5E3509DF815100C30FFF7D9
:1012900071FF9DF8161004F5E750FFF76BFF04F59A
:1012A000EA509DF817101430FFF764FF04F5EE5074
:1012B0009DF818100830FFF75DFF04F5F1509DF818
:1012C00019101C30FFF756FF04F5F5509DF81A1061
:1012D0001030FFF74FFF04F5F9509DF81B10043054
:1012E000FFF748FF04F5FC509DF81C101830FFF77D
:1012F00041FF04F500509DF81D100C30FFF73AFF38
:101300009DF81E1004F50250FFF734FF04F503505A
:101310009DF81F103430FFF72DFF04F505509DF8A0
:1013200020102830FFF726FF04F507509DF8211004
:101330001C30FFF71FFF04F509509DF822101030F4
:10134000FFF718FF04F50B509DF823100430FFF74A
:1013500011FF04F50C509DF824103830FFF70AFFF8
:1013600004F50E509DF825102C30FFF703FF04F50F
:1013700010509DF826102030FFF7FCFE04F5BF50FA
:101380009DF827100430BDE8104004B0FFF7F2BE0E
:1013900084B010B5044603A880E80E0004F5595047
:1013A0009DF80C10FFF7E6FE04F54C509DF80D106B
:1013B0001430FFF7DFFE04F54E509DF80E10083094
:1013C000FFF7D8FE04F54F509DF80F103C30FFF7A3
:1013D000D1FE04F551509DF810103030FFF7CAFED1
:1013E00004F553509DF811102430FFF7C3FE04F5A7
:1013F00055509DF812101830FFF7BCFE04F55750F9
:101400009DF813100C30FFF7B5FE04F55A509DF807
:1014100014103430FFF7AEFE04F55C509DF8151043
:101420002830FFF7A7FE04F55E509DF816101C301B
:10143000FFF7A0FE04F560509DF817101030FFF77D
:1014400099FE04F562509DF818100430FFF792FEE3
:1014500004F563509DF819103830FFF78BFE04F542
:1014600065509DF81A102C30FFF784FE04F5675084
:101470009DF81B102030FFF77DFE04F569509DF8A4
:101480001C101430FFF776FE04F56B509DF81D100C
:101490000830FFF76FFE04F56C509DF81E103C30CD
:1014A000FFF768FE04F56E509DF81F103030FFF70F
:1014B00061FE04F570509DF820102430FFF75AFEAD
:1014C00004F572509DF821101830FFF753FE04F513
:1014D00074509DF822100C30FFF74CFE9DF823103D
:1014E00004F57650FFF746FE04F577509DF824107A
:1014F0003430FFF73FFE04F579509DF82510283071
:10150000FFF738FE04F57B509DF826101C30FFF7DE
:1015100031FE04F54A509DF827102030BDE81040F8
:1015200004B0FFF727BE84B038B5044605A804F51B
:10153000145580E80E0004F5205008359DF814106D
:101540003430FFF717FE9DF815102846FFF712FEFE
:101550009DF81610284604F52F55FFF70BFE04F5ED
:1015600015509DF8171014353C30FFF703FE04F5B5
:1015700017509DF818103030FFF7FCFD04F5195096
:101580009DF819102430FFF7F5FD04F51B509DF868
:101590001A101830FFF7EEFD04F51D509DF81B10D2
:1015A0000C30FFF7E7FD9DF81C1004F51F50FFF706
:1015B000E1FD04F522509DF81D102830FFF7DAFDFB
:1015C00004F524509DF81E101C30FFF7D3FD04F5E0
:1015D00028509DF81F100430FFF7CCFD04F529506A
:1015E0009DF820103830FFF7C5FD04F52B509DF80D
:1015F00021102C30FFF7BEFD9DF8221004F53C5061
:10160000FFF7B8FD9DF823102846FFF7B3FD9DF8BE
:1016100024102846FFF7AEFD04F531509DF8251043
:101620000830FFF7A7FD04F532509DF826103C3036
:10163000FFF7A0FD04F534509DF827103030FFF778
:1016400099FD04F536509DF828102430FFF792FDDF
:1016500004F538509DF829101830FFF78BFD04F57C
:101660003A509DF82A100C30FFF784FD04F53D50E8
:101670009DF82B103430FFF77DFD04F53F509DF8A9
:101680002C102830FFF776FD04F543509DF82D10FF
:101690001030FFF76FFD04F545509DF82E10043013
:1016A000FFF768FD04F546509DF82F103830BDE86F
:1016B000384004B0FFF75EBD82B002AB03E906001C
:1016C00002B0704738B50446224D02F088FD002371
:1016D00004F5BF402A4605215E3024F00CFB04F5DA
:1016E000AE50043022F0DCFB04F5BF4000232A4654
:1016F0000521723024F0FFFA04F5B2501C3022F0BC
:10170000CFFB04F5C04000232A460521063024F013
:10171000F2FA04F5B750143022F0C2FB04F5C040D1
:1017200000232A460521103024F0E5FA04F5BA50CA
:1017300022F0B6FB04F5C8430833C4F8283804F592
:10174000C8431833C4F8243904F5C8432833C4F80F
:10175000243A38BD6C37040884B070B5044605A837
:1017600080E80E00BDF8143004F5C0459DF818104F
:1017700004F52B765BBA9DF8192085F8EF13003934
:10178000A5F8EC3330469DF8163018BF012185F8D6
:10179000F12385F8EE339DF81730BDF81A2085F84F
:1017A000F0339DF81C30A5F8F22385F8F4339DF84A
:1017B0001D3085F8FB33BDF81E30A5F8FC331EF054
:1017C0000EFB304622F06CFB95F8F11304F53976E8
:1017D0000039304618BF01211EF001FB304622F0CF
:1017E0005FFB95F8F21304F563760039304618BFB5
:1017F00001211EF0F4FA304622F052FB95F8F41362
:1018000004F547760039304618BF01211EF0E7FA8B
:10181000304622F045FB95F8F31304F55576003970
:10182000304618BF01211EF0DAFA304622F038FBAC
:1018300095F8FB1304F2AC660039304618BF01215D
:101840001EF0CDFA304622F02BFB95F8FC1304F283
:1018500074760039304618BF01211EF0C0FA3046B8
:1018600022F01EFB95F8ED13A1B9012104F62C100E
:101870001FF0F8FA95F8EE13B9B9012104F50B60E1
:101880001FF0F0FA95F8F033032B1ED8DFE803F0D1
:1018900018363A3E012902D104F66C10E8E7022915
:1018A000E8D1012104F6AC10E2E7012902D104F5E8
:1018B0000360E5E70229E5D1012104F50760DFE7D0
:1018C000012104F62C201FF0CDFA04F5BB409DF851
:1018D0002030104A0A212E3024F00DFA04F5BB40C6
:1018E0009DF821300A210B4A423024F004FA04F614
:1018F0004C40BDE8704004B022F0D2BA012104F699
:101900006C20E0E7012104F6AC20DCE7012104F6BD
:10191000EC20D8E76C37040884B038B5044605A835
:101920001C4D80E80E0004F5BF400B462A460521F9
:101930005E3024F0E0F904F5AE50043022F0B0FA45
:1019400004F5BF40069B2A460521723024F0D3F9E6
:1019500004F5B2501C3022F0A3FA04F5C040079BF6
:101960002A460521063024F0C6F904F5B750143094
:1019700022F096FA04F5C040089B2A460521103053
:1019800024F0B9F904F5BA50BDE8384004B022F0AB
:1019900087BA00BF6C37040884B0F8B5044607A8BE
:1019A0002C4DBDF92A6080E80E0004F5BD40BDF95C
:1019B00026302A460A214630BDF9227024F09BF9D0
:1019C00004F586501C3022F06BFA04F5BD403B460E
:1019D0002A460A215A3024F08EF904F5895008303D
:1019E00022F05EFA04F5BD4033462A460A216E30E5
:1019F00024F081F904F58B50143022F051FA04F5EB
:101A0000BE40BDF920302A460A21023024F073F985
:101A100004F58E5022F044FA04F5BE403B462A46B7
:101A20000A21163024F067F904F590500C3022F0AA
:101A300037FA04F5BE4033462A460A212A3024F0FC
:101A40005AF904F59250BDE8F840183004B022F07D
:101A500027BA00BF6C37040884B038B5044605A81F
:101A60001D4D80E80E0004F5BC40BDF914302A4637
:101A70000A21623024F03FF904F5766022F010FA72
:101A800004F5BC40BDF920302A460A21763024F006
:101A900032F904F6AC7022F003FA0A2104F5BD40D5
:101AA000BDF81C302A46084424F025F904F6F870E5
:101AB00022F0F6F904F5BD40BDF91E302A460A2190
:101AC000323024F018F904F58450BDE83840103065
:101AD00004B022F0E5B900BF6C37040837B50446FE
:101AE0001D4D02AB00F5BB4003E906005630BDF8C2
:101AF00000302A46032124F0FEF804F64C5022F070
:101B0000CFF904F5BB40BDF802302A4603217E30F0
:101B100024F0F1F804F6E45022F0C2F904F5BC40D8
:101B2000BDF806302A460A21123024F0E4F804F504
:101B3000636022F0B5F904F5BC40BDF804302A46D4
:101B40000A21263024F0D7F804F67C6003B0BDE803
:101B5000304022F0A5B900BF6C37040830B587B01B
:101B60000446134D00F5BC40CDED030AB7EEC00AA4
:101B70002A460A214E308DED000B24F0BCF804F605
:101B8000147022F08DF99DED037A04F5BC402A46CD
:101B9000B7EEC77A0A213A308DED007B24F0ABF81E
:101BA00004F6C86007B0BDE8304022F079B900BF44
:101BB0006C37040884B030B585B00446314D09A8AF
:101BC00080E80E0004F5BF40099B2A460A210393D2
:101BD000223003AB24F0B6FA04F5A45022F060F9E9
:101BE0000A9B04F5BF402A460A2103934A3003ABFF
:101BF00024F0A8FA04F5A850234D183022F050F92B
:101C000004F5BD400B9B2A460A211E3024F073F8D0
:101C100004F58250043022F043F904F5BE400C9BD9
:101C20002A460A21523024F066F804F59750103005
:101C300022F036F99DED0D7A04F5BB402A46B7EE49
:101C4000C77A0A216A308DED007B24F054F804F63F
:101C5000985022F025F99DED0E7A04F5BE402A46F3
:101C6000B7EEC77A0A213E308DED007B24F043F8B1
:101C700004F59550043005B0BDE8304004B022F0C2
:101C80000FB900BF6F3704086C37040800F5C04374
:101C900013B593F8EC23044693F8EF1382B181F067
:101CA000010183F8EF13D3E9FE0103F57B73009084
:101CB000ADF80410E06B0ECBFFF774F902B010BD65
:101CC00000F52B740039204618BF01211EF087F85B
:101CD000204602B0BDE8104022F0E2B800F5C04353
:101CE00013B593F8EC23044693F8F11382B181F015
:101CF000010183F8F113D3E9FE0103F57B73009032
:101D0000ADF80410E06B0ECBFFF74CF902B010BD3C
:101D100000F539740039204618BF01211EF05FF824
:101D2000204602B0BDE8104022F0BAB800F5C0432A
:101D300013B593F8EC23044693F8F21382B181F0C3
:101D4000010183F8F213D3E9FE0103F57B730090E0
:101D5000ADF80410E06B0ECBFFF724F902B010BD14
:101D600000F563740039204618BF01211EF037F8D2
:101D7000204602B0BDE8104022F092B800F5C04302
:101D800013B593F8EC23044693F8F41382B181F071
:101D9000010183F8F413D3E9FE0103F57B7300908E
:101DA000ADF80410E06B0ECBFFF7FCF802B010BDED
:101DB00000F547740039204618BF01211EF00FF8C6
:101DC000204602B0BDE8104022F06AB800F5C043DA
:101DD00013B593F8EC23044693F8F31382B181F022
:101DE000010183F8F313D3E9FE0103F57B7300903F
:101DF000ADF80410E06B0ECBFFF7D4F802B010BDC5
:101E000000F555740039204618BF01211DF0E7FF89
:101E1000204602B0BDE8104022F042B800F5C043B1
:101E200013B593F8EC23044693F8F51382B181F0CF
:101E3000010183F8F513D3E9FE0103F57B730090EC
:101E4000ADF80410E06B0ECBFFF7ACF802B010BD9C
:101E500000F204640039204618BF01211DF0BFFFC5
:101E6000204602B0BDE8104022F01AB800F5C04389
:101E700013B593F8EC23044693F8F61382B181F07E
:101E8000010183F8F613D3E9FE0103F57B7300909B
:101E9000ADF80410E06B0ECBFFF784F802B010BD74
:101EA00000F23C640039204618BF01211DF097FF65
:101EB000204602B0BDE8104021F0F2BF00F5C0435B
:101EC00013B593F8EC23044693F8F71382B181F02D
:101ED000010183F8F713D3E9FE0103F57B7300904A
:101EE000ADF80410E06B0ECBFFF75CF802B010BD4C
:101EF00000F274640039204618BF01211DF06FFF05
:101F0000204602B0BDE8104021F0CABF00F5C04332
:101F100013B593F8EC23044693F8FB1382B181F0D8
:101F2000010183F8FB13D3E9FE0103F57B730090F5
:101F3000ADF80410E06B0ECBFFF734F802B010BD23
:101F400000F2AC640039204618BF01211DF047FFA4
:101F5000204602B0BDE8104021F0A2BF00F5C0430A
:101F600013B593F8EC23044693F8FC1382B181F087
:101F7000010183F8FC13D3E9FE0103F57B730090A4
:101F8000ADF80410E06B0ECBFFF70CF802B010BDFB
:101F900000F274740039204618BF01211DF01FFFA4
:101FA000204602B0BDE8104021F07ABF00F5C043E2
:101FB00010B593F8EC23D3F8001462B181F001015D
:101FC000C3F8001400F5C843C06B93E80600BDE8F1
:101FD0001040FEF7FCBF00F57F54003904F12004E7
:101FE00018BF012120461DF0FAFE2046BDE8104032
:101FF00021F056BF00F5C04310B593F8EC23D3F899
:10200000041462B181F00101C3F8041400F5C8435F
:10201000C06B93E80600BDE81040FEF7D8BF00F59E
:102020008044003904F1600418BF012120461DF0EE
:10203000D6FE2046BDE8104021F032BF37B5044639
:102040003B4D02AB00F5C24003E9060032309DF87B
:1020500000302A460A2123F04EFE04F58B4024303E
:1020600021F01EFF04F5C2409DF801302A460A21E6
:102070001E3023F040FE04F58A40583021F010FF56
:1020800004F5C1409DF802302A460A21123023F09F
:1020900032FE04F58640443021F002FF04F5C040D2
:1020A0009DF803302A460A212E3023F024FE04F541
:1020B0008340483021F0F4FE04F5C0409DF8043020
:1020C0002A460A216A3023F016FE04F585402C309A
:1020D00021F0E6FE04F5C0409DF805302A460A21AD
:1020E000423023F008FE04F58440143021F0D8FE7D
:1020F00004F5C0409DF806302A460A217E3023F0C0
:10210000FAFD04F58540783021F0CAFE04F5C040A0
:102110009DF807302A460A21563023F0ECFD04F5DD
:102120008440603003B0BDE8304021F0B9BE00BF4C
:102130006C37040837B504463B4D02AB00F5C3408D
:1021400003E9060066309DF800302A460A2123F094
:10215000D2FD04F59040503021F0A2FE04F5C040BD
:102160009DF801302A460A211A3023F0C4FD04F5F7
:1021700082407C3021F094FE04F5C2409DF802308C
:102180002A460A215A3023F0B6FD04F58C403C3033
:1021900021F086FE04F5C1409DF803302A460A214D
:1021A000263023F0A8FD04F58740103021F078FE9A
:1021B00004F5C1409DF804302A460A21763023F008
:1021C0009AFD04F58940403021F06AFE04F5C140D3
:1021D0009DF805302A460A213A3023F08CFD04F59B
:1021E00087405C3021F05CFE04F5C1409DF806306C
:1021F0002A460A21623023F07EFD04F588407430BF
:1022000021F04EFE04F5C1409DF807302A460A2110
:102210004E3023F070FD04F58840283003B0BDE84F
:10222000304021F03DBE00BF6C37040837B504468E
:102230003B4D02AB00F5C34003E9060052309DF868
:1022400000302A460A2123F056FD04F59040043060
:1022500021F026FE04F5C2409DF801302A460A21ED
:10226000463023F048FD04F58B40703021F018FE15
:102270000A2104F5C2409DF802302A46084423F0A2
:102280003AFD04F58A400C3021F00AFE04F5C24004
:102290009DF803302A460A216E3023F02CFD04F508
:1022A0008D40083021F0FCFD04F5C3409DF804305A
:1022B0002A460A213E3023F01EFD04F58F403830B7
:1022C00021F0EEFD04F5C3409DF805302A460A21B1
:1022D000023023F010FD04F58D40543021F0E0FD74
:1022E00004F5C3409DF806302A460A212A3023F01F
:1022F00002FD04F58E406C3021F0D2FD04F5C340A0
:102300009DF807302A460A21163023F0F4FC04F524
:102310008E40203003B0BDE8304021F0C1BD00BF89
:102320006C37040884B013B505AC84E80E009DF842
:10233000343000F69C441BB1012B0FD00C2300E07D
:102340000D23204601A9ADF804301EF028FC2046DC
:1023500002B0BDE8104004B021F0A2BD0E23F0E7AA
:102360000022C0F83C2170471FB504A8069C00E974
:102370000E00032202A8212117F06AFE94F8202003
:1023800000238B4208BF82420EBF184684F820000B
:10239000012004B010BD30B585B0002504A8089C0C
:1023A00000E90E00032202A8002117F051FE237855
:1023B00001228D4208BF83424FF0030118BF2070F5
:1023C00002A818BF012517F043FE637803220029F5
:1023D00008BF83424FF0040118BF607002A818BF05
:1023E000012517F035FEA3780422002908BF834297
:1023F0004FF0070118BFA07002A818BF012517F001
:1024000027FEE3780122002908BF83424FF00B0129
:1024100018BFE07002A818BF012517F019FE237934
:102420000122002908BF83424FF00C0118BF207120
:1024300002A818BF012517F00BFE637901220029BD
:1024400008BF83424FF00D0118BF607102A818BF8A
:10245000012517F0FDFDA3790122002908BF834261
:102460004FF00E0118BFA07102A818BF012517F088
:10247000EFFDE3790122002908BF83424FF00F01ED
:1024800018BFE07102A818BF012517F0E1FD237AFB
:102490000122002908BF83424FF0100118BF2072AB
:1024A00002A818BF012517F0D3FD637A0122002985
:1024B00008BF83424FF0110118BF607202A818BF15
:1024C000012517F0C5FDA37A0122002908BF834228
:1024D0004FF0120118BFA07202A818BF012517F013
:1024E000B7FDE37A0522002908BF83424FF01301AC
:1024F00018BFE07202A818BF012517F0A9FD237BC1
:102500000822002908BF83424FF0180118BF20732A
:102510000DEB020018BF012517F09AFD637B202206
:10252000002908BF8342114618BF607302A818BF74
:10253000012517F08DFD2369002908BF83421CBFC8
:1025400001252061284605B030BD30B585B0002595
:1025500004A8089C00E90E00022202A8002117F03E
:1025600077FD237802228D4208BF8342114618BFAF
:10257000207002A818BF012517F06AFD63780222B7
:10258000002908BF83424FF0040118BF607002A801
:1025900018BF012517F05CFDA3780222002908BFAF
:1025A00083424FF0060118BFA07002A818BF012592
:1025B00017F04EFDE3780222002908BF83424FF056
:1025C000080118BFE0700DEB010018BF012517F0DE
:1025D0003FFD23790222002908BF83424FF00A0100
:1025E00018BF207102A818BF012517F031FD6379CB
:1025F0000222002908BF83424FF00C0118BF60710E
:1026000002A818BF012517F023FDA3790222002993
:1026100008BF83424FF00E0118BFA07102A818BF77
:10262000012517F015FDE3790222002908BF834236
:102630004FF0100118BFE07102A818BF012517F074
:1026400007FD237A0222002908BF83424FF01201BE
:1026500018BF207202A818BF012517F0F9FC637A91
:102660000222002908BF83424FF0140118BF607294
:1026700002A818BF012517F0EBFCA37A022200295B
:1026800008BF83424FF0160118BFA07202A818BFFE
:10269000012517F0DDFCE37A0222002908BF8342FE
:1026A0004FF0180118BFE07202A818BF012517F0FB
:1026B000CFFC237B0222002908BF83424FF01A017E
:1026C00018BF207302A818BF012517F0C1FC637B57
:1026D0000222002908BF83424FF01C0118BF60731B
:1026E00002A818BF012517F0B3FCA37B0222002922
:1026F00008BF83424FF01E0118BFA07302A818BF85
:10270000012517F0A5FCE37B0222002908BF8342C4
:102710004FF0200118BFE07302A818BF012517F081
:1027200097FC237C0222002908BF83424FF022013C
:1027300018BF207402A818BF012517F089FC637C1C
:102740000222002908BF83424FF0240118BF6074A1
:1027500002A818BF012517F07BFCA37C02220029E8
:1027600008BF83424FF0260118BFA07402A818BF0B
:10277000012517F06DFCE37C0222002908BF83428B
:102780004FF0280118BFE07402A818BF012517F008
:102790005FFC237D0222002908BF83424FF02A01FB
:1027A00018BF207502A818BF012517F051FC637DE2
:1027B0000222002908BF83424FF02C0118BF607528
:1027C00002A818BF012517F043FCA37D02220029AF
:1027D00008BF83424FF02E0118BFA07502A818BF92
:1027E000012517F035FCE37D0222002908BF834252
:1027F0004FF0300118BFE07502A818BF012517F08F
:1028000027FC237E0222002908BF83424FF03201B9
:1028100018BF207602A818BF012517F019FC637EA7
:102820000222002908BF83424FF0340118BF6076AE
:1028300002A818BF012517F00BFCA37E0222002975
:1028400008BF83424FF0360118BFA07602A818BF18
:10285000012517F0FDFBE37E002908BF83421CBF62
:102860000125E076284605B030BD30B585B000259D
:1028700004A8089C00E90E00022202A8002117F01B
:10288000E7FB237802228D4208BF8342114618BF1E
:10289000207002A818BF012517F0DAFB6378022226
:1028A000002908BF83424FF0040118BF607002A8DE
:1028B00018BF012517F0CCFBA3780222002908BF1E
:1028C00083424FF0060118BFA07002A818BF01256F
:1028D00017F0BEFBE3780222002908BF83424FF0C5
:1028E000080118BFE0700DEB010018BF012517F0BB
:1028F000AFFB23790222002908BF83424FF00A016F
:1029000018BF207102A818BF012517F0A1FB637939
:102910000222002908BF83424FF00C0118BF6071EA
:1029200002A818BF012517F093FBA3790222002902
:1029300008BF83424FF00E0118BFA07102A818BF54
:10294000012517F085FBE3790222002908BF8342A5
:102950004FF0100118BFE07102A818BF012517F051
:1029600077FB237A0222002908BF83424FF012012D
:1029700018BF207202A818BF012517F069FB637AFF
:102980000222002908BF83424FF0140118BF607271
:1029900002A818BF012517F05BFBA37A02220029C9
:1029A00008BF83424FF0160118BFA07202A818BFDB
:1029B000012517F04DFBE37A0222002908BF83426C
:1029C0004FF0180118BFE07202A818BF012517F0D8
:1029D0003FFB237B0222002908BF83424FF01A01EC
:1029E00018BF207302A818BF012517F031FB637BC5
:1029F0000222002908BF83424FF01C0118BF6073F8
:102A000002A818BF012517F023FBA37B022200298F
:102A100008BF83424FF01E0118BFA07302A818BF61
:102A2000012517F015FBE37B0222002908BF834232
:102A30004FF0200118BFE07302A818BF012517F05E
:102A400007FB237C0222002908BF83424FF02201AA
:102A500018BF207402A818BF012517F0F9FA637C8B
:102A60000222002908BF83424FF0240118BF60747E
:102A700002A818BF012517F0EBFAA37C0222002957
:102A800008BF83424FF0260118BFA07402A818BFE8
:102A9000012517F0DDFAE37C0222002908BF8342FA
:102AA0004FF0280118BFE07402A818BF012517F0E5
:102AB000CFFA237D0222002908BF83424FF02A016A
:102AC00018BF207502A818BF012517F0C1FA637D51
:102AD0000222002908BF83424FF02C0118BF607505
:102AE00002A818BF012517F0B3FAA37D022200291E
:102AF00008BF83424FF02E0118BFA07502A818BF6F
:102B0000012517F0A5FAE37D0222002908BF8342C0
:102B10004FF0300118BFE07502A818BF012517F06B
:102B200097FA237E0222002908BF83424FF0320128
:102B300018BF207602A818BF012517F089FA637E16
:102B40000222002908BF83424FF0340118BF60768B
:102B500002A818BF012517F07BFAA37E02220029E4
:102B600008BF83424FF0360118BFA07602A818BFF5
:102B7000012517F06DFAE37E002908BF83421CBFD0
:102B80000125E076284605B030BD30B585B000257A
:102B900004A8089C00E90E00022202A8002117F0F8
:102BA00057FA237802228D4208BF8342114618BF8C
:102BB000207002A818BF012517F04AFA6378022294
:102BC000002908BF83424FF0040118BF607002A8BB
:102BD00018BF012517F03CFAA3780222002908BF8C
:102BE00083424FF0060118BFA07002A818BF01254C
:102BF00017F02EFAE3780222002908BF83424FF033
:102C0000080118BFE0700DEB010018BF012517F097
:102C10001FFA23790222002908BF83424FF00A01DC
:102C200018BF207102A818BF012517F011FA6379A7
:102C30000222002908BF83424FF00C0118BF6071C7
:102C400002A818BF012517F003FAA3790222002970
:102C500008BF83424FF00E0118BFA07102A818BF31
:102C6000012517F0F5F9E3790222002908BF834214
:102C70004FF0100118BFE07102A818BF012517F02E
:102C8000E7F9237A0222002908BF83424FF012019C
:102C900018BF207202A818BF012517F0D9F9637A6E
:102CA0000222002908BF83424FF0140118BF60724E
:102CB00002A818BF012517F0CBF9A37A0222002938
:102CC00008BF83424FF0160118BFA07202A818BFB8
:102CD000012517F0BDF9E37A0222002908BF8342DB
:102CE0004FF0180118BFE07202A818BF012517F0B5
:102CF000AFF9237B0222002908BF83424FF01A015B
:102D000018BF207302A818BF012517F0A1F9637B33
:102D10000222002908BF83424FF01C0118BF6073D4
:102D200002A818BF012517F093F9A37B02220029FE
:102D300008BF83424FF01E0118BFA07302A818BF3E
:102D4000012517F085F9E37B0222002908BF8342A1
:102D50004FF0200118BFE07302A818BF012517F03B
:102D600077F9237C0222002908BF83424FF0220119
:102D700018BF207402A818BF012517F069F9637CF9
:102D80000222002908BF83424FF0240118BF60745B
:102D900002A818BF012517F05BF9A37C02220029C5
:102DA00008BF83424FF0260118BFA07402A818BFC5
:102DB000012517F04DF9E37C0222002908BF834268
:102DC0004FF0280118BFE07402A818BF012517F0C2
:102DD0003FF9237D0222002908BF83424FF02A01D8
:102DE00018BF207502A818BF012517F031F9637DBF
:102DF0000222002908BF83424FF02C0118BF6075E2
:102E000002A818BF012517F023F9A37D022200298B
:102E100008BF83424FF02E0118BFA07502A818BF4B
:102E2000012517F015F9E37D0222002908BF83422E
:102E30004FF0300118BFE07502A818BF012517F048
:102E400007F9237E0222002908BF83424FF0320196
:102E500018BF207602A818BF012517F0F9F8637E85
:102E60000222002908BF83424FF0340118BF607668
:102E700002A818BF012517F0EBF8A37E0222002953
:102E800008BF83424FF0360118BFA07602A818BFD2
:102E9000012517F0DDF8E37E002908BF83421CBF3F
:102EA0000125E076284605B030BD000030B52DED97
:102EB000028B85B09FED438A04A80A9C00E90E00AE
:102EC000092202A8002117F0C3F8C83861F10001F7
:102ED000FDF78AFD94ED007A07EE900A092202A818
:102EE000B4EE677A1146F1EE10FA1ABFC4ED007A1B
:102EF0000125002517F0ACF8C83861F10001FDF795
:102F000073FD94ED017A07EE900A102202A81221B7
:102F1000B4EE677AF1EE10FA1CBFC4ED017A012518
:102F200017F096F8A3680A22002908BF83424FF0E1
:102F3000220118BFA06002A818BF012517F088F869
:102F4000E3680A22002908BF83424FF02C0118BF12
:102F5000E06002A818BF012517F07AF8FDF744FDDC
:102F600007EE100AD4ED047A082227EE087A3621FB
:102F70000DEB020077EEC77AF0EEE77AF4EEC87A4E
:102F8000F1EE10FAC4BF84ED047A012517F060F861
:102F9000FDF72AFD07EE100AD4ED057A27EE087A30
:102FA00077EEC77AF0EEE77AF4EEC87AF1EE10FA2F
:102FB000C4BF012584ED057A284605B0BDEC028B1F
:102FC00030BD00BFCDCCCC3D30B585B0002504A8C8
:102FD000089C00E90E00052202A8002117F038F82D
:102FE000236805228D4208BF8342114618BF206026
:102FF00002A818BF012517F02BF8636805220029E5
:1030000008BF83424FF00A0118BF606002A818BFD2
:10301000012517F01DF8A3680522002908BF834287
:103020004FF00F0118BFA06002A818BF012517F0CC
:103030000FF8E3680122002908BF83424FF0140112
:1030400018BFE06002A818BF012517F001F8237C23
:103050000122002908BF83424FF0150118BF2074D8
:1030600002A818BF012516F0F3FF637C0122002996
:1030700008BF83424FF0160118BF607402A818BF42
:10308000012516F0E5FFA37C0122002908BF834239
:103090004FF0170118BFA07402A818BF012516F041
:1030A000D7FFE37C0C22002908BF83424FF01801B0
:1030B00018BFE07402A818BF012516F0C9FF194B0C
:1030C0000C22C018636961F10001002908BF834226
:1030D0004FF0240118BF606102A818BF012516F047
:1030E000B7FF104B0C22C018A36961F10001002941
:1030F00008BF83424FF0300118BFA06102A818BF7B
:10310000012516F0A5FF074BC018E36961F1000126
:10311000002908BF83421CBF0125E061284605B095
:1031200030BD00BF3CF6FFFF30B585B004A8089C59
:1031300000E90E00082200210DEB020016F088FFC6
:10314000B4F9003032384FEAE37261F100018A428B
:1031500008BF83424FF0080218BF208011460DEBD4
:10316000020014BF0125002516F072FFB4F90030EB
:1031700032384FEAE37261F100018A4208BF8342AC
:103180004FF008024FF0100118BF20800DEB020035
:1031900018BF012516F05CFFB4F9043032384FEA4D
:1031A000E37261F100018A4208BF83424FF00802D6
:1031B0004FF0180118BFA0800DEB020018BF0125C9
:1031C00016F046FFB4F9063032384FEAE37261F187
:1031D00000018A4208BF83424FF008024FF02001ED
:1031E00018BFE0800DEB020018BF012516F030FF7C
:1031F000B4F9083032384FEAE37261F100018A42D3
:1032000008BF83424FF008024FF0280118BF208109
:103210000DEB020018BF012516F01AFFB4F90A30B1
:1032200032384FEAE37261F100018A4208BF8342FB
:103230004FF008024FF0300118BF60810DEB020023
:1032400018BF012516F004FFB4F90C3032384FEAEC
:10325000E37261F100018A4208BF83424FF0080225
:103260004FF0380118BFA0810DEB020018BF0125F7
:1032700016F0EEFEB4F90E3032384FEAE37261F127
:1032800000018A4208BF83421CBF0125E081284615
:1032900005B030BD30B585B004A8089C00E90E002B
:1032A000082200210DEB020016F0D2FEB4F9003026
:1032B00032384FEAE37261F100018A4208BF83426B
:1032C0004FF0080218BF208011460DEB020014BF1A
:1032D0000125002516F0BCFEB4F9023032384FEA61
:1032E000E37261F100018A4208BF83424FF0080295
:1032F0004FF0100118BF60800DEB020018BF0125D0
:1033000016F0A6FEB4F9043032384FEAE37261F1E8
:1033100000018A4208BF83424FF008024FF01801B3
:1033200018BFA0800DEB020018BF012516F090FE1B
:10333000B4F9063032384FEAE37261F100018A4293
:1033400008BF83424FF010024FF0200118BFE08009
:1033500002A818BF012516F07BFE23890822002948
:1033600008BF83424FF0300118BF20810DEB0200EF
:1033700018BF012516F06CFEB4F90A3032384FEA56
:10338000E37261F100018A4208BF83424FF00802F4
:103390004FF02E0118BF60810DEB020018BF012510
:1033A00016F056FEB4F90C3032384FEAE37261F190
:1033B00000018A4208BF83421CBF0125A081284624
:1033C00005B030BD30B585B0002404A8089D00E9E3
:1033D0000E00102202A8002116F03AFE214B2A8886
:1033E0001B1802A861F100018C4208BF9A424FF0FD
:1033F000100218BF6B80114618BF012416F028FE7A
:10340000184B6A881B1802A861F10001002908BF47
:103410009A424FF010024FF020011CBF6B80012434
:1034200016F016FE0F4BAA881B1802A861F10001C6
:10343000002908BF9A424FF010024FF030011CBF24
:10344000AB80012416F004FE064BEA881B1861F1DC
:103450000001002908BF9A421CBF0124EB802046CE
:1034600005B030BD78ECFFFF30B585B004A8089CEE
:1034700000E90E00102202A8002116F0E9FD2D4BF4
:10348000181861F10001FDF7B7FA94ED007A07EE24
:10349000900A102202A8B4EE677A1146F1EE10FAF3
:1034A0001ABFC4ED007A0125002516F0D1FD214B8D
:1034B000181861F10001FDF79FFA94ED017A07EE0B
:1034C000900A102202A82021B4EE677AF1EE10FAD9
:1034D0001CBFC4ED017A012516F0BAFD164B181871
:1034E00061F10001FDF788FA94ED027A07EE900A87
:1034F000102202A83021B4EE677AF1EE10FA1CBF58
:10350000C4ED027A012516F0A3FD0A4B181861F1EB
:103510000001FDF771FA94ED037A07EE900AB4EE1C
:10352000677AF1EE10FA1CBF0125C4ED037A284634
:1035300005B030BD78ECFFFF3CF6FFFF30B585B03D
:10354000002504A8089C00E90E00082200210DEBCC
:10355000020016F07DFD323863784FF0080261F109
:1035600000018D4208BF8342114618BF60700DEB09
:10357000020018BF012516F06BFD323823784FF09A
:10358000080261F10001002908BF83424FF01001D9
:1035900018BF20700DEB020018BF012516F058FD72
:1035A0003238A3784FF0080261F10001002908BF0A
:1035B00083424FF0180118BFA0700DEB020018BF36
:1035C000012516F045FD3238E3784FF0080261F12D
:1035D0000001002908BF83424FF0200118BFE070AE
:1035E0000DEB020018BF012516F032FD32382379A9
:1035F0004FF0080261F10001002908BF83424FF03B
:10360000280118BF20710DEB020018BF012516F02C
:103610001FFD323863794FF0080261F10001002983
:1036200008BF83424FF0300118BF60710DEB0200FC
:1036300018BF012516F00CFD3238A3794FF00802AF
:1036400061F10001002908BF83424FF0380118BF23
:10365000A0710DEB020018BF012516F0F9FC3238FD
:10366000E37961F10001002908BF83421CBF0125F5
:10367000E071284605B030BD30B585B0002504A8FE
:10368000089C00E90E00082200210DEB020016F054
:10369000DFFC323823784FF0080261F100018D42DF
:1036A00008BF8342114618BF20700DEB020018BFFF
:1036B000012516F0CDFC323823784FF0080261F175
:1036C0000001002908BF83424FF0100118BF20708D
:1036D0000DEB020018BF012516F0BAFC3238A378B2
:1036E0004FF0080261F10001002908BF83424FF04A
:1036F000180118BFA0700DEB020018BF012516F0CD
:10370000A7FC3238E3784FF0080261F1000100298C
:1037100008BF83424FF0200118BFE0700DEB02009C
:1037200018BF012516F094FC323823794FF00802B7
:1037300061F10001002908BF83424FF0280118BF42
:1037400020710DEB020018BF012516F081FC323804
:1037500063794FF0080261F10001002908BF83423C
:103760004FF0300118BF60710DEB020018BF01254A
:1037700016F06EFC3238A3794FF0080261F10001B7
:10378000002908BF83424FF0380118BFA0710DEB2C
:10379000020018BF012516F05BFC3238E37961F1B5
:1037A0000001002908BF83421CBF0125E0712846A3
:1037B00005B030BD30B585B0002504A8089C00E9EF
:1037C0000E00082200210DEB020016F041FC3238F9
:1037D00063784FF0080261F100018D4208BF834217
:1037E000114618BF60700DEB020018BF012516F0DE
:1037F0002FFC323823784FF0080261F100010029D4
:1038000008BF83424FF0100118BF20700DEB02007B
:1038100018BF012516F01CFC3238A3784FF00802BF
:1038200061F10001002908BF83424FF0180118BF61
:10383000A0700DEB020018BF012516F009FC32380C
:10384000E3784FF0080261F10001002908BF8342CC
:103850004FF0200118BFE0700DEB020018BF0125EA
:1038600016F0F6FB323823794FF0080261F10001BF
:10387000002908BF83424FF0280118BF20710DEBCB
:10388000020018BF012516F0E3FB323863794FF0D0
:10389000080261F10001002908BF83424FF03001A6
:1038A00018BF60710DEB020018BF012516F0D0FBA8
:1038B0003238A3794FF0080261F10001002908BFF6
:1038C00083424FF0380118BFA0710DEB020018BF02
:1038D000012516F0BDFB3238E37961F100010029C2
:1038E00008BF83421CBF0125E071284605B030BDEA
:1038F00030B585B0002504A8089C00E90E00082218
:1039000000210DEB020016F0A3FB323823784FF0B4
:10391000080261F100018D4208BF8342114618BFC1
:1039200020700DEB020018BF012516F091FB323814
:1039300023784FF0080261F10001002908BF83429B
:103940004FF0100118BF20700DEB020018BF0125C9
:1039500016F07EFB3238A3784FF0080261F10001C7
:10396000002908BF83424FF0180118BFA0700DEB6B
:10397000020018BF012516F06BFB3238E3784FF0D8
:10398000080261F10001002908BF83424FF02001C5
:1039900018BFE0700DEB020018BF012516F058FBB0
:1039A000323823794FF0080261F10001002908BF85
:1039B00083424FF0280118BF20710DEB020018BFA1
:1039C000012516F045FB323863794FF0080261F1AA
:1039D0000001002908BF83424FF0300118BF607119
:1039E0000DEB020018BF012516F032FB3238A37927
:1039F0004FF0080261F10001002908BF83424FF037
:103A0000380118BFA0710DEB020018BF012516F098
:103A10001FFB3238E37961F10001002908BF8342BE
:103A20001CBF0125E071284605B030BD30B585B01A
:103A3000002504A8089C00E90E00082200210DEBD7
:103A4000020016F005FB323823784FF0080261F1CE
:103A500000018D4208BF8342114618BF20700DEB54
:103A6000020018BF012516F0F3FA323823784FF020
:103A7000080261F10001002908BF83424FF01001E4
:103A800018BF20700DEB020018BF012516F0E0FAF8
:103A90003238A3784FF0080261F10001002908BF15
:103AA00083424FF0180118BFA0700DEB020018BF41
:103AB000012516F0CDFA3238E3784FF0080261F1B3
:103AC0000001002908BF83424FF0200118BFE070B9
:103AD0000DEB020018BF012516F0BAFA323823792F
:103AE0004FF0080261F10001002908BF83424FF046
:103AF000280118BF20710DEB020018BF012516F038
:103B0000A7FA323863794FF0080261F10001002909
:103B100008BF83424FF0300118BF60710DEB020007
:103B200018BF012516F094FA3238A3794FF0080235
:103B300061F10001002908BF83424FF0380118BF2E
:103B4000A0710DEB020018BF012516F081FA323882
:103B5000E37961F10001002908BF83421CBF012500
:103B6000E071284605B030BD30B585B0002504A809
:103B7000089C00E90E00082200210DEB020016F05F
:103B800067FA323823784FF0080261F100018D4264
:103B900008BF8342114618BF20700DEB020018BF0A
:103BA000012516F055FA323863784FF0080261F1BA
:103BB0000001002908BF83424FF0100118BF607058
:103BC0000DEB020018BF012516F042FA3238A37837
:103BD0004FF0080261F10001002908BF83424FF055
:103BE000180118BFA0700DEB020018BF012516F0D8
:103BF0002FFA3238E3784FF0080261F10001002912
:103C000008BF83424FF0200118BFE0700DEB0200A7
:103C100018BF012516F01CFA323823794FF008023C
:103C200061F10001002908BF83424FF0280118BF4D
:103C300020710DEB020018BF012516F009FA323889
:103C400063794FF0080261F10001002908BF834247
:103C50004FF0300118BF60710DEB020018BF012555
:103C600016F0F6F93238A3794FF0080261F100013D
:103C7000002908BF83424FF0380118BFA0710DEB37
:103C8000020018BF012516F0E3F93238E37961F13B
:103C90000001002908BF83421CBF0125E0712846AE
:103CA00005B030BD2DE9F04F04468FB00A27DFF88C
:103CB000F482DFF8F492DFF8F4A20BAD0023D8F819
:103CC00000001A4629460BF058FE002848D10B9BED
:103CD0004B4500F29081B24A93423FD903F17043C1
:103CE000043B202B3AD8DFE813F066007A00390055
:103CF0003E005200210039003900390039003900F6
:103D00003900F200390039003900630139009200AE
:103D1000A300B200C200390039003900390039006F
:103D20003900D200E20039003900400100942046F9
:103D300095E80E00FFF748F980B104F10C06D4F8BD
:103D40003CC16D46DCF800E00FCE0FC5336860461D
:103D50002B60DEF8085094E80E00A847013FACD174
:103D60000FB0BDE8F08F04F120062046009695E8DC
:103D70000E00FFF7D9F90028F0D0D4F83C01E36A2F
:103D800005680093ED6896E80E00A847E6E704F1A1
:103D900030062046009695E80E00FFF77BFA0028D3
:103DA000DCD0D4F83C01A38F0568ADF800302D6954
:103DB00096E80E00E9E704F13E032046009395E8FB
:103DC0000E00FFF7FFFA0028C8D0D4F83C01D4F861
:103DD0003E100368D4F842205B699847BEE704F1BF
:103DE00048032046009395E80E00FFF73DFB0028AE
:103DF000B4D0D4F83C0194ED120A0368D4ED130A50
:103E00009B6994ED141AD4ED151A9847A6E704F1AE
:103E100058062046009695E80E00FFF78FFB002815
:103E20009CD0D4F83C010368DB6996E80600D4E72F
:103E300004F160062046009695E80E00FFF71CFC92
:103E400000288BD0D4F83C0103681B6AEDE704F12D
:103E500068062046009695E80E00FFF7ABFC0028A8
:103E60003FF47CAFD4F83C0103685B6ADDE704F102
:103E700070062046009695E80E00FFF739FD0028F1
:103E80003FF46CAFD4F83C0103689B6ACDE704F1C2
:103E900078062046009695E80E00FFF7C7FD00283B
:103EA0003FF45CAFD4F83C010368DB6ABDE704F182
:103EB00080062046009695E80E00FFF755FE002884
:103EC0003FF44CAFD4F83C0103681B6BADE704F141
:103ED00088062046009695E80E00FEF7E7FF0028CA
:103EE0003FF43CAFD4F83C5104F19403D5F800C042
:103EF00093E807008DE8070096E80E00DCF83460D0
:103F00002846B0472AE704F1A0062046009695E827
:103F10000E00FEF7AAFC00283FF420AFD4F83C5175
:103F200004F1AC03D5F800C00FCB8DE80F0096E884
:103F30000E00DCF83860E3E704F1BC06204600968A
:103F400095E80E00FEF721FE00283FF407AFD4F8F5
:103F50003C5104F1C803D5F800C00FCB8DE80F0029
:103F600096E80E00DCF83C60CAE704F1F40620464F
:103F7000009695E80E00FEF70EFA00283FF4EEAE2C
:103F8000D4F83C51D4E94001D5F800C08DE80300D5
:103F9000284696E80E00DCF84460B047DEE600BF35
:103FA00003000010D00C0324240000104400001073
:103FB00004F584762046009695E80E00FEF7D4F9C5
:103FC00000283FF4CBAE04F58A7CD4F83CE16D4682
:103FD000DEF800B0BCE80F000FC5BCE80F000FC54D
:103FE0009CE8030085E803007046DBF8485096E83B
:103FF0000E00A847B2E6534585D0104A93429BD0A5
:10400000023A93427FF4AAAE04F1D8062046009605
:1040100095E80E00FEF799FA00283FF49FAED4F819
:104020003C5104F1E403D5F800C00FCB8DE80F003C
:1040300096E80E00DCF8406062E700BF4500001023
:1040400084B007B505A880E80E00BDF82430ADF8AF
:1040500000300FC816F040F903B05DF804EB04B06F
:10406000704782B06B4683E8060093E8030002B015
:1040700016F050B9704700F598730868496803C393
:104080007047704707F018BD10B504464FF4AE7185
:1040900030F000FC204610BD10B50446D0F85801A1
:1040A000FFF700FE2046BDE810401EF0E1BD10B550
:1040B0000446D0F8400158B10368DB68984738B12E
:1040C000D4F8400103689B6898470023C4F8403146
:1040D00010BD000010B5044607F0BAFC014B2046A5
:1040E000236010BD5455040800207047818070473C
:1040F000C1807047018170474181704770477047A8
:1041000070477047704710B4C4880368121B8488D6
:104110005B6D091B12B25DF8044B09B218474FF6EC
:10412000FF7383814FF0FF3303621368C361106034
:104130007047704770477047704730B585B0036867
:10414000044601816D460146D3F884303C3428464C
:10415000984795E8070084E8070005B030BD30B502
:1041600085B00368044641816D460146D3F884302A
:104170003C342846984795E8070084E8070005B0D6
:1041800030BD0022028042808280C280704780F869
:1041900036107047036870B504461B6B1546984788
:1041A0002368204629465B6EBDE870401847002012
:1041B0007047806C7047806C7047C06C7047704768
:1041C0007047704770477047704770477047704737
:1041D0007047704770477047704770477047704727
:1041E00000F51D73994270B504460D4602D103686F
:1041F000DB6A984704F52B739D4203D12368204660
:104200001B6B984704F539739D4203D12368204600
:104210005B6B984704F547739D4203D123682046A2
:104220009B6B984704F555739D4203D12368204644
:10423000DB6B984704F563739D4203D123682046E6
:104240001B6C984704F204639D4203D12368204607
:104250005B6C984704F23C639D4203D1236820467F
:104260009B6C984704F274639D4203D123682046F7
:10427000DB6C984704F2AC639D4203D1236820466F
:104280001B6D984704F274739D4203D12368204646
:104290005B6D984704F57F5320339D4203D123681B
:1042A00020469B6D984704F5804360339D4205D1BD
:1042B00023682046DB6DBDE87040184770BD70472D
:1042C00070477047704730B444680346C2689B68C3
:1042D000551004EB6200D20748BF625930BC48BF9A
:1042E000D35818470346406830B19A681AB9D8685D
:1042F00000F00100704701207047838A8B4286BF1F
:1043000000EB81004068002070470346818A00204E
:1043100010B582B2914202D84FF0FF3010BD53F871
:10432000044F421C94F83740002CF7D11046F0E7B8
:10433000036810B51B6904469847011E06DB236815
:10434000204689B2DB68BDE810401847002010BD48
:10435000838A00EB8303984200D1704750F8042F02
:1043600082F83810F7E70346808A10B15B6893F84B
:104370003800704730B444680346C2689B685510E3
:1043800004EB6200D20748BF625930BC48BFD35823
:1043900018470346406830B19A681AB9D86800F0E7
:1043A0000100704701207047038A8B4286BF00EBF3
:1043B00081004068002070470346018A002010B544
:1043C00082B2914202D84FF0FF3010BD53F8044F33
:1043D000421C94F83740002CF7D11046F0E70368F0
:1043E00010B51B6904469847011E06DB236820466A
:1043F00089B2DB68BDE810401847002010BD038A71
:1044000000EB8303984200D1704750F8042F82F8E4
:104410003810F7E70346008A10B15B6893F838005C
:10442000704730B444680346C2689B68551004EB7B
:104430006200D20748BF625930BC48BFD358184702
:104440000346406830B19A681AB9D86800F0010094
:1044500070470120704770B50D460446012128467B
:104460001CF000FD2368294620465B6ABDE87040C9
:10447000184770B50D460446012128461CF0F2FC91
:104480002368294620465B6ABDE87040184710B58E
:104490000446082130F0FEF9204610BD10B5044650
:1044A000502130F0F7F9204610BD10B504464C21DC
:1044B00030F0F0F9204610BD10B504463C2130F034
:1044C000E9F9204610BD10B50446102130F0E2F99C
:1044D000204610BD10B50446402130F0DBF92046DF
:1044E00010BD10B50446102130F0D4F9204610BD9F
:1044F00010B50446102130F0CDF9204610BD90F8DB
:10450000252012B103685B691847704708B5FFF7AB
:10451000F6FF08BD90F825201AB190F8242002B1CA
:1045200018607047036870B55E6B0446114B8DB21E
:104530001B682BB9104B6C21104A114837F028FD2D
:104540001049828D0988914203D80F4B6D210B4A87
:10455000F3E713F812200D4B1B6853F82200036891
:104560001B6B9847291A3346204609B2BDE87040B4
:10457000184700BF141D032474370408B637040815
:10458000F1370408081D0324363804080C1D0324E1
:1045900008B5038A022B05D9084B4121084A09486E
:1045A00037F0F6FC00F114028A6200F12402CA63BB
:1045B0005A1C028200EB8300416008BD7438040875
:1045C000AD3804081B39040808B5838A032B05D9C4
:1045D000084B4121084A094837F0DAFC00F118027B
:1045E0008A6200F12802CA635A1C828200EB8300AF
:1045F000416008BD743804086F3904081B39040889
:1046000070B504460D460026A28AB3B29A420CD871
:10461000A06BC0B10368DB689847A0B1A06B2946C6
:104620000368BDE870409B681847B3B204EB83038E
:104630005868A84205D090F8373013B100211CF01B
:1046400011FC0136E0E770BD70B504460D4600264A
:10465000228AB3B29A420CD8606BC0B10368DB689F
:104660009847A0B1606B29460368BDE870409B681D
:104670001847B3B204EB83035868A84205D090F8FA
:10468000373013B100211CF0EDFB0136E0E770BDBF
:1046900070B50446C06B0D4650B10368DB6898479F
:1046A00030B1E06B29460368BDE870409B6818474D
:1046B00070BD70B50446806B0D4650B10368DB6871
:1046C000984730B1A06B29460368BDE870409B68ED
:1046D000184770BD036870B504461B6B15469847B4
:1046E0002368204629465B6BBDE87040184770B5CB
:1046F00004461D46BDF91060FFF7ECFF236829460C
:1047000020469B6B9847236831462046DB6BBDE80B
:10471000704018474FF480710022818405498262FD
:104720000160C0E90122C0E90322C0E90522C0E915
:1047300007227047C06304080022C0E90122C0E9D3
:104740000322C0E90522C0E907224FF48072828467
:10475000014A0260704700BFA855040810B504461E
:104760002622002139F07AFF2046FFF7E5FF044BAF
:1047700020462360FF2384F826300023A36210BD67
:10478000DC68040838B504460D462622002139F0BD
:1047900065FF2046FFF7D0FF064B204629462360E1
:1047A0002B88E384FF2384F828301CF0F8F9204696
:1047B00038BD00BFC869040800224FF0FF31826095
:1047C000C0E90021704710B50446FFF7F5FF204609
:1047D00010BD000010B504460021262239F03EFF2E
:1047E0002046FFF7A9FF094B4FF47F0204F13C007C
:1047F0002360074BA3624FF6FF73A3850023C4E930
:104800000C322387FFF7D8FF204610BD4C68040800
:104810001056040810B50446FFF7DCFF024B204693
:1048200023600023A36410BD2056040810B504467D
:104830002622002139F012FF2046FFF77DFF054BAD
:10484000204623600023A36284F82C30012384F8DF
:10485000243010BD68670408138883861CF091B863
:1048600010B50446FFF7E2FF084B4FF0FF32204639
:1048700023604FF6FF73E3856FF07F43C4E90C2399
:10488000002384F83830E36310BD00BF346A0408A5
:1048900010B50446FFF7CAFF4FF6FF73044A2046DF
:1048A000E385238684F832302260A38610BD00BFE2
:1048B000D86704082DE9F04F0446ADF2DC5D002511
:1048C0001FF088FD2746E94BE56304F5B27A47F807
:1048D000403B3846FFF742FF04F16C0304F5C8780B
:1048E00004F5EE791846099319F000FF5046FFF7DA
:1048F00011FF4046FFF78EFF4846FFF78BFF04F598
:104900000A7301264FF0280B18460893FFF782FF21
:1049100004F51D731846CDF81C35FFF7B9FF04F5F3
:104920002B731846CDF82035FFF7B2FF04F5397325
:104930001846CDF82435FFF7ABFF04F5477318464A
:10494000CDF82835FFF7A4FF04F555731846CDF8C8
:104950002C35FFF79DFF04F563731846CDF830350D
:10496000FFF796FF04F5717318469993FFF732FF2E
:1049700004F20C4318469A93FFF72CFF04F25443B9
:1049800018469B93FFF726FF04F29C4318469C931E
:10499000FFF720FF04F2E44318469393FFF71AFF52
:1049A00004F22C5318469493FFF714FF04F2745347
:1049B00018469593FFF70EFF04F2BC5318469693E2
:1049C000FFF708FF04F204631846CDF83435FFF70B
:1049D0005FFF04F23C631846CDF83835FFF758FF07
:1049E00004F274631846CDF83C35FFF751FF04F22A
:1049F000AC631846CDF84035FFF74AFF04F2E46394
:104A000018469793FFF7E6FE04F22C731846989326
:104A1000FFF7E0FE04F274731846CDF84435FFF753
:104A200037FF04F2AC7318469D93FFF7D3FE04F2F0
:104A3000F4738F4A2421F8938E4BC4F8F427C4F8FA
:104A40000838F89AC4F8183804F50363C4F80C2839
:104A5000C4F810181846C4F81C28A4F80458C4F860
:104A60001468C4F820B8C4F82468C4F82858C4F8F6
:104A70002C589E93FFF7F4FE04F5076318469F93A6
:104A8000FFF7EEFE04F50B631846A093FFF7E8FE70
:104A900004F50F63764A2421F993764BC4F8F02885
:104AA000C4F80439F99AC4F8143904F62C13C4F87C
:104AB0000829C4F80C191846C4F81829A4F8005994
:104AC000C4F81069C4F81CB9C4F82069C4F82459A2
:104AD000C4F82859A193FFF7C3FE04F66C131846D7
:104AE000A293FFF7BDFE04F6AC131846A393FFF79D
:104AF000B7FE04F6EC13604A2421A493C4F8EC2911
:104B0000C4F8083A5D4AC4F8183A04F62C23C4F8ED
:104B1000042AC4F8142A1846C4F80C1AA4F8005A37
:104B2000C4F8106AC4F81CBA04F5BD5BC4F8206A66
:104B3000C4F8245A0BF1180BC4F8285AA593FFF7B0
:104B40008FFE04F66C231846A693FFF789FE04F641
:104B5000AC231846A793FFF783FE04F6EC23184610
:104B6000A893FFF77DFE04F62C331846A993FFF7B0
:104B700031FE04F674331846AA93FFF72BFE04F6B1
:104B8000BC331846AB93FFF725FE04F604431846E2
:104B9000AC93FFF71FFE04F64C431846CDF88C3556
:104BA000FFF718FE364BC4F8945C0DF2CC51C4F8F4
:104BB0004C3C04F69C43C4F8985C4FF6FF751846CD
:104BC000CDF84835ADF8CC55FFF7DCFD04F6C84309
:104BD0002E4618460793FFF79DFD04F6F4430DF2A9
:104BE000CC51ADF8CC551846CDF84C35FFF7CAFD81
:104BF00004F552630DF2CC51ADF8CC551846CDF802
:104C00005035FFF7BFFD04F64C531846CDF8543528
:104C1000FFF700FE04F698531846CDF85835FFF715
:104C2000F9FD04F6E4531846CDF85C35FFF7F2FDC4
:104C300004F563631846CDF86035FFF7EBFD04F625
:104C40007C631846CDF86435FFF7E4FD04F6C863CD
:104C50001846CDF86835FFF7DDFD04F614731846E5
:104C6000CDF86C35FFF7D6FD0CE000BFF057040817
:104C70005857040840570408A45704088C570408E0
:104C8000B056040804F576631846CDF87035FFF782
:104C9000C1FD04F6AC731846CDF87435FFF7BAFDC4
:104CA00004F6F8731846CDF87835FFF7B3FD04F530
:104CB000825304331846AD93FFF7ACFD04F58453DB
:104CC00010331846AE93FFF7A5FD04F586531C3349
:104CD0001846AF93FFF79EFD04F589530833184635
:104CE000B093FFF797FD04F58B5314331846B19337
:104CF000FFF790FD04F58E531846CDF87C35FFF78D
:104D000089FD04F590530C331846B293FFF782FDEA
:104D100004F5925318331846B393FFF77BFD04F55F
:104D2000955304331846B493FFF774FD04F5975375
:104D300010331846B593FFF76DFD04F599531C33F6
:104D400018460B9319F076FB04F59C531C33184658
:104D5000B693FFF75FFD04F59F5308331846B793EA
:104D6000FFF758FD04F5A15314331846B893FFF725
:104D700051FD04F5A4531846CDF88035FFF74AFDE0
:104D800004F5A6530C331846B993FFF743FD04F519
:104D9000A85318331846BA93FFF73CFD04F5AB53FC
:104DA000043318460C9319F045FB04F5AE53043355
:104DB0001846BB93FFF72EFD04F5B0531033184689
:104DC000BC93FFF727FD04F5B2531C331846BD937F
:104DD000FFF720FD04F5B55308331846BE93FFF7DF
:104DE00019FD04F5B75314331846BF93FFF712FDAE
:104DF00004F5BA531846CDF88435FFF70BFD04F5DA
:104E0000BC530C3318460A93FFF784FC5846FFF74F
:104E100081FC04F5BF5304331846FA93FFF79EFC58
:104E200004F5C053103318460F93FFF7D3FC04F575
:104E3000C25318331846FB93FFF790FC04F5C45394
:104E4000043318461093FFF7C5FC04F5C6530C3322
:104E50001846FC93FFF782FC04F5C7531833184635
:104E60001193FFF7B7FC04F5CA531846CDF89035F7
:104E7000FFF774FC04F5CB530C3318461293FFF77D
:104E8000A9FC04F5CD5314331846FD93FFF766FCD7
:104E900004F5CF531846C093FFF79CFC04F5D1539B
:104EA00008331846FE93FFF759FC04F5D253143328
:104EB00018461393FFF78EFC04F5D4531C331846A1
:104EC000FF93FFF74BFC04F5D653083318461493B1
:104ED000FFF780FC04F5D85310331846CDF80034A2
:104EE000FFF73CFC04F5D9531C3318461593FFF724
:104EF00071FC04F5DC5304331846CDF80434FFF795
:104F00002DFC04F5DD53103318461693FFF762FCB1
:104F100004F5DF5318331846CDF80834FFF71EFCAC
:104F200004F5E153043318461793FFF753FC04F5D7
:104F3000E3530C331846CDF80C34FFF70FFC04F59F
:104F4000E453183318461893FFF744FC04F5E7536D
:104F50001846CDF89435FFF701FC04F5E8530C33FF
:104F600018461993FFF736FC04F5EA531433184634
:104F7000CDF81034FFF7F2FB04F5EC531846C1935B
:104F8000FFF728FC04F5EE5308331846CDF8143427
:104F9000FFF7E4FB04F5EF53143318461A93FFF7B9
:104FA00019FC04F5F1531C331846CDF81834FFF7FB
:104FB000D5FB04F5F353083318461B93FFF70AFC9F
:104FC00004F5F55310331846CDF81C34FFF7C6FB33
:104FD00004F5F6531C3318461C93FFF7FBFB04F54E
:104FE000F95304331846CDF82034FFF7B7FB04F526
:104FF000FA53103318461D93FFF7ECFB04F5FC53EE
:1050000018331846CDF82434FFF7A8FB04F5FE53F7
:10501000043318461E93FFF7DDFB04F500530C33F1
:105020001846CDF82834FFF799FB04F500533833C0
:1050300018461F93FFF7CEFB04F502531846CDF830
:105040009835FFF78BFB04F502532C331846209359
:10505000FFF7C0FB04F5035334331846CDF82C3466
:10506000FFF77CFB04F50453203318462193FFF728
:10507000B1FB04F5055328331846CDF83034FFF75B
:105080006DFB04F50653143318462293FFF7A2FB79
:1050900004F507531C331846CDF83434FFF75EFB94
:1050A00004F50853083318462393FFF793FB04F5E0
:1050B000095310331846CDF83834FFF74FFB04F589
:1050C00009533C3318462493FFF784FB04F50B5334
:1050D00004331846CDF83C34FFF740FB04F50B537E
:1050E000303318462593FFF775FB04F50C5338331E
:1050F0001846CDF84034FFF731FB04F50D53243347
:1051000018462693FFF766FB04F50E532C3318461A
:10511000CDF84434FFF722FB04F50F53183318463B
:105120002793FFF757FB04F5105320331846CDF8AB
:105130004834FFF713FB04F511530C33184628933A
:10514000FFF748FB04F51253143318462993FFF771
:1051500041FB04F513531C3318460593FFF7DAFAA5
:1051600004F5145308331846CDF84C34FFF7F6FA1B
:1051700004F51453343318462A93FFF72BFB04F538
:1051800015533C331846CDF85034FFF7E7FA04F5D1
:105190001653283318462B93FFF71CFB04F51753BF
:1051A00030331846CDF85434FFF7D8FA04F51853C5
:1051B0001C3318462C93FFF70DFB04F519532433C9
:1051C0001846CDF85834FFF7C9FA04F51A531033CE
:1051D00018462D93FFF7FEFA04F51B5318331846B3
:1051E000CDF85C34FFF7BAFA04F51C5304331846C3
:1051F0002E93FFF7EFFA04F51D530C331846CDF844
:105200006034FFF7ABFA04F51D53383318462F937B
:10521000FFF7E0FA04F51F531846CDF89C35FFF769
:105220009DFA04F51F532C3318463093FFF7D2FA3A
:1052300004F5205334331846CDF86434FFF78EFA62
:1052400004F52153203318463193FFF7C3FA04F5D0
:10525000225328331846CDF86834FFF77FFA04F557
:105260002353143318463293FFF7B4FA04F524534A
:105270001C331846CDF86C34FFF770FA04F525534B
:10528000083318463393FFF7A5FA04F52653103375
:105290001846CDF87034FFF761FA04F526533C3315
:1052A00018463493FFF796FA04F52853043318464A
:1052B000CDF87434FFF752FA04F52853303318460A
:1052C0003593FFF787FA04F5295338331846CDF89C
:1052D0007834FFF743FA04F52A53243318463693FB
:1052E000FFF778FA04F52B532C331846CDF87C34AD
:1052F000FFF734FA04F52C53183318463793FFF7A9
:1053000069FA04F52D53203318463893FFF762FAF3
:1053100004F52E53283318460693FFF7FBF904F5DE
:105320002F5314331846CDF88034FFF717FA04F5DD
:1053300030531846C293FFF74DFA04F53153083342
:105340001846CDF88434FFF709FA04F531533433A5
:1053500018463993FFF73EFA04F532533C331846AA
:10536000CDF88834FFF7FAF904F53353283318469B
:105370003A93FFF72FFA04F5345330331846CDF83B
:105380008C34FFF7EBF904F535531C3318463B9387
:10539000FFF720FA04F5365324331846CDF890343D
:1053A000FFF7DCF904F53753103318463C93FFF749
:1053B00011FA04F5385318331846CDF89434FFF732
:1053C000CDF904F53953043318463D93FFF702FA3B
:1053D00004F53A530C331846CDF89834FFF7BEF96C
:1053E00004F53A53383318463E93FFF7F3F904F5C2
:1053F0003C531846CDF8A035FFF7B0F904F53C53FF
:105400002C3318463F93FFF7E5F904F53D53343349
:105410001846CDF89C34FFF7A1F904F53E5320332C
:1054200018464093FFF7D6F904F53F532833184642
:10543000CDF8A034FFF792F904F540531433184621
:105440004193FFF7C7F904F541531C331846CDF8D3
:10545000A434FFF783F904F5425308331846429306
:10546000FFF7B8F904F5435310331846CDF8A834C4
:10547000FFF774F904F543533C3318464393FFF7A1
:10548000A9F904F5455304331846CDF8AC34FFF7B9
:1054900065F904F54553303318464493FFF79AF9FC
:1054A00004F5465338331846CDF8B034FFF756F9B3
:1054B00004F54753243318464593FFF78BF904F559
:1054C00048532C3318464693FFF784F904F54953A3
:1054D000343318460293FFF71DF904F54A5320337D
:1054E0001846CDF8B434FFF739F904F54B530C33B3
:1054F00018464793FFF76EF904F54C5314331846DA
:10550000CDF8B834FFF72AF904F54D531846C39384
:10551000FFF760F904F54E5308331846CDF8BC3454
:10552000FFF71CF904F54E53343318464893FFF740
:1055300051F904F54F533C331846CDF8C034FFF70A
:105540000DF904F55053283318464993FFF742F9F3
:1055500004F5515330331846CDF8C434FFF7FEF844
:1055600004F552531C3318464A93FFF733F904F5F8
:10557000535324331846CDF8C834FFF7EFF804F539
:105580005453103318464B93FFF724F904F5555341
:1055900018331846CDF8CC34FFF7E0F804F556532D
:1055A000043318464C93FFF715F904F557530C33A1
:1055B0001846CDF8D034FFF7D1F804F557533833F7
:1055C00018464D93FFF706F904F559531846CDF8E0
:1055D000A435FFF7C3F804F559532C3318464E93FE
:1055E000FFF7F8F804F55A5334331846CDF8D4349D
:1055F000FFF7B4F804F55B53203318464F93FFF7D9
:10560000E9F804F55C5328331846CDF8D834FFF791
:10561000A5F804F55D53143318465093FFF7DAF8F4
:1056200004F55E531C331846CDF8DC34FFF796F8CA
:1056300004F55F53083318465193FFF7CBF804F590
:10564000605310331846CDF8E034FFF787F804F5BF
:1056500060533C3318465293FFF7BCF804F562538D
:1056600004331846CDF8E434FFF778F804F56253B4
:10567000303318465393FFF7ADF804F563533833CE
:105680001846CDF8E834FFF769F804F5645324337D
:1056900018465493FFF79EF804F565532C331846CB
:1056A000CDF8EC34FFF75AF804F566531833184672
:1056B0005593FFF78FF804F5675320331846CDF85C
:1056C000F034FFF74BF804F568530C331846569343
:1056D000FFF780F804F5695314331846CDF8F43415
:1056E000FFF73CF804F56A531846C493FFF772F8C5
:1056F00004F56B5308331846CDF8F834FFF72EF84D
:1057000004F56B53343318465793FFF763F804F5E9
:105710006C533C331846CDF8FC34FFF71FF804F502
:105720006D53283318465893FFF754F804F56E5319
:1057300030331846CDF80035FFF710F804F56F53F5
:105740001C3318465993FFF745F804F5705324337A
:105750001846CDF80435FFF701F804F571531033FE
:1057600018465A93FFF736F804F572531833184663
:10577000CDF80835FEF7F2FF04F5735304331846ED
:105780005B93FFF727F804F574530C331846CDF8F4
:105790000C35FEF7E3FF04F57453383318465C9379
:1057A000FFF718F804F576531846CDF8A835FEF73C
:1057B000D5FF04F576532C3318465D93FFF70AF8AE
:1057C00004F5775334331846CDF81035FEF7C6FF8D
:1057D00004F57853203318465E93FEF7FBFF04F57B
:1057E000795328331846CDF81435FEF7B7FF04F582
:1057F0007A53143318465F93FEF7ECFF04F57B539E
:105800001C331846CDF81835FEF7A8FF04F57C5375
:10581000083318466093FEF7DDFF04F57D5310331F
:1058200018466193FEF7D6FF04F57E5318331846E9
:105830000D93FEF7CFFF04F57F5320331846C59331
:10584000FFF726F804F58043183318460E93FEF749
:10585000C1FF04F5804360331846C693FFF718F87C
:1058600004F58143183318466293FEF753FF04F59D
:105870008143ADF8CC550DF2CC554433294618463A
:10588000C793FEF77FFF04F581432946ADF8CC6549
:10589000703300261846C893FEF774FF04F5824360
:1058A0001C331846039318F0C5FD04F582437C337E
:1058B0001846C993FEF7AEFF04F5834348331846F4
:1058C000CA93FEF7A7FF04F5844314331846CB931D
:1058D000FEF7A0FF04F5844360331846CC93FEF72F
:1058E00099FF04F585432C331846CD93FEF792FFBC
:1058F00004F5854378331846CE93FEF78BFF04F505
:10590000864344331846CF93FEF784FF04F587435C
:1059100010331846D093FEF77DFF04F587435C33C0
:105920001846D193FEF776FF04F5884328331846CE
:10593000D293FEF76FFF04F5884374331846D39370
:10594000FEF768FF04F5894340331846D493FEF709
:1059500061FF04F58A430C331846D593FEF75AFFCE
:1059600004F58A4358331846D693FEF753FF04F5DF
:105970008B4324331846D793FEF74CFF04F58B4333
:1059800070331846D893FEF745FF04F58C433C333B
:105990001846D993FEF73EFF04F58D4308331846A9
:1059A000DA93FEF737FF04F58D4354331846DB9343
:1059B000FEF730FF04F58E4320331846DC93FEF7E4
:1059C00029FF04F58E436C331846DD93FEF722FF62
:1059D00004F58F4338331846DE93FEF71BFF04F5BA
:1059E000904304331846DF93FEF714FF04F5904309
:1059F00050331846E093FEF70DFF04F591431C3336
:105A000018466393FEF7E6FE04F5914364331846A7
:105A10006493FEF7DFFE04F592432C33184665933A
:105A2000FEF7D8FE04F59243743318466693FEF7EA
:105A3000D1FE04F593433C3318466793FEF7CAFE44
:105A400004F59443043318466893FEF7C3FE04F547
:105A500094434C3318466993FEF7BCFE04F5954316
:105A6000143318466A93FEF7B5FE04F595435C338C
:105A700018466B93FEF7AEFE04F5964324331846A2
:105A80006C93FEF7A7FE04F596436C3318466D93AE
:105A9000FEF7A0FE04F59743343318466E93FEF7E5
:105AA00099FE04F597437C3318466F93FEF792FEF8
:105AB00004F59843443318467093FEF78BFE04F5C3
:105AC00099430C3318467193FEF784FE04F599430D
:105AD000543318467293FEF77DFE04F59A431C3347
:105AE00018467393FEF776FE04F59A43643318461E
:105AF0007493FEF76FFE04F59B432C3318467593A1
