:020000040800F2
:100000000000082409720108355501083755010818
:10001000395501083B5501083D5501080000000015
:10002000000000000000000000000000B191000886
:100030003F5501080000000041920008D5890008E2
:100040005972010859720108597201085972010860
:100050005972010859720108597201085972010850
:100060005972010841550108597201085972010875
:100070005972010859720108597201085972010830
:10008000597201085972010859720108495501084D
:100090005555010861550108655501085972010857
:1000A0005972010859720108597201085972010800
:1000B00069550108597201085972010859720108FD
:1000C00059720108597201085972010859720108E0
:1000D00059720108597201085972010859720108D0
:1000E0005972010859720108000000005972010894
:1000F00059720108597201085972010859720108B0
:10010000597201085972010859720108597201089F
:10011000597201085972010859720108597201088F
:10012000597201085972010859720108597201087F
:10013000597201085972010859720108597201086F
:100140005972010859720108000000000000000007
:10015000597201085972010859720108597201084F
:10016000597201085972010859720108597201083F
:100170005972010875550108597201085972010830
:10018000597201085972010859720108597201081F
:10019000597201085972010859720108597201080F
:1001A00081550108597201085D5F00085972010804
:1001B00059720108597201085972010859720108EF
:1001C00059720108597201085972010859720108DF
:1001D00059720108597201085972010859720108CF
:1001E00059720108597201085972010859720108BF
:1001F00059720108597201085972010859720108AF
:10020000597201085972010859720108597201089E
:10021000597201085972010859720108597201088E
:10022000597201088D550108995501085972010844
:10023000597201085972010859720108597201086E
:10024000597201085972010859720108597201085E
:10025000597201085972010859720108597201084E
:10026000597201085972010859720108597201083E
:10027000597201085972010859720108597201082E
:1002800059720108597201085972010800000000F2
:080290005972010859720108BE
:1002C00002780B78012A28BF9A4240F0D8806DE965
:1002D000044540EA0104CDE902676FF0000C4FEAE3
:1002E00044721AB380EA010414F0070F6BD100F0D6
:1002F000070420F0070004F0030521F007014FEA8E
:10030000C505F0E8042314F0040FF1E804670CFAC3
:1003100005F462EA040266EA04060BD063EA040309
:10032000624667EA0407664604E000BFF0E804237B
:10033000F1E8046782FA4CF582EA0604A4FA8CF428
:100340006CBB83FA4CF583EA0705A5FA8CF595B9E1
:1003500050E9022351E9026782FA4CF582EA060469
:10036000A4FA8CF483FA4CF583EA0705A5FA8CF518
:100370002543DBD09CB92DBAB5FA85F424F00704E7
:1003800027FA04F1DDE9026723FA04F303F0FF0022
:1003900001F0FF01FDE80445A0EB0100704724BA1D
:1003A000B4FA84F424F0070426FA04F1DDE90267C4
:1003B00022FA04F202F0FF0001F0FF01FDE804451B
:1003C000A0EB0100704714F0030F3CD110F00304C0
:1003D00028D150F8082B51F8083B82FA4CF582EAF4
:1003E0000305A5FA8CF55DB950F8042C51F8043CCE
:1003F00082FA4CF582EA0305A5FA8CF5002DE8D0C7
:100400002DBAB5FA85F424F0070423FA04F122FA90
:1004100004F202F0FF0001F0FF01FDE80445A0EB4B
:10042000010070474FEAC40420F0030050F8082B85
:1004300021F0030151F8083B0CFA04F462EA0402CB
:1004400063EA0403C9E710F003041DD0A1EB040123
:1004500020F00300E40750F8042B06D012D28B786A
:100460005FFAA2F4E41A06D12BB1CB785FFAB2F4AA
:10047000E41A00D133B920465DF8104B7047A2EB67
:100480000300704701F1040150F8042BCC0721F060
:10049000030151F8043B48D824D222F07F4482FA69
:1004A0004CF594EA1325A5FA8CF50AD165B951F8F3
:1004B000043B84EA0204B4EB036F0ED150F8042B22
:1004C000EBE74FEA132355E035F07F454DD108782F
:1004D000FDE80445C0F1000070474FEA126203F0E6
:1004E000FF0347E002EA1C4482FA4CF594EA134504
:1004F000A5FA8CF50AD165B951F8043B84EA0204E7
:10050000B4EB034F0CD150F8042BEBE74FEA134345
:1005100030E015EA1C4528D10B884FEA124229E049
:100520004FEA124203EA1C4324E002F0FF0482FA7D
:100530004CF594EA1365A5FA8CF50AD165B951F822
:10054000043B84EA0204B4EB032F09D150F8042BD6
:10055000EBE74FEA13630DE015F0FF0F05D10B68D1
:100560004FEA122223F07F4304E04FF00000FDE841
:100570000445704712BA1BBA82FA4CF482EA0304AB
:10058000A4FA8CF5B5FA85F402FA04F203FA04F33E
:100590004FEA1260FDE80445A0EB1360704700BF0E
:1005A00001F0FF01102A2BDB10F0070F08D010F824
:1005B000013B013A8B422DD010F0070F42B3F6D128
:1005C000F0B441EA012141EA014122F007047FF041
:1005D00000070023F0E80256083C85EA010586EA98
:1005E000010685FA47F5A3FA87F586FA47F6A5FAD4
:1005F00087F68EB9EED1F0BC01F0FF0102F00702E0
:1006000032B110F8013B013A83EA010313B1F8D18A
:100610000020704701387047002D06BF354603386B
:10062000073815F0010F07D1013015F4807F02BFA4
:10063000013015F4C03F0130F0BC0138704700BFF5
:10064000844641EA000313F003036DD1403A41D3DD
:1006500051F8043B40F8043B51F8043B40F8043B9C
:1006600051F8043B40F8043B51F8043B40F8043B8C
:1006700051F8043B40F8043B51F8043B40F8043B7C
:1006800051F8043B40F8043B51F8043B40F8043B6C
:1006900051F8043B40F8043B51F8043B40F8043B5C
:1006A00051F8043B40F8043B51F8043B40F8043B4C
:1006B00051F8043B40F8043B51F8043B40F8043B3C
:1006C00051F8043B40F8043B51F8043B40F8043B2C
:1006D000403ABDD2303211D351F8043B40F8043BCC
:1006E00051F8043B40F8043B51F8043B40F8043B0C
:1006F00051F8043B40F8043B103AEDD20C3205D3DC
:1007000051F8043B40F8043B043AF9D2043208D0D3
:10071000D2071CBF11F8013B00F8013B01D30B8845
:1007200003806046704700BF082A13D38B078DD023
:1007300010F003038AD0C3F10403D21ADB071CBFF5
:1007400011F8013B00F8013B80D331F8023B20F85F
:10075000023B7BE7043AD9D3013A11F8013B00F898
:10076000013BF9D20B7803704B7843708B78837020
:10077000604670470000000000000000000000001C
:1007800030B490F800F020F007016FF0000C10F08A
:10079000070491F820F040F048804FF000046FF01B
:1007A0000700D1E9002391F840F000F1080082FA37
:1007B0004CF2A4FA8CF283FA4CF3A2FA8CF34BBB02
:1007C000D1E9022382FA4CF200F10800A4FA8CF27B
:1007D00083FA4CF3A2FA8CF3E3B9D1E9042382FA49
:1007E0004CF200F10800A4FA8CF283FA4CF3A2FA5E
:1007F0008CF37BB9D1E9062301F1200182FA4CF296
:1008000000F10800A4FA8CF283FA4CF3A2FA8CF3FC
:10081000002BC6D0002A04BF04301A4612BAB2FA1E
:1008200082F200EBD20030BC7047D1E9002304F023
:100830000305C4F100004FEAC50514F0040F91F858
:1008400040F00CFA05F562EA05021CBF63EA0503F5
:1008500062464FF00004AAE780F0004002E000BFCB
:1008600081F0004142001FBF5FEA410392EA030F9B
:100870007FEA226C7FEA236C6AD04FEA1262D2EBE5
:100880001363C1BFD218414048404140B8BF5B42EA
:10089000192B88BF704710F0004F40F4000020F083
:1008A0007F4018BF404211F0004F41F4000121F099
:1008B0007F4118BF494292EA030F3FD0A2F10102E3
:1008C00041FA03FC10EB0C00C3F1200301FA03F121
:1008D00000F0004302D5494260EB4000B0F5000F44
:1008E00013D3B0F1807F06D340084FEA310102F103
:1008F0000102FE2A51D2B1F1004F40EBC25008BFB5
:1009000020F0010040EA03007047490040EB00007E
:10091000013A28BFB0F5000FEDD2B0FA80FCACF17F
:10092000080CB2EB0C0200FA0CF0AABF00EBC250AC
:1009300052421843BCBFD0401843704792F0000F9A
:1009400081F4000106BF80F400000132013BB5E7ED
:100950004FEA41037FEA226C18BF7FEA236C21D063
:1009600092EA030F04D092F0000F08BF08467047C8
:1009700090EA010F1CBF0020704712F07F4F04D196
:10098000400028BF40F00040704712F100723CBFA9
:1009900000F50000704700F0004343F0FE4040F4D3
:1009A000000070477FEA226216BF08467FEA236391
:1009B0000146420206BF5FEA412390EA010F40F47C
:1009C000800070474FF0000304E000BF10F00043C8
:1009D00048BF40425FEA000C08BF704743F09643AF
:1009E00001464FF000001CE050EA010208BF7047CA
:1009F0004FF000030AE000BF50EA010208BF704751
:100A000011F0004302D5404261EB41015FEA010C65
:100A100002BF84460146002043F0B64308BFA3F15D
:100A20008053A3F50003BCFA8CF2083AA3EBC2533F
:100A300010DB01FA02FC634400FA02FCC2F120025E
:100A4000BCF1004F20FA02F243EB020008BF20F095
:100A50000100704702F1200201FA02FCC2F12002FB
:100A600050EA4C0021FA02F243EB020008BF20EAF0
:100A7000DC70704753B94AB9002908BF00281CBF71
:100A80004FF0FF314FF0FF3000F0E2B8ADF1080C4D
:100A90006DE904CE3AF098FCDDF804E0DDE90223CC
:100AA00004B0704700F1340191E838009C46A64636
:100AB0004CF8045D90E8FF0FE54600BD90EC210B7B
:100AC000704700BF80EC210B704700BF90EC200BFB
:100AD000704700BF80EC200B704700BFD0EC200BAC
:100AE000704700BFC0EC200B704700BFF0EC020164
:100AF000F0EC0211F0EC0221F0EC0231F0EC0241DA
:100B0000F0EC0251F0EC0261F0EC0271F0EC0281C9
:100B1000F0EC0291F0EC02A1F0EC02B1F0EC02C1B9
:100B2000F0EC02D1F0EC02E1F0EC02F1704700BF12
:100B3000E0EC0201E0EC0211E0EC0221E0EC023119
:100B4000E0EC0241E0EC0251E0EC0261E0EC027109
:100B5000E0EC0281E0EC0291E0EC02A1E0EC02B1F9
:100B6000E0EC02C1E0EC02D1E0EC02E1E0EC02F1E9
:100B7000704700BFB0FC0181B0FC0191B0FC01A145
:100B8000B0FC01B1704700BFA0FC0181A0FC019145
:100B9000A0FC01A1A0FC01B1704700BFEC4600B56C
:100BA0002DE900502DE9FF1F4FF000032DE90C0047
:100BB00001A93AF0C3FEDDF840E012B0704700BF73
:100BC000EC4600B52DE900502DE9FF1F4FF0000362
:100BD0002DE90C0001A93AF0EDFEDDF840E012B07D
:100BE000704700BFEC4600B52DE900502DE9FF1F0E
:100BF0004FF000032DE90C0001A93AF0FDFEDDF8ED
:100C000040E012B0704700BFEC4600B52DE900503F
:100C10002DE9FF1F4FF000032DE90C0001AB3AF066
:100C2000C1FEDDF840E012B0704700BFEC4600B5F1
:100C30002DE900502DE9FF1F4FF000032DE90C00B6
:100C400001AA3AF039FFDDF840E012B0704700BF6A
:100C5000704700BF0348044B834202D0034B03B1EB
:100C600018477047C0070024C00700240000000098
:100C70000548064B1B1AD90F01EBA301491002D0FE
:100C8000034B03B118477047C0070024C007002476
:100C90000000000010B5064C237843B9FFF7DAFFD7
:100CA000044B13B10448AFF300800123237010BD3F
:100CB000C08100240000000034C5030808B5054BBE
:100CC0001BB105490548AFF30080BDE80840FFF7B8
:100CD000CFBF00BF00000000C481002434C503085A
:100CE000704704387047704782B002AB03E90600D2
:100CF00002B0704782B002AB03E9060002B0704751
:100D000082B002AB03E9060002B0704782B002ABCA
:100D100003E9060002B0704782B002AB03E90600A7
:100D200002B0704782B002AB03E9060002B0704720
:100D300010B5044610212CF03BFD204610BDA0F15B
:100D40000400F5E784B0F0B587B007460DAE10ADEE
:100D50006C4686E80E000FCD0FC42B682360F86840
:100D600096E80E0000F0B2FA07B0BDE8F04004B01B
:100D70007047A0F10400FFF7E5BF84B013B505ACE0
:100D800084E80E00089B0093C06894E80E0000F011
:100D9000DDFA02B0BDE8104004B07047A0F10400D5
:100DA000FFF7EBBF84B013B505AC84E80E00BDF8C7
:100DB0002030ADF80030C06894E80E0000F026FB4B
:100DC00002B0BDE8104004B07047A0F10400FFF786
:100DD000E9BF82B0C0686B4683E8060093E806006E
:100DE00002B000F057BBA0F10400FFF7F2BF84B0DF
:100DF000C06804B000F090BBA0F10400FFF7F7BF9B
:100E000082B002AB03E9060002B0704782B002ABC9
:100E100003E9060002B0704782B002AB03E90600A6
:100E200002B0704782B002AB03E9060002B070471F
:100E300082B002AB03E9060002B0704782B002AB99
:100E400003E9060002B070470022C1608260024AD6
:100E50000260443242607047E4C5030884B037B58D
:100E600007AC054684E80E00DDE90A010090ADF804
:100E70000410A86894E80E0001F0FAFA03B0BDE887
:100E8000304004B07047704770477047704730B4C7
:100E900044680346C2689B68551004EB6200D207A1
:100EA00048BF625930BC48BFD35818470346406812
:100EB00030B19A681AB9D86800F001007047012073
:100EC000704710B5044610212CF072FC204610BD6E
:100ED00000F5805313B593F8082D0446D3F8181D78
:100EE00003F6085382F00102D8681A700090ADF83A
:100EF0000410E06B0ECBFFF7B1FF02B010BD00F5A0
:100F0000805313B593F80B2D0446D3F8181D03F640
:100F1000085382F00102D868DA700090ADF804102E
:100F2000E06B0ECBFFF79AFF02B010BD00F58053C7
:100F300013B593F80D2D0446D3F8181D03F6085386
:100F400082F00102D8685A710090ADF80410E06B8D
:100F50000ECBFFF783FF02B010BD00F5805313B531
:100F600093F80E2D0446D3F8181D03F6085382F0AB
:100F70000102D8689A710090ADF80410E06B0ECBB6
:100F8000FFF76CFF02B010BD00F5805313B593F866
:100F9000102D0446D3F8181D03F6085382F0010201
:100FA000D8681A720090ADF80410E06B0ECBFFF712
:100FB00055FF02B010BD00F5805313B593F80F2D07
:100FC0000446D3F8181D03F6085382F00102D868CE
:100FD000DA710090ADF80410E06B0ECBFFF73EFF26
:100FE00002B010BD00F5805313B593F8112D0446DF
:100FF000D3F8181D03F6085382F00102D8685A721C
:101000000090ADF80410E06B0ECBFFF727FF02B0A5
:1010100010BD00F5805313B593F8122D0446D3F894
:10102000181D03F6085382F00102D8689A720090E6
:10103000ADF80410E06B0ECBFFF710FF02B010BD4F
:1010400000F5805313B593F8132D0446D3F8181DFB
:1010500003F6085382F00102D868DA720090ADF806
:101060000410E06B0ECBFFF7F9FE02B010BD00F5E7
:10107000805313B593F8172D0446D3F8181D03F6C3
:10108000085382F00102DA73D868ADF804100090BA
:10109000E06B0ECBFFF7E2FE02B010BD00F580530F
:1010A00013B593F8182D044603F60853D86882F058
:1010B00001021A7419690090ADF80410E06B0ECBB0
:1010C000FFF7CCFE02B010BD00F50363994213B5E3
:1010D000044616D000F50763CB1A5942594149001E
:1010E00004F5805383F80A1D03F60853D86819697C
:1010F0000090ADF80410E06B0ECBFFF7AFFE02B02E
:1011000010BD0121ECE700F62C13994213B50446FB
:1011100019D000F66C13994217D000F6AC13CB1A15
:101120005942594104F5805383F8091D03F60853C9
:10113000D86819690090ADF80410E06B0ECBFFF78A
:101140008DFE02B010BD0021ECE70221EAE700F6B7
:101150002C23994213B504461ED000F66C23994205
:101160001CD000F6AC2399421AD000F6EC23994229
:101170000CBF0321002104F5805383F80C1D03F6F6
:101180000853D86819690090ADF80410E06B0ECBD5
:10119000FFF764FE02B010BD0021ECE70121EAE791
:1011A0000221E8E7034B10B50446036003F0F6FDA7
:1011B000204610BDD4E3030810B50446FFF7F2FF44
:1011C00041F64C5120462CF0F3FA204610BD0000A9
:1011D00010B5044601F02EFD114B1249236004F5B1
:1011E0008053114A1148C3F81C1DC3F8242D002256
:1011F000C3F82C1DC3F83C1D0D49C3F8340D20461F
:10120000C3F8204DC3F8282DC3F8304DC3F8382D4E
:10121000C3F8404DC3F8441DC3F8482D10BD00BFAE
:10122000D4E30308BCE30308C91000080711000851
:101230004F11000838B50446234D01F0D7F90023BB
:1012400004F5E5502A46052108301DF006FF04F597
:10125000B5501C301BF0E2FF04F5E55000232A4690
:1012600005211C301DF0F9FE04F5BA5014301BF0B6
:10127000D5FF04F5E65000232A46052110301DF065
:10128000ECFE04F5BF500C301BF0C8FF04F5E6502F
:1012900000232A4605211A301DF0DFFE04F5C15057
:1012A00018301BF0BBFF04F5E8531C33C4F8283892
:1012B00004F5E9530C33C4F8243904F5E9531C331D
:1012C000C4F8243A38BD00BF5CC6030884B038B502
:1012D000044605A81C4D80E80E0004F5E5500B46B9
:1012E0002A46052108301DF0B8FE04F5B5501C3023
:1012F0001BF094FF04F5E550069B2A4605211C309F
:101300001DF0ABFE04F5BA5014301BF087FF04F556
:10131000E650079B2A46052110301DF09EFE04F57D
:10132000BF500C301BF07AFF04F5E650089B2A46AC
:1013300005211A301DF091FE04F5C150BDE838407A
:10134000183004B01BF06ABF5CC6030884B0F8B55F
:10135000044607A82C4DBDF92A6080E80E0004F56C
:10136000DD50BDF926302A460A211230BDF922701F
:101370001DF073FE04F597501BF050FF04F5DE508E
:101380003B462A460A2106301DF067FE04F59950B7
:101390000C301BF043FF04F5DE5033462A460A2189
:1013A0001A301DF05AFE04F59B5018301BF036FF22
:1013B00004F5DF50BDF920302A460A210E301DF019
:1013C0004CFE04F59E5004301BF028FF04F5E0505D
:1013D0003B462A460A2102301DF03FFE04F5A0508C
:1013E00010301BF01BFF04F5E75033462A460A2154
:1013F00004301DF032FE04F5C450BDE8F84004305E
:1014000004B01BF00BBF00BF5CC6030884B038B546
:10141000044605A81E4D80E80E0004F5DB50BDF91A
:1014200014302A460A2102301DF017FE04F58D50B3
:1014300010301BF0F3FE04F5DB50BDF920302A46D6
:101440000A2116301DF009FE04F58F501C301BF0E8
:10145000E5FE0A2104F5DC50BDF81C302A4608449C
:101460001DF0FBFD04F5925008301BF0D7FE04F58B
:10147000DC50BDF91E302A460A211E301DF0EDFD5C
:1014800004F59450BDE83840143004B01BF0C6BEDB
:101490005CC6030837B504461E4D02AB00F5D750B5
:1014A00003E906000A30BDF800302A4603211DF08A
:1014B000D4FD04F6E8701BF0B1FE04F5D750BDF87A
:1014C00002302A4603211E301DF0C7FD04F581506D
:1014D00014301BF0A3FE04F5D850BDF806302A46A0
:1014E0000A2112301DF0B9FD04F584501BF096FE60
:1014F00004F5D950BDF804302A460A2106301DF003
:10150000ACFD04F586500C3003B0BDE830401BF054
:1015100085BE00BF5CC6030830B587B00446144DD5
:1015200000F5DA50CDED030AB7EEC00A2A460A21CB
:101530000E308DED000B1DF090FD04F58B50043046
:101540001BF06CFE9DED037A04F5D9502A46B7EEE8
:10155000C77A0A211A308DED007B1DF07EFD04F55F
:101560008850183007B0BDE830401BF057BE00BFB0
:101570005CC603080022C0F88820704730B585B0EB
:10158000002504A8089C00E90E00052202A80021FD
:1015900011F0CEFF236805228D4208BF8342114619
:1015A00018BF206002A818BF012511F0C1FF6368B1
:1015B0000522002908BF83424FF00A0118BF60606E
:1015C00002A818BF012511F0B3FFA3680522002966
:1015D00008BF83424FF00F0118BFA06002A818BFD8
:1015E000012511F0A5FFE3680122002908BF83420D
:1015F0004FF0140118BFE06002A818BF012511F0D8
:1016000097FF237C0122002908BF83424FF0150178
:1016100018BF207402A818BF012511F089FF637C50
:101620000122002908BF83424FF0160118BF6074E1
:1016300002A818BF012511F07BFFA37C012200291D
:1016400008BF83424FF0170118BFA07402A818BF4B
:10165000012511F06DFFE37C0C22002908BF8342B5
:101660004FF0180118BFE07402A818BF012511F04F
:101670005FFF194B0C22C018636961F1000100295A
:1016800008BF83424FF0240118BF606102A818BF51
:10169000012511F04DFF104B0C22C018A36961F118
:1016A0000001002908BF83424FF0300118BFA0613C
:1016B00002A818BF012511F03BFF074BC018E369D2
:1016C00061F10001002908BF83421CBF0125E061D0
:1016D000284605B030BD00BF3CF6FFFF30B585B0F1
:1016E00004A8089C00E90E00082200210DEB02006E
:1016F00011F01EFFB4F9003032384FEAE37261F1A5
:1017000000018A4208BF83424FF0080218BF2080C0
:1017100011460DEB020014BF0125002511F008FF52
:10172000B4F9003032384FEAE37261F100018A42C5
:1017300008BF83424FF008024FF0100118BF20800D
:101740000DEB020018BF012511F0F2FEB4F90430D0
:1017500032384FEAE37261F100018A4208BF8342E6
:101760004FF008024FF0180118BFA0800DEB0200E7
:1017700018BF012511F0DCFEB4F9063032384FEA0B
:10178000E37261F100018A4208BF83424FF0080210
:101790004FF0200118BFE0800DEB020018BF0125BB
:1017A00011F0C6FEB4F9083032384FEAE37261F145
:1017B00000018A4208BF83424FF008024FF028011F
:1017C00018BF20810DEB020018BF012511F0B0FEFB
:1017D000B4F90A3032384FEAE37261F100018A420B
:1017E00008BF83424FF008024FF0300118BF6081FC
:1017F0000DEB020018BF012511F09AFEB4F90C3070
:1018000032384FEAE37261F100018A4208BF834235
:101810004FF008024FF0380118BFA0810DEB020015
:1018200018BF012511F084FEB4F90E3032384FEAAA
:10183000E37261F100018A4208BF83421CBF0125A7
:10184000E081284605B030BD30B585B004A8089CBD
:1018500000E90E00082200210DEB020011F068FEE5
:10186000B4F9003032384FEAE37261F100018A4284
:1018700008BF83424FF0080218BF208011460DEBCD
:10188000020014BF0125002511F052FEB4F9023008
:1018900032384FEAE37261F100018A4208BF8342A5
:1018A0004FF008024FF0100118BF60800DEB0200EE
:1018B00018BF012511F03CFEB4F9043032384FEA6C
:1018C000E37261F100018A4208BF83424FF00802CF
:1018D0004FF0180118BFA0800DEB020018BF0125C2
:1018E00011F026FEB4F9063032384FEAE37261F1A6
:1018F00000018A4208BF83424FF010024FF02001DE
:1019000018BFE08002A818BF012511F011FE23893D
:101910000822002908BF83424FF0300118BF208100
:101920000DEB020018BF012511F002FEB4F90A30D8
:1019300032384FEAE37261F100018A4208BF834204
:101940004FF008024FF02E0118BF60810DEB02002E
:1019500018BF012511F0ECFDB4F90C3032384FEA14
:10196000E37261F100018A4208BF83421CBF012576
:10197000A081284605B030BD30B585B0002404A84C
:10198000089D00E90E00102202A8002111F0D0FDF0
:10199000214B2A881B1802A861F100018C4208BF64
:1019A0009A424FF0100218BF6B80114618BF0124F5
:1019B00011F0BEFD184B6A881B1802A861F10001E6
:1019C000002908BF9A424FF010024FF020011CBFBF
:1019D0006B80012411F0ACFD0F4BAA881B1802A8E4
:1019E00061F10001002908BF9A424FF010024FF048
:1019F00030011CBFAB80012411F09AFD064BEA8830
:101A00001B1861F10001002908BF9A421CBF012484
:101A1000EB80204605B030BD78ECFFFF30B585B0D7
:101A200004A8089C00E90E00102202A8002111F071
:101A30007FFD2D4B181861F10001FEF7DDFF94EDDD
:101A4000007A07EE900A102202A8B4EE677A1146D7
:101A5000F1EE10FA1ABFC4ED007A0125002511F04D
:101A600067FD214B181861F10001FEF7C5FF94EDE9
:101A7000017A07EE900A102202A82021B4EE677ABC
:101A8000F1EE10FA1CBFC4ED017A012511F050FDF2
:101A9000164B181861F10001FEF7AEFF94ED027AC3
:101AA00007EE900A102202A83021B4EE677AF1EE18
:101AB00010FA1CBFC4ED027A012511F039FD0A4B62
:101AC000181861F10001FEF797FF94ED037A07EE15
:101AD000900AB4EE677AF1EE10FA1CBF0125C4ED4E
:101AE000037A284605B030BD78ECFFFF3CF6FFFFD7
:101AF00030B585B0002504A8089C00E90E00082236
:101B000000210DEB020011F013FD323823784FF065
:101B1000080261F100018D4208BF8342114618BFDF
:101B200020700DEB020018BF012511F001FD3238C5
:101B300023784FF0080261F10001002908BF8342B9
:101B40004FF0100118BF20700DEB020018BF0125E7
:101B500011F0EEFC3238A3784FF0080261F1000179
:101B6000002908BF83424FF0180118BFA0700DEB89
:101B7000020018BF012511F0DBFC3238E3784FF08A
:101B8000080261F10001002908BF83424FF02001E3
:101B900018BFE0700DEB020018BF012511F0C8FC62
:101BA000323823794FF0080261F10001002908BFA3
:101BB00083424FF0280118BF20710DEB020018BFBF
:101BC000012511F0B5FC323863794FF0080261F15C
:101BD0000001002908BF83424FF0300118BF607137
:101BE0000DEB020018BF012511F0A2FC3238A379D9
:101BF0004FF0080261F10001002908BF83424FF055
:101C0000380118BFA0710DEB020018BF012511F0BB
:101C10008FFC3238E37961F10001002908BF83426B
:101C20001CBF0125E071284605B030BD30B585B038
:101C3000002504A8089C00E90E00082200210DEBF5
:101C4000020011F075FC323823784FF0080261F180
:101C500000018D4208BF8342114618BF20700DEB72
:101C6000020018BF012511F063FC323823784FF0D1
:101C7000080261F10001002908BF83424FF0100102
:101C800018BF20700DEB020018BF012511F050FCA9
:101C90003238A3784FF0080261F10001002908BF33
:101CA00083424FF0180118BFA0700DEB020018BF5F
:101CB000012511F03DFC3238E3784FF0080261F164
:101CC0000001002908BF83424FF0200118BFE070D7
:101CD0000DEB020018BF012511F02AFC32382379E0
:101CE0004FF0080261F10001002908BF83424FF064
:101CF000280118BF20710DEB020018BF012511F05B
:101D000017FC323863794FF0080261F100010029B5
:101D100008BF83424FF0300118BF60710DEB020025
:101D200018BF012511F004FC3238A3794FF00802E6
:101D300061F10001002908BF83424FF0380118BF4C
:101D4000A0710DEB020018BF012511F0F1FB323834
:101D5000E37961F10001002908BF83421CBF01251E
:101D6000E071284605B030BD30B585B0002504A827
:101D7000089C00E90E00082200210DEB020011F082
:101D8000D7FB323823784FF0080261F100018D4211
:101D900008BF8342114618BF20700DEB020018BF28
:101DA000012511F0C5FB323823784FF0080261F1AC
:101DB0000001002908BF83424FF0100118BF2070B6
:101DC0000DEB020018BF012511F0B2FB3238A378E9
:101DD0004FF0080261F10001002908BF83424FF073
:101DE000180118BFA0700DEB020018BF012511F0FB
:101DF0009FFB3238E3784FF0080261F100010029BF
:101E000008BF83424FF0200118BFE0700DEB0200C5
:101E100018BF012511F08CFB323823794FF00802EE
:101E200061F10001002908BF83424FF0280118BF6B
:101E300020710DEB020018BF012511F079FB32383B
:101E400063794FF0080261F10001002908BF834265
:101E50004FF0300118BF60710DEB020018BF012573
:101E600011F066FB3238A3794FF0080261F10001EE
:101E7000002908BF83424FF0380118BFA0710DEB55
:101E8000020018BF012511F053FB3238E37961F1EC
:101E90000001002908BF83421CBF0125E0712846CC
:101EA00005B030BD30B585B0002504A8089C00E918
:101EB0000E00082200210DEB020011F039FB323830
:101EC00023784FF0080261F100018D4208BF834280
:101ED000114618BF20700DEB020018BF012511F04C
:101EE00027FB323823784FF0080261F10001002906
:101EF00008BF83424FF0100118BF20700DEB0200A5
:101F000018BF012511F014FB3238A3784FF00802F6
:101F100061F10001002908BF83424FF0180118BF8A
:101F2000A0700DEB020018BF012511F001FB323843
:101F3000E3784FF0080261F10001002908BF8342F5
:101F40004FF0200118BFE0700DEB020018BF012513
:101F500011F0EEFA323823794FF0080261F10001F6
:101F6000002908BF83424FF0280118BF20710DEBF4
:101F7000020018BF012511F0DBFA323863794FF007
:101F8000080261F10001002908BF83424FF03001CF
:101F900018BF60710DEB020018BF012511F0C8FADF
:101FA0003238A3794FF0080261F10001002908BF1F
:101FB00083424FF0380118BFA0710DEB020018BF2B
:101FC000012511F0B5FA3238E37961F100010029F9
:101FD00008BF83421CBF0125E071284605B030BD13
:101FE00030B585B0002504A8089C00E90E00082241
:101FF00000210DEB020011F09BFA323823784FF0EC
:10200000080261F100018D4208BF8342114618BFEA
:1020100020700DEB020018BF012511F089FA32384B
:1020200023784FF0080261F10001002908BF8342C4
:102030004FF0100118BF20700DEB020018BF0125F2
:1020400011F076FA3238A3784FF0080261F10001FE
:10205000002908BF83424FF0180118BFA0700DEB94
:10206000020018BF012511F063FA3238E3784FF00F
:10207000080261F10001002908BF83424FF02001EE
:1020800018BFE0700DEB020018BF012511F050FAE7
:10209000323823794FF0080261F10001002908BFAE
:1020A00083424FF0280118BF20710DEB020018BFCA
:1020B000012511F03DFA323863794FF0080261F1E1
:1020C0000001002908BF83424FF0300118BF607142
:1020D0000DEB020018BF012511F02AFA3238A3795E
:1020E0004FF0080261F10001002908BF83424FF060
:1020F000380118BFA0710DEB020018BF012511F0C7
:1021000017FA3238E37961F10001002908BF8342F0
:102110001CBF0125E071284605B030BD30B585B043
:10212000002504A8089C00E90E00082200210DEB00
:10213000020011F0FDF9323823784FF0080261F106
:1021400000018D4208BF8342114618BF20700DEB7D
:10215000020018BF012511F0EBF9323863784FF017
:10216000080261F10001002908BF83424FF010010D
:1021700018BF60700DEB020018BF012511F0D8F9EF
:102180003238A3784FF0080261F10001002908BF3E
:1021900083424FF0180118BFA0700DEB020018BF6A
:1021A000012511F0C5F93238E3784FF0080261F1EA
:1021B0000001002908BF83424FF0200118BFE070E2
:1021C0000DEB020018BF012511F0B2F93238237966
:1021D0004FF0080261F10001002908BF83424FF06F
:1021E000280118BF20710DEB020018BF012511F066
:1021F0009FF9323863794FF0080261F1000100293C
:1022000008BF83424FF0300118BF60710DEB020030
:1022100018BF012511F08CF93238A3794FF008026C
:1022200061F10001002908BF83424FF0380118BF57
:10223000A0710DEB020018BF012511F079F93238B9
:10224000E37961F10001002908BF83421CBF012529
:10225000E071284605B030BD2DE9F0438BB004464F
:102260004FF00A08DFF8049207AD00232946D9F899
:1022700000001A4606F0EBFD002840D1079B03F151
:102280007043043B1D2B37D8DFE813F0640078005F
:1022900036003C0050001E00360036003600360086
:1022A000360036003600360036003600360036007E
:1022B0009000A100B000C0003600360036003600A5
:1022C00036003600D000E0000094204695E80E006D
:1022D000FFF754F980B104F10C07D4F888C06E46BA
:1022E000DCF800E00FCF0FC63B6860463360DEF8D5
:1022F000086094E80E00B047B8F10108B5D10BB002
:10230000BDE8F08304F120062046009695E80E0013
:10231000FFF7E4F90028EFD0D4F88800E36A0768F3
:10232000009396E80E00FE68B047E5E704F130063A
:102330002046009695E80E00FFF786FA0028DBD0CD
:10234000D4F88800A38F0768ADF8003096E80E0037
:102350003E69E9E704F13E032046009395E80E004C
:10236000FFF70AFB0028C7D0D4F88800D4F83E1045
:102370000368D4F842205B699847BDE704F148033D
:102380002046009395E80E00FFF748FB0028B3D0E5
:10239000D4F8880094ED120A0368D4ED130A9B69FF
:1023A00094ED141AD4ED151A9847A5E704F15806D0
:1023B0002046009695E80E00FFF79AFB00289BD078
:1023C000D4F888000368DB6996E80600D4E704F1D6
:1023D00060062046009695E80E00FFF727FC0028CF
:1023E0008AD0D4F8880003681B6AEDE704F1680618
:1023F0002046009695E80E00FFF7B6FC00283FF453
:102400007BAFD4F8880003685B6ADDE704F17006EF
:102410002046009695E80E00FFF744FD00283FF4A3
:102420006BAFD4F8880003689B6ACDE704F17806A7
:102430002046009695E80E00FFF7D2FD00283FF4F5
:102440005BAFD4F888000368DB6ABDE704F180065F
:102450002046009695E80E00FFF760FE00283FF446
:102460004BAFD4F8880003681B6BADE7F0C40224BF
:1024700084B007B505A880E80E00BDF82430ADF89B
:1024800000300FC811F06EF903B05DF804EB04B032
:102490007047704700F598730868496803C3704730
:1024A000704702F0BDBD10B504464FF4AE712BF07D
:1024B0007FF9204610BD10B50446D0F85801FFF74B
:1024C000CBFE2046BDE8104019F090BD10B5044683
:1024D000D0F8400158B10368DB68984738B1D4F8A8
:1024E000400103689B6898470023C4F8403110BD41
:1024F00010B5044602F060FD014B2046236010BD7C
:1025000034E403080020704781807047C180704721
:10251000018170474181704770477047704770472D
:10252000704710B4C4880368121B84885B6D091B54
:1025300012B25DF8044B09B218474FF6FF7383815E
:102540004FF0FF3303621368C36110607047704738
:1025500070477047704730B585B003680446018105
:102560006D460146D3F884303C342846984795E8B8
:10257000070084E8070005B030BD30B585B00368BA
:10258000044641816D460146D3F884303C342846E8
:10259000984795E8070084E8070005B030BD0022A1
:1025A000028042808280C280704780F83610704777
:1025B000036870B504461B6B154698472368204690
:1025C00029465B6EBDE87040184700207047806C5C
:1025D0007047704770477047704770477047704743
:1025E000704770477047704770477047704700F5F5
:1025F0001D73994270B504460D4602D10368DB6A2B
:10260000984704F52B739D4203D1236820461B6B2A
:10261000984704F539739D4203D1236820465B6BCC
:10262000984704F547739D4203D1236820469B6B6E
:10263000984704F555739D4203D123682046DB6B10
:10264000984704F563739D4203D1236820461B6CB1
:10265000984704F204639D4203D1236820465B6CD3
:10266000984704F23C639D4203D1236820469B6C4B
:10267000984704F274639D4203D123682046DB6CC3
:10268000984704F2AC639D4203D1236820461B6D3A
:10269000984704F274739D4205D1236820465B6D10
:1026A000BDE87040184770BD70477047704770476D
:1026B00030B444680346C2689B68551004EB62005E
:1026C000D20748BF625930BC48BFD35818470346A9
:1026D000406830B19A681AB9D86800F001007047B4
:1026E00001207047838A8B4286BF00EB81004068DF
:1026F000002070470346818A002010B582B29142C3
:1027000002D84FF0FF3010BD53F8044F421C94F82C
:102710003740002CF7D11046F0E7036810B51B696D
:1027200004469847011E06DB2368204689B2DB6811
:10273000BDE810401847002010BD838A00EB8303DA
:10274000984200D1704750F8042F82F83810F7E70C
:102750000346808A10B15B6893F83800704730B444
:1027600044680346C2689B68551004EB6200D207B8
:1027700048BF625930BC48BFD35818470346406829
:1027800030B19A681AB9D86800F00100704701208A
:102790007047038A8B4286BF00EB810040680020AF
:1027A00070470346018A002010B582B2914202D8D8
:1027B0004FF0FF3010BD53F8044F421C94F83740DF
:1027C000002CF7D11046F0E7036810B51B690446EA
:1027D0009847011E06DB2368204689B2DB68BDE806
:1027E00010401847002010BD038A00EB8303984275
:1027F00000D1704750F8042F82F83810F7E70346ED
:10280000008A10B15B6893F83800704730B44468B0
:102810000346C2689B68551004EB6200D20748BFAC
:10282000625930BC48BFD35818470346406830B19E
:102830009A681AB9D86800F0010070470120704703
:1028400070B50D4604460121284617F0C9FC2368DF
:10285000294620465B6ABDE87040184770B50D46B2
:1028600004460121284617F0BBFC23682946204670
:102870005B6ABDE87040184710B5044608212AF08D
:1028800097FF204610BD10B504464C212AF090FF5A
:10289000204610BD10B504463C212AF089FF204691
:1028A00010BD10B5044610212AF082FF204610BD4D
:1028B00010B5044640212AF07BFF204610BD10B51C
:1028C000044610212AF074FF204610BD10B50446BE
:1028D00010212AF06DFF204610BD90F8252012B17E
:1028E00003685B691847704708B5FFF7F6FF08BD36
:1028F00090F825201AB190F8242002B11860704792
:10290000036870B55E6B0446114B8DB21B682BB922
:10291000104B6C21104A114832F0C8FA1049828DD0
:102920000988914203D80F4B6D210B4AF3E713F846
:1029300012200D4B1B6853F8220003681B6B98474D
:10294000291A3346204609B2BDE87040184700BF37
:1029500034D502245FC60308A1C60308DCC60308F9
:1029600028D5022421C703082CD5022408B5038AE0
:10297000022B05D9084B4121084A094832F096FA42
:1029800000F114028A6200F12402CA635A1C028216
:1029900000EB8300416008BD5FC7030898C70308C8
:1029A00006C8030808B5838A032B05D9084B4121C3
:1029B000084A094832F07AFA00F118028A6200F1F6
:1029C0002802CA635A1C828200EB8300416008BD62
:1029D0005FC703085AC8030806C8030870B5044651
:1029E0000D460026A28AB3B29A420CD8A06BC0B1A1
:1029F0000368DB689847A0B1A06B29460368BDE86F
:102A000070409B681847B3B204EB83035868A84230
:102A100005D090F8373013B1002117F0E1FB0136F3
:102A2000E0E770BD70B504460D460026228AB3B2B9
:102A30009A420CD8606BC0B10368DB689847A0B1BC
:102A4000606B29460368BDE870409B681847B3B2C5
:102A500004EB83035868A84205D090F8373013B1CF
:102A6000002117F0BDFB0136E0E770BD70B50446EC
:102A7000C06B0D4650B10368DB68984730B1E06B1E
:102A800029460368BDE870409B68184770BD70B563
:102A90000446806B0D4650B10368DB68984730B13F
:102AA000A06B29460368BDE870409B68184770BD5D
:102AB000036870B504461B6B15469847236820468B
:102AC00029465B6BBDE87040184770B504461D464B
:102AD000BDF91060FFF7ECFF2368294620469B6B89
:102AE0009847236831462046DB6BBDE870401847A5
:102AF0004FF4807100228184054982620160C0E93F
:102B00000122C0E90322C0E90522C0E9072270477B
:102B100090F103080022C0E90122C0E90322C0E9C4
:102B20000522C0E907224FF480728284014A0260C4
:102B3000704700BF88E4030800224FF0FF31826035
:102B4000C0E90021704710B50446FFF7F5FF2046A5
:102B500010BD000010B504460021262234F00CFD03
:102B60002046FFF7D7FF094B4FF47F0204F13C00EA
:102B70002360074BA3624FF6FF73A3850023C4E9CC
:102B80000C322387FFF7D8FF204610BD20F503083D
:102B9000F0E4030810B50446FFF7DCFF024B2046C3
:102BA00023600023A36410BD00E5030810B50446AC
:102BB0002622002134F0E0FC2046FFF7ABFF054B56
:102BC000204623600023A36284F82C30012384F87C
:102BD000243010BD3CF403081388838617F08FB8A7
:102BE00010B50446FFF7E2FF084B4FF0FF322046D6
:102BF00023604FF6FF73E3856FF07F43C4E90C2336
:102C0000002384F83830E36310BD00BF08F70308E1
:102C100010B50446FFF7CAFF4FF6FF73044A20467B
:102C2000E385238684F832302260A38610BD00BF7E
:102C3000ACF403082DE9F04F0446E7B000261AF083
:102C400087FD2746DD4B31462622E663FF2547F800
:102C5000403B384634F090FC3846FFF75BFFD84BDA
:102C600004F5B27804F5C87B236404F16C0384F89E
:102C700066501846A666049314F0FAFE4046DFF844
:102C80005093FFF735FF5846FFF784FF04F5EE73C6
:102C9000DFF840A318460393FFF77CFF04F50A739F
:102CA00018460793FFF776FF04F51D731846409307
:102CB000FFF7AEFF04F52B7318464193FFF7A8FF0B
:102CC00004F5397318464293FFF7A2FF04F54773E2
:102CD00018464393FFF79CFF04F555731846449339
:102CE000FFF796FF04F5637318464593FFF790FFCF
:102CF00004F5717318463993FFF72CFF04F20C4367
:102D000018463A93FFF726FF04F2544318463B93C4
:102D1000FFF720FF04F29C4318463C93FFF71AFF8D
:102D200004F2E44318460893FFF714FF04F22C530F
:102D300018460993FFF70EFF04F2745318460A93DE
:102D4000FFF708FF04F2BC5318460B93FFF702FF8E
:102D500004F2046318464693FFF75AFF04F23C63FB
:102D600018464793FFF754FF04F2746318464893DC
:102D7000FFF74EFF04F2AC6318464993FFF748FF94
:102D800004F2E46318460C93FFF7E4FE04F22C739C
:102D900018460D93FFF7DEFE04F2747318464A934B
:102DA000FFF736FF04F2AC7318463D93FFF7D2FEEF
:102DB00004F2F473C4F8F4A73E93C4F80C38242347
:102DC000A4F80468C4F810380123C4F80898C4F8BB
:102DD00014383E9BC4F81898C4F81C382823C4F84B
:102DE0002868C4F820380123C4F82C68C4F82438B3
:102DF00004F5036318460E93FFF7F2FE04F507632C
:102E000018460F93FFF7ECFE04F50B63184610937A
:102E1000FFF7E6FE04F50F63C4F8F0A804F64C4A89
:102E20003F93C4F808392423A4F80069C4F80C3986
:102E30000123C4F80499C4F810393F9BC4F81499CD
:102E400004F58059C4F818392823C4F82469C4F853
:102E50001C390123C4F82869C4F8203904F62C135E
:102E600018461193FFF7BCFE04F66C131846129334
:102E7000FFF7B6FE04F6AC1318461393FFF7B0FE47
:102E800004F6EC13A4F8006A14934E4B149AC4F899
:102E9000EC394D4BC4F8082A2422C4F8043AC4F88B
:102EA000143A149BC4F80C2A0122C4F8183A2823B7
:102EB000C4F8102AC4F81C3A04F62C23C4F8202ABB
:102EC000C4F8246A1846C4F8286A1593FFF788FEE8
:102ED00004F66C2318461693FFF782FE04F6AC2323
:102EE00018461793FFF77CFE04F6EC231846189358
:102EF000FFF776FE04F62C3318461993FFF72AFEE7
:102F000004F6743318461A93FFF724FE04F6BC3314
:102F100018461B93FFF71EFE04F6044318461C9345
:102F2000FFF718FE5046FFF7E3FD04F6784326222C
:102F300031461D934FF6FF731D98ADF88C3134F078
:102F40001BFB1D98FFF7E6FD204B84F8A05C63ADEA
:102F5000C4F8783CBDF88C3129461D98A4F89E3CF5
:102F600016F0DBFF04F6A44318464B93FFF712FE5E
:102F700004F54F6318464C93FFF70CFE04F63C53E0
:102F800018464D93FFF706FE04F6885318464E93F5
:102F9000FFF700FE04F6D45318464F93FFF7FAFDEF
:102FA00004F5626318465093FFF7F4FD04F66C6372
:102FB00018465193FFF7EEFD0EE000BF40E6030810
:102FC000B0F50308F4E50308DCE503089CF6030804
:102FD00090E50308A8E5030804F6B8631846529381
:102FE000FFF7D8FD04F6047318465393FFF7D2FD9C
:102FF00004F5756318465493FFF7CCFD04F69C73F3
:1030000018465593FFF7C6FD04F6E8731846569325
:10301000FFF7C0FD04F58153143318461E93FFF7E4
:10302000B9FD04F5845318465793FFF7B3FD04F533
:1030300086530C3318461F93FFF7ACFD04F58853F5
:10304000183318462093FFF7A5FD04F58B5304337E
:1030500018462193FFF79EFD04F58D531033184653
:103060002293FFF797FD04F58F531C3318462393E3
:10307000FFF790FD04F59253083318462493FFF7A9
:1030800089FD04F59453143318462593FFF782FD08
:1030900004F5975318465893FFF77CFD04F59953B0
:1030A0000C3318462693FFF775FD04F59B53183330
:1030B00018462793FFF76EFD04F59E530433184618
:1030C0002893FFF767FD04F5A053103318462993A2
:1030D000FFF760FD04F5A2531C3318462A93FFF74F
:1030E00059FD04F5A553083318462B93FFF752FDFD
:1030F00004F5A753143318462C93FFF74BFD04F542
:10310000AA5318465993FFF745FD04F5AC530C3309
:1031100018462D93FFF73EFD04F5AE5318331846BD
:103120002E93FFF737FD04F5B153043318462F9360
:10313000FFF730FD04F5B353103318463093FFF713
:1031400029FD04F5B5531C3318463193FFF722FDD2
:1031500004F5B853083318463293FFF71BFD04F506
:10316000BA53143318463393FFF714FD04F5BD53D7
:1031700018465A93FFF70EFD04F5BF530C3318465B
:103180003493FFF707FD04F5C15318331846359300
:10319000FFF700FD04F5C453043318463693FFF7D8
:1031A000F9FC04F5C653103318460593FFF7D2FC1B
:1031B00004F5C853183318463793FFF729FD04F573
:1031C000CA53103318460693FFF7C4FC04F5CC53DA
:1031D000183318463893FFF71BFD04F5CE53103310
:1031E00018465B93FFF784FCDB4B3246C9F8FC4C76
:1031F000C9F8F83C3146D94B3846C9F8046DC9F8CE
:10320000003D4FF4487300934FF4A063FFF75DFC5B
:103210004FF07F433946201DA3665CAF14F057F88A
:10322000324631460498FFF743FC06232A4662A93A
:10323000ADF888314FF007030498ADF88C3114F0E5
:10324000B4FC40F2073204984FF4207114F064FB90
:103250000498322114F0CDFA0498322114F05AFB6C
:10326000BF4B40F251225846C4F86C318121FFF720
:103270001FFC4FF0FF3359463846C4F8C031D4F82C
:103280009031A4F8C461D3F88430984704F5E6730C
:1032900097E8070083E8070004F5CF53A9F8FC6915
:1032A00058461C33C4F8D83116F0E6FA4FF0230123
:1032B000AC4B5846ADF890112946639316F0FCFAD2
:1032C0005946404614F003F8039840F282228121C7
:1032D000FFF7EEFB4FF0FF32D4F8DC3138460399AC
:1032E0004FF00E0BC4F80C22A4F81062D3F884300F
:1032F000984704F5067397E8070083E8070004F58C
:10330000D053A9F8026A03980233C4F8243216F0A5
:10331000B3FA4FF02200934B2946ADF89001039881
:10332000639316F0C9FA0399404613F0D0FF07984B
:1033300040F2B5228121FFF7BBFB4FF0FF32D4F8FA
:10334000283238460799C4F85822A4F85C62D3F8AA
:103350008430984704F5197397E8070083E807005D
:1033600004F5D053A9F8086A07984FF00D090833FF
:10337000C4F8703216F080FA4FF0210C794B2946D0
:103380000798ADF890C1639316F096FA07994046F6
:1033900013F09DFF4098232240F21721FFF788FB8E
:1033A0004FF0280E27232A46ADF88CE10DF5C47E98
:1033B00040987146ADF88831FFF70EFC04F5E752EE
:1033C000409940461832C4F89C22039213F07FFFC4
:1033D0004198A22240F24D21FFF76AFB0DF5C47E11
:1033E0002A4641987146ADF88891ADF88CB1FFF747
:1033F000F3FB039A40464199C4F8D42213F067FFC7
:1034000042984FF48472E621FFF752FB4FF0260EEC
:1034100025232A46ADF888E10DF5C47E4298714611
:10342000ADF88C31FFF7D8FB039A42994046C4F8B7
:103430000C2313F04CFF439840F28712E621FFF76C
:1034400037FB4FF023014FF0240E2A464398ADF886
:103450008C1162A9ADF888E1FFF7BEFB039A4046E4
:103460004399C4F8442313F032FF449840F20222F7
:10347000E621FFF71DFB4FF02A0129232A46449835
:10348000ADF8881162A9ADF88C31FFF7A5FB039A5E
:1034900040464499C4F87C2313F019FF45988C22C8
:1034A000E621FFF705FB1B232A4662A9ADF8883108
:1034B00020234598ADF88C31FFF78EFB039A4046E8
:1034C0004599C4F8B42313F002FF3998B6221721A6
:1034D000FFF7EEFA4FF0FF3239993846C4F8F4237B
:1034E000A4F8F86315F022FF04F5806397E807005D
:1034F00083E807001B4B2946399863931023ADF8E6
:10350000903116F0D9F93999404613F0E0FE3A9817
:103510004FF499721721FFF7CBFA4FF0FF323A9927
:103520003846C4F83C24A4F8406415F0FFFE04F5C6
:10353000896397E8070083E807000A4B29463A9811
:1035400063930F23ADF8903116F0B6F93A994046DF
:1035500013F0BDFE08E000BF28E60308EF250008D1
:1035600000052003F0E403083B984FF4DB721721B9
:10357000FFF79EFA4FF0FF323B993846C4F8842497
:10358000A4F8886415F0D2FE04F5926397E807006A
:1035900083E80700D94B29463B986393ADF890B177
:1035A00016F08AF93B99404613F091FE3C984FF48F
:1035B0000B721E21FFF77CFA4FF0FF323C99384620
:1035C000C4F8CC2404F5A46BA4F8D06415F0AEFEC6
:1035D00004F59B6397E8070083E80700C74B29467B
:1035E0003C986393ADF8909116F066F93C9940468B
:1035F00013F06DFE6723DFF8089340F287120898F6
:1036000040F241310093A223FFF75FFA0899384650
:10361000C4F81495A4F8186515F088FE97E807001B
:103620008BE807004FF001020899384684F81D2501
:1036300015F07CFEB14B97E8070063930C238BE8F1
:10364000070029460898ADF8903116F035F9089929
:10365000404613F03CFE4F2340F29D220998009310
:103660001F219F234FF0010BFFF72FFA09993846CE
:10367000C4F85C95A4F8606504F5AD6915F056FED4
:1036800097E8070089E807000999384684F865B586
:1036900015F04CFE994B97E8070089E807004FF0BA
:1036A00009010998639304F5B669ADF890112946AC
:1036B00016F002F90999404613F009FE2822B023BA
:1036C0000A9800924FF4F97140F25B12FFF7FDF98E
:1036D0004FF0FF320A993846C4F8A425A4F8A8652B
:1036E00015F024FE97E8070089E807000A99384694
:1036F00084F8ADB504F5BF6B15F018FE7F4B97E865
:10370000070089E807004FF00B0929460A986393E0
:10371000ADF8909116F0D0F80A99404613F0D7FD15
:103720004FF0280EB0234FF402720B984FF4F9714A
:10373000CDF800E0FFF7C9F94FF0FF3E0B9938468E
:10374000C4F8ECE5A4F8F06515F0F0FD97E8070083
:103750008BE807004FF001020B99384684F8F525F5
:1037600015F0E4FD654B97E807008BE807004FF084
:103770000A0B29460B986393ADF890B116F09CF8AC
:103780000B99404613F0A3FD469840F231124FF4D6
:103790002A71FFF78DF94FF022004FF0210C2A46D5
:1037A000ADF88C0162A8ADF888C101464698FFF7D4
:1037B00013FA039A46994046C4F82C2613F087FD65
:1037C000479840F2E5124FF42A71FFF771F91E2372
:1037D00062A82A46ADF888311F2301464798ADF804
:1037E0008C31FFF7F9F9039A40464799C4F86426EB
:1037F00013F06DFD489840F29122D521FFF758F95A
:103800001C2362A82A46ADF888311D23014648983A
:10381000ADF88C31FFF7E0F9039A40464899C4F8B7
:103820009C2613F054FD499840F28D224FF42A71E2
:10383000FFF73EF962A82A46ADF888B101464998DB
:10384000ADF88C91FFF7C8F9039A4046499904F501
:10385000E469C4F8D42604F5ED6B13F038FD462373
:1038600040F2AD220C9800934FF4F9719323FFF7C7
:103870002CF94FF0FF300C99C4F814073846A4F81F
:10388000186715F053FD97E8070089E807004FF027
:1038900001020C99384684F81D2715F047FD174B97
:1038A00097E8070089E807004FF0080929460C98B7
:1038B0006393ADF8909115F0FFFF0C99404613F01B
:1038C00006FD2C2340F2B7220D98009340F276318A
:1038D000E123FFF7FAF84FF0FF300D99C4F85C07C9
:1038E0003846A4F8606715F021FD97E807008BE8DB
:1038F00007004FF001020D99384603E0F0E4030899
:10390000F5F5FAFF84F8652715F010FDD54B97E81B
:1039100007008BE807004FF0070229460D984FF08B
:10392000180B6393ADF8902115F0C6FF0D99404632
:1039300013F0CDFC4A9840F291224FF48D61FFF7CD
:10394000B7F84FF009012A464A98ADF88C1162A9E0
:10395000ADF88891FFF740F9039A40464A994FF035
:103960001309C4F89C2713F0B2FC3D982A2240F2B8
:103970008131FFF79DF84FF0FF323D993846C4F88A
:10398000DC27A4F8E06715F0D1FC04F5FD6397E8A7
:10399000070083E80700B34B4FF0040229463D9827
:1039A0006393ADF8902115F087FF3D99404613F0E1
:1039B0008EFC0E987E2240F2C731FFF779F815236E
:1039C00062A90E98ADF88031ADF8843116230095C8
:1039D000ADF88831ADF88C310B4661A90A4660A973
:1039E00016F035FB31460E9816F0FAFB0E993E980C
:1039F00084F86868FEF7BAFF0E99404613F067FC3A
:103A00000F987D224FF48A61FFF752F862A84FF0B9
:103A100017010095034661A8ADF88011024660A821
:103A2000ADF8841101460F98ADF888B1ADF88CB1AE
:103A300016F00DFB31460F9816F0D2FB0F993E9809
:103A400084F8A868FEF792FF0F99404613F03FFCF8
:103A500010987E2240F24131FFF72AF80DF5C47E1E
:103A60004FF019004FF01A0C73460DF5C27EADF8F9
:103A7000800172460DF5C07EADF884017146109844
:103A80000095ADF888C1ADF88CC116F0E0FA31466A
:103A9000109816F0A5FB10993E9884F8E868FEF798
:103AA00065FF1099404613F012FC1198302217213F
:103AB000FEF7FEFF10230DF5C47E1198ADF880319E
:103AC000ADF884310F230095ADF88831ADF88C3115
:103AD00073460DF5C27E72460DF5C07E714616F036
:103AE000B6FA3146119816F07BFB11993F9884F88D
:103AF0006469FEF73BFF1199404613F0E8FB12980A
:103B000031229C21FEF7D4FF12230DF5C47E1298BA
:103B1000ADF88031ADF8843111230095ADF88831CE
:103B2000ADF88C3173460DF5C27E72460DF5C07E40
:103B3000714616F08CFA3146129816F051FB129924
:103B40003F9884F8A469FEF711FF1299404613F0DC
:103B5000BEFB1398312240F22111FEF7A9FFADF808
:103B60008891ADF88C910DF5C4794FF0140E61AACF
:103B70004B4660A913984FF002090095ADF880E11B
:103B8000ADF884E116F063FA3146139816F028FB7D
:103B900013993F9884F8E469FEF7E8FE13994046CC
:103BA00013F095FB15984FF4AA7240F2F131FEF72D
:103BB0007FFF4FF004020DF5C07C4FF00301ADF81C
:103BC00088214FF0050062AAADF88411ADF88C0190
:103BD00061461346159861AA0095ADF8809116F0DC
:103BE00036FA3146159816F0FBFA84F8646ADDE976
:103BF0001401FEF7D7FE1599404613F068FB16989E
:103C00004FF4C67240F2F131FEF752FF0DF5C47C5D
:103C10004FF003014FF0040263464FF005000DF52D
:103C2000C07CADF88411ADF8882161AA6146ADF879
:103C30008C0100951698ADF8809116F008FA31467F
:103C4000169816F0CDFA1699149884F8A46AFEF71F
:103C5000A9FE1699404613F03AFB17984FF4E2720A
:103C600002E000BFF0E4030840F2F131FEF720FF6C
:103C70000DF5C47C4FF003014FF0040263464FF092
:103C800005000DF5C07CADF88411ADF8882161AA5E
:103C90006146ADF88C0100951798ADF8809116F04B
:103CA000D6F93146179816F09BFA1799149884F8AC
:103CB000E46AFEF777FE1799404613F008FB189860
:103CC0004FF4FD7240F2F131FEF7F2FE4FF00402C4
:103CD0004FF005004FF00301ADF8882162AAADF85E
:103CE0008C0160A81346ADF8841161AA01460095C5
:103CF0001898ADF8809116F0AAF93146189816F088
:103D00006FFA1899149884F8246BFEF74BFE1899F3
:103D1000404613F0DCFA19984FF4AB7240F223419D
:103D2000FEF7C6FEDC4A19993846C4F85C2BA4F8A5
:103D3000606B15F0FBFA199901F13C0397E8070055
:103D400083E807004FF00301D44B1998ADF89011A8
:103D50002946639315F0B0FD1999404613F0B7FA60
:103D60001A984FF4E27240F22341FEF7A1FECA4ACC
:103D70001A993846C4F8A42BA4F8A86B15F0D6FA03
:103D80001A9901F13C0397E8070083E80700C34B49
:103D90004FF0010229461A986393ADF8902115F06F
:103DA0008BFD1A99404613F092FA1B984FF4C87293
:103DB00040F22341FEF77CFEB74A1B993846C4F80F
:103DC000EC2BA4F8F06B15F0B1FA1B9901F13C0350
:103DD00097E8070083E80700B04B29461B986393D8
:103DE000ADF8909115F068FD1B99404613F06FFAFD
:103DF0001C984FF4FD7240F22341FEF759FEA64A8B
:103E00001C993846C4F8342CA4F8386C15F08EFA96
:103E10001C9901F13C0397E8070083E807009F4BDA
:103E200029461C984FF0FF376393ADF8906115F069
:103E300043FD1C99404613F04AFA414604984FF05E
:103E4000FF3813F023FF964B324631461D98C4F8D5
:103E5000543CFEF72DFE0C2329461D98ADF88C31FD
:103E600016F05BF81D99504613F031FA5C23EE22F0
:103E700040F28C414B98CDF800B0FEF726FEC4F816
:103E8000D47CA4F8D86C2846FEF756FE04F54E63A1
:103E900004F5805795E8070083E8070004F5D05340
:103EA000A7F80E6A29464B980E33C4F8EC3C7B4BBE
:103EB00063932723ADF8903115F0FEFC4B995046E3
:103EC00013F005FA5C2340F2291240F28C414C9821
:103ED000CDF800B0FEF7F9FDC4F8208DA4F8246DEC
:103EE0002846FEF729FE04F62C5395E8070083E8E0
:103EF000070004F5D153A7F8226A29464C984B4491
:103F0000DFF89891C4F8383D644B63932623ADF8ED
:103F1000903115F0D1FC4C99504613F0D8F95C2340
:103F20004FF4B37240F28C414D98CDF800B0FEF7DB
:103F3000CCFDC4F86C8DA4F8706D2846FEF7FCFD2E
:103F400004F6785395E8070083E8070004F5D15399
:103F5000A7F8366A29464D981633C4F8843D4F4B6E
:103F600063932523ADF8903115F0A6FC4D9950468A
:103F700013F0ADF95C2340F2A31240F28C414E984D
:103F8000CDF800B0FEF7A1FDC4F8B88DA4F8BC6D63
:103F90002846FEF7D1FD04F6C45395E8070083E8F0
:103FA000070004F5D253A7F84A6A29464E980A3307
:103FB000C4F8D03D394B63932423ADF8903115F00C
:103FC0007BFC4E99504613F082F95C237E2240F22E
:103FD000FD314F98CDF800B0FEF777FDC4F8048EA0
:103FE000A4F8086E2846FEF7A7FD04F5616395E87E
:103FF000070083E8070004F5D253A7F85E6A294654
:104000004F981E33C4F81C3E244B63932F23ADF806
:10401000903115F051FC4F99504613F058F95C233C
:104020007E2240F28C415098CDF800B0FEF74DFD55
:10403000C4F8508EA4F8546E2846FEF77DFD04F6B1
:104040005C6395E8070083E8070004F5D353A7F8FD
:10405000726A294650981233C4F8683E0F4B639336
:104060002E23ADF8903115F027FC5099504613F0EF
:104070002EF95C23EE2240F2FD315198CDF800B0CC
:10408000FEF723FDC4F89C8EA4F8A06E2846FEF728
:1040900053FD04F6A86305E0FCFCFFFFF0E4030811
:1040A0000005200395E8070083E8070004F5D453D2
:1040B000A7F8866A294651980633C4F8B43EE74B00
:1040C00063932B23ADF8903115F0F6FB51995046D0
:1040D00013F0FDF85C234FF4B37240F2FD315298B7
:1040E000CDF800B0FEF7F1FCC4F8E88EA4F8EC6E51
:1040F0002846FEF721FD04F6F46395E8070083E8FF
:10410000070004F5D453A7F89A6A294652981A333F
:10411000CDF88C91C4F8003F2923ADF8903115F00B
:10412000CBFB5299504613F0D2F85C234FF4D27275
:1041300040F2FD315398CDF800B0FEF7C6FCC4F84C
:10414000348FA4F8386F2846FEF7F6FC04F5746344
:1041500095E8070083E8070004F5D553A7F8AE6A91
:10416000294653980E33CDF88C91C4F84C3F282340
:10417000ADF8903115F0A0FB5399504613F0A7F815
:104180005C2340F2291240F2FD315498CDF800B082
:10419000FEF79BFCC4F8808FA4F8846F2846FEF7D6
:1041A000CBFC04F68C7395E8070083E8070004F560
:1041B000D653A7F8C26A294654980233CDF88C9199
:1041C000C4F8983F2A23ADF8903115F075FB549947
:1041D000504613F07CF85C23B42240F28C41559891
:1041E000CDF800B0FEF771FCC4F8CC8FA4F8D06F06
:1041F0002846FEF7A1FC04F6D87395E8070083E88B
:10420000070004F5D653A7F8D66A29465598163301
:10421000CDF88C91C4F8E43F2C23ADF8903115F023
:104220004BFB5599504613F052F86223B321569830
:10423000CDF800B040F25122FEF747FC884ABE8319
:104240002846BA61FEF778FC07F1240395E80700D9
:1042500083E8070004F5D753294656980A33A7F890
:10426000EA6ACDF88C913B632023ADF8903115F0CC
:1042700023FB5699504613F02AF862234FF49271AB
:104280001E98CDF800B040F25122FEF71EFC744A91
:10429000A7F8686028467A66FEF74EFC07F17003BF
:1042A00095E8070083E8070004F5D75329461E98D0
:1042B0001E33A7F8FE6ACDF88C91FB671D23ADF87D
:1042C000903115F0F9FA1E99504613F000F8622368
:1042D000B3215798CDF800B040F28222FEF7F5FBEB
:1042E0005F4AA7F8B4602846C7F8B020FEF724FC60
:1042F00007F1BC0395E8070083E8070004F5D853ED
:10430000294657981233A7F8126BCDF88C91C7F84D
:10431000C8304FF01F03ADF8903115F0CDFA579922
:10432000504612F0D4FF62234FF492711F98CDF8DB
:1043300000B040F28222FEF7C8FB494AA7F80061AC
:104340002846C7F8FC20FEF7F7FB07F5847395E8CD
:10435000070083E8070004F5D95329461F98063360
:10436000A7F8266BCDF88C91C7F814311C23ADF853
:10437000903115F0A1FA1F99504612F0A8FF622360
:10438000B3212098CDF800B040F2B522FEF79DFB96
:10439000334AA7F84C612846C7F84821FEF7CCFB02
:1043A00007F5AA7395E8070083E8070004F5D953D9
:1043B000294620981A33A7F83A6BCDF88C91C7F8A4
:1043C00060311E23ADF8903115F076FA20995046F1
:1043D00012F07DFF62234FF492712198CDF800B066
:1043E00040F2B522FEF771FB1D4AA7F898612846F6
:1043F000C7F89421FEF7A0FB04F58D5395E807005C
:1044000083E8070004F5DA53294621980E33A7F80C
:104410004E6BCDF88C91C7F8AC311B23ADF89031C1
:1044200015F04AFA2199504612F051FF1B2340F231
:104430002E2240F20321229800938623FEF745FBAB
:10444000C7F8E081A7F8E4612846FEF775FB07F599
:10445000F6734FF01A0C95E8070003E0F0E4030848
:10446000FCFCFFFF83E8070004F5DB532946229894
:104470000233A7F8626BADF890C1C7F8F831CDF8F8
:104480008C9115F019FA2299504612F020FF192349
:1044900040F2752240F23621239800935923FEF70B
:1044A00014FBC7F82C82A7F830622846FEF744FBBD
:1044B00007F50E7395E8070083E8070004F5DB5362
:1044C0004FF019002946A7F8766B1633ADF8900126
:1044D0002398C7F84432CDF88C9115F0EDF9239963
:1044E000504612F0F4FE192340F2B5224FF40C713D
:1044F000249800935923FEF7E8FAC7F87882A7F8C2
:104500007C622846FEF718FB07F5217395E8070043
:1045100083E8070004F5DC53294624980A33A7F8FA
:104520008A6BADF890B1C7F89032CDF88C9115F048
:10453000C3F92499504612F0CAFE192340F22F22E3
:104540004FF44371259800935923FEF7BEFAC7F83C
:10455000C482A7F8C8622846FEF7EEFA07F534735E
:1045600095E8070083E8070004F5DC534FF01701D6
:1045700025981E33A7F89E6BADF890112946C7F811
:10458000DC32CDF88C9115F097F92599504612F050
:104590009EFE192340F275224FF441715898009302
:1045A0005923FEF792FAC7F81083A7F81463284638
:1045B000FEF7C2FA07F5477395E8070083E807009E
:1045C00004F5DD53294658981233A7F8B26BCDF89D
:1045D0008C91C7F828331623ADF8903115F06CF99B
:1045E0005899504612F073FE192340F296224FF468
:1045F0004171269800935923FEF767FAC7F85C8348
:10460000A7F860632846FEF797FA07F55A7395E80E
:10461000070083E8070004F5DE5329462698063391
:10462000A7F8C66BCDF88C91C7F874331523ADF895
:10463000903115F041F92699504612F048FE1923A1
:104640004FF42E724FF44171279800935923FEF7CF
:104650003CFAC7F8A883A7F8AC632846FEF76CFAC3
:1046600007F56D734FF0140E95E8070083E8070017
:1046700004F5DE53294627981A33A7F8DA6BADF80C
:1046800090E1C7F8C033CDF88C9115F015F9279952
:10469000504612F01CFE192340F2752240F21441DC
:1046A000289800935923FEF710FAC7F8F483A7F867
:1046B000F8632846FEF740FA04F5A05395E8070092
:1046C00083E8070004F5DF53294628980E33A7F83E
:1046D000EE6BCDF88C91C7F80C344FF01303ADF8A6
:1046E000903115F0E9F82899504612F0F0FD1923A1
:1046F00040F2962240F21441299800935923FEF784
:10470000E4F9C7F84084A7F844642846FEF714FA91
:1047100007F24C4395E8070083E8070004F5E053EF
:10472000294629980233A7F8026CCDF88C91C7F876
:1047300058341223ADF8903115F0BEF8299950463F
:1047400012F0C5FD5C23B42240F2FD312A98CDF869
:1047500000B04FF0FF3BFEF7B8F9C7F88C84A7F81C
:1047600090642846FEF7E8F907F5936395E807009B
:1047700083E8070004F5E05329462A981633A7F882
:10478000166CCDF88C91C7F8A4342D23ADF8903178
:1047900015F092F82A99504612F099FD31234FF402
:1047A000BC7240F27B112B98009340F20B23FEF772
:1047B0008CF9C7F8D884A7F8DC642846FEF7BCF962
:1047C00007F2E44395E8070083E8070004F5E153A6
:1047D00029462B980A33A7F82A6CCDF88C91C7F894
:1047E000F0343C23ADF8903115F066F82B99504623
:1047F00012F06DFD192340F21B121F212C9800931B
:104800006223FEF762F9C7F82485A7F828652846D1
:10481000FEF792F907F5A6634FF0190895E807002F
:1048200083E8070004F5E15329462C981033A7F8D4
:10483000306CCDF88C913E46C7F83C353923ADF845
:10484000903115F039F82C99504612F040FD622352
:104850004FF48E72B3215998CDF80080FEF735F9E8
:10486000C7F870B500272846A6F87475FEF764F9F6
:1048700006F27C5395E8070083E8070004F5E2534D
:10488000294659980433A6F8447CCDF88C91C6F893
:1048900088353623ADF8903115F00EF85999504609
:1048A00012F015FD6223CC221F212D98CDF8008037
:1048B000FEF70BF92846C6F8BCB5A6F8C075FEF79A
:1048C0003BF906F5B96395E8070083E8070004F5AE
:1048D000E25329462D981833A6F8587CCDF88C91D0
:1048E000C6F8D4353A23ADF8903114F0E5FF2D9990
:1048F000504612F0ECFC6223CC22B3212E98CDF866
:104900000080FEF7E2F82846C6F808B6A6F80C764E
:10491000FEF712F906F2146395E8070083E8070032
:1049200004F5E35329462E980C33A6F86C7CCDF899
:104930008C91C6F820363723ADF8903114F0BCFFC7
:104940002E99504612F0C3FC62237D221F212F981E
:10495000CDF80080FEF7B9F82846C6F854B6A6F898
:104960005876FEF7E9F804F5B35395E8070083E8B5
:10497000070004F5E45329462F98C6F86C363B230C
:10498000A6F8807CADF89031CDF88C9114F094FFAE
:104990002F99504612F09BFC62237D22B321309860
:1049A000CDF80080FEF791F82846C6F8A0B6A6F824
:1049B000A476FEF7C1F806F2AC6395E8070083E839
:1049C000070004F5E453294630981433A6F8947C84
:1049D000CDF88C91C6F8B8363823ADF8903114F084
:1049E0006BFF3099504612F072FC72237D2240F228
:1049F0004D113198CDF80080FEF767F82846C6F8CB
:104A0000ECB6A6F8F076FEF797F806F5DF6395E8C2
:104A1000070083E8070004F5E55329463198083379
:104A2000A6F8A87CCDF88C91C6F804373523ADF8EC
:104A3000903114F041FF3199504612F048FC722336
:104A40007D224FF4F3713298CDF80080FEF73DF8E7
:104A50002846C6F838B7A6F83C77FEF76DF806F298
:104A6000447395E8070083E8070004F5E5532946F9
:104A700032981233A6F8B27CCDF88C91C6F8503734
:104A80003223ADF8903114F017FF3299504612F0EE
:104A90001EFC7223CC2240F24D113398CDF80080D9
:104AA000FEF713F82846C6F884B7A6F88877FEF70D
:104AB00043F806F5F26395E8070083E8070004F57C
:104AC000E553294633981C33A6F8BC7CCDF88C916D
:104AD000C6F89C373423ADF8903114F0EDFE3399CD
:104AE000504612F0F4FB7223CC224FF4F3715A9823
:104AF000CDF80080FDF7E9FF2846C6F8D0B7A6F844
:104B0000D477FEF719F806F2DC7395E8070083E81E
:104B1000070004F5E65329465A980633A6F8C67CE2
:104B2000CDF88C91C6F8E8374FF03103ADF89031ED
:104B300014F0C2FE5A99504612F0C9FB72234FF48A
:104B40008E7240F24D113498CDF80080FDF7BDFF14
:104B50002846C6F81CB8A6F82078FDF7EDFF06F643
:104B6000280395E8070083E8070004F5E653294683
:104B700034981033A6F8D07CCDF88C91C6F8343830
:104B80003323ADF8903114F097FE3499504612F06B
:104B90009EFB72234FF48E724FF4F3713598CDF86B
:104BA0000080FDF792FF2846C6F868B8A6F86C7832
:104BB000FDF7C2FF06F6740395E8070083E80700D7
:104BC00004F5E653294635981A33A6F8DA7CCDF871
:104BD0008C91C6F880383023ADF8903114F06CFE1B
:104BE0003599504612F073FB59234FF42E7240F260
:104BF00014413698CDF800800DF5B878FDF765FFC3
:104C00002846C6F8B4B8A6F8B878FDF795FF04F5BD
:104C1000C65395E8070083E8070004F5E7532946E3
:104C200036980433A6F8E47CCDF88C91C6F8CC38DD
:104C30001123ADF8903114F03FFE3699504612F032
:104C400046FB2C2346220598009340F2BA31A62356
:104C5000FDF73BFF05994046C6F800B9A6F8047970
:104C600014F064FB059B98E807003C3383E80700D9
:104C700003934FF001030599404686F8093914F073
:104C800055FB039B98E8070083E8070006232946A5
:104C90000598ADF89031CDF88C9114F00DFE059982
:104CA000504612F014FB379822224FF48D61FDF725
:104CB000FFFE62A84FF02B024FF02C01ADF88821C7
:104CC0002A46ADF88C1101463798FDF785FF3799D4
:104CD000504612F0FCFA2C20A62340F21912009044
:104CE00040F2BA310698FDF7F0FE06994046C6F844
:104CF00080B9A6F8847914F019FB069B98E80700A0
:104D00003C3383E8070003934FF0010306994046C4
:104D100086F8893914F00AFB039B98E8070083E8BA
:104D20000700052329460698ADF89031CDF88C91FF
:104D300014F0C2FD0699504612F0C9FA3898F522CF
:104D40004FF48D61FDF7B4FE4FF02B024FF02C01B4
:104D50003898ADF888212A46ADF88C1162A9FDF784
:104D60003BFF3899504612F0B2FA5146049812F0BF
:104D70008DFF094B5B99C6F8D839049812F086FF6D
:104D80003946049812F073FF201D049912F09FFA1F
:104D9000204667B0BDE8F08F00052003044B10B536
:104DA000044640F86C3B12F02DFD204610BD00BFBC
:104DB00040E6030810B50446FFF7F0FF41F608513E
:104DC000204628F0F5FC204610BD7047704770471C
:104DD0004160704770477047012303727047704706
:104DE00010B441680346C2689B68541001EB62002E
:104DF000D20748BF0A595DF8044B48BFD35818473B
:104E00000346406830B19A681AB9D86800F00100CA
:104E100070470120704710B504460C2128F0C8FCEB
:104E2000204610BD10B50446102128F0C1FC2046D4
:104E300010BD10B504464FF4AE7128F0B9FC204601
:104E400010BD10B517F030F80368BDE81040DB6BFB
:104E5000184700002DE9F14FD0E9556A0746B068C0
:104E600003681B6A984741F64B53984205D8444B58
:104E7000A321444A444830F019F8706803681B6A5B
:104E800098470F2803D8414BA4213E4AF2E7F06827
:104E900003681B6A98470B2803D83D4BA521394A64
:104EA000E8E7DFF8F49016F0FFFF043017F03CF865
:104EB000D9F8000010B10368DB689847D9F8000002
:104EC00010B103681B689847DFF8D080D8F800005D
:104ED00010B103685B699847D7F83C0110B10368CB
:104EE0005B689847D8F8000010B103681B689847C2
:104EF000D7F83C0110B103689B689847F06800211F
:104F00004FF0000B03685B6A9847224B0446C0F8D9
:104F100004B080F808B059460360B06803685B6A63
:104F200098470546FCF754F97068594603685B6A70
:104F3000984706462946FBF787FF331DC7F83C61B3
:104F40002846CAF888302B68C6F808A0DB68C9F87C
:104F50000040C8F80050EE639847336830461B683D
:104F600098472146284618F08EFD236820461B6985
:104F70009847236820465B6901B0BDE8F04F1847A9
:104F8000C8C8030856C9030828CA03086DCA03081D
:104F900010CB03080CE703081CD5022420D50224FB
:104FA000044B1B6893F85C200AB1186D00B998682F
:104FB000704700BFDCD40224F8B5174604460E46FD
:104FC00017F088F8124B00251C602946114B23600E
:104FD000114BC4E95135114B1868C4E953550368A6
:104FE000C4E94F559B68C4E955769847284600F0B8
:104FF000D5F9FFF7D5FF21F010FAFFF7D1FF21F027
:1050000087FAFFF7CDFF21F08FFA2046F8BD00BFE9
:1050100024D50224B8E60308A0E60308DCD4022461
:10502000064BC0F84801C0F84C310023C0F850319D
:1050300000F5A273C0F84031704700BF554E00081C
:1050400013B5002451B1036801AA01948DF80340FF
:105050009C680DF10303A04702B010BD0846FBE7B2
:10506000C0897047008A7047C08870478088704741
:10507000807A00F07F007047807AC0097047002076
:10508000704700009FED010A704700BF000000005C
:10509000406A7047806A704770470B888A889BB265
:1050A000D20A10B54C88C16943EA044351F8220082
:1050B000184410BD10B50446BAB1107B68B1537BDB
:1050C000D27A1B0203F4E0631A43236A03EB8203E0
:1050D0001A888A4202D193F9020010BD05D801381E
:1050E000043380B20028F3D1F7E70020F5E710B5CC
:1050F00004462C2128F05CFB204610BD30B58BB057
:105100000446BDF860500895BDF85C5007959DF8C1
:10511000505006959DF84C5005959DF848500495C3
:105120009DF8445003959DF8405002959DF83C50E1
:105130000195BDF83850009518F018F9064B204637
:105140002360159BE361169B2362199B63621A9B84
:10515000A3620BB030BD00BF30E70308704700000A
:1051600030B5174D8FB02C68BFF35B8F14F001047E
:1051700022D1284628F01EFBF0B13F2332221149EC
:105180000993114B11480893114B0A94079301237B
:1051900004940194CDE905330423CDE902431E2391
:1051A000CDE90B4400932423FFF7A8FF09482FF013
:1051B0009DFE284628F01AFB04480FB030BD00BF02
:1051C000DC810024683C0408C8400408E081002415
:1051D000344204085D5100087047000030B5174D97
:1051E0008FB02C68BFF35B8F14F0010422D12846E6
:1051F00028F0E0FAF0B12E231E2211490993114B39
:1052000011480893114B0A940793012304940194C5
:10521000CDE905430423CDE902431423CDE90B4432
:1052200000931823FFF76AFF09482FF05FFE284616
:1052300028F0DCFA04480FB030BD00BF0C82002417
:10524000243F0408E4410408108200243842040882
:10525000D9510008704710B50446042128F0A8FA77
:10526000204610BD08B519B1012905D0002008BDA0
:1052700000F00EF80068FAE700F00AF84068F6E778
:1052800000487047A4E703082D207047412070476D
:10529000004870473C82002410B5044CFFF760FFC3
:1052A0002060FFF79BFF606010BD00BF3C820024C0
:1052B00000207047002070470EB403B503AB0021F7
:1052C00053F8042B019317F081FE02B05DF804EB54
:1052D00003B070470CB407B504AB53F8042B01932B
:1052E00017F074FE03B05DF804EB02B070470000E5
:1052F000436C10B5044673B3038F2BB9184BC5210B
:10530000184A19482FF0D2FDC38E00EB43035B8C83
:105310000BB319F040F9238F012B03D8134BCB218A
:10532000134AEEE7E28E40F63F10531C9BB2092B66
:10533000194688BFA3F10A0104EB4101498C81425F
:1053400009D10A2B04EB420228BF0023508C04EB46
:105350004303588451842046BDE8104019F01FB81B
:10536000B3CB0308BCCB030867CC0308AFCC03085E
:10537000BDCC030818F0DBBF10B586B002AC84E8E2
:1053800006001A460AAB214605930193099B009338
:10539000089B16F0FDF806B010BD000038B518BB2C
:1053A000124B13481C681349B4B1226822440260AE
:1053B000626822440A60A26814440F4B00221A80DB
:1053C000FFF766FF0546FFF761FF0C4B1C600C4BB7
:1053D0001D600C4B188007E00B4B03600B4B0B6000
:1053E0000B4B1C68002CE8D138BD00BF5082002454
:1053F00048820024448200244C82002434D50224B4
:105400002CD5022428D502243C420408C0440408B8
:1054100028EB0308044B1B6853F82100034B1B685F
:1054200003EB4000704700BF448200244882002400
:10543000012380F87C1080F87D3070477047002091
:105440007047000081640039024B18BF01211970B8
:10545000704700BFCFD40224704700207047C36B51
:105460000BB10846184770474FF6FF707047406809
:1054700003689B691847704770470000034B9022F0
:1054800083F85A2383F85823704700BF00E100E0F7
:10549000094A0A49D3680A48C3F30A03013B9BB28D
:1054A0000B801169C1F30A01013901801364536B48
:1054B00043F00103536370470010005056820024EC
:1054C00054820024014BD3F8AC0070470010005008
:1054D000024B0122C3F8AC105A6270470010005012
:1054E0000163C0E90D217047704700EB8100114650
:1054F00040680368DB68184780F83C10704700007C
:1055000038B5044612F0C7FE23689D6E16F0CCFC39
:1055100001462046A8472368094A4FF05041D3F876
:105520008C5020460023A8476368064A5364064B04
:105530005A60064A1A639A634FF416225A6338BDBA
:1055400000E02ED0A08200245882002400C05DD04C
:1055500012F088BE38B504460D46406C4FF0FF315E
:1055600003F028FB606C03F048FB242303FB054594
:10557000002385F8283094F828300BB9236BA363F7
:1055800038BD12F038BE12F0B6BF10B5044613F0A5
:1055900049FC23682046D3F8BC30BDE810401847CA
:1055A00010B5044612F068FF60680368BDE810405B
:1055B0001B69184710B50446482128F0F9F8204621
:1055C00010BD000090F838100D4B10B590F87C40DD
:1055D0001A788C4209D03AB90A490B4A08881488CB
:1055E000108001220C801A7010BD002AFCD0064ADF
:1055F0000449148808880C8010800022F3E700BF5B
:10560000CED40224D6D40224D8D40224124A536918
:10561000DB0370B51ED50023C2F88430BFF34F8F73
:10562000D2F8803043F6E074C3F3C900C3F34E33BD
:105630005B0103EA0406014646EA81750139C2F8B6
:105640007452F9D2203B13F1200FF2D1BFF34F8FE8
:10565000BFF36F8F70BD00BF00ED00E008B5094BD0
:105660001B888B4203D8084B1B88934205D9074BF4
:10567000A521074A07482FF019FC074B1980074B53
:105680001A8008BDD8D40224D6D402248FCD0308B2
:10569000F2CD030835CE0308D4D40224D2D4022498
:1056A00008B531B1044B4FF4B871044A04482FF0E7
:1056B000FDFB90F8290008BD78CE03088CCE0308C6
:1056C00016D0030810B531B1064B4FF4B571064A38
:1056D00006482FF0EBFB406811460368BDE8104018
:1056E0001B6B184778CE030857D0030816D0030861
:1056F00008B529B1034B7921034A04482FF0D6FBA2
:10570000C06808BD78CE030805D2030816D0030888
:1057100010B5044629B1194BA221194A19482FF096
:10572000C5FB052A15D8DFE802F0031115171C2266
:10573000406803681B69984758B1012384F82930F1
:1057400084F82C300023C4E9043302E0002380F8FD
:10575000293010BD0362F5E70362012380F82A3087
:10576000F0E7002380F8293001230362F1E7003BD2
:1057700018BF012380F82D30EBE700BF78CE030877
:10578000BAD3030816D0030810B50C4611461A46C2
:105790002CB1064B9021064A06482FF087FBC460C7
:1057A00040680368BDE810409B68184778CE03083E
:1057B0008ED5030816D0030808B529B1054B822100
:1057C000054A06482FF072FBC0E90411C0E9063211
:1057D00008BD00BF78CE030869D7030816D00308B8
:1057E00090F83D3010B5044653B14FF0FF31406C96
:1057F00003F0E0F9002384F83D30012384F83E30C3
:1058000010BD00002DE9F0410D460446194635B99A
:10581000154B40F20131154A15482FF047FBC0E9FE
:105820001052003A0368134E18BF0122D3F890308B
:1058300032709847E569A5B12B681F68337873B15A
:10584000236820465B6B9847236C834207D1616CC9
:10585000094B28461A883B46BDE8F0411847216CA1
:10586000F6E7BDE8F08100BF25D903085DD903083C
:1058700035CE0308D0D40224D4D4022410B5044673
:10588000104629B1134BD021134A14482FF00EFBB8
:1058900094F8293033B1124B1B6893F86F20636979
:1058A0001344636194F82B300BB9012010BDA36839
:1058B000036303685B699847002394F82C0084F81D
:1058C0002B300028F1D194F82D30002BEED184F844
:1058D0002900EBE778CE0308ABD9030816D00308FC
:1058E000DCD4022470B51A4C054612F0C7FC94F8BB
:1058F000293013B994F82A30ABB1E169D4E9053203
:10590000534322694A4393420DD394F83C0038B183
:105910009B1AB3FBF1F2994298BF02F1FF32626227
:10592000012384F82E300123206C84F83D3003F0ED
:10593000F9F994F83E302BB1606C03F05EF9002366
:1059400084F83E3068680368BDE870401B691847FA
:1059500058820024034690F87E0018B15868036806
:105960001B68184770470000084B4FF08062C3F86F
:105970008820BFF34F8FBFF36F8F4FF08072C3F853
:105980008820BFF34F8FBFF36F8F704700E100E0B7
:10599000034B4FF080629A604FF080729A607047BC
:1059A00000E100E0034690F8280070B5C8B9012274
:1059B0009D6BD8609A624FF4807205F516241861C9
:1059C0009A8558619861D8611862586283F82E00F0
:1059D000D3E90C26324494420AD90B4B52210B4A8C
:1059E00003E00B4B40F2C5110A4A0B482FF05EFA58
:1059F0009D609C634FF4207381F83400CB864FF494
:105A0000F07308630B8770BD03DD03083EDD0308F8
:105A10004CDB03087CDB030816D0030838B5184CB0
:105A200023685BB3174B184A1B6C11888B4216D145
:105A3000164B0025198805F0CBF8236893F86E20E3
:105A400083F88050013283F86E2000F067FB2068F5
:105A500013F0E8F92846BDE8384001F0C2B905F076
:105A6000B7F82468236820461B6A98470123002062
:105A700084F88030BDE8384001F0B4B938BD00BFCB
:105A8000DCD40224001000505682002454820024EA
:105A90002DE9F743044601264FF4A0674FF0FF318C
:105AA000206C03F013F94FF0FF31606C03F082F8C3
:105AB00094F82E3043B36568D4F820802B6884F8BE
:105AC0002B60B8F1000F23D05B6A41462846984707
:105AD000002323622B684FF4207200972846D3F8E6
:105AE00014804FF4F073A168C047236984F82C0038
:105AF00001332361F0B12B6828469B6A984701382F
