:020000040800F2
:1000000000000824E54F01081133010813330108EB
:1000100015330108173301081933010800000000E7
:100020000000000000000000000000002172000835
:100030001B33010800000000B1720008456A000887
:100040003550010835500108355001083550010878
:100050003550010835500108355001083550010868
:10006000355001081D33010835500108355001088D
:100070003550010835500108355001083550010848
:100080003550010835500108355001082533010865
:10009000313301083D33010841330108355001086F
:1000A0003550010835500108355001083550010818
:1000B0004533010835500108355001083550010815
:1000C00035500108355001083550010835500108F8
:1000D00035500108355001083550010835500108E8
:1000E0003550010835500108000000003550010866
:1000F00035500108355001083550010835500108C8
:1001000035500108355001083550010835500108B7
:1001100035500108355001083550010835500108A7
:100120003550010835500108355001083550010897
:100130003550010835500108355001083550010887
:100140003550010835500108000000000000000093
:100150003550010835500108355001083550010867
:100160003550010835500108355001083550010857
:100170003550010851330108355001083550010848
:100180003550010835500108355001083550010837
:100190003550010835500108355001083550010827
:1001A0005D33010835500108C53F0008355001088E
:1001B0003550010835500108355001083550010807
:1001C00035500108355001083550010835500108F7
:1001D00035500108355001083550010835500108E7
:1001E00035500108355001083550010835500108D7
:1001F00035500108355001083550010835500108C7
:1002000035500108355001083550010835500108B6
:1002100035500108355001083550010835500108A6
:10022000355001086933010875330108355001085C
:100230003550010835500108355001083550010886
:100240003550010835500108355001083550010876
:100250003550010835500108355001083550010866
:100260003550010835500108355001083550010856
:100270003550010835500108355001083550010846
:1002800035500108355001083550010800000000C4
:0802900035500108355001084A
:1002C00002780B78012A28BF9A4240F0D8806DE965
:1002D000044540EA0104CDE902676FF0000C4FEAE3
:1002E00044721AB380EA010414F0070F6BD100F0D6
:1002F000070420F0070004F0030521F007014FEA8E
:10030000C505F0E8042314F0040FF1E804670CFAC3
:1003100005F462EA040266EA04060BD063EA040309
:10032000624667EA0407664604E000BFF0E804237B
:10033000F1E8046782FA4CF582EA0604A4FA8CF428
:100340006CBB83FA4CF583EA0705A5FA8CF595B9E1
:1003500050E9022351E9026782FA4CF582EA060469
:10036000A4FA8CF483FA4CF583EA0705A5FA8CF518
:100370002543DBD09CB92DBAB5FA85F424F00704E7
:1003800027FA04F1DDE9026723FA04F303F0FF0022
:1003900001F0FF01FDE80445A0EB0100704724BA1D
:1003A000B4FA84F424F0070426FA04F1DDE90267C4
:1003B00022FA04F202F0FF0001F0FF01FDE804451B
:1003C000A0EB0100704714F0030F3CD110F00304C0
:1003D00028D150F8082B51F8083B82FA4CF582EAF4
:1003E0000305A5FA8CF55DB950F8042C51F8043CCE
:1003F00082FA4CF582EA0305A5FA8CF5002DE8D0C7
:100400002DBAB5FA85F424F0070423FA04F122FA90
:1004100004F202F0FF0001F0FF01FDE80445A0EB4B
:10042000010070474FEAC40420F0030050F8082B85
:1004300021F0030151F8083B0CFA04F462EA0402CB
:1004400063EA0403C9E710F003041DD0A1EB040123
:1004500020F00300E40750F8042B06D012D28B786A
:100460005FFAA2F4E41A06D12BB1CB785FFAB2F4AA
:10047000E41A00D133B920465DF8104B7047A2EB67
:100480000300704701F1040150F8042BCC0721F060
:10049000030151F8043B48D824D222F07F4482FA69
:1004A0004CF594EA1325A5FA8CF50AD165B951F8F3
:1004B000043B84EA0204B4EB036F0ED150F8042B22
:1004C000EBE74FEA132355E035F07F454DD108782F
:1004D000FDE80445C0F1000070474FEA126203F0E6
:1004E000FF0347E002EA1C4482FA4CF594EA134504
:1004F000A5FA8CF50AD165B951F8043B84EA0204E7
:10050000B4EB034F0CD150F8042BEBE74FEA134345
:1005100030E015EA1C4528D10B884FEA124229E049
:100520004FEA124203EA1C4324E002F0FF0482FA7D
:100530004CF594EA1365A5FA8CF50AD165B951F822
:10054000043B84EA0204B4EB032F09D150F8042BD6
:10055000EBE74FEA13630DE015F0FF0F05D10B68D1
:100560004FEA122223F07F4304E04FF00000FDE841
:100570000445704712BA1BBA82FA4CF482EA0304AB
:10058000A4FA8CF5B5FA85F402FA04F203FA04F33E
:100590004FEA1260FDE80445A0EB1360704700BF0E
:1005A00001F0FF01102A2BDB10F0070F08D010F824
:1005B000013B013A8B422DD010F0070F42B3F6D128
:1005C000F0B441EA012141EA014122F007047FF041
:1005D00000070023F0E80256083C85EA010586EA98
:1005E000010685FA47F5A3FA87F586FA47F6A5FAD4
:1005F00087F68EB9EED1F0BC01F0FF0102F00702E0
:1006000032B110F8013B013A83EA010313B1F8D18A
:100610000020704701387047002D06BF354603386B
:10062000073815F0010F07D1013015F4807F02BFA4
:10063000013015F4C03F0130F0BC0138704700BFF5
:10064000844641EA000313F003036DD1403A41D3DD
:1006500051F8043B40F8043B51F8043B40F8043B9C
:1006600051F8043B40F8043B51F8043B40F8043B8C
:1006700051F8043B40F8043B51F8043B40F8043B7C
:1006800051F8043B40F8043B51F8043B40F8043B6C
:1006900051F8043B40F8043B51F8043B40F8043B5C
:1006A00051F8043B40F8043B51F8043B40F8043B4C
:1006B00051F8043B40F8043B51F8043B40F8043B3C
:1006C00051F8043B40F8043B51F8043B40F8043B2C
:1006D000403ABDD2303211D351F8043B40F8043BCC
:1006E00051F8043B40F8043B51F8043B40F8043B0C
:1006F00051F8043B40F8043B103AEDD20C3205D3DC
:1007000051F8043B40F8043B043AF9D2043208D0D3
:10071000D2071CBF11F8013B00F8013B01D30B8845
:1007200003806046704700BF082A13D38B078DD023
:1007300010F003038AD0C3F10403D21ADB071CBFF5
:1007400011F8013B00F8013B80D331F8023B20F85F
:10075000023B7BE7043AD9D3013A11F8013B00F898
:10076000013BF9D20B7803704B7843708B78837020
:10077000604670470000000000000000000000001C
:1007800030B490F800F020F007016FF0000C10F08A
:10079000070491F820F040F048804FF000046FF01B
:1007A0000700D1E9002391F840F000F1080082FA37
:1007B0004CF2A4FA8CF283FA4CF3A2FA8CF34BBB02
:1007C000D1E9022382FA4CF200F10800A4FA8CF27B
:1007D00083FA4CF3A2FA8CF3E3B9D1E9042382FA49
:1007E0004CF200F10800A4FA8CF283FA4CF3A2FA5E
:1007F0008CF37BB9D1E9062301F1200182FA4CF296
:1008000000F10800A4FA8CF283FA4CF3A2FA8CF3FC
:10081000002BC6D0002A04BF04301A4612BAB2FA1E
:1008200082F200EBD20030BC7047D1E9002304F023
:100830000305C4F100004FEAC50514F0040F91F858
:1008400040F00CFA05F562EA05021CBF63EA0503F5
:1008500062464FF00004AAE753B94AB9002908BF1D
:1008600000281CBF4FF0FF314FF0FF3000F0E2B81E
:10087000ADF1080C6DE904CE38F06AFADDF804E059
:10088000DDE9022304B0704700F1340191E838003B
:100890009C46A6464CF8045D90E8FF0FE54600BD77
:1008A00090EC210B704700BF80EC210B704700BF1C
:1008B00090EC200B704700BF80EC200B704700BF0E
:1008C000D0EC200B704700BFC0EC200B704700BF7E
:1008D000F0EC0201F0EC0211F0EC0221F0EC02313C
:1008E000F0EC0241F0EC0251F0EC0261F0EC02712C
:1008F000F0EC0281F0EC0291F0EC02A1F0EC02B11C
:10090000F0EC02C1F0EC02D1F0EC02E1F0EC02F10B
:10091000704700BFE0EC0201E0EC0211E0EC0221C4
:10092000E0EC0231E0EC0241E0EC0251E0EC02616B
:10093000E0EC0271E0EC0281E0EC0291E0EC02A15B
:10094000E0EC02B1E0EC02C1E0EC02D1E0EC02E14B
:10095000E0EC02F1704700BFB0FC0181B0FC0191F6
:10096000B0FC01A1B0FC01B1704700BFA0FC018147
:10097000A0FC0191A0FC01A1A0FC01B1704700BF47
:10098000EC4600B52DE900502DE9FF1F4FF00003A4
:100990002DE90C0001A938F095FCDDF840E012B01B
:1009A000704700BFEC4600B52DE900502DE9FF1F50
:1009B0004FF000032DE90C0001A938F0BFFCDDF871
:1009C00040E012B0704700BFEC4600B52DE9005082
:1009D0002DE9FF1F4FF000032DE90C0001A938F0AD
:1009E000CFFCDDF840E012B0704700BFEC4600B528
:1009F0002DE900502DE9FF1F4FF000032DE90C00F9
:100A000001AB38F093FCDDF840E012B0704700BF56
:100A1000EC4600B52DE900502DE9FF1F4FF0000313
:100A20002DE90C0001AA38F00BFDDDF840E012B012
:100A3000704700BF704700BF0348044B834202D099
:100A4000034B03B118477047C0070024C0070024B8
:100A5000000000000548064B1B1AD90F01EBA3014B
:100A6000491002D0034B03B118477047C007002458
:100A7000C00700240000000010B5064C237843B9DD
:100A8000FFF7DAFF044B13B10448AFF300800123F2
:100A9000237010BDC081002400000000BC9E03082C
:100AA00008B5054B1BB105490548AFF30080BDE80B
:100AB0000840FFF7CFBF00BF00000000C481002442
:100AC000BC9E0308704704387047704710B5044651
:100AD00010212AF033FB204610BDA0F10400F5E7F9
:100AE00084B0F0B587B007460DAE10AD6C4686E811
:100AF0000E000FCD0FC42B682360F86896E80E0037
:100B000000F040F907B0BDE8F04004B07047A0F134
:100B10000400FFF7E5BF84B013B505AC84E80E0010
:100B2000089B0093C06894E80E0000F089F802B0BA
:100B3000BDE8104004B07047A0F10400FFF7EBBF20
:100B400084B013B505AC84E80E00BDF82030ADF8D4
:100B50000030C06894E80E0000F0D2F802B0BDE8A2
:100B6000104004B07047A0F10400FFF7E9BF000097
:100B70000022C1608260024A0260243242607047F3
:100B80006C9F03087047704770470000034B10B517
:100B90000446036002F036F9204610BD98BB0308F6
:100BA00010B50446FFF7F2FF41F2247120462AF007
:100BB000C5FA204610BD000010B5044600F04CFDFB
:100BC000014B2046236010BD98BB030838B504468E
:100BD0001A4D00F057FC002304F59D502A460521CC
:100BE00010301BF000FF04F5617019F0DDFF04F513
:100BF0009E502A460023052104301BF0F4FE04F227
:100C00001C4019F0D1FF04F59E502A46002305210F
:100C100018301BF0E8FE04F2B44019F0C5FF04F5EB
:100C20009F5000232A46052102301BF0DCFE04F50C
:100C3000A060BDE8384019F0B7BF00BFA49F03080B
:100C400084B0F8B5044607A82C4DBDF92A6080E8A9
:100C50000E0004F5B550BDF926302A460A210630AB
:100C6000BDF922701BF0BFFE04F586500C3019F060
:100C70009BFF04F5B5503B462A460A211A301BF06B
:100C8000B2FE04F58850183019F08EFF04F5B65006
:100C900033462A460A210E301BF0A5FE04F58B5080
:100CA000043019F081FF04F5B750BDF920302A4611
:100CB0000A2102301BF097FE04F58D50103019F018
:100CC00073FF04F5B7503B462A460A2116301BF045
:100CD0008AFE04F58F501C3019F066FF0A2104F5D6
:100CE000B85033462A4608441BF07DFE04F5925066
:100CF000BDE8F840083004B019F056BFA49F0308BF
:100D000084B038B5044605A81D4D80E80E0004F5F2
:100D1000B250BDF914302A460A2116301BF063FE8A
:100D200004F69C7019F040FF0A2104F5B350BDF998
:100D300020302A4608441BF056FE04F6E87019F0ED
:100D400033FF04F5B350BDF81C302A460A211E308B
:100D50001BF049FE04F58150143019F025FF04F50D
:100D6000B450BDF91E302A460A2112301BF03BFE5A
:100D700004F58450BDE8384004B019F015BF00BF39
:100D8000A49F030884B037B5044607A880E80E0086
:100D900004F59D500B46344A0521103004F61875B1
:100DA0001BF021FE04F5617019F0FEFE04F59E5063
:100DB000089B05212C4A04301BF015FE04F21C4050
:100DC00019F0F2FE04F59E50099B0521264A1830C1
:100DD0001BF009FE04F2B44019F0E6FE04F59F5042
:100DE0000A9B0521204A02301BF0FDFD04F5A0609E
:100DF00019F0DAFE9DF82D305BB30823284601A9CF
:100E0000ADF8043016F05FFE284604F6447519F07C
:100E1000CBFE9DF82E301BB30F2301A92846ADF859
:100E2000043016F050FE284604F5776419F0BCFE35
:100E30009DF82F30B3B10C23204601A9ADF8043042
:100E400016F041FE204603B0BDE8304004B019F072
:100E5000ABBE9DF82C300BB10E23CFE70723CDE7B7
:100E60001023DAE70D23E7E7A49F030800220264BA
:100E70007047000030B585B0002504A8089C00E943
:100E80000E00052202A8002110F00CFB23680522A9
:100E90008D4208BF8342114618BF206002A818BFC8
:100EA000012510F0FFFA63680522002908BF83427C
:100EB0004FF00A0118BF606002A818BF012510F0AA
:100EC000F1FAA3680522002908BF83424FF00F0101
:100ED00018BFA06002A818BF012510F0E3FAE3686C
:100EE0000122002908BF83424FF0140118BFE060BF
:100EF00002A818BF012510F0D5FA237C0122002991
:100F000008BF83424FF0150118BF207402A818BF14
:100F1000012510F0C7FA637C0122002908BF834233
:100F20004FF0160118BF607402A818BF012510F019
:100F3000B9FAA37C0122002908BF83424FF01701B0
:100F400018BFA07402A818BF012510F0ABFAE37C0B
:100F50000C22002908BF83424FF0180118BFE0742B
:100F600002A818BF012510F09DFA194B0C22C018D9
:100F7000636961F10001002908BF83424FF0240139
:100F800018BF606102A818BF012510F08BFA104B42
:100F90000C22C018A36961F10001002908BF834237
:100FA0004FF0300118BFA06102A818BF012510F052
:100FB00079FA074BC018E36961F10001002908BF05
:100FC00083421CBF0125E061284605B030BD00BF4B
:100FD0003CF6FFFF30B585B004A8089C00E90E0080
:100FE000082200210DEB020010F05CFAB4F9003089
:100FF00032384FEAE37261F100018A4208BF83424E
:101000004FF0080218BF208011460DEB020014BFFC
:101010000125002510F046FAB4F9003032384FEAC5
:10102000E37261F100018A4208BF83424FF0080277
:101030004FF0100118BF20800DEB020018BF0125F2
:1010400010F030FAB4F9043032384FEAE37261F14B
:1010500000018A4208BF83424FF008024FF0180196
:1010600018BFA0800DEB020018BF012510F01AFA7E
:10107000B4F9063032384FEAE37261F100018A4276
:1010800008BF83424FF008024FF0200118BFE080F4
:101090000DEB020018BF012510F004FAB4F9083076
:1010A00032384FEAE37261F100018A4208BF83429D
:1010B0004FF008024FF0280118BF20810DEB02000D
:1010C00018BF012510F0EEF9B4F90A3032384FEAB2
:1010D000E37261F100018A4208BF83424FF00802C7
:1010E0004FF0300118BF60810DEB020018BF0125E1
:1010F00010F0D8F9B4F90C3032384FEAE37261F1EC
:1011000000018A4208BF83424FF008024FF03801C5
:1011100018BFA0810DEB020018BF012510F0C2F925
:10112000B4F90E3032384FEAE37261F100018A42BD
:1011300008BF83421CBF0125E081284605B030BDB1
:1011400030B585B004A8089C00E90E0008220021F3
:101150000DEB020010F0A6F9B4F9003032384FEA76
:10116000E37261F100018A4208BF83424FF0080236
:1011700018BF208011460DEB020014BF0125002589
:1011800010F090F9B4F9023032384FEAE37261F1AD
:1011900000018A4208BF83424FF008024FF010015D
:1011A00018BF60800DEB020018BF012510F07AF91E
:1011B000B4F9043032384FEAE37261F100018A4237
:1011C00008BF83424FF008024FF0180118BFA080FB
:1011D0000DEB020018BF012510F064F9B4F90630D8
:1011E00032384FEAE37261F100018A4208BF83425C
:1011F0004FF010024FF0200118BFE08002A818BF86
:10120000012510F04FF923890822002908BF8342E5
:101210004FF0300118BF20810DEB020018BF0125EF
:1012200010F040F9B4F90A3032384FEAE37261F154
:1012300000018A4208BF83424FF008024FF02E019E
:1012400018BF60810DEB020018BF012510F02AF9CC
:10125000B4F90C3032384FEAE37261F100018A428E
:1012600008BF83421CBF0125A081284605B030BDC0
:101270002DE9F04704468AB00A27DFF8B880DFF886
:10128000B890DFF8B8A007AD0023D8F800001A46E0
:10129000294605F014FE002833D1079B4B4533D077
:1012A000534514D0224A934229D104F12006204606
:1012B000009695E80E00FFF78DFE00B3206CE36A00
:1012C00005680093ED6896E80E00A84717E00094C3
:1012D000204695E80E00FFF7CDFD80B104F10C0625
:1012E000D4F840C06D46DCF800E00FCE0FC533687F
:1012F00060462B60DEF8085094E80E00A847013FD6
:10130000C1D10AB0BDE8F08704F13006204600964E
:1013100095E80E00FFF714FF0028F0D0206CA38F93
:101320000568ADF800302D6996E80E00CDE700BFE6
:10133000070000106CBE0224080000100900001015
:10134000704700F598730868496803C37047704791
:1013500001F09ABE10B504464FF4AE7129F0EEFECE
:10136000204610BD10B50446D0F85801FFF780FFA5
:101370002046BDE8104018F0FFBA10B50446D0F87A
:10138000400158B10368DB68984738B1D4F8400190
:1013900003689B6898470023C4F8403110BD0000E3
:1013A00010B5044601F03CFE014B2046236010BD01
:1013B000CCBB03080020704781807047C180704714
:1013C000018170474181704770477047704770478F
:1013D000704710B4C4880368121B84885B6D091BB6
:1013E00012B25DF8044B09B218474FF6FF738381C0
:1013F0004FF0FF3303621368C3611060704770479A
:1014000070477047704730B585B003680446018166
:101410006D460146D3F884303C342846984795E819
:10142000070084E8070005B030BD30B585B003681B
:10143000044641816D460146D3F884303C34284649
:10144000984795E8070084E8070005B030BD002202
:10145000028042808280C280704780F836107047D8
:10146000036870B504461B6B1546984723682046F1
:1014700029465B6EBDE87040184700207047806CBD
:1014800070477047704710B50446082129F056FE92
:10149000204610BD10B504464C2129F04FFE2046D1
:1014A00010BD90F8252012B103685B69184770479A
:1014B00008B5FFF7F6FF08BD90F825201AB190F89F
:1014C000242002B118607047036870B55E6B044653
:1014D000114B8DB21B682BB9104B6C21104A11486F
:1014E00031F0AAF91049828D0988914203D80F4B37
:1014F0006D210B4AF3E713F812200D4B1B6853F8CC
:10150000220003681B6B9847291A3346204609B20C
:10151000BDE87040184700BFACCE0224A79F030867
:10152000E99F030824A00308A0CE022469A00308B1
:10153000A4CE0224036870B504461B6B1546984779
:101540002368204629465B6BBDE87040184770B59C
:1015500004461D46BDF91060FFF7ECFF23682946DD
:1015600020469B6B9847236831462046DB6BBDE8DD
:10157000704018474FF480710022818405498262CF
:101580000160C0E90122C0E90322C0E90522C0E9E7
:101590000722704734C603080022C0E90122C0E9CF
:1015A0000322C0E90522C0E907224FF48072828439
:1015B000014A0260704700BF20BC030838B50446EA
:1015C0000D462622002133F09DFC2046FFF7E4FF64
:1015D000064B2046294623602B88E384FF2384F8AA
:1015E000283016F070FA204638BD00BF5CCA0308E8
:1015F00000224FF0FF318260C0E90021704710B532
:101600000446FFF7F5FF204610BD000038B504463C
:1016100026220021002533F075FC2046FFF7BCFF91
:101620000A4B04F13C0025872360094BA3624FF667
:10163000FF73A3854FF47F03C4E90C53FFF7D8FF72
:10164000044B2046A564236038BD00BFE0C80308F2
:1016500088BC030898BC03082DE9F04F0446C9B0C4
:10166000002719F03BFDA046DB4B26223946E763F5
:1016700004F5B27648F8403B404633F043FC404620
:10168000FFF78AFFD54B45AD04F5C8792364FF23E6
:10169000A7664FF6FF7A84F8663004F16C034FF0CA
:1016A000FF3B1846029314F0B5F83046FFF762FF8F
:1016B00029464846ADF814A1FFF780FF04F5DE7314
:1016C00018460A93FFF7A2FF04F5027318460B931E
:1016D000FFF79CFF04F5157318460C93FFF796FF70
:1016E00004F5287318460D93FFF790FF04F53B733C
:1016F00018460E93FFF78AFF04F54E7318460F93B2
:10170000FFF784FF04F5617318461093FFF77EFF1F
:1017100004F5747318461193FFF778FF04F21C4325
:1017200018461293FFF772FF04F58D631846139362
:10173000FFF76CFF04F2B44318461893FFF766FFF7
:1017400004F5A06318461993FFF760FF04F24C53A9
:1017500018461A93FFF75AFF04F5B36318461B9314
:10176000FFF754FF04F2E45318461C93FFF74EFFB3
:1017700004F5C66318461D93FFF748FF04F27C6327
:1017800018461E93FFF742FF04F5D96318461F93CE
:10179000FFF73CFF04F2147318462093FFF736FF5F
:1017A00004F5EC6318462193FFF730FF04F2AC73A5
:1017B00018462293FFF72AFF04F5FF631846239388
:1017C000FFF724FF04F6440318462493FFF71EFF97
:1017D00004F5096318462593FFF718FF04F6DC03A8
:1017E00018462693FFF712FF04F62813184627938E
:1017F000FFF70CFF04F6741318462893FFF706FF53
:1018000004F51C6318462993FFF700FF04F60C2328
:1018100018462A93FFF7FAFE04F6582318462B932E
:10182000FFF7F4FE04F6A42318462C93FFF7EEFE10
:1018300004F52F6318462D93FFF7E8FE04F63C33BA
:1018400018462E93FFF7E2FE04F6883318462F93CE
:10185000FFF7DCFE04F6D43318463093FFF7D6FECC
:1018600004F5426318463193FFF7D0FE04F66C434B
:1018700018461493FFF7CAFE04F6B84318461593AA
:10188000FFF7C4FE04F6045318461693FFF7BEFE96
:1018900004F5556318463293FFF7B8FE04F69C53DF
:1018A00018463393FFF7B2FE04F6E8531846349314
:1018B000FFF7ACFE04F6346318463593FFF7A6FE37
:1018C00004F5686318463693FFF7A0FE04F6CC6370
:1018D00018463793FFF79AFE04F618732946ADF8B9
:1018E00014A118463893FFF769FE04F6447329469D
:1018F000ADF814A118463993FFF760FE04F577633D
:101900002946ADF814A118463A93FFF757FE04F69E
:101910009C730DF5807A18463B93FFF777FE04F62B
:10192000E87318463C93FFF771FE04F581531433B6
:1019300018460393FFF76AFE04F5845318463D9357
:10194000FFF764FE04F586530C3318460493FFF743
:101950005DFE04F58853183318460593FFF756FECD
:1019600004F58B53043318460693FFF74FFE04F536
:101970008D53103318460793FFF748FE04F58F5335
:101980001C3318460893FFF741FE04F592530833C1
:1019900018460993FFF73AFE04F59453143318469A
:1019A0001793FFF7E7FD04F5965318463E93FFF7AC
:1019B0002DFE04F598530C3318463F93FFF7DAFDDC
:1019C0004FF448733A463946404600934FF4A063BB
:1019D000FFF7BDFD04E000BF28BD030870C9030880
:1019E0004FF07F434146201DA36613F05EFB3A464D
:1019F00039460298FFF79EFD01232A4644A9029822
:101A0000ADF81431ADF8107113F0A1FF40F20732B8
:101A100002984FF42071DFF8A08313F04FFE029874
:101A2000322113F0D4FD0298322113F045FEE14B30
:101A30003A4639464846C4F86C31FFF77BFD11231E
:101A400029464846ADF8143116F03DF8494630466F
:101A500013F02BFB192340F21B120A9800931F214D
:101A6000622304F58059FFF772FDD4F8BC310A995E
:101A70005046C4F8ECB1A4F8F071D3F8843098471C
:101A800004F5FC739AE8070083E8070004F599530E
:101A9000A9F8387329460A981833CDF81481C4F888
:101AA00004323423ADF8183115F086FD0A9930461A
:101AB00013F0FBFA19234FF48E720B980093B321A5
:101AC0006223FFF744FDD4F808320B995046C4F85E
:101AD00038B2A4F83C72D3F88430984704F51173F7
:101AE0009AE8070083E8070004F59A53A9F84C73B5
:101AF00029460B980C33CDF81481C4F850323123A9
:101B0000ADF8183115F058FD0B99304613F0CDFAA9
:101B10001923CC220C9800931F216223FFF717FD95
:101B2000D4F854320C995046C4F884B2A4F88872A0
:101B3000D3F88430984704F524739AE8070083E8C3
:101B4000070004F59B53A9F8607329460C98C4F864
:101B50009C323523CDF81481ADF8183115F02CFDE9
:101B60000C99304613F0A1FA1923CC220D9800935A
:101B7000B3216223FFF7EBFCD4F8A0320D99504655
:101B8000C4F8D0B2A4F8D472D3F88430984704F5DE
:101B900037739AE8070083E8070004F59B53A9F818
:101BA000747329460D981433CDF81481C4F8E832C3
:101BB0003223ADF8183115F0FFFC0D99304613F0C3
:101BC00074FA19237D220E9800931F216223FFF7D8
:101BD000BEFCD4F8EC320E995046C4F81CB3A4F8FD
:101BE0002073D3F88430984704F54A739AE80700C5
:101BF00083E8070004F59C53A9F8887329460E98DA
:101C00000833CDF81481C4F834333623ADF81831D5
:101C100015F0D2FC0E99304613F047FA19237D22B5
:101C20000F980093B3216223FFF791FCD4F8383367
:101C30000F995046C4F868B3A4F86C73D3F8843095
:101C4000984704F55D739AE8070083E8070004F5F8
:101C50009C53A9F89C7329460F981C33CDF8148126
:101C6000C4F880333323ADF8183115F0A5FC0F9973
:101C7000304613F01AFA19237D221098009340F28F
:101C80004D117223FFF763FCD4F88433109950464A
:101C9000C4F8B4B3A4F8B873D3F88430984704F503
:101CA00070739AE8070083E8070004F59D53A9F8CC
:101CB000B073294610981033CDF81481C4F8CC3392
:101CC0003023ADF8183115F077FC1099304613F039
:101CD000ECF919237D22119800934FF4F3717223CC
:101CE000FFF735FCD4F8D03311995046C4F800B44E
:101CF000A4F80474D3F88430984704F20C439AE8AB
:101D0000070083E8070004F59D53A9F8BA73294634
:101D100011981A33CDF81481C4F818342D23ADF876
:101D2000183115F049FC1199304613F0BEF919230A
:101D3000CC221298009340F24D117223FFF707FC5A
:101D4000D4F81C3412995046C4F84CB4A4F850741A
:101D5000D3F88430984704F58B639AE8070083E84A
:101D6000070004F59E53A9F8C4732946129804335A
:101D7000CDF81481C4F864342F23ADF8183115F070
:101D80001BFC1299304613F090F91923CC221398BA
:101D900000934FF4F3717223FFF7D9FBD4F8683442
:101DA00013995046C4F898B4A4F89C74D3F88430BE
:101DB00004E000BF0005200388BC0308984704F234
:101DC000A4439AE8070083E8070004F59E53A9F8A6
:101DD000CE73294613980E33CDF814814FF0180AAC
:101DE000C4F8B0342C23ADF8183115F0E5FB139985
:101DF000304613F05AF919234FF48E7240F24D1108
:101E0000189800937223FFF7A2FBC4F8E4B4A4F877
:101E1000E8742846FFF7ECFB04F59E6395E807009D
:101E200083E8070004F59E53A9F8D873294618984B
:101E30001833CDF81481C4F8FC342E23ADF81831D2
:101E400015F0BAFB1899304613F02FF919234FF407
:101E50008E724FF4F371199800937223FFF777FB9A
:101E6000C4F830B5A4F834752846FFF7C1FB04F276
:101E70003C5395E8070083E8070004F59F53A9F851
:101E8000E273294619980233CDF81481C4F8483515
:101E90002B23ADF8183115F08FFB1999304613F04C
:101EA00004F95C23EE2240F28C411A98CDF800A090
:101EB000FFF74DFBC4F87CB5A4F880752846FFF702
:101EC00097FB04F5B16395E8070083E8070004F584
:101ED0009F53A9F8EC7329461A980C33CDF8148156
:101EE000C4F894351623ADF8183115F065FB1A992E
:101EF000304613F0DAF85C2340F2291240F28C41AC
:101F00001B98CDF800A0FFF722FBC4F8C8B5A4F8D1
:101F1000CC752846FFF76CFB04F2D45395E8070014
:101F200083E8070004F5A053A9F8007429461B981C
:101F3000C4F8E0351523CDF81481ADF8183115F04B
:101F40003BFB1B99304613F0B0F85C234FF4B3729F
:101F500040F28C411C98CDF800A0FFF7F8FAC4F8C5
:101F600014B6A4F818762846FFF742FB04F5C463BC
:101F700095E8070083E8070004F5A053A9F8147456
:101F800029461C981433CDF81481C4F82C36142338
:101F9000ADF8183115F010FB1C99304613F085F898
:101FA0005C2340F2A31240F28C411D98CDF800A0B2
:101FB000FFF7CDFAC4F860B6A4F864762846FFF7B8
:101FC00017FB04F26C6395E8070083E8070004F54B
:101FD000A153A9F8287429461D980833CDF8148117
:101FE000C4F878361323ADF8183115F0E5FA1D99C9
:101FF000304613F05AF85C237D2240F2EE211E9801
:10200000CDF800A0FFF7A3FAC4F8ACB6A4F8B076F8
:102010002846FFF7EDFA04F5D76395E8070083E853
:10202000070004F5A153A9F83C7429461E981C33F7
:10203000CDF81481C4F8C4362A23ADF8183115F050
:10204000BBFA1E99304613F030F85C237E2240F232
:10205000FD311F98CDF800A0FFF779FAC4F8F8B663
:10206000A4F8FC762846FFF7C3FA04F2047395E857
:10207000070083E8070004F5A253A9F85074294625
:102080001F981033CDF81481C4F810371E23ADF813
:10209000183115F091FA1F99304613F006F85C23B9
:1020A0007D2240F27B312098CDF800A0FFF74FFA57
:1020B000C4F844B7A4F848772846FFF799FA04F51E
:1020C000EA6395E8070083E8070004F5A353A9F83D
:1020D0006474294620980433CDF81481C4F85C3721
:1020E0002923ADF8183115F067FA2099304612F01F
:1020F000DCFF5C237E2240F28C412198CDF800A0C9
:10210000FFF725FAC4F890B7A4F894772846FFF7AC
:102110006FFA04F29C7395E8070083E8070004F562
:10212000A353A9F87874294621985344CDF8148113
:10213000C4F8A8371D23ADF8183115F03DFA2199E0
:10214000304612F0B2FF5C23B42240F2EE21229816
:10215000CDF800A0FFF7FBF9C4F8DCB7A4F8E077EE
:102160002846FFF745FA04F5FD6395E8070083E884
:10217000070004F5A453A9F88C74294622980C335F
:10218000CDF81481C4F8F4372823ADF8183115F0D0
:1021900013FA2299304612F088FF5C23B42240F2F1
:1021A000FD312398CDF800A0FFF7D1F9C4F828B885
:1021B000A4F82C782846FFF71BFA04F6340395E8B8
:1021C000070083E8070004F5A553A9F8A074294681
:1021D0002398C4F840381C23CDF81481ADF8183189
:1021E00015F0EAF92399304612F05FFF5C23EE22E6
:1021F00040F2FD312498CDF800A0FFF7A8F9C4F80B
:1022000074B8A4F878782846FFF7F2F904F5086363
:1022100095E8070083E8070004F5A553A9F8B4740E
:10222000294624981433CDF81481C4F88C381A2325
:10223000ADF8183115F0C0F92499304612F035FF89
:102240005C234FF4B37240F2FD312598CDF800A025
:10225000FFF77DF9C4F8C0B8A4F8C4782846FFF7A2
:10226000C7F904F6CC0395E8070083E8070004F5F6
:10227000A653A9F8C874294625980833CDF81481C7
:10228000ADF818A1C4F8D83815F096F9259930465C
:1022900012F00BFF5C234FF4D27240F2FD3126980E
:1022A000CDF800A0FFF753F9C4F80CB9A4F81079E1
:1022B0002846FFF79DF904F6181395E8070083E810
:1022C000070004F5A653A9F8DC74294626981C33A8
:1022D000CDF81481C4F824391723ADF8183115F05E
:1022E0006BF92699304612F0E0FE5C2340F2291289
:1022F00040F2FD312798CDF800A0FFF728F9C4F887
:1023000058B9A4F85C792846FFF772F904F664130B
:1023100095E8070083E8070004F5A753A9F8F074CF
:10232000294627981033CDF81481C4F870394FF03E
:102330001903ADF8183115F03FF92799304612F01E
:10234000B4FE5C23B42240F27B312898CDF800A083
:10235000FFF7FDF8C4F8A4B9A4F8A8792846FFF758
:1023600047F904F51B6395E8070083E8070004F5C7
:10237000A853A9F80475294628980433CDF8148188
:10238000C4F8BC392323ADF8183115F015F9289994
:10239000304612F08AFE5C23B42240F28C41299828
:1023A000CDF800A0FFF7D3F8C4F8F0B9A4F8F47999
:1023B0002846FFF71DF904F6FC1395E8070083E8AB
:1023C000070004F5A853A9F818752946299853441D
:1023D000CDF81481C4F8083A4FF01B03ADF818315A
:1023E00015F0EAF82999304612F05FFE5C23EE22E0
:1023F00040F27B312A98CDF800A0FFF7A8F8C4F886
:102400003CBAA4F8407A2846FFF7F2F804F64823CD
:1024100095E8070083E8070004F5A953A9F82C758F
:1024200029462A980C33CDF81481C4F8543A222353
:10243000ADF8183115F0C0F82A99304612F035FE83
:102440005C2340F2291240F27B312B98CDF800A09A
:10245000FFF77DF8C4F888BAA4F88C7A2846FFF70D
:10246000C7F804F6942395E8070083E8070004F50D
:10247000AA53A9F8407529462B98C4F8A03A2123FD
:10248000CDF81481ADF8183115F096F82B99304637
:1024900012F00BFE5C234FF4B37240F27B312C98A8
:1024A000CDF800A0FFF753F8C4F8D4BAA4F8D87A4E
:1024B0002846FFF79DF804F52E6395E8070083E8AA
:1024C000070004F5AA53A9F8547529462C9814332B
:1024D000CDF81481C4F8EC3A2023ADF8183115F08A
:1024E0006BF82C99304612F0E0FD5C2340F2A31209
:1024F00040F27B312D98CDF800A0FFF728F8C4F802
:1025000020BBA4F8247B2846FFF772F804F62C338E
:1025100095E8070083E8070004F5AB53A9F8687550
:1025200029462D980833CDF81481C4F8383B1F2371
:10253000ADF8183115F040F82D99304612F0B5FD80
:102540005C23EE2240F2EE212E98CDF800A0FEF79B
:10255000FEFFC4F86CBBA4F8707B2846FFF748F870
:1025600004F6783395E8070083E8070004F5AB53D9
:10257000A9F87C7529462E981C33CDF81481C4F82F
:10258000843B2723ADF8183115F016F82E99304604
:1025900012F08BFD5C2340F2291240F2EE212F98BD
:1025A000CDF800A0FEF7D3FFC4F8B8BBA4F8BC7BFD
:1025B0002846FFF71DF804F6C43395E8070083E8C2
:1025C000070004F5AC53A9F8907529462F981033ED
:1025D000CDF81481C4F8D03B2623ADF8183114F09F
:1025E000EBFF2F99304612F060FD5C234FF4B3727D
:1025F00040F2EE213098CDF800A0FEF7A8FFC4F815
:1026000004BCA4F8087C2846FEF7F2FF04F54163F9
:1026100095E8070083E8070004F5AD53A9F8A47511
:10262000294630980433CDF81481C4F81C3C252386
:10263000ADF8183114F0C0FF3099304612F035FD76
:102640005C2340F2A31240F2EE213198CDF800A0B5
:10265000FEF77DFFC4F850BCA4F8547C2846FEF772
:10266000C7FF04F65C4395E8070083E8070004F51C
:10267000AD53A9F8B875294631985344CDF8148163
:10268000C4F8683C2423ADF8183114F095FF319953
:10269000304612F00AFD40F2512281211498FEF7D3
:1026A00049FFC4F89CBCA4F8A07C2846FEF7A0FF14
:1026B00004F6A84395E8070083E8070004F5AE5345
:1026C000A9F8CC7514980C33C4F8B43C14F054FF3A
:1026D000122329461498ADF81831CDF8148114F05E
:1026E0006BFF1499304612F0E0FC40F28222812107
:1026F0001598FEF71FFFC4F8E8BCA4F8EC7C284648
:10270000FEF776FF04F6F44395E8070083E8070038
:1027100004F5AE53A9F8D27515981233C4F8003DEC
:1027200014F02AFF112329461598ADF81831CDF879
:10273000148114F041FF1599304612F0B6FC40F2B6
:10274000B52281211698FEF7F5FEC4F834BDA4F831
:10275000387D2846FEF74CFF04F55463ABF2033B8B
:1027600095E8070083E8070004F5AE53A9F8D8758B
:1027700016985344C4F84C3D14F0FEFE4FF010037D
:1027800029461698ADF81831CDF8148114F014FFCD
:102790001699304612F089FC622340F25122B3218F
:1027A0003298CDF800A0FEF7D2FEC4F880BDA4F8A0
:1027B000847D2846FEF71CFF04F68C5395E807003D
:1027C00083E8070004F5AE53A9F8DE752946329870
:1027D0001E33CDF81481C4F8983D0F23ADF818319D
:1027E00014F0EAFE3299304612F05FFC622340F2A8
:1027F00051224FF492713398CDF800A0FEF7A7FE56
:10280000C4F8CCBDA4F8D07D2846FEF7F1FE04F64E
:10281000D85395E8070083E8070004F5AF53A9F8FB
:10282000F275294633981233CDF81481C4F8E43D8B
:102830000C23ADF8183114F0BFFE3399304612F076
:1028400034FC622340F28222B3213498CDF800A0F8
:10285000FEF77DFEC4F818BEA4F81C7E2846FEF7DD
:10286000C7FE04F6246395E8070083E8070004F533
:10287000B053A9F80676294634980633CDF814816A
:10288000C4F8303E0E23ADF8183114F095FE34999B
:10289000304612F00AFC622340F282224FF4927119
:1028A0003598CDF800A0FEF752FEC4F864BEA4F837
:1028B000687E2846FEF79CFE04F5676395E80700EE
:1028C00083E8070004F5B053A9F81A76294635982D
:1028D0001A33CDF81481B846C4F87C3E0B23ADF80A
:1028E000183114F069FE3599304612F0DEFB622390
:1028F00040F2B522B3213698CDF800A04FF00D0A72
:10290000FEF725FEC4F8B0BEA4F8B47E2846FEF754
:102910006FFE04F6BC634F4695E8070083E80700A6
:1029200004F5B153A9F82E86DFF8D49429460E3366
:102930003698ADF818A1C4F8C83ECDF8149114F03B
:102940003BFE3699304612F0B0FB182340F2B52218
:102950004FF49271379800936223FEF7F8FDC4F8A4
:10296000FCBE2846A4F8008FFEF742FE04F608736A
:102970004FF0190B95E8070083E8070004F5B25300
:10298000A7F84286294637980233CDF81491C4F847
:10299000143F0A23ADF8183114F00EFE3799304673
:1029A00012F083FB3898092240F26D21FEF7C2FD38
:1029B0004FF0070229463898ADF8142115F083F836
:1029C0003899304612F071FB7622399840F2662130
:1029D000FEF7B0FD4FF0100329463998ADF81431D9
:1029E00015F071F83999304612F05FFBEC223A98F5
:1029F00040F26721FEF79EFD29463A98ADF814A1F2
:102A000015F061F83A99304612F04FFB1B234FF056
:102A1000FF3A40F22E2240F203213B980093862396
:102A2000FEF795FD2846C4F8CCAFA4F8D08FFEF78A
:102A3000DFFD04F6D87395E8070083E8070004F586
:102A4000B253A7F8568629463B981633CDF8149111
:102A5000C4F8E43F0923ADF8183114F0ADFD3B99FB
:102A6000304612F022FB592340F2752240F2362103
:102A70003C98CDF800B0FEF76AFD2846C7F818A0CC
:102A8000A7F81C80FEF7B4FD07F1240395E80700C2
:102A900083E8070004F5B35329463C980A33A7F8A6
:102AA0006A86CDF814913B630823ADF8183114F011
:102AB00083FD3C99304612F0F8FA592340F2B522D2
:102AC0004FF40C710398CDF800B0FEF740FD284696
:102AD000C7F864A0A7F86880FEF78AFD07F17003C5
:102AE00095E8070083E8070004F5B3534FF00702A9
:102AF000294603981E33A7F87E86ADF81821FB6798
:102B0000CDF8149114F058FD0399304612F0CDFA27
:102B1000592340F22F224FF443713D98CDF800B075
:102B2000FEF715FD2846C7F8B0A0A7F8B480FEF759
:102B30005FFD07F1BC0395E8070083E8070004F593
:102B4000B45329463D981233A7F89286CDF81491D4
:102B5000C7F8C8300623ADF8183114F02DFD3D99A3
:102B6000304612F0A2FA592340F275224FF4417117
:102B70000498CDF800B0FEF7EAFC2846C7F8FCA0A0
:102B8000A7F80081FEF734FD07F5847395E8070088
:102B900083E8070004F5B553294604980633A7F8DF
:102BA000A686CDF81491C7F814310523ADF8183175
:102BB00014F002FD0499304612F077FA592340F2DE
:102BC00096224FF441710598CDF800B0FEF7BFFC96
:102BD0002846C7F848A1A7F84C81FEF709FD07F57C
:102BE000AA7395E8070083E8070004F5B553294662
:102BF00005981A33A7F8BA86CDF81491C7F8603152
:102C00000423ADF8183114F0D7FC0599304612F0C2
:102C10004CFA59234FF42E724FF441710698CDF8B7
:102C200000B0FEF794FC2846C7F894A1A7F8988155
:102C3000FEF7DEFC04F58D5395E8070083E80700F6
:102C400004F5B653294606980E33A7F8CE86CDF87C
:102C50001491C7F8AC310323ADF8183114F0ACFC73
:102C60000699304612F021FA592340F2752240F2BB
:102C700014410798CDF800B0FEF769FC2846C7F864
:102C8000E0A1A7F8E481FEF7B3FC07F5F67395E839
:102C9000070083E8070004F5B75329460798023375
:102CA000A7F8E286CDF81491C7F8F8310223ADF801
:102CB000183114F081FC0799304612F0F6F95923C7
:102CC00040F2962240F214410898CDF800B0FEF789
:102CD0003EFC2846C7F82CA2A7F83082FEF788FCF5
:102CE00007F50E7395E8070083E8070004F5B7536E
:102CF000294608981633A7F8F686CDF81491C7F838
:102D000044320123ADF8183114F056FC08993046CE
:102D100012F0CBF959234FF42E7240F21441099866
:102D2000CDF800B0FEF713FC2846C7F878A2A7F844
:102D30007C82FEF75DFC07F5217395E8070083E8C8
:102D4000070004F5B853294609980A33A7F80A87FB
:102D5000CDF81491C7F89032ADF8188114F02CFC1E
:102D60000999304612F0A1F93146029812F060FE3E
:102D7000224E31234FF4BC7240F27B113E98C7F8CB
:102D80009C62009340F20B23FEF7E1FB2846C7F854
:102D9000F0A2A7F8F482FEF72BFC07F53F7395E845
:102DA000070083E8070004F5B85329463E981E3310
:102DB000A7F81E87CDF81491C7F808333723ADF86C
:102DC000183114F0F9FB3E99179812F06EF9179923
:102DD000029812F02DFE3F990298C7F8146312F082
:102DE00027FE4146029812F014FE201D029912F0AF
:102DF0005CF9204649B0BDE8F08F00BF0005200314
:102E000088BC0308044B10B5044640F86C3B12F034
:102E1000E7FB204610BD00BF28BD030810B50446DF
:102E2000FFF7F0FF41F22471204628F087F9204691
:102E300010BD7047704770474160704770477047DA
:102E4000012303727047704710B441680346C2689B
:102E50009B68541001EB6200D20748BF0A595DF825
:102E6000044B48BFD35818470346406830B19A68AE
:102E70001AB9D86800F0010070470120704710B5FA
:102E800004460C2128F05AF9204610BD10B504461E
:102E9000102128F053F9204610BD10B504464FF418
:102EA000AE7128F04BF9204610BD10B516F0C2FCEB
:102EB0000368BDE81040DB6B184700002DE9F14FB7
:102EC000D0E9556A0746B06803681B6A984741F223
:102ED0002373984205D8444BA321444A44482FF019
:102EE000ABFC706803681B6A98470F2803D8414BF6
:102EF000A4213E4AF2E7F06803681B6A98470B2852
:102F000003D83D4BA521394AE8E7DFF8F49016F0E5
:102F100091FC043016F0CEFCD9F8000010B1036823
:102F2000DB689847D9F8000010B103681B68984720
:102F3000DFF8D080D8F8000010B103685B699847CB
:102F4000D7F83C0110B103685B689847D8F80000D7
:102F500010B103681B689847D7F83C0110B10368AB
:102F60009B689847F06800214FF0000B03685B6A8C
:102F70009847224B0446C0F804B080F808B0594680
:102F80000360B06803685B6A98470546FDF714FE66
:102F90007068594603685B6A984706462946FDF7FC
:102FA000E7FD331DC7F83C612846CAF840302B685E
:102FB000C6F808A0DB68C9F80040C8F80050EE6306
:102FC0009847336830461B6898472146284618F0D2
:102FD00020FA236820461B699847236820465B69CE
:102FE00001B0BDE8F04F1847A7A0030835A10308BA
:102FF00007A203084CA20308EFA20308C8BD0308F8
:1030000094CE022498CE0224044B1B6893F85C20D3
:103010000AB1186D00B99868704700BF54CE0224F9
:10302000F8B5174604460E4616F01AFD124B002559
:103030001C602946114B2360114BC4E95135114BDB
:103040001868C4E953550368C4E94F559B68C4E93F
:1030500055769847284600F0D5F9FFF7D5FF20F0C0
:10306000A2FEFFF7D1FF20F019FFFFF7CDFF20F000
:1030700021FF2046F8BD00BF9CCE022474BD03088A
:103080005CBD030854CE0224064BC0F84801C0F8CA
:103090004C310023C0F8503100F5A273C0F8403124
:1030A000704700BFBD2E000813B5002451B103685E
:1030B00001AA01948DF803409C680DF10303A04719
:1030C00002B010BD0846FBE7C0897047008A704710
:1030D000C088704780887047807A00F07F00704712
:1030E000807AC00970470020704700009FED010AF8
:1030F000704700BF00000000406A7047806A704758
:1031000070470B888A889BB2D20A10B54C88C16977
:1031100043EA044351F82200184410BD10B5044698
:10312000BAB1107B68B1537BD27A1B0203F4E0631F
:103130001A43236A03EB82031A888A4202D193F965
:10314000020010BD05D80138043380B20028F3D145
:10315000F7E70020F5E710B504462C2127F0EEFF35
:10316000204610BD30B58BB00446BDF860500895C0
:10317000BDF85C5007959DF8505006959DF84C5051
:1031800005959DF8485004959DF8445003959DF889
:10319000405002959DF83C500195BDF8385000957F
:1031A00017F0AAFD064B20462360159BE361169B92
:1031B0002362199B63621A9BA3620BB030BD00BFF0
:1031C000ECBD03087047000030B5174D8FB02C6878
:1031D000BFF35B8F14F0010422D1284627F0B0FF23
:1031E000F0B13F23262211490993114B114808934E
:1031F000114B0A940793012304940194CDE90533FC
:103200000423CDE902431E23CDE90B44009324237C
:10321000FFF7A8FF09482FF02FFB284627F0ACFF47
:1032200004480FB030BD00BFDC8100244006040814
:10323000F8090408E0810024B00A0408C531000838
:103240007047000030B5174D8FB02C68BFF35B8F0F
:1032500014F0010422D1284627F072FFF0B12E238A
:103260001E2211490993114B11480893114B0A94DE
:103270000793012304940194CDE905430423CDE988
:1032800002431423CDE90B4400931823FFF76AFF90
:1032900009482FF0F1FA284627F06EFF04480FB0D6
:1032A00030BD00BF0C82002454080408600A0408E2
:1032B00010820024B40A040841320008704710B597
:1032C0000446042127F03AFF204610BD08B519B185
:1032D000012905D0002008BD00F00EF80068FAE7CB
:1032E00000F00AF84068F6E70048704760BE03083F
:1032F000142070473C207047004870473C820024EF
:1033000010B5044CFFF760FF2060FFF79BFF606083
:1033100010BD00BF3C820024002070470020704791
:103320000EB403B503AB002153F8042B019317F03F
:1033300013FB02B05DF804EB03B070470CB407B5A3
:1033400004AB53F8042B019317F006FB03B05DF8B0
:1033500004EB02B070470000436C10B5044673B331
:10336000038F2BB9184BC521184A19482FF064FA5E
:10337000C38E00EB43035B8C0BB318F0D2FD238F9D
:10338000012B03D8134BCB21134AEEE7E28E40F614
:103390003F10531C9BB2092B194688BFA3F10A01A9
:1033A00004EB4101498C814209D10A2B04EB420212
:1033B00028BF0023508C04EB4303588451842046DB
:1033C000BDE8104018F0B1BC92A303089BA303080A
:1033D00046A403088EA403089CA4030818F06DBC3F
:1033E00010B586B002AC84E806001A460AAB214646
:1033F00005930193099B0093089B15F08FFD06B080
:1034000010BD000038B518BB124B13481C68134997
:10341000B4B1226822440260626822440A60A26851
:1034200014440F4B00221A80FFF766FF0546FFF792
:1034300061FF0C4B1C600C4B1D600C4B188007E0AF
:103440000B4B03600B4B0B600B4B1C68002CE8D143
:1034500038BD00BF508200244882002444820024EA
:103460004C820024ACCE0224A4CE0224A0CE02249E
:10347000B80A0408940B0408F0BF0308044B1B6847
:1034800053F82100034B1B6803EB4000704700BF5B
:103490004482002448820024012380F87C1080F8B4
:1034A0007D3070477047002070470000816400390C
:1034B000024B18BF01211970704700BF47CE02248C
:1034C000704700207047C36B0BB108461847704720
:1034D0004FF6FF707047406803689B691847704754
:1034E00070470000034B902283F85A2383F8582337
:1034F000704700BF00E100E0094A0A49D3680A4862
:10350000C3F30A03013B9BB20B801169C1F30A01AB
:10351000013901801364536B43F001035363704717
:10352000001000505682002454820024014BD3F82E
:10353000AC00704700100050024B0122C3F8AC10E1
:103540005A627047001000500163C0E90D217047B6
:10355000704700EB8100114640680368DB6818473C
:1035600080F83C107047000038B5044612F065FD45
:1035700023689D6E16F05EF901462046A847236831
:10358000094A4FF05041D3F88C5020460023A847F9
:103590006368064A5364064B5A60064A1A639A6384
:1035A0004FF416225A6338BD00E02ED0A0820024CA
:1035B0005882002400C05DD012F026BD38B5044604
:1035C0000D46406C4FF0FF3103F02CFB606C03F0B4
:1035D0004CFB242303FB0545002385F8283094F891
:1035E00028300BB9236BA36338BD12F0D6BC12F0A0
:1035F00054BE10B5044613F0E7FA23682046D3F80A
:10360000BC30BDE81040184710B5044612F006FE65
:1036100060680368BDE810401B69184710B5044690
:10362000482127F08BFD204610BD000090F838108F
:103630000D4B10B590F87C401A788C4209D03AB9FD
:103640000A490B4A08881488108001220C801A70DD
:1036500010BD002AFCD0064A0449148808880C8052
:1036600010800022F3E700BF46CE02244ECE022493
:1036700050CE0224124A5369DB0370B51ED50023D5
:10368000C2F88430BFF34F8FD2F8803043F6E07435
:10369000C3F3C900C3F34E335B0103EA04060146DA
:1036A00046EA81750139C2F87452F9D2203B13F110
:1036B000200FF2D1BFF34F8FBFF36F8F70BD00BFEC
:1036C00000ED00E008B5094B1B888B4203D8084B7E
:1036D0001B88934205D9074BA521074A07482FF0BD
:1036E000ABF8074B1980074B1A8008BD50CE022457
:1036F0004ECE02246EA50308D1A5030814A6030824
:103700004CCE02244ACE022408B531B1044B4FF40A
:10371000B871044A04482FF08FF890F8290008BDCA
:1037200057A603086BA60308F5A7030810B531B127
:10373000064B4FF4B571064A06482FF07DF84068F5
:1037400011460368BDE810401B6B184757A60308D5
:1037500036A80308F5A7030808B529B1034B79215A
:10376000034A04482FF068F8C06808BD57A603084C
:10377000E4A90308F5A7030810B5044629B1194BBD
:10378000A221194A19482FF057F8052A15D8DFE861
:1037900002F0031115171C22406803681B69984743
:1037A00058B1012384F8293084F82C300023C4E96F
:1037B000043302E0002380F8293010BD0362F5E7EE
:1037C0000362012380F82A30F0E7002380F82930D3
:1037D00001230362F1E7003B18BF012380F82D307D
:1037E000EBE700BF57A6030899AB0308F5A703084A
:1037F00010B50C4611461A462CB1064B9021064ACC
:1038000006482FF019F8C46040680368BDE810400E
:103810009B68184757A603086DAD0308F5A7030872
:1038200008B529B1054B8221054A06482FF004F856
:10383000C0E90411C0E9063208BD00BF57A603085D
:1038400048AF0308F5A7030890F83D3010B50446CB
:1038500053B14FF0FF31406C03F0E4F9002384F8DA
:103860003D30012384F83E3010BD00002DE9F041C9
:103870000D460446194635B9154B40F20131154A3B
:1038800015482EF0D9FFC0E91052003A0368134ED4
:1038900018BF0122D3F8903032709847E569A5B17E
:1038A0002B681F68337873B1236820465B6B984799
:1038B000236C834207D1616C094B28461A883B462A
:1038C000BDE8F0411847216CF6E7BDE8F08100BF84
:1038D00004B103083CB1030814A6030848CE02242F
:1038E0004CCE022410B50446104629B1134BD0210A
:1038F000134A14482EF0A0FF94F8293033B1124B2C
:103900001B6893F86F2063691344636194F82B304C
:103910000BB9012010BDA368036303685B69984776
:10392000002394F82C0084F82B300028F1D194F86F
:103930002D30002BEED184F82900EBE757A60308C1
:103940008AB10308F5A7030854CE022470B51A4CB7
:10395000054612F065FB94F8293013B994F82A3023
:10396000ABB1E169D4E90532534322694A4393423A
:103970000DD394F83C0038B19B1AB3FBF1F2994295
:1039800098BF02F1FF326262012384F82E300123D6
:10399000206C84F83D3003F0FDF994F83E302BB1F3
:1039A000606C03F062F9002384F83E3068680368B5
:1039B000BDE870401B69184758820024034690F800
:1039C0007E0018B1586803681B68184770470000EC
:1039D000084B4FF08062C3F88820BFF34F8FBFF3CE
:1039E0006F8F4FF08072C3F88820BFF34F8FBFF303
:1039F0006F8F704700E100E0034B4FF080629A60E8
:103A00004FF080729A60704700E100E0034690F842
:103A1000280070B5C8B901229D6BD8609A624FF436
:103A2000807205F5162418619A8558619861D861ED
:103A30001862586283F82E00D3E90C26324494426F
:103A40000AD90B4B52210B4A03E00B4B40F2C51134
:103A50000A4A0B482EF0F0FE9D609C634FF42073E1
:103A600081F83400CB864FF4F07308630B8770BD88
:103A7000E2B403081DB503082BB303085BB30308C6
:103A8000F5A7030838B5184C23685BB3174B184AE1
:103A90001B6C11888B4216D1164B0025198805F036
:103AA000C7F8236893F86E2083F88050013283F8BA
:103AB0006E2000F067FB206813F086F82846BDE80A
:103AC000384001F0C6B905F0B3F8246823682046F1
:103AD0001B6A98470123002084F88030BDE83840F5
:103AE00001F0B8B938BD00BF54CE02240010005018
:103AF00056820024548200242DE9F743044601260F
:103B00004FF4A0674FF0FF31206C03F017F94FF02E
:103B1000FF31606C03F086F894F82E3043B365688B
:103B2000D4F820802B6884F82B60B8F1000F23D0E4
:103B30005B6A414628469847002323622B684FF46E
:103B4000207200972846D3F814804FF4F073A168D0
:103B5000C047236984F82C0001332361F0B12B683E
:103B600028469B6A984701380023E06084F82E308D
:103B7000606C03F07AF8C5E7626A002ADED0284656
:103B8000D3E909939847616A01442846C8472369E5
:103B9000626AC4F8248013442361CFE70120E3E77D
:103BA000014808B5FFF7A8FF5882002438B514482B
:103BB000002500F0BBFC134C134B2A46294601207C
:103BC00023604FF48073A563A387A38584F83E50D8
:103BD00084F82E50C4E90C55C4E91055C4E90155C8
:103BE000C4E90355C4E90555C4E90755C4E90955B5
:103BF00003F05AF82064284602F0DFFF606438BD05
:103C0000A082002458820024FCBF030803685B6C78
:103C100018470120704740F2EF307047104B07B54E
:103C2000D3F8D42005215A2042F01002C3F8D42042
:103C3000D3F8D42002F010020192019ADA6F42F018
:103C40001002DA67DA6F22F01002DA67002204F05D
:103C5000CDF85A2003B05DF804EB04F0F9B800BFCA
:103C60000044025810B504464FF0FF31D0F8A40DBF
:103C700002F0D8FF606803681B68984778B9637AD8
:103C80006BB1237A5BB984F8A03D204623685B6A58
:103C90009847D4F8A40DBDE8104002F0E6BF0B49E8
:103CA0000B4A0B681B01D35C012BF2D1207A002850
:103CB000EFD1A07A0028ECD1086884F8A03D02EB8F
:103CC0000010237201F03AF8E3E700BFDCAA0024F9
:103CD0000C000024054B4FF080620360044BC3F8D6
:103CE0008820BFF34F8FBFF36F8F704740C003082A
:103CF00000E100E010B5044640F6A851FFF7EAFFE6
:103D0000204627F01BFA204610BD000008B50A28FF
:103D100009D8DFE800F006100E0808080810101097
:103D20001000022008BD054B8D21054A05482EF0E4
:103D300083FD0020F6E70120F4E700BFC0B60308CA
:103D4000DBB6030826B7030838B50C46887FFFF7B3
:103D5000DDFF124BA58AE28A586342EA05422169D7
:103D60005A64628BD963521B1A642568082D0ED1E0
:103D70009A611A6158620A4A207F42EA0062DA6157
:103D8000E2681A62074A5961D9601A6038BD002298
:103D9000D8611A61E2689A63034AF6E7001000529C
:103DA00009000100012302000123030008B50B28CC
:103DB0000BD8DFE800F00612100A0A0A0A08080801
:103DC0000808022008BD0520FCE7054B6C21054AC8
:103DD00005482EF031FD0020F4E70120F2E700BF96
:103DE000C0B6030851B7030826B703082DE9F04110
:103DF00091F81D800C464046FFF7D8FFA77F054687
:103E00003846FFF7D3FF06463846FFF77FFFA18A03
:103E1000628B434B521A1A649A61228B521A1A61AE
:103E2000E28A586342EA014221695A646268D963AE
:103E3000DA602068802828D0227F0FD8202866D01A
:103E4000402864D004281AD045EA0265344BB845AE
:103E500045F40035DD6160D0324A44E0B0F5807F42
:103E600004D0B0F5007FEFD12F4800E02F4840EAA2
:103E70000262DA61E2681A625E62596132E045EA22
:103E8000026242F40032DA61F6E7A068021DDA62EB
:103E9000227F45EA026545F40035DD615E625961C5
:103EA000017841B1012921D0214B40F21711214A5B
:103EB00021482EF0C1FCDA69418822F47F420139A1
:103EC00022F0100242EA01220121DA61144BDA6980
:103ED00042F02002DA61DA699206FCD410229A607C
:103EE0000029B9D0154A1A60BDE8F081B2F1FF018E
:103EF000DA69408822F47F4218BF0121013822F09C
:103F0000100242EA002242F01002DA61DEE745EADE
:103F10000262034B42F40032B5E742F20132E2E7BB
:103F20000010005201230100090002000A000200F3
:103F30009BB70308B5B7030826B70308012302009F
:103F400090F8A03D10B50446D3B903689B6A984722
:103F500019491A4A0B681B01D35C012B2AD1184856
:103F6000006838BB207A28BBA07A18BB086884F8A0
:103F7000A03D237202EB0010BDE8104000F0DEBE51
:103F8000037A43B1002303720B4B18680B4B03EB0E
:103F9000001000F013FF606803681B68984748B979
:103FA000637A3BB1236884F8A00D20465B6ABDE8C4
:103FB0001040184710BD00BFDCAA00240C000024EC
:103FC000D8AA0024094B5A6891070ED51A689205A1
:103FD0000BD51A6822F400721A6002229A60044B10
:103FE0001B68586803685B691847704700100052E7
:103FF00054CE022470B504460E4B0C3000262546E4
:10400000602260602672667245F8203B294612F0F5
:1040100019FF04F55A63EE6024359D42FBD184F804
:10402000A06D0020C4F8A46D02F0C7FDC4F8A40D73
:10403000204670BD40C00308034B1A68D207FCD469
:1040400023229A60704700BF001000520B4A536948
:10405000DB0311D500290FDD00F01F031944BFF366
:104060004F8F0144C2F8680220300B1A002BF9DC94
:10407000BFF34F8FBFF36F8F704700BF00ED00E0BD
:1040800030B50F4C2568ED07FCD423251204FF2B17
:10409000A56042F001024FF0020565636264E063CF
:1040A000E16008D01B0643F00213E361054B656233
:1040B0006061236030BD044BE3610123F9E700BF79
:1040C0000010005201000200020002FF30B50B4C4C
:1040D0002568ED07FCD4232512041B06A56042F0D9
:1040E0000102022543F4003365636264E063E1602A
:1040F000E361034B65626061236030BD00100052D4
:10410000010002000121002208B5084602F0CCFDA2
:104110000A4B186028B90A4B28210A4A0A482EF08F
:104120008BFB00220421012002F05DFE074B18608A
:1041300018B9074B2C21034AF0E708BDEC82002494
:10414000F3B703083CB803086BB80308E8820024FF
:1041500098B80308024B4FF0FF31186802F0EEBD2B
:10416000EC820024014B186802F014BEEC8200249B
:10417000024B0021186802F0E1BD00BFEC82002470
:10418000FFF7F0BF0023034803491A46006802F016
:1041900065BE00BFE88200240400002413B500239C
:1041A000074C01A91A46206802F089FE4FF0FF3340
:1041B000002201A9206802F082FE02B010BD00BFFB
:1041C000E8820024012070470C2070470C2303FB79
:1041D0000100083070470C2303FB010008307047D2
:1041E0000120704741F22470704741F2247303FBB1
:1041F00001000830704741F2247303FB01000830CE
:104200007047012070471020704700EB0110083004
:10421000704700EB0110083070470846FEF734BFC6
:10422000034B10B50446036010F028FF204610BD74
:10423000F8C0030810B50446FFF7F2FF142120462A
:1042400026F07CFF204610BD034B10B504460360EA
:1042500010F014FF204610BDC4C0030810B504467A
:10426000FFF7F2FF41F22C71204626F067FF20464F
:1042700010BD0000034B10B50446036010F0FEFEB5
:10428000204610BD90C0030810B50446FFF7F2FFAA
:104290001821204626F052FF204610BD094B10B5CC
:1042A0000446036000F5BA501830FFF7B9FF04F177
:1042B0002C00FFF7C9FF04F11400FFF7DBFF2046D5
:1042C00010BD00BF2CC1030808B50248FFF7E6FF88
:1042D00008BD00BFB891002410B50446FFF7DEFF0B
:1042E00041F60C11204626F029FF204610BD0000A3
:1042F0002DE9F341FEF7F8FF00240546FEF7F8FF2D
:104300002346014622462846009418F013FC264B0B
:10431000264A2046264D1A60FFF774F8254818F003
:104320006FFB2B68BFF35B8FDB0736D4284626F084
:1043300007FF90B3204C214F214B04F1140007F1EB
:10434000580604F12C0823606060C4F80880E76018
:10435000266110F095FE1B4B4046636110F090FE05
:10436000194B3846E36210F08BFE04F58053174A70
:1043700003F26C70C3F85827FCF778FD224607F16A
:1043800014013046FDF70CF83046FEF77DFE10486C
:104390002EF072FA284626F0EFFE0E4802B0BDE875
:1043A000F04100F030BD00BFA8CE02247883002485
:1043B000B491002408000024B891002410A900241E
:1043C0002CC1030890C00308C4C00308F8C0030848
:1043D000C9420008F082002470470000014811F033
:1043E00040BE00BFF082002470B5254E254B264C00
:1043F0003046264D2360FFF7FDFD28461DF022FEC6
:10440000234B00224FF4807122481A639A8683F866
:104410005C209A6683F874209A67DC60C3E9131203
:104420001D49C3E91B121D49C3E91F011C491D4851
:10443000C3F884101C49C3E90422C3E90622C3E976
:104440000822C3E90A22C3E90F22C3E91122C3E902
:104450001522C3E91822C3E901650B604FF4A0617E
:1044600083F838200180114801804FF448711048CA
:1044700001801048018010490A70104A1A6070BD0E
:104480000884002470C20308B09100247C830024B7
:10449000F082002400000101010000010004C800B6
:1044A0004200140050CE022454CE02244CCE0224EA
:1044B0004ECE02244ACE022446CE022484C10308F2
:1044C0000148FFF707BC00BF08840024406970471B
:1044D00090F840007047036B23B9C06A003818BFDA
:1044E0000120704701207047806870477047043092
:1044F00010B50C460FC884E80F0010BD70470000CF
:1045000008B5034A4FF4E571024B03482EF094F9C5
:10451000DAB8030899A3030835B9030810B50446AF
:10452000482126F00BFE204610BD000000220E4B55
:1045300010B5114604460360C26380F84020C0E90C
:104540000522C0E90722C0E90922C0E90B22C0E91F
:104550000D22C0E90322C0E90122012002F0A4FBE0
:10456000024B1860204610BD40C10308E0AA002499
:1045700010B40C4611461A46036B3BB1C36B406B3B
:10458000E41A20445DF8044B30F076BDC06AF8E7C9
:10459000036B10B573B1C36B426BC91A5318525CED
:1045A00098785C78000440EA04201043DB7840EA05
:1045B000036010BDC26A5318525C597898780004A1
:1045C00040EA0120F1E7036B43B1C36BC91A436BA7
:1045D0005A18585C527840EA02207047C36A5A1849
:1045E000585C537840EA03207047000070B50446D9
:1045F000006B0D461646D8B1A36B934208D209232F
:104600000D4AA1210D4884F840300D4B2EF014F9CD
:104610000368DB689847206B3246616B03681B694F
:10462000984710B90D2384F84030606BE56370BD86
:10463000E06A0844FBE700BF7FB9030835B9030807
:104640006CB903082DE9F843436904462BB9224BA2
:10465000E721224A22482EF0EFF808228169FFF76D
:10466000C5FFA16943F2300646F2643704312046A3
:10467000FFF78EFFA3691844A36A00F108029A426B
:1046800006D3012300206361236AA361BDE8F88398
:10469000636900F1090108222046013321F001017C
:1046A0006361A161FFF7A2FFD4F818902046494644
:1046B000FFF789FF09F1020180462046FFF783FFDB
:1046C00009F1040105462046FFF762FFB045D1D14C
:1046D000BD42CFD10120D9E7C1B903080ABA030806
:1046E00035B903080129036838BF0121DB6A70B5B9
:1046F0000D4604469847A84204D223682046DB6A48
:10470000984705466B1EE6691022204606EB031605
:1047100006F10801FFF76AFF06F110012046FFF7D6
:1047200037FF236A043B0344C4E9055370BD00000E
:10473000002148222DE9F0410446816180F84010B3
:10474000FFF754FFA6690423634A31462046FFF76A
:104750000FFF48B10323614A40F22F1184F8403023
:104760005F4B60482EF068F806F1080104235E4AAA
:104770002046A161FFF7FCFE38B10423574A40F2FE
:10478000371184F84030594BEBE706F10C01042354
:10479000574A2046A161FFF7EBFE074638B10523D3
:1047A0004E4A4FF49F7184F84030524BD9E706F1DE
:1047B00010012046FFF7ECFE054620B94E4B4FF4A2
:1047C000A271464ACDE706F1140804234B4A20465D
:1047D0004146FFF7CDFE002849D0062384F840303B
:1047E0000423474A06F118012046FFF7C1FE0028BE
:1047F0003FD0072384F840304544424F0C222046E6
:104800002946FFF7F3FE05F1080604233A46204641
:104810003146FFF7ADFE94F84030002848D0002B19
:1048200048D1A36AAB4249D805F10C0304352046B0
:10483000A3612946FFF7ACFE30442946606220465A
:10484000FFF7A6FE0644042220463146FFF7CEFEBF
:1048500004232D4A31462046FFF78AFE002838D12E
:104860000123E6616361A3692362BDE8F08101274A
:10487000B6E7002FC0D006F120012046FFF788FEE2
:104880004FF47A7306F13001B0FBF3F0606020461C
:10489000FFF77EFE06F14001A0602046FFF778FE9C
:1048A00006F14401E0602046FFF772FE2061A3E7B5
:1048B000002BB9D00A2384F84030D6E7291D2046C2
:1048C000FFF766FE85190C2220462946FFF78EFE6B
:1048D00099E70B23EFE700BF3DBA03085BBA030873
:1048E00042BA030835B9030888BA03088DBA030829
:1048F000A5BA0308AABA0308C0BA0308CCBA0308C9
:10490000D1BA0308D6BA0308DBBA0308C0E90A2102
:1049100000220263FFF70CBF10B5002304460846CF
:10492000E3620B6821639B689847A0622046BDE85C
:104930001040FFF7FDBE000037B5134B0024134DA8
:104940001C60134B1C60134B2C601C60124B1960D5
:10495000124B1A60124B1C60124B2A684FF4C07540
:104960001C701C74C3E90244C3E9064403EB021340
:104970000D4AD2686A4300924FF450425B680AF0D5
:1049800001FD204603B030BDFCAA0024ECAA00249F
:10499000DCAA00240CAB002404AB002408AB0024E8
:1049A000E4AA00240C000024C4AA00244B68012BB4
:1049B00015D1CB681A071EBF23F00F031033CB604D
:1049C0008B6818071EBF23F00F0310338B60CB6872
:1049D0008A681B09120953430E4A13607047022B61
:1049E0000ED1CB681A0703D023F00F031033CB602E
:1049F0008B685A071EBF23F0070308338B6070478C
:104A0000002BFCD1CB685807F2D023F00703083302
:104A1000EDE700BFF4AA00240B4A13680B4430B43E
:104A200013600A4A126893420CD2094CD21A2568C4
:104A3000B2F5504F294428BF4FF45042216030BC9A
:104A40000AF002BD30BC70470CAB002408AB002458
:104A500004AB0024F8B5204C0121204D0646236804
:104A60001F4F1B01E954236805EB03139A601D4B8C
:104A70001968226805EB0212D1601A68F9680A44C5
:104A80001A602368013323602368012B01D90023B6
:104A9000236023681B01EB5C33B1022130460AF02E
:104AA000A5FC114B01221A6022683046FB6805EB19
:104AB00002154FF4C07269685A430AF0C8FC0B4BE8
:104AC0001B681A7A3AB99B7A2BB9094B1868BDE86A
:104AD000F84002F05FB9F8BDECAA00240C000024F5
:104AE000C4AA0024E4AA0024FCAA0024F0AA0024FA
:104AF000E0AA002472B6FEE7014B01221A6070475B
:104B000000AB002438B5164D04462B6813B1154B85
:104B10001B681BBB144B1868037A63B9134B144A08
:104B20001B681B01D35C012B05D10E4B1B6813B90D
:104B300003681B6998470F4A1368012B0CD10E4B71
:104B40000B491B681B01CB5C33B92B6823B90221CD
:104B5000204613600AF0A7FE022038BD0120FCE7C2
:104B600000AB0024D8AA0024F0AA0024DCAA002468
:104B70000C000024FCAA0024ECAA002470B5054611
:104B8000002A3BD0002B39D01D4802240461EC6878
:104B900026074FF4A06618BF24F00F04466018BF24
:104BA000103404602409C4602C6914F00F0418BF89
:104BB000C4F1100484600698124C4008206012482A
:104BC000124C03601248FFF7B7FE6A6C114B104D90
:104BD0001A602846FFF796FF20602368022B05D154
:104BE0000D4B4FF0FF31186802F0A8F82368012B35
:104BF000EFD10023094A1360094A136070BD00BF5A
:104C0000C4AA0024E8AA002410AB0024F8AA0024B7
:104C100054C00224F0AA0024E0AA002400AB00241F
:104C2000D8AA00242DE9F04F9946436985B004467F
:104C30000F4690462BB9294BB321294A29482DF01C
:104C4000FBFD08228169FFF7D1FCA66920463146A9
:104C5000FFF7B9FCB11C83462046FFF7B4FC311DB9
:104C600082462046FFF794FC06F10801A36A054638
:104C70000A189A4226D243F230039B4517D146F2D6
:104C800064339A4513D190B10246A1612046FFF7E3
:104C9000ADFC0E9B01462A462046CDF80080CDE9AA
:104CA00001933B46FFF76AFF636901336361A369C0
:104CB0002B4405B908330133626A23F001039342A0
:104CC000A36109D1012301206361236AA36180F0FC
:104CD000010005B0BDE8F08F0020F8E7C1B9030876
:104CE000E0BA030835B90308F8B5044681691646E9
:104CF0000822FFF77BFCA7692046391DFFF748FC17
:104D000007F10801024605462046FFF76FFC014601
:104D10006EB12A46074C084D33460748FFF70CFE94
:104D20002846FFF7EFFE20602368002BF8D0012013
:104D3000F8BD00BFF8AA002454C00224D0F80CC06B
:104D400017494FEA0C120B68B2FBF3F24B68F0B54F
:104D50005A430224134B144D12015C63CF682D6833
:104D60003E01ED1B3C05AC4515D38968C1F110012E
:104D7000214359640D4909680A44DA630C4A1268F0
:104D8000921B1A6400221A610A4ADA614268DA60E8
:104D9000094A1A60F0BD44F010045C64EAE700BF01
:104DA000C4AA002400100052F4AA002410AB00246E
:104DB000E8AA00240B0009FF012301000C4B00228C
:104DC000027019688260013119601968012900D9DF
:104DD0001A60084B084A1B68D2689B1AC2689A423C
:104DE00002D3064B01221A60054B186801F0D2BFAE
:104DF000DCAA0024F4AA0024C4AA0024D8AA00240F
:104E0000E0AA0024704710B50446FEF7ADFB02236C
:104E100084F86C3010BDFEF789BBFEF78DBBFEF742
:104E2000E4BBFEF7E4BBFEF75DBBFEF7E5BDFEF7B6
:104E3000CFBDFEF761BBFEF7BFBBFEF787BD11F02C
:104E4000A6B810B50446882126F078F9204610BD92
:104E500070477047704770477047000010B5124C9C
:104E600001228021204603F0AFFA642002F06AFBA1
:104E700000228021204603F0A7FA642002F062FBA2
:104E800001228021204603F09FFA4FF47A7002F04D
:104E900059FB09200022072102F0A8FF0920BDE8E4
:104EA000104002F0D5BF00BF0018025870B588B09E
:104EB00010260D46144604AB32460021184630F049
:104EC00021F81A4A117811B9002008B070BD0021EC
:104ED000012311706422009082211548CDE90162FE
:104EE000324603F00BFC0028EED19DF911309DF8FD
:104EF0001120002BE8DA9DF810000128E4D102F01F
:104F00003F029DF812309DF8131043EA0223094A2C
:104F100001F03F01084E13609DF8142042EA01227F
:104F200032602B6033682360CFE700BF1CAB0024E6
:104F300028BF022418AB002414AB002410B504468B
:104F4000042126F0FBF8204610BD0000082802D1FD
:104F5000014B01221A7070471CAB0024704708B542
:104F6000FFF73AFABDE80840FFF7C2B9FFF736BAD3
:104F700000F108034FF0FF3243600361C0E90223F0
:104F800000230360704700230361704743689A68F9
:104F90004B608A6051609960036808610133036067
:104FA000704730B50C68631C0AD103695A684A60BF
:104FB00091608B605960036808610133036030BD04
:104FC00000F10802134652681568A542FAD9EDE7C8
:104FD0000369D0E901128A6051605968814208BFB3
:104FE0005A60002202611A68013A1A601868704714
:104FF00010B5044602F026F9A46B02F043F9B4FAA6
:1050000084F0400910BD70B51646026C0446856BED
:1050100042B906689EB9806801F092FAA66001352F
:10502000A56370BD6EB94068FBF70AFB6368226C2C
:105030001344A2689342636024BF23686360002026
:10504000EDE7C068FBF7FCFA226CE36851429B1A5B
:1050500022689342E3603EBFA3685B18E360022EC0
:10506000EDD10DB1013DEAE72846D8E703460846F1
:105070001A6C10B462B1DC68996814448C42DC602C
:105080005DF8044B24BF1968D960D968FBF7D8BA1A
:105090005DF8044B704770B5044602F0D3F894F8FD
:1050A000455004F124066DB2002D01DD636AB3B9E9
:1050B000FF2304F1100684F8453002F0E3F802F013
:1050C000C1F894F844506DB2002D01DD23697BB91D
:1050D000FF2384F84430BDE8704002F0D3B8304676
:1050E00001F04AF908B101F0D1F9013D6DB2DBE7F9
:1050F000304601F041F908B101F0C8F9013D6DB247
:10510000E2E738B50D46044640B94FF0500383F34B
:105110001188BFF36F8FBFF34F8FFEE702F092F855
:105120002268D4E90F3162604B43D0185B1AA0604B
:105130001A440020FF23E260A06384F8443084F81E
:105140004530A5B9236973B104F1100001F014F9D9
:1051500048B14FF0E0234FF08052C3F8042DBFF365
:105160004F8FBFF36F8F02F08DF8012038BD04F12F
:105170001000FFF7FDFE04F12400FFF7F9FEF2E74F
:1051800037B50D461C4640B94FF0500383F31188E4
:10519000BFF36F8FBFF34F8FFEE743B94FF050035C
:1051A00083F31188BFF36F8FBFF34F8FFEE74AB1D0
:1051B00091B94FF0500383F31188BFF36F8FBFF3A2
:1051C0004F8FFEE741B14FF0500383F31188BFF3D7
:1051D0006F8FBFF34F8FFEE750230193019B502B3E
:1051E00008D04FF0500383F31188BFF36F8FBFF3E4
:1051F0004F8FFEE70121002D08BF2246019B84F856
:1052000046102260C4E90F052046FFF77AFF9DF89B
:105210001830204684F84C3003B030BDF8B50D4648
:105220001746064640B94FF0500383F31188BFF389
:105230006F8FBFF34F8FFEE74843503001F0C4FE3D
:10524000044670B1002380F8463065B100F1500388
:10525000012120462360C4E90F65FFF752FF84F85F
:105260004C702046F8BD0346F2E713B513460C46D2
:1052700040B94FF0500383F31188BFF36F8FBFF332
:105280004F8FFEE7884208D24FF0500383F3118816
:10529000BFF36F8FBFF34F8FFEE702220092002211
:1052A0001146FFF76DFF00B1846302B010BD10B569
:1052B0000C4640B94FF0500383F31188BFF36F8F52
:1052C000BFF34F8FFEE7884208D24FF0500383F3BD
:1052D0001188BFF36F8FBFF34F8FFEE702220021CB
:1052E000FFF79CFF00B1846310BD2DE9FF410F461D
:1052F0001E460446019240B94FF0500383F31188D3
:10530000BFF36F8FBFF34F8FFEE751B9036C43B10B
:105310004FF0500383F31188BFF36F8FBFF34F8FAC
:10532000FEE7022E0BD1E36B012B08D04FF05003A8
:1053300083F31188BFF36F8FBFF34F8FFEE701F048
:10534000B1F8054620B300254FF0000801F07AFFC0
:10535000A26BE36B9A4227D2324639462046FFF7CA
:1053600052FE636A1BB104F1240001F005F848B154
:105370004FF0E0234FF08052C3F8042DBFF34F8F5E
:10538000BFF36F8F01F07EFF012004B0BDE8F08114
:10539000019B002BD8D04FF0500383F31188BFF34B
:1053A0006F8FBFF34F8FFEE7022ED5D0019B1BB945
:1053B00001F068FF0020E8E715B902A801F01EF827
:1053C00001F060FF00F0C6FD01F03CFF94F84430AE
:1053D000FF2B01D184F8448094F84530FF2B01D194
:1053E00084F8458001F04EFF01A902A801F012F8EF
:1053F00038BB01F027FFA26BE36B9A420ED101F09C
:1054000041FF019904F1100000F07EFF2046FFF7F4
:1054100042FE00F04BFE48B1012597E701F032FF54
:105420002046FFF738FE00F041FEF5E74FF0E0239D
:105430004FF08052C3F8042DBFF34F8FBFF36F8F2F
:10544000EAE72046FFF727FE00F030FEB2E7002231
:105450000B4613B5114600900120FFF791FE04465C
:1054600038B100231A46194683600360C360FFF712
:105470003CFF204602B010BD38B5044640B94FF09D
:10548000500383F31188BFF36F8FBFF34F8FFEE795
:10549000856801F001F885420BD1E368013BE360C8
:1054A0000BB1012038BD1A4619462046FFF71DFFF3
:1054B000F7E70020F6E770B50646502001F084FDBE
:1054C000044698B100250121006080F84650C0E9EB
:1054D0000F15FFF716FE2B462A462946204684F86C
:1054E0004C60A5602560E560FFF7FFFE204670BDBB
:1054F0002DE9F843894617461E46044640B94FF049
:10550000500383F31188BFF36F8FBFF34F8FFEE714
:1055100051B9036C43B14FF0500383F31188BFF3CB
:105520006F8FBFF34F8FFEE7022E0BD1E36B012B82
:1055300008D04FF0500383F31188BFF36F8FBFF390
:105540004F8FFEE701F090FFEFF311884FF050030B
:1055500083F31188BFF36F8FBFF34F8FA26BE36BA1
:105560009A4201D3022E1ED194F845503246494644
:1055700020466DB2A36BFFF746FD6B1C0ED1636A2C
:105580003BB104F1240000F0F7FE10B10FB101238C
:105590003B60012088F31188BDE8F88301356DB2C6
:1055A00084F84550F5E70020F4E770B50D46044651
:1055B00040B94FF0500383F31188BFF36F8FBFF3EF
:1055C0004F8FFEE7036C43B14FF0500383F3118814
:1055D000BFF36F8FBFF34F8FFEE7036853B9836844
:1055E00043B14FF0500383F31188BFF36F8FBFF3C4
:1055F0004F8FFEE701F038FFEFF311864FF05003B5
:1056000083F31188BFF36F8FBFF34F8FA26BE36BF0
:10561000934219D994F845100132FF294BB2A26385
:105620000DD1636A3BB104F1240000F0A5FE10B176
:105630000DB101232B60012086F3118870BD013369
:105640005BB284F84530F6E70020F5E72DE9FF412D
:105650000E460446019240B94FF0500383F311887F
:10566000BFF36F8FBFF34F8FFEE751B9036C43B1A8
:105670004FF0500383F31188BFF36F8FBFF34F8F49
:10568000FEE700F00FFF054618B300254FF00008B5
:1056900001F0D8FDA76B47B3013F31462046FFF725
:1056A000E5FCA763236973B104F1100000F064FE08
:1056B00048B14FF0E0234FF08052C3F8042DBFF300
:1056C0004F8FBFF36F8F01F0DDFD012004B0BDE807
:1056D000F081019B002BD9D04FF0500383F3118848
:1056E000BFF36F8FBFF34F8FFEE7019B1BB901F034
:1056F000C9FD0020EAE715B902A800F07FFE01F01D
:10570000C1FD00F027FC01F09DFD94F84430FF2B13
:1057100001D184F8448094F84530FF2B01D184F8FE
:10572000458001F0AFFD01A902A800F073FE00BBA7
:105730002046FFF75DFCB0B1019904F1240000F0B0
:10574000E3FD2046FFF7A7FC00F0B0FC48B94FF09E
:10575000E0234FF08052C3F8042DBFF34F8FBFF307
:105760006F8F012594E72046FFF795FC00F09EFC23
:10577000F7E72046FFF78FFC00F098FC2046FFF784
:1057800037FC0028EDD0B4E7F0B585B004460191B0
:1057900040B94FF0500383F31188BFF36F8FBFF30D
:1057A0004F8FFEE7056C45B14FF0500383F311882E
:1057B000BFF36F8FBFF34F8FFEE700F073FE064617
:1057C00020B32E46002701F03DFDA36B53B3013BF0
:1057D000A363236813B900F043FFA060236973B18A
:1057E00004F1100000F0C8FD48B14FF0E0234FF085
:1057F0008052C3F8042DBFF34F8FBFF36F8F01F0BA
:1058000041FD012005B0F0BD3546DBE7019B002BD3
:10581000FAD04FF0500383F31188BFF36F8FBFF3BB
:105820004F8FFEE7019B53B9002D66D04FF0500318
:1058300083F31188BFF36F8FBFF34F8FFEE716B965
:1058400002A800F0DBFD01F01DFD00F083FB01F07C
:10585000F9FC94F84430FF2B01D184F8447094F89B
:105860004530FF2B01D184F8457001F00BFD01A9F3
:1058700002A800F0CFFD50BB2046FFF7B9FB00B3F4
:1058800023683BB901F0DEFCA06800F01BFE054672
:1058900001F0F8FC019904F1240000F035FD2046E8
:1058A000FFF7F9FB00F002FC48B94FF0E0234FF09E
:1058B0008052C3F8042DBFF34F8FBFF36F8F0126C3
:1058C00081E72046FFF7E7FB00F0F0FBF7E7204613
:1058D000FFF7E1FB00F0EAFB2046FFF789FB002819
:1058E000EDD065B101F0AEFC616A19B1236B1968A6
:1058F000C1F13801A06800F065FE01F0C3FC002092
:1059000080E770B50D46044640B94FF0500383F36D
:105910001188BFF36F8FBFF34F8FFEE7866800F0EB
:10592000BBFD864204D1E36801200133E36070BD12
:1059300029462046FFF728FF0028F8D0E368013306
:10594000E360F4E72DE9F84389469046044640B900
:105950004FF0500383F31188BFF36F8FBFF34F8F66
:10596000FEE751B9036C43B14FF0500383F3118844
:10597000BFF36F8FBFF34F8FFEE701F075FDEFF3BD
:1059800011874FF0500383F31188BFF36F8FBFF37C
:105990004F8FA56B0DB394F8446049462046013DF6
:1059A00076B2FFF763FBA563731C11D1236953B172
:1059B00004F1100000F0E0FC28B1B8F1000F02D0B3
:1059C0000123C8F80030012087F31188BDE8F8836F
:1059D000013676B284F84460F5E72846F4E710B55E
:1059E000044640B94FF0500383F31188BFF36F8F23
:1059F000BFF34F8FFEE701F025FCA36BE46BE41AC5
:105A000001F040FC204610BD0023074A30B552F893
:105A1000335002EBC3041DB942F83310606030BD4F
:105A20000133082BF3D1FAE720AB00240023094A05
:105A300010B552F83310DC00814206D1064A00212D
:105A400042F833102244516010BD0133082BF0D1CD
:105A5000FAE700BF24AB002420AB002410B540B906
:105A60004FF0500383F31188BFF36F8FBFF34F8F55
:105A7000FEE7FFF7DBFF90F846301BB9BDE81040AA
:105A800001F03ABB10BD70B504460D46164601F054
:105A9000D9FB94F84430FF2B02D1002384F8443022
:105AA00094F84530FF2B02D1002384F8453001F0F3
:105AB000E9FBA36B2BB93246294604F1240000F020
:105AC0003DFC2046BDE87040FFF7E5BA2DE9F04106
:105AD000044601F0B7FB2F4B2F4E1A682F4F0132AF
:105AE0001A603568002D4AD134601B68012B1FD124
:105AF000B84601354046FFF73BFA08F11408382D47
