:020000040800F2
:1000000000000824C1D60108EDB90108EFB90108C4
:10001000F1B90108F3B90108F5B9010800000000C1
:10002000000000000000000000000000F1F50008E2
:10003000F7B901080000000081F6000815EE00087D
:1000400011D7010811D7010811D7010811D70108EC
:1000500011D7010811D7010811D7010811D70108DC
:1000600011D70108F9B9010811D7010811D7010802
:1000700011D7010811D7010811D7010811D70108BC
:1000800011D7010811D7010811D7010801BA0108D9
:100090000DBA010819BA01081DBA010811D70108E3
:1000A00011D7010811D7010811D7010811D701088C
:1000B00021BA010811D7010811D7010811D7010889
:1000C00011D7010811D7010811D7010811D701086C
:1000D00011D7010811D7010811D7010811D701085C
:1000E00011D7010811D701080000000011D701083D
:1000F00011D7010811D7010811D7010811D701083C
:1001000011D7010811D7010811D7010811D701082B
:1001100011D7010811D7010811D7010811D701081B
:1001200011D7010811D7010811D7010811D701080B
:1001300011D7010811D7010811D7010811D70108FB
:1001400011D7010811D701080000000000000000CD
:1001500011D7010811D7010811D7010811D70108DB
:1001600011D7010811D7010811D7010811D70108CB
:1001700011D701082DBA010811D7010811D70108BC
:1001800011D7010811D7010811D7010811D70108AB
:1001900011D7010811D7010811D7010811D701089B
:1001A00039BA010811D7010895C3000811D7010811
:1001B00011D7010811D7010811D7010811D701087B
:1001C00011D7010811D7010811D7010811D701086B
:1001D00011D7010811D7010811D7010811D701085B
:1001E00011D7010811D7010811D7010811D701084B
:1001F00011D7010811D7010811D7010811D701083B
:1002000011D7010811D7010811D7010811D701082A
:1002100011D7010811D7010811D7010811D701081A
:1002200011D7010845BA010851BA010811D70108D0
:1002300011D7010811D7010811D7010811D70108FA
:1002400011D7010811D7010811D7010811D70108EA
:1002500011D7010811D7010811D7010811D70108DA
:1002600011D7010811D7010811D7010811D70108CA
:1002700011D7010811D7010811D7010811D70108BA
:1002800011D7010811D7010811D70108000000009B
:0802900011D7010811D7010884
:1002C00002780B78012A28BF9A4240F0D8806DE965
:1002D000044540EA0104CDE902676FF0000C4FEAE3
:1002E00044721AB380EA010414F0070F6BD100F0D6
:1002F000070420F0070004F0030521F007014FEA8E
:10030000C505F0E8042314F0040FF1E804670CFAC3
:1003100005F462EA040266EA04060BD063EA040309
:10032000624667EA0407664604E000BFF0E804237B
:10033000F1E8046782FA4CF582EA0604A4FA8CF428
:100340006CBB83FA4CF583EA0705A5FA8CF595B9E1
:1003500050E9022351E9026782FA4CF582EA060469
:10036000A4FA8CF483FA4CF583EA0705A5FA8CF518
:100370002543DBD09CB92DBAB5FA85F424F00704E7
:1003800027FA04F1DDE9026723FA04F303F0FF0022
:1003900001F0FF01FDE80445A0EB0100704724BA1D
:1003A000B4FA84F424F0070426FA04F1DDE90267C4
:1003B00022FA04F202F0FF0001F0FF01FDE804451B
:1003C000A0EB0100704714F0030F3CD110F00304C0
:1003D00028D150F8082B51F8083B82FA4CF582EAF4
:1003E0000305A5FA8CF55DB950F8042C51F8043CCE
:1003F00082FA4CF582EA0305A5FA8CF5002DE8D0C7
:100400002DBAB5FA85F424F0070423FA04F122FA90
:1004100004F202F0FF0001F0FF01FDE80445A0EB4B
:10042000010070474FEAC40420F0030050F8082B85
:1004300021F0030151F8083B0CFA04F462EA0402CB
:1004400063EA0403C9E710F003041DD0A1EB040123
:1004500020F00300E40750F8042B06D012D28B786A
:100460005FFAA2F4E41A06D12BB1CB785FFAB2F4AA
:10047000E41A00D133B920465DF8104B7047A2EB67
:100480000300704701F1040150F8042BCC0721F060
:10049000030151F8043B48D824D222F07F4482FA69
:1004A0004CF594EA1325A5FA8CF50AD165B951F8F3
:1004B000043B84EA0204B4EB036F0ED150F8042B22
:1004C000EBE74FEA132355E035F07F454DD108782F
:1004D000FDE80445C0F1000070474FEA126203F0E6
:1004E000FF0347E002EA1C4482FA4CF594EA134504
:1004F000A5FA8CF50AD165B951F8043B84EA0204E7
:10050000B4EB034F0CD150F8042BEBE74FEA134345
:1005100030E015EA1C4528D10B884FEA124229E049
:100520004FEA124203EA1C4324E002F0FF0482FA7D
:100530004CF594EA1365A5FA8CF50AD165B951F822
:10054000043B84EA0204B4EB032F09D150F8042BD6
:10055000EBE74FEA13630DE015F0FF0F05D10B68D1
:100560004FEA122223F07F4304E04FF00000FDE841
:100570000445704712BA1BBA82FA4CF482EA0304AB
:10058000A4FA8CF5B5FA85F402FA04F203FA04F33E
:100590004FEA1260FDE80445A0EB1360704700BF0E
:1005A00001F0FF01102A2BDB10F0070F08D010F824
:1005B000013B013A8B422DD010F0070F42B3F6D128
:1005C000F0B441EA012141EA014122F007047FF041
:1005D00000070023F0E80256083C85EA010586EA98
:1005E000010685FA47F5A3FA87F586FA47F6A5FAD4
:1005F00087F68EB9EED1F0BC01F0FF0102F00702E0
:1006000032B110F8013B013A83EA010313B1F8D18A
:100610000020704701387047002D06BF354603386B
:10062000073815F0010F07D1013015F4807F02BFA4
:10063000013015F4C03F0130F0BC0138704700BFF5
:10064000844641EA000313F003036DD1403A41D3DD
:1006500051F8043B40F8043B51F8043B40F8043B9C
:1006600051F8043B40F8043B51F8043B40F8043B8C
:1006700051F8043B40F8043B51F8043B40F8043B7C
:1006800051F8043B40F8043B51F8043B40F8043B6C
:1006900051F8043B40F8043B51F8043B40F8043B5C
:1006A00051F8043B40F8043B51F8043B40F8043B4C
:1006B00051F8043B40F8043B51F8043B40F8043B3C
:1006C00051F8043B40F8043B51F8043B40F8043B2C
:1006D000403ABDD2303211D351F8043B40F8043BCC
:1006E00051F8043B40F8043B51F8043B40F8043B0C
:1006F00051F8043B40F8043B103AEDD20C3205D3DC
:1007000051F8043B40F8043B043AF9D2043208D0D3
:10071000D2071CBF11F8013B00F8013B01D30B8845
:1007200003806046704700BF082A13D38B078DD023
:1007300010F003038AD0C3F10403D21ADB071CBFF5
:1007400011F8013B00F8013B80D331F8023B20F85F
:10075000023B7BE7043AD9D3013A11F8013B00F898
:10076000013BF9D20B7803704B7843708B78837020
:10077000604670470000000000000000000000001C
:1007800030B490F800F020F007016FF0000C10F08A
:10079000070491F820F040F048804FF000046FF01B
:1007A0000700D1E9002391F840F000F1080082FA37
:1007B0004CF2A4FA8CF283FA4CF3A2FA8CF34BBB02
:1007C000D1E9022382FA4CF200F10800A4FA8CF27B
:1007D00083FA4CF3A2FA8CF3E3B9D1E9042382FA49
:1007E0004CF200F10800A4FA8CF283FA4CF3A2FA5E
:1007F0008CF37BB9D1E9062301F1200182FA4CF296
:1008000000F10800A4FA8CF283FA4CF3A2FA8CF3FC
:10081000002BC6D0002A04BF04301A4612BAB2FA1E
:1008200082F200EBD20030BC7047D1E9002304F023
:100830000305C4F100004FEAC50514F0040F91F858
:1008400040F00CFA05F562EA05021CBF63EA0503F5
:1008500062464FF00004AAE780F0004002E000BFCB
:1008600081F0004142001FBF5FEA410392EA030F9B
:100870007FEA226C7FEA236C6AD04FEA1262D2EBE5
:100880001363C1BFD218414048404140B8BF5B42EA
:10089000192B88BF704710F0004F40F4000020F083
:1008A0007F4018BF404211F0004F41F4000121F099
:1008B0007F4118BF494292EA030F3FD0A2F10102E3
:1008C00041FA03FC10EB0C00C3F1200301FA03F121
:1008D00000F0004302D5494260EB4000B0F5000F44
:1008E00013D3B0F1807F06D340084FEA310102F103
:1008F0000102FE2A51D2B1F1004F40EBC25008BFB5
:1009000020F0010040EA03007047490040EB00007E
:10091000013A28BFB0F5000FEDD2B0FA80FCACF17F
:10092000080CB2EB0C0200FA0CF0AABF00EBC250AC
:1009300052421843BCBFD0401843704792F0000F9A
:1009400081F4000106BF80F400000132013BB5E7ED
:100950004FEA41037FEA226C18BF7FEA236C21D063
:1009600092EA030F04D092F0000F08BF08467047C8
:1009700090EA010F1CBF0020704712F07F4F04D196
:10098000400028BF40F00040704712F100723CBFA9
:1009900000F50000704700F0004343F0FE4040F4D3
:1009A000000070477FEA226216BF08467FEA236391
:1009B0000146420206BF5FEA412390EA010F40F47C
:1009C000800070474FF0000304E000BF10F00043C8
:1009D00048BF40425FEA000C08BF704743F09643AF
:1009E00001464FF000001CE050EA010208BF7047CA
:1009F0004FF000030AE000BF50EA010208BF704751
:100A000011F0004302D5404261EB41015FEA010C65
:100A100002BF84460146002043F0B64308BFA3F15D
:100A20008053A3F50003BCFA8CF2083AA3EBC2533F
:100A300010DB01FA02FC634400FA02FCC2F120025E
:100A4000BCF1004F20FA02F243EB020008BF20F095
:100A50000100704702F1200201FA02FCC2F12002FB
:100A600050EA4C0021FA02F243EB020008BF20EAF0
:100A7000DC70704753B94AB9002908BF00281CBF71
:100A80004FF0FF314FF0FF3000F0E2B8ADF1080C4D
:100A90006DE904CE41F08CF9DDF804E0DDE90223D4
:100AA00004B0704700F1340191E838009C46A64636
:100AB0004CF8045D90E8FF0FE54600BD90EC210B7B
:100AC000704700BF80EC210B704700BF90EC200BFB
:100AD000704700BF80EC200B704700BFD0EC200BAC
:100AE000704700BFC0EC200B704700BFF0EC020164
:100AF000F0EC0211F0EC0221F0EC0231F0EC0241DA
:100B0000F0EC0251F0EC0261F0EC0271F0EC0281C9
:100B1000F0EC0291F0EC02A1F0EC02B1F0EC02C1B9
:100B2000F0EC02D1F0EC02E1F0EC02F1704700BF12
:100B3000E0EC0201E0EC0211E0EC0221E0EC023119
:100B4000E0EC0241E0EC0251E0EC0261E0EC027109
:100B5000E0EC0281E0EC0291E0EC02A1E0EC02B1F9
:100B6000E0EC02C1E0EC02D1E0EC02E1E0EC02F1E9
:100B7000704700BFB0FC0181B0FC0191B0FC01A145
:100B8000B0FC01B1704700BFA0FC0181A0FC019145
:100B9000A0FC01A1A0FC01B1704700BFEC4600B56C
:100BA0002DE900502DE9FF1F4FF000032DE90C0047
:100BB00001A941F0B7FBDDF840E012B0704700BF7B
:100BC000EC4600B52DE900502DE9FF1F4FF0000362
:100BD0002DE90C0001A941F0E1FBDDF840E012B085
:100BE000704700BFEC4600B52DE900502DE9FF1F0E
:100BF0004FF000032DE90C0001A941F0F1FBDDF8F5
:100C000040E012B0704700BFEC4600B52DE900503F
:100C10002DE9FF1F4FF000032DE90C0001AB41F05F
:100C2000B5FBDDF840E012B0704700BFEC4600B500
:100C30002DE900502DE9FF1F4FF000032DE90C00B6
:100C400001AA41F02DFCDDF840E012B0704700BF72
:100C5000704700BF0348044B834202D0034B03B1EB
:100C600018477047C0070024C00700240000000098
:100C70000548064B1B1AD90F01EBA301491002D0FE
:100C8000034B03B118477047C0070024C007002476
:100C90000000000010B5064C237843B9FFF7DAFFD7
:100CA000044B13B10448AFF300800123237010BD3F
:100CB000C0810024000000001C2F040808B5054B6B
:100CC0001BB105490548AFF30080BDE80840FFF7B8
:100CD000CFBF00BF00000000C48100241C2F040807
:100CE000704704387047704782B002AB03E90600D2
:100CF00002B0704782B002AB03E9060002B0704751
:100D000010B50446102133F047FA204610BDA0F17B
:100D10000400F5E784B0F0B587B007460DAE10AD1E
:100D20006C4686E80E000FCD0FC42B682360F86870
:100D300096E80E0000F0CAFD07B0BDE8F04004B030
:100D40007047A0F10400FFF7E5BF84B013B505AC10
:100D500084E80E00089B0093C06894E80E0000F041
:100D6000F5FD02B0BDE8104004B07047A0F10400EA
:100D7000FFF7EBBF84B013B505AC84E80E00BDF8F7
:100D80002030ADF80030C06894E80E0000F03EFE60
:100D900002B0BDE8104004B07047A0F10400FFF7B6
:100DA000E9BF82B0C0686B4683E8060093E806009E
:100DB00002B000F06DBEA0F10400FFF7F2BF84B0F6
:100DC000C06804B000F0A4BEA0F10400FFF7F7BFB4
:100DD00084B030B585B0054609AC84E80E000CAB94
:100DE00093E807008DE8070094E80E00E86800F03B
:100DF000BBFE05B0BDE8304004B07047A0F1040070
:100E0000FFF7E6BF82B0C0686B4683E8060093E850
:100E1000060002B000F014BFA0F10400FFF7F2BF1B
:100E200082B0C0686B4683E8060093E8060002B013
:100E300000F082BFA0F10400FFF7F2BF82B0C068EB
:100E40006B4683E8060093E8060002B000F0EEBFB0
:100E5000A0F10400FFF7F2BF82B0C0686B4683E8E0
:100E6000060093E8060002B000F0DFBCA0F1040029
:100E7000FFF7F2BF84B030B585B0054609AC84E811
:100E80000E000CAB0FCB8DE80F0094E80E00E86865
:100E900000F06CFA05B0BDE8304004B07047A0F136
:100EA0000400FFF7E7BF84B030B585B0054609AC54
:100EB00084E80E000CAB0FCB8DE80F0094E80E0019
:100EC000E86800F01EFB05B0BDE8304004B0704794
:100ED000A0F10400FFF7E7BF84B030B585B0054648
:100EE00009AC84E80E000CAB0FCB8DE80F0094E842
:100EF0000E00E86800F0D0FB05B0BDE8304004B05B
:100F00007047A0F10400FFF7E7BF82B002AB03E92E
:100F1000060002B0704782B002AB03E9060002B0DF
:100F2000704700000022C1608260024A02605432B1
:100F300042607047CC2F040884B037B507AC054633
:100F400084E80E00DDE90A010090ADF80410A868FD
:100F500094E80E0002F030FD03B0BDE8304004B06C
:100F6000704782B080686B4683E8060093E806000D
:100F700002B002F032BD704770477047704730B41E
:100F800044680346C2689B68551004EB6200D207B0
:100F900048BF625930BC48BFD35818470346406821
:100FA00030B19A681AB9D86800F001007047012082
:100FB000704710B50446102133F0EEF8204610BDFE
:100FC00000F5C04313B593F84823044682F00102AC
:100FD000D3E9D50183F8482303F552730090ADF8A7
:100FE0000410E06B0ECBFFF7A7FF02B010BD00F5B9
:100FF000C04313B593F84B23044682F00102D3E9B2
:10100000D50183F84B2303F552730090ADF804101B
:10101000E06B0ECBFFF790FF02B010BD00F5C043B0
:1010200013B593F84D23044682F00102D3E9D501AC
:1010300083F84D2303F552730090ADF80410E06B74
:101040000ECBFFF779FF02B010BD00F5C04313B51A
:1010500093F84E23044682F00102D3E9D50183F8C8
:101060004E2303F552730090ADF80410E06B0ECBE5
:10107000FFF762FF02B010BD00F5C04313B593F84F
:101080005023044682F00102D3E9D50183F85023AE
:1010900003F552730090ADF80410E06B0ECBFFF730
:1010A0004BFF02B010BD00F5C04313B593F84F23BA
:1010B000044682F00102D3E9D50183F84F2303F5FA
:1010C00052730090ADF80410E06B0ECBFFF734FFC5
:1010D00002B010BD00F5C04313B593F85123044688
:1010E00082F00102D3E9D50183F8512303F552734D
:1010F0000090ADF80410E06B0ECBFFF71DFF02B0BF
:1011000010BD00F5C04313B593F85223044682F096
:101110000102D3E9D50183F8522303F552730090FD
:10112000ADF80410E06B0ECBFFF706FF02B010BD68
:1011300000F5C04313B593F85323044682F001022F
:10114000D3E9D50183F8532303F552730090ADF82A
:101150000410E06B0ECBFFF7EFFE02B010BD00F500
:10116000C04313B593F85723044682F0010283F875
:101170005723D3E9D50103F552730090ADF804105D
:10118000E06B0ECBFFF7D8FE02B010BD00F5C043F8
:1011900013B593F85823044682F0010283F85823CC
:1011A000D3E9D50103F552730090ADF80410E06B5C
:1011B0000ECBFFF7C1FE02B010BD00F503639942EC
:1011C00013B5044616D000F50763CB1A59425941AE
:1011D000490004F5C04383F84A13D3E9D50103F568
:1011E00052730090ADF80410E06B0ECBFFF7A4FE35
:1011F00002B010BD0121ECE700F62C13994213B5A3
:10120000044619D000F66C13994217D000F6AC13BF
:10121000CB1A5942594104F5C04383F84913D3E925
:10122000D50103F552730090ADF80410E06B0ECBBE
:10123000FFF782FE02B010BD0021ECE70221EAE7D1
:1012400000F62C23994213B504461ED000F66C23F9
:1012500099421CD000F6AC2399421AD000F6EC2338
:1012600099420CBF0321002104F5C04383F84C13BD
:10127000D3E9D50103F552730090ADF80410E06B8B
:101280000ECBFFF759FE02B010BD0021ECE70121A3
:10129000EAE70221E8E700F5C043C06BD3F85C231E
:1012A00082F00102C3F85C23D3E9D712FFF759BEDD
:1012B00000F5C043C06BD3F86023D3F85C1382F011
:1012C0000102C3F86023FFF74CBE0000034B10B5CA
:1012D0000446036009F038FF204610BDE44D0408C1
:1012E00010B50446FFF7F2FF46F29431204632F083
:1012F00053FF204610BD0000012908D00229054BEC
:1013000018BF4FF0FF33836203685B691847024BD5
:10131000F9E700BF00BFFFFF76E600FF10B5044607
:1013200002F078FF0C4B0D4A236004F5C0430C49D2
:10133000C3F86C2300220B48C3F87843C3E9D914DF
:10134000C3E9DC21C3E9E1140749C3E9DF02C3E9CA
:10135000E312204610BD00BFE44D0408BB11000895
:10136000CC4D0408F91100084112000884B010B5F2
:10137000044603A880E80E0004F5D8509DF80C1030
:101380000830FFF7B9FF04F5BE509DF80D101C3072
:10139000FFF7B2FF04F5C2509DF80E101030FFF7B2
:1013A000ABFF04F5C6509DF80F100430FFF7A4FF03
:1013B00004F5C9509DF810101830FFF79DFF04F593
:1013C000CD509DF811100C30FFF796FF9DF81210CC
:1013D00004F5D150FFF790FF04F5D4509DF8131099
:1013E0001430FFF789FF04F5DB509DF814101C3012
:1013F000FFF782FF04F5DF509DF815101030FFF75E
:101400007BFF04F5E3509DF816100430FFF774FFDE
:1014100004F5E6509DF817101830FFF76DFF04F53E
:10142000EA509DF818100C30FFF766FF9DF8191070
:1014300004F5EE50FFF760FF04F5F1509DF81A1027
:101440001430FFF759FF04F5F5509DF81B100830D4
:10145000FFF752FF04F5F8509DF81C101C30FFF701
:101460004BFF04F5FC509DF81D101030FFF744FFB2
:1014700004F500509DF81E100430FFF73DFF04F501
:1014800001509DF81F103830FFF736FF04F5035068
:101490009DF820102C30FFF72FFF04F505509DF824
:1014A00021102030FFF728FF04F507509DF8221087
:1014B0001430FFF721FF04F509509DF82310083080
:1014C000FFF71AFF04F50A509DF824103C30FFF78F
:1014D00013FF04F50C509DF825103030FFF70CFF7A
:1014E00004F50E509DF826102430FFF705FF04F593
:1014F000BB509DF827100830BDE8104004B0FFF73E
:10150000FBBE84B010B5044603A880E80E0004F5C5
:1015100057509DF80C100430FFF7EEFE04F54A50CA
:101520009DF80D101830FFF7E7FE04F54C509DF8BC
:101530000E100C30FFF7E0FE9DF80F1004F54E5032
:10154000FFF7DAFE04F54F509DF810103430FFF726
:10155000D3FE04F551509DF811102830FFF7CCFE52
:1015600004F553509DF812101C30FFF7C5FE04F52A
:1015700055509DF813101030FFF7BEFE04F558507B
:101580009DF814103830FFF7B7FE04F55A509DF857
:1015900015102C30FFF7B0FE04F55C509DF81610C6
:1015A0002030FFF7A9FE04F55E509DF817101430A7
:1015B000FFF7A2FE04F560509DF818100830FFF701
:1015C0009BFE04F561509DF819103C30FFF794FE26
:1015D00004F563509DF81A103030FFF78DFE04F5C6
:1015E00065509DF81B102430FFF786FE04F5675008
:1015F0009DF81C101830FFF77FFE04F569509DF828
:101600001D100C30FFF778FE9DF81E1004F56B508E
:10161000FFF772FE04F56C509DF81F103430FFF791
:101620006BFE04F56E509DF820102830FFF764FE25
:1016300004F570509DF821101C30FFF75DFE04F595
:1016400072509DF822101030FFF756FE04F57450CA
:101650009DF823100430FFF74FFE04F575509DF8F8
:1016600024103830FFF748FE04F577509DF8251018
:101670002C30FFF741FE04F579509DF826102030FC
:10168000FFF73AFE04F548509DF827102430BDE8D6
:10169000104004B0FFF730BE84B038B5044605A84A
:1016A00004F5125580E80E0004F51E500C359DF827
:1016B00014103830FFF720FE9DF815102846FFF76C
:1016C0001BFE9DF81610284604F52D55FFF714FE55
:1016D0009DF8171004F514501835FFF70DFE04F5AA
:1016E00015509DF818103430FFF706FE04F517501A
:1016F0009DF819102830FFF7FFFD04F519509DF8EB
:101700001A101C30FFF7F8FD04F51B509DF81B1054
:101710001030FFF7F1FD04F51D509DF81C1004304A
:10172000FFF7EAFD04F520509DF81D102C30FFF75F
:10173000E3FD04F522509DF81E102030FFF7DCFD7C
:1017400004F526509DF81F100830FFF7D5FD04F56D
:1017500027509DF820103C30FFF7CEFD04F52950AE
:101760009DF821103030FFF7C7FD04F53A509DF881
:1017700022100430FFF7C0FD9DF823102846FFF724
:10178000BBFD9DF824102846FFF7B6FD04F52F5049
:101790009DF825100C30FFF7AFFD9DF8261004F5DD
:1017A0003150FFF7A9FD04F532509DF82710343071
:1017B000FFF7A2FD04F534509DF828102830FFF7FC
:1017C0009BFD04F536509DF829101C30FFF794FD61
:1017D00004F538509DF82A101030FFF78DFD04F500
:1017E0003B509DF82B103830FFF786FD04F53D5037
:1017F0009DF82C102C30FFF77FFD04F541509DF82B
:101800002D101430FFF778FD04F543509DF82E108D
:101810000830FFF771FD04F544509DF82F103C305F
:10182000BDE8384004B0FFF767BD82B002AB03E902
:10183000060002B07047000038B50446224D02F0A1
:1018400085F9002304F5BE402A4605213A3023F0ED
:10185000D4FE04F5AA50083021F0A4FF04F5BE40E0
:1018600000232A4605214E3023F0C7FE04F5AF5071
:1018700021F098FF04F5BE4000232A46052162307E
:1018800023F0BBFE04F5B350183021F08BFF04F5B4
:10189000BE4000232A4605216C3023F0AEFE04F53D
:1018A000B650043021F07EFF04F5C6436433C4F81B
:1018B000283804F5C6437433C4F8243904F5C74303
:1018C0000433C4F8243A38BD6430040884B038B511
:1018D000044605A81C4D80E80E0004F5BE400B46EA
:1018E0002A4605213A3023F088FE04F5AA50083034
:1018F00021F058FF04F5BE40069B2A4605214E30D4
:1019000023F07BFE04F5AF5021F04CFF04F5BE4000
:10191000079B2A460521623023F06FFE04F5B35081
:10192000183021F03FFF04F5BE40089B2A460521F0
:101930006C3023F062FE04F5B650BDE83840043048
:1019400004B021F02FBF00BF6430040884B0F8B5A4
:10195000044607A82C4DBDF92A6080E80E0004F566
:10196000BC40BDF926302A460A212230BDF922703A
:1019700023F043FE04F5835021F014FF04F5BC402E
:101980003B462A460A21363023F037FE04F58550BF
:101990000C3021F007FF04F5BC4033462A460A21EB
:1019A0004A3023F02AFE04F58750183021F0FAFE61
:1019B00004F5BC40BDF920302A460A215E3023F0F0
:1019C0001CFE04F58A50043021F0ECFE04F5BC4006
:1019D0003B462A460A21723023F00FFE04F58C5054
:1019E000103021F0DFFE04F5BD4033462A460A21BF
:1019F000063023F002FE04F58E50BDE8F8401C309E
:101A000004B021F0CFBE00BF6430040884B038B504
:101A1000044605A81D4D80E80E0004F5BB40BDF945
:101A200014302A460A213E3023F0E7FD04F6E46034
:101A300021F0B8FE04F5BB40BDF920302A460A214A
:101A4000523023F0DAFD04F5736021F0ABFE04F5AB
:101A5000BB40BDF81C302A460A21663023F0CDFD7C
:101A600004F67C7021F09EFE04F5BC40BDF91E30EA
:101A70002A460A210E3023F0C0FD04F58050BDE84F
:101A80003840143004B021F08DBE00BF643004082B
:101A900037B504461D4D02AB00F5BA4003E9060018
:101AA0003230BDF800302A46032123F0A6FD04F5AC
:101AB0004D6021F077FE04F5BA40BDF802302A46A9
:101AC00003215A3023F099FD04F6685021F06AFE94
:101AD00004F5BA40BDF806302A460A216E3023F0DC
:101AE0008CFD04F6B45021F05DFE04F5BB40BDF85A
:101AF00004302A460A21023023F07FFD04F560609D
:101B000003B0BDE8304021F04DBE00BF6430040892
:101B100030B587B00446134D00F5BB40CDED030A48
:101B2000B7EEC00A2A460A212A308DED000B23F0B9
:101B300064FD04F6986021F035FE9DED037A04F50E
:101B4000BB402A46B7EEC77A0A2116308DED007BDE
:101B500023F053FD04F64C6007B0BDE8304021F09F
:101B600021BE00BF6430040884B030B585B004469F
:101B7000314D09A880E80E0004F5BD40099B2A46B6
:101B80000A2103937E3003AB23F05EFF04F5A050DF
:101B9000043021F007FE0A9B04F5BE402A460A21C4
:101BA0000393263003AB23F04FFF04F5A450234DDD
:101BB0001C3021F0F7FD04F5BB400B9B2A460A219F
:101BC0007A3023F01AFD04F6C87021F0EBFD04F51D
:101BD000BD400C9B2A460A212E3023F00EFD04F551
:101BE0009350143021F0DEFD9DED0D7A04F5BA40DE
:101BF0002A46B7EEC77A0A2146308DED007B23F0E6
:101C0000FCFC04F61C5021F0CDFD9DED0E7A04F590
:101C1000BD402A46B7EEC77A0A211A308DED007B07
:101C200023F0EBFC04F59150083005B0BDE83040DE
:101C300004B021F0B7BD00BF673004086430040869
:101C400037B504463B4D02AB00F5C14003E9060041
:101C50000E309DF800302A460A2123F0CEFC04F510
:101C60008A40283021F09EFD04F5C0409DF80130E7
:101C70002A460A217A3023F0C0FC04F589405C3002
:101C800021F090FD04F5BF409DF802302A460A215C
:101C90006E3023F0B2FC04F58540483021F082FD1F
:101CA0000A2104F5BF409DF803302A46084423F07A
:101CB000A4FC04F582404C3021F074FD04F5BF40D3
:101CC0009DF804302A460A21463023F096FC04F59C
:101CD0008440303021F066FD04F5BF409DF80530AA
:101CE0002A460A211E3023F088FC04F58340183070
:101CF00021F058FD04F5BF409DF806302A460A2120
:101D00005A3023F07AFC04F584407C3021F04AFDFF
:101D100004F5BF409DF807302A460A21323023F0EF
:101D20006CFC04F58340643003B0BDE8304021F022
:101D300039BD00BF6430040837B504463A4D02ABE4
:101D400000F5C24003E9060042309DF800302A4603
:101D50000A2123F052FC04F58F40543021F022FD7B
:101D600004F5BE409DF801302A460A21763023F062
:101D700044FC04F5824021F015FD04F5C1409DF8B6
:101D800002302A460A21363023F037FC04F58B4016
:101D9000403021F007FD04F5C0409DF803302A468D
:101DA0000A21023023F029FC04F58640143021F08A
:101DB000F9FC04F5C0409DF804302A460A2152304F
:101DC00023F01BFC04F58840443021F0EBFC04F5C3
:101DD000C0409DF805302A460A21163023F00DFC3C
:101DE00004F58640603021F0DDFC04F5C0409DF82C
:101DF00006302A460A213E3023F0FFFB04F58740D7
:101E0000783021F0CFFC04F5C0409DF807302A4619
:101E10000A212A3023F0F1FB04F587402C3003B06F
:101E2000BDE8304021F0BEBC6430040837B504463C
:101E30003B4D02AB00F5C24003E906002E309DF891
:101E400000302A460A2123F0D8FB04F58F400830E1
:101E500021F0A8FC04F5C1409DF801302A460A2172
:101E6000223023F0CAFB04F58A40743021F09AFC3A
:101E700004F5C0409DF802302A460A21663023F05E
:101E8000BCFB04F58940103021F08CFC04F5C14006
:101E90009DF803302A460A214A3023F0AEFB04F5B0
:101EA0008C400C3021F07EFC04F5C2409DF80430DB
:101EB0002A460A211A3023F0A0FB04F58E403C305C
:101EC00021F070FC04F5C1409DF805302A460A2136
:101ED0005E3023F092FB04F58C40583021F062FC18
:101EE00004F5C2409DF806302A460A21063023F048
:101EF00084FB04F58D40703021F054FC04F5C140A2
:101F00009DF807302A460A21723023F076FB04F54B
:101F10008D40243003B0BDE8304021F043BC00BF09
:101F2000643004080022C0F8F420704730B585B052
:101F3000002504A8089C00E90E00022202A8002146
:101F400017F016FD237802228D4208BF8342114606
:101F500018BF207002A818BF012517F009FD63788B
:101F60000222002908BF83424FF0040118BF6070AD
:101F700002A818BF012517F0FBFCA3780222002954
:101F800008BF83424FF0060118BFA07002A818BF17
:101F9000012517F0EDFCE3780222002908BF8342F7
:101FA0004FF0080118BFE0700DEB010018BF0125CC
:101FB00017F0DEFC23790222002908BF83424FF08C
:101FC0000A0118BF207102A818BF012517F0D0FC24
:101FD00063790222002908BF83424FF00C0118BF29
:101FE000607102A818BF012517F0C2FCA379022274
:101FF000002908BF83424FF00E0118BFA07102A84C
:1020000018BF012517F0B4FCE3790222002908BFAC
:1020100083424FF0100118BFE07102A818BF0125DC
:1020200017F0A6FC237A0222002908BF83424FF052
:10203000120118BF207202A818BF012517F098FCE2
:10204000637A0222002908BF83424FF0140118BFAF
:10205000607202A818BF012517F08AFCA37A022239
:10206000002908BF83424FF0160118BFA07202A8D2
:1020700018BF012517F07CFCE37A0222002908BF73
:1020800083424FF0180118BFE07202A818BF012563
:1020900017F06EFC237B0222002908BF83424FF019
:1020A0001A0118BF207302A818BF012517F060FCA1
:1020B000637B0222002908BF83424FF01C0118BF36
:1020C000607302A818BF012517F052FCA37B0222FF
:1020D000002908BF83424FF01E0118BFA07302A859
:1020E00018BF012517F044FCE37B0222002908BF3A
:1020F00083424FF0200118BFE07302A818BF0125EA
:1021000017F036FC237C0222002908BF83424FF0DF
:10211000220118BF207402A818BF012517F028FC5F
:10212000637C0222002908BF83424FF0240118BFBC
:10213000607402A818BF012517F01AFCA37C0222C4
:10214000002908BF83424FF0260118BFA07402A8DF
:1021500018BF012517F00CFCE37C0222002908BF00
:1021600083424FF0280118BFE07402A818BF012570
:1021700017F0FEFB237D0222002908BF83424FF0A7
:102180002A0118BF207502A818BF012517F0F0FB1F
:10219000637D0222002908BF83424FF02C0118BF43
:1021A000607502A818BF012517F0E2FBA37D02228B
:1021B000002908BF83424FF02E0118BFA07502A866
:1021C00018BF012517F0D4FBE37D0222002908BFC8
:1021D00083424FF0300118BFE07502A818BF0125F7
:1021E00017F0C6FB237E0222002908BF83424FF06E
:1021F000320118BF207602A818BF012517F0B8FBDE
:10220000637E0222002908BF83424FF0340118BFC9
:10221000607602A818BF012517F0AAFBA37E022250
:10222000002908BF83424FF0360118BFA07602A8EC
:1022300018BF012517F09CFBE37E002908BF8342ED
:102240001CBF0125E076284605B030BD30B585B00D
:10225000002504A8089C00E90E00022202A8002123
:1022600017F086FB237802228D4208BF8342114675
:1022700018BF207002A818BF012517F079FB6378FA
:102280000222002908BF83424FF0040118BF60708A
:1022900002A818BF012517F06BFBA37802220029C2
:1022A00008BF83424FF0060118BFA07002A818BFF4
:1022B000012517F05DFBE3780222002908BF834265
:1022C0004FF0080118BFE0700DEB010018BF0125A9
:1022D00017F04EFB23790222002908BF83424FF0FA
:1022E0000A0118BF207102A818BF012517F040FB92
:1022F00063790222002908BF83424FF00C0118BF06
:10230000607102A818BF012517F032FBA3790222E1
:10231000002908BF83424FF00E0118BFA07102A828
:1023200018BF012517F024FBE3790222002908BF1A
:1023300083424FF0100118BFE07102A818BF0125B9
:1023400017F016FB237A0222002908BF83424FF0C0
:10235000120118BF207202A818BF012517F008FB50
:10236000637A0222002908BF83424FF0140118BF8C
:10237000607202A818BF012517F0FAFAA37A0222A8
:10238000002908BF83424FF0160118BFA07202A8AF
:1023900018BF012517F0ECFAE37A0222002908BFE2
:1023A00083424FF0180118BFE07202A818BF012540
:1023B00017F0DEFA237B0222002908BF83424FF088
:1023C0001A0118BF207302A818BF012517F0D0FA10
:1023D000637B0222002908BF83424FF01C0118BF13
:1023E000607302A818BF012517F0C2FAA37B02226E
:1023F000002908BF83424FF01E0118BFA07302A836
:1024000018BF012517F0B4FAE37B0222002908BFA8
:1024100083424FF0200118BFE07302A818BF0125C6
:1024200017F0A6FA237C0222002908BF83424FF04E
:10243000220118BF207402A818BF012517F098FACE
:10244000637C0222002908BF83424FF0240118BF99
:10245000607402A818BF012517F08AFAA37C022233
:10246000002908BF83424FF0260118BFA07402A8BC
:1024700018BF012517F07CFAE37C0222002908BF6F
:1024800083424FF0280118BFE07402A818BF01254D
:1024900017F06EFA237D0222002908BF83424FF015
:1024A0002A0118BF207502A818BF012517F060FA8D
:1024B000637D0222002908BF83424FF02C0118BF20
:1024C000607502A818BF012517F052FAA37D0222F9
:1024D000002908BF83424FF02E0118BFA07502A843
:1024E00018BF012517F044FAE37D0222002908BF36
:1024F00083424FF0300118BFE07502A818BF0125D4
:1025000017F036FA237E0222002908BF83424FF0DB
:10251000320118BF207602A818BF012517F028FA4B
:10252000637E0222002908BF83424FF0340118BFA6
:10253000607602A818BF012517F01AFAA37E0222BE
:10254000002908BF83424FF0360118BFA07602A8C9
:1025500018BF012517F00CFAE37E002908BF83425B
:102560001CBF0125E076284605B030BD30B585B0EA
:10257000002504A8089C00E90E00022202A8002100
:1025800017F0F6F9237802228D4208BF83421146E4
:1025900018BF207002A818BF012517F0E9F9637869
:1025A0000222002908BF83424FF0040118BF607067
:1025B00002A818BF012517F0DBF9A3780222002931
:1025C00008BF83424FF0060118BFA07002A818BFD1
:1025D000012517F0CDF9E3780222002908BF8342D4
:1025E0004FF0080118BFE0700DEB010018BF012586
:1025F00017F0BEF923790222002908BF83424FF069
:102600000A0118BF207102A818BF012517F0B0F900
:1026100063790222002908BF83424FF00C0118BFE2
:10262000607102A818BF012517F0A2F9A379022250
:10263000002908BF83424FF00E0118BFA07102A805
:1026400018BF012517F094F9E3790222002908BF89
:1026500083424FF0100118BFE07102A818BF012596
:1026600017F086F9237A0222002908BF83424FF02F
:10267000120118BF207202A818BF012517F078F9BF
:10268000637A0222002908BF83424FF0140118BF69
:10269000607202A818BF012517F06AF9A37A022216
:1026A000002908BF83424FF0160118BFA07202A88C
:1026B00018BF012517F05CF9E37A0222002908BF50
:1026C00083424FF0180118BFE07202A818BF01251D
:1026D00017F04EF9237B0222002908BF83424FF0F6
:1026E0001A0118BF207302A818BF012517F040F97E
:1026F000637B0222002908BF83424FF01C0118BFF0
:10270000607302A818BF012517F032F9A37B0222DB
:10271000002908BF83424FF01E0118BFA07302A812
:1027200018BF012517F024F9E37B0222002908BF16
:1027300083424FF0200118BFE07302A818BF0125A3
:1027400017F016F9237C0222002908BF83424FF0BC
:10275000220118BF207402A818BF012517F008F93C
:10276000637C0222002908BF83424FF0240118BF76
:10277000607402A818BF012517F0FAF8A37C0222A2
:10278000002908BF83424FF0260118BFA07402A899
:1027900018BF012517F0ECF8E37C0222002908BFDE
:1027A00083424FF0280118BFE07402A818BF01252A
:1027B00017F0DEF8237D0222002908BF83424FF084
:1027C0002A0118BF207502A818BF012517F0D0F8FC
:1027D000637D0222002908BF83424FF02C0118BFFD
:1027E000607502A818BF012517F0C2F8A37D022268
:1027F000002908BF83424FF02E0118BFA07502A820
:1028000018BF012517F0B4F8E37D0222002908BFA4
:1028100083424FF0300118BFE07502A818BF0125B0
:1028200017F0A6F8237E0222002908BF83424FF04A
:10283000320118BF207602A818BF012517F098F8BA
:10284000637E0222002908BF83424FF0340118BF83
:10285000607602A818BF012517F08AF8A37E02222D
:10286000002908BF83424FF0360118BFA07602A8A6
:1028700018BF012517F07CF8E37E002908BF8342CA
:102880001CBF0125E076284605B030BD30B52DEDE2
:10289000028B85B09FED438A04A80A9C00E90E00D4
:1028A000092202A8002117F063F8C83861F100017D
:1028B000FEF79AF894ED007A07EE900A092202A832
:1028C000B4EE677A1146F1EE10FA1ABFC4ED007A41
:1028D0000125002517F04CF8C83861F10001FEF71A
:1028E00083F894ED017A07EE900A102202A81221D3
:1028F000B4EE677AF1EE10FA1CBFC4ED017A01253F
:1029000017F036F8A3680A22002908BF83424FF067
:10291000220118BFA06002A818BF012517F028F8EF
:10292000E3680A22002908BF83424FF02C0118BF38
:10293000E06002A818BF012517F01AF8FEF754F856
:1029400007EE100AD4ED047A082227EE087A362121
:102950000DEB020077EEC77AF0EEE77AF4EEC87A74
:10296000F1EE10FAC4BF84ED047A012517F000F8E7
:10297000FEF73AF807EE100AD4ED057A27EE087A4A
:1029800077EEC77AF0EEE77AF4EEC87AF1EE10FA55
:10299000C4BF012584ED057A284605B0BDEC028B45
:1029A00030BD00BFCDCCCC3D30B585B0002504A8EE
:1029B000089C00E90E00052202A8002116F0D8FFAD
:1029C000236805228D4208BF8342114618BF20604C
:1029D00002A818BF012516F0CBFF63680522002965
:1029E00008BF83424FF00A0118BF606002A818BFF9
:1029F000012516F0BDFFA3680522002908BF834208
:102A00004FF00F0118BFA06002A818BF012516F0F3
:102A1000AFFFE3680122002908BF83424FF0140191
:102A200018BFE06002A818BF012516F0A1FF237CA3
:102A30000122002908BF83424FF0150118BF2074FE
:102A400002A818BF012516F093FF637C012200291C
:102A500008BF83424FF0160118BF607402A818BF68
:102A6000012516F085FFA37C0122002908BF8342BF
:102A70004FF0170118BFA07402A818BF012516F067
:102A800077FFE37C0C22002908BF83424FF0180136
:102A900018BFE07402A818BF012516F069FF194B92
:102AA0000C22C018636961F10001002908BF83424C
:102AB0004FF0240118BF606102A818BF012516F06D
:102AC00057FF104B0C22C018A36961F100010029C7
:102AD00008BF83424FF0300118BFA06102A818BFA1
:102AE000012516F045FF074BC018E36961F10001AD
:102AF000002908BF83421CBF0125E061284605B0BC
:102B000030BD00BF3CF6FFFF30B585B004A8089C7F
:102B100000E90E00082200210DEB020016F028FF4C
:102B2000B4F9003032384FEAE37261F100018A42B1
:102B300008BF83424FF0080218BF208011460DEBFA
:102B4000020014BF0125002516F012FFB4F9003071
:102B500032384FEAE37261F100018A4208BF8342D2
:102B60004FF008024FF0100118BF20800DEB02005B
:102B700018BF012516F0FCFEB4F9043032384FEAD4
:102B8000E37261F100018A4208BF83424FF00802FC
:102B90004FF0180118BFA0800DEB020018BF0125EF
:102BA00016F0E6FEB4F9063032384FEAE37261F10E
:102BB00000018A4208BF83424FF008024FF0200113
:102BC00018BFE0800DEB020018BF012516F0D0FE03
:102BD000B4F9083032384FEAE37261F100018A42F9
:102BE00008BF83424FF008024FF0280118BF208130
:102BF0000DEB020018BF012516F0BAFEB4F90A3039
:102C000032384FEAE37261F100018A4208BF834221
:102C10004FF008024FF0300118BF60810DEB020049
:102C200018BF012516F0A4FEB4F90C3032384FEA73
:102C3000E37261F100018A4208BF83424FF008024B
:102C40004FF0380118BFA0810DEB020018BF01251D
:102C500016F08EFEB4F90E3032384FEAE37261F1AD
:102C600000018A4208BF83421CBF0125E08128463B
:102C700005B030BD30B585B004A8089C00E90E0051
:102C8000082200210DEB020016F072FEB4F90030AC
:102C900032384FEAE37261F100018A4208BF834291
:102CA0004FF0080218BF208011460DEB020014BF40
:102CB0000125002516F05CFEB4F9023032384FEAE7
:102CC000E37261F100018A4208BF83424FF00802BB
:102CD0004FF0100118BF60800DEB020018BF0125F6
:102CE00016F046FEB4F9043032384FEAE37261F16F
:102CF00000018A4208BF83424FF008024FF01801DA
:102D000018BFA0800DEB020018BF012516F030FEA1
:102D1000B4F9063032384FEAE37261F100018A42B9
:102D200008BF83424FF010024FF0200118BFE0802F
:102D300002A818BF012516F01BFE238908220029CE
:102D400008BF83424FF0300118BF20810DEB020015
:102D500018BF012516F00CFEB4F90A3032384FEADC
:102D6000E37261F100018A4208BF83424FF008021A
:102D70004FF02E0118BF60810DEB020018BF012536
:102D800016F0F6FDB4F90C3032384FEAE37261F117
:102D900000018A4208BF83421CBF0125A08128464A
:102DA00005B030BD30B585B0002404A8089D00E909
:102DB0000E00102202A8002116F0DAFD214B2A880D
:102DC0001B1802A861F100018C4208BF9A424FF023
:102DD000100218BF6B80114618BF012416F0C8FD01
:102DE000184B6A881B1802A861F10001002908BF6E
:102DF0009A424FF010024FF020011CBF6B8001245B
:102E000016F0B6FD0F4BAA881B1802A861F100014D
:102E1000002908BF9A424FF010024FF030011CBF4A
:102E2000AB80012416F0A4FD064BEA881B1861F163
:102E30000001002908BF9A421CBF0124EB802046F4
:102E400005B030BD78ECFFFF30B585B004A8089C14
:102E500000E90E00102202A8002116F089FD2D4B7A
:102E6000181861F10001FDF7C7FD94ED007A07EE37
:102E7000900A102202A8B4EE677A1146F1EE10FA19
:102E80001ABFC4ED007A0125002516F071FD214B13
:102E9000181861F10001FDF7AFFD94ED017A07EE1E
:102EA000900A102202A82021B4EE677AF1EE10FAFF
:102EB0001CBFC4ED017A012516F05AFD164B1818F7
:102EC00061F10001FDF798FD94ED027A07EE900A9A
:102ED000102202A83021B4EE677AF1EE10FA1CBF7E
:102EE000C4ED027A012516F043FD0A4B181861F172
:102EF0000001FDF781FD94ED037A07EE900AB4EE30
:102F0000677AF1EE10FA1CBF0125C4ED037A28465A
:102F100005B030BD78ECFFFF3CF6FFFF30B585B063
:102F2000002504A8089C00E90E00082200210DEBF2
:102F3000020016F01DFD323863784FF0080261F18F
:102F400000018D4208BF8342114618BF60700DEB2F
:102F5000020018BF012516F00BFD323823784FF020
:102F6000080261F10001002908BF83424FF01001FF
:102F700018BF20700DEB020018BF012516F0F8FCF9
:102F80003238A3784FF0080261F10001002908BF30
:102F900083424FF0180118BFA0700DEB020018BF5C
:102FA000012516F0E5FC3238E3784FF0080261F1B4
:102FB0000001002908BF83424FF0200118BFE070D4
:102FC0000DEB020018BF012516F0D2FC3238237930
:102FD0004FF0080261F10001002908BF83424FF061
:102FE000280118BF20710DEB020018BF012516F053
:102FF000BFFC323863794FF0080261F1000100290B
:1030000008BF83424FF0300118BF60710DEB020022
:1030100018BF012516F0ACFC3238A3794FF0080236
:1030200061F10001002908BF83424FF0380118BF49
:10303000A0710DEB020018BF012516F099FC323883
:10304000E37961F10001002908BF83421CBF01251B
:10305000E071284605B030BD30B585B0002504A824
:10306000089C00E90E00082200210DEB020016F07A
:103070007FFC323823784FF0080261F100018D4265
:1030800008BF8342114618BF20700DEB020018BF25
:10309000012516F06DFC323823784FF0080261F1FB
:1030A0000001002908BF83424FF0100118BF2070B3
:1030B0000DEB020018BF012516F05AFC3238A37838
:1030C0004FF0080261F10001002908BF83424FF070
:1030D000180118BFA0700DEB020018BF012516F0F3
:1030E00047FC3238E3784FF0080261F10001002913
:1030F00008BF83424FF0200118BFE0700DEB0200C3
:1031000018BF012516F034FC323823794FF008023D
:1031100061F10001002908BF83424FF0280118BF68
:1031200020710DEB020018BF012516F021FC32388A
:1031300063794FF0080261F10001002908BF834262
:103140004FF0300118BF60710DEB020018BF012570
:1031500016F00EFC3238A3794FF0080261F100013D
:10316000002908BF83424FF0380118BFA0710DEB52
:10317000020018BF012516F0FBFB3238E37961F13C
:103180000001002908BF83421CBF0125E0712846C9
:1031900005B030BD30B585B0002504A8089C00E915
:1031A0000E00082200210DEB020016F0E1FB323880
:1031B00063784FF0080261F100018D4208BF83423D
:1031C000114618BF60700DEB020018BF012516F004
:1031D000CFFB323823784FF0080261F1000100295B
:1031E00008BF83424FF0100118BF20700DEB0200A2
:1031F00018BF012516F0BCFB3238A3784FF0080247
:1032000061F10001002908BF83424FF0180118BF87
:10321000A0700DEB020018BF012516F0A9FB323893
:10322000E3784FF0080261F10001002908BF8342F2
:103230004FF0200118BFE0700DEB020018BF012510
:1032400016F096FB323823794FF0080261F1000145
:10325000002908BF83424FF0280118BF20710DEBF1
:10326000020018BF012516F083FB323863794FF056
:10327000080261F10001002908BF83424FF03001CC
:1032800018BF60710DEB020018BF012516F070FB2E
:103290003238A3794FF0080261F10001002908BF1C
:1032A00083424FF0380118BFA0710DEB020018BF28
:1032B000012516F05DFB3238E37961F10001002948
:1032C00008BF83421CBF0125E071284605B030BD10
:1032D00030B585B0002504A8089C00E90E0008223E
:1032E00000210DEB020016F043FB323823784FF03B
:1032F000080261F100018D4208BF8342114618BFE8
:1033000020700DEB020018BF012516F031FB32389A
:1033100023784FF0080261F10001002908BF8342C1
:103320004FF0100118BF20700DEB020018BF0125EF
:1033300016F01EFB3238A3784FF0080261F100014D
:10334000002908BF83424FF0180118BFA0700DEB91
:10335000020018BF012516F00BFB3238E3784FF05E
:10336000080261F10001002908BF83424FF02001EB
:1033700018BFE0700DEB020018BF012516F0F8FA37
:10338000323823794FF0080261F10001002908BFAB
:1033900083424FF0280118BF20710DEB020018BFC7
:1033A000012516F0E5FA323863794FF0080261F131
:1033B0000001002908BF83424FF0300118BF60713F
:1033C0000DEB020018BF012516F0D2FA3238A379AE
:1033D0004FF0080261F10001002908BF83424FF05D
:1033E000380118BFA0710DEB020018BF012516F0BF
:1033F000BFFA3238E37961F10001002908BF834246
:103400001CBF0125E071284605B030BD30B585B040
:10341000002504A8089C00E90E00082200210DEBFD
:10342000020016F0A5FA323823784FF0080261F155
:1034300000018D4208BF8342114618BF20700DEB7A
:10344000020018BF012516F093FA323823784FF0A6
:10345000080261F10001002908BF83424FF010010A
:1034600018BF20700DEB020018BF012516F080FA7E
:103470003238A3784FF0080261F10001002908BF3B
:1034800083424FF0180118BFA0700DEB020018BF67
:10349000012516F06DFA3238E3784FF0080261F139
:1034A0000001002908BF83424FF0200118BFE070DF
:1034B0000DEB020018BF012516F05AFA32382379B5
:1034C0004FF0080261F10001002908BF83424FF06C
:1034D000280118BF20710DEB020018BF012516F05E
:1034E00047FA323863794FF0080261F10001002990
:1034F00008BF83424FF0300118BF60710DEB02002E
:1035000018BF012516F034FA3238A3794FF00802BB
:1035100061F10001002908BF83424FF0380118BF54
:10352000A0710DEB020018BF012516F021FA323808
:10353000E37961F10001002908BF83421CBF012526
:10354000E071284605B030BD30B585B0002504A82F
:10355000089C00E90E00082200210DEB020016F085
:1035600007FA323823784FF0080261F100018D42EA
:1035700008BF8342114618BF20700DEB020018BF30
:10358000012516F0F5F9323863784FF0080261F141
:103590000001002908BF83424FF0100118BF60707E
:1035A0000DEB020018BF012516F0E2F93238A378BE
:1035B0004FF0080261F10001002908BF83424FF07B
:1035C000180118BFA0700DEB020018BF012516F0FE
:1035D000CFF93238E3784FF0080261F10001002999
:1035E00008BF83424FF0200118BFE0700DEB0200CE
:1035F00018BF012516F0BCF9323823794FF00802C4
:1036000061F10001002908BF83424FF0280118BF73
:1036100020710DEB020018BF012516F0A9F9323810
:1036200063794FF0080261F10001002908BF83426D
:103630004FF0300118BF60710DEB020018BF01257B
:1036400016F096F93238A3794FF0080261F10001C3
:10365000002908BF83424FF0380118BFA0710DEB5D
:10366000020018BF012516F083F93238E37961F1C1
:103670000001002908BF83421CBF0125E0712846D4
:1036800005B030BD2DE9F04704468AB00A26B34F95
:10369000DFF8D082DFF8D09207AD002338681A46F1
:1036A00029460BF0F4FD002847D1079B434500F263
:1036B0005D81AB4A93423ED903F17043043B1D2B1D
:1036C00039D8DFE813F067007B0038003D00520076
:1036D0001E00380038003800380038003800F90083
:1036E000380038003800380038009300A500B500D5
:1036F000C600380038003800380038003800D700DD
:10370000E8000094204695E80E00FFF74DF990B1CF
:1037100004F10C0CD4F8F4E06D46DEF800A0BCE82F
:103720000F000FC5DCF8003070462B60DAF8085047
:1037300094E80E00A847013EAED10AB0BDE8F0877C
:1037400004F1200A2046CDF800A095E80E00FFF70E
:10375000DBF90028EFD0D4F8F400E36A05680093A1
:10376000ED689AE80E00A847E5E704F1300A204624
:10377000CDF800A095E80E00FFF77CFA0028DAD01B
:10378000D4F8F400A38F0568ADF800302D699AE8ED
:103790000E00E8E704F13E032046009395E80E0092
:1037A000FFF700FB0028C6D0D4F8F400D4F83E1090
:1037B0000368D4F842205B699847BCE704F14803EA
:1037C0002046009395E80E00FFF73EFB0028B2D09C
:1037D000D4F8F40094ED120A0368D4ED130A9B693F
:1037E00094ED141AD4ED151A9847A4E704F1580A79
:1037F0002046CDF800A095E80E00FFF78FFB0028CB
:1038000099D0D4F8F4000368DB699AE80600D3E79E
:1038100004F1600A2046CDF800A095E80E00FFF7FD
:103820001BFC002887D0D4F8F40003681B6AECE77F
:1038300004F1680A2046CDF800A095E80E00FFF7D5
:10384000A9FC00283FF477AFD4F8F40003685B6A62
:10385000DBE704F1700A2046CDF800A095E80E00E1
:10386000FFF736FD00283FF466AFD4F8F400036894
:103870009B6ACAE704F1780A2046CDF800A095E8D3
:103880000E00FFF7C3FD00283FF455AFD4F8F40055
:103890000368DB6AB9E704F1800A2046CDF800A08E
:1038A00095E80E00FFF750FE00283FF444AFD4F82F
:1038B000F40003681B6BA8E704F1880A2046CDF8E2
:1038C00000A095E80E00FEF7E1FF00283FF433AFBB
:1038D000D4F8F45004F19403D5F800C093E807003D
:1038E0008DE807009AE80E00DCF834A02846D0479F
:1038F00021E704F1A00A2046CDF800A095E80E00CB
:10390000FEF7A4FC00283FF416AFD4F8F45004F1FD
:10391000AC03D5F800C00FCB8DE80F009AE80E007D
:10392000DCF838A0E2E704F1BC0A2046CDF800A09C
:1039300095E80E00FEF71AFE00283FF4FCAED4F81E
:10394000F45004F1C803D5F800C00FCB8DE80F0088
:103950009AE80E00DCF83CA0C8E700BFE00B0324A7
:103960000300001021000010440000104B45C0D09F
:10397000104A9342D7D0023A93427FF4DCAE04F16E
:10398000D80A2046CDF800A095E80E00FEF7CEFA42
:1039900000283FF4D0AED4F8F45004F1E403D5F895
:1039A00000C00FCB8DE80F009AE80E00DCF840A0B5
:1039B0009CE700BF4500001084B007B505A880E86B
:1039C0000E00BDF82430ADF800300FC816F014F921
:1039D00003B05DF804EB04B0704782B06B4683E837
:1039E000060093E8030002B016F024B9704700F512
:1039F00098730868496803C37047704707F0E6BCCE
:103A000010B504464FF4AE7130F0C6FB204610BD31
:103A100010B50446D0F85801FFF734FE2046BDE843
:103A200010401EF0A7BD10B50446D0F8400158B1B3
:103A30000368DB68984738B1D4F8400103689B6895
:103A400098470023C4F8403110BD000010B504466B
:103A500007F088FC014B2046236010BD4C4E040843
:103A60000020704781807047C18070470181704796
:103A7000418170477047704770477047704710B476
:103A8000C4880368121B84885B6D091B12B25DF841
:103A9000044B09B218474FF6FF7383814FF0FF3391
:103AA00003621368C36110607047704770477047C6
:103AB000704730B585B00368044601816D46014604
:103AC000D3F884303C342846984795E8070084E8CA
:103AD000070005B030BD30B585B0036804464181AC
:103AE0006D460146D3F884303C342846984795E823
:103AF000070084E8070005B030BD00220280428044
:103B00008280C280704780F836107047036870B5B5
:103B100004461B6B154698472368204629465B6E72
:103B2000BDE87040184700207047806C70477047B0
:103B300070477047704770477047704770477047CD
:103B4000704770477047704770477047704700F57F
:103B50001D73994270B504460D4602D10368DB6AB5
:103B6000984704F52B739D4203D1236820461B6BB5
:103B7000984704F539739D4203D1236820465B6B57
:103B8000984704F547739D4203D1236820469B6BF9
:103B9000984704F555739D4203D123682046DB6B9B
:103BA000984704F563739D4203D1236820461B6C3C
:103BB000984704F204639D4203D1236820465B6C5E
:103BC000984704F23C639D4203D1236820469B6CD6
:103BD000984704F274639D4203D123682046DB6C4E
:103BE000984704F2AC639D4203D1236820461B6DC5
:103BF000984704F274739D4203D1236820465B6D9D
:103C0000984704F57D5324339D4203D12368204611
:103C10009B6D984704F57F5324339D4205D123685B
:103C20002046DB6DBDE87040184770BD7047704797
:103C30007047704730B444680346C2689B685510AB
:103C400004EB6200D20748BF625930BC48BFD3586A
:103C500018470346406830B19A681AB9D86800F02E
:103C60000100704701207047838A8B4286BF00EBBA
:103C700081004068002070470346818A002010B50B
:103C800082B2914202D84FF0FF3010BD53F8044F7A
:103C9000421C94F83740002CF7D11046F0E7036837
:103CA00010B51B6904469847011E06DB23682046B1
:103CB00089B2DB68BDE810401847002010BD838A38
:103CC00000EB8303984200D1704750F8042F82F82C
:103CD0003810F7E70346808A10B15B6893F8380024
:103CE000704730B444680346C2689B68551004EBC3
:103CF0006200D20748BF625930BC48BFD35818474A
:103D00000346406830B19A681AB9D86800F00100DB
:103D1000704701207047038A8B4286BF00EB810009
:103D20004068002070470346018A002010B582B227
:103D3000914202D84FF0FF3010BD53F8044F421C9F
:103D400094F83740002CF7D11046F0E7036810B51F
:103D50001B6904469847011E06DB2368204689B28A
:103D6000DB68BDE810401847002010BD038A00EB57
:103D70008303984200D1704750F8042F82F838101E
:103D8000F7E70346008A10B15B6893F83800704784
:103D900030B444680346C2689B68551004EB620067
:103DA000D20748BF625930BC48BFD35818470346B2
:103DB000406830B19A681AB9D86800F001007047BD
:103DC0000120704770B50D460446012128461CF0BD
:103DD000CBFC2368294620465B6ABDE87040184743
:103DE00070B50D460446012128461CF0BDFC236831
:103DF000294620465B6ABDE87040184710B5044666
:103E0000082130F0C9F9204610BD10B504464C21F8
:103E100030F0C2F9204610BD10B504463C2130F008
:103E2000BBF9204610BD10B50446102130F0B4F99E
:103E3000204610BD10B50446402130F0ADF92046B3
:103E400010BD10B50446102130F0A6F9204610BD73
:103E500010B50446102130F09FF9204610BD90F8AF
:103E6000252012B103685B691847704708B5FFF752
:103E7000F6FF08BD90F825201AB190F8242002B171
:103E800018607047036870B55E6B0446114B8DB2C5
:103E90001B682BB9104B6C21104A114837F0FAFC03
:103EA0001049828D0988914203D80F4B6D210B4A2E
:103EB000F3E713F812200D4B1B6853F82200036838
:103EC0001B6B9847291A3346204609B2BDE870405B
:103ED000184700BF241C03246C300408AE300408CB
:103EE000E9300408181C03242E3104081C1C032488
:103EF00008B5038A022B05D9084B4121084A094815
:103F000037F0C8FC00F114028A6200F12402CA638F
:103F10005A1C028200EB8300416008BD6C3104082A
:103F2000A53104081332040808B5838A032B05D988
:103F3000084B4121084A094837F0ACFC00F118024F
:103F40008A6200F12802CA635A1C828200EB830055
:103F5000416008BD6C31040867320408133204085C
:103F600070B504460D460026A28AB3B29A420CD818
:103F7000A06BC0B10368DB689847A0B1A06B29466D
:103F80000368BDE870409B681847B3B204EB830335
:103F90005868A84205D090F8373013B100211CF0C2
:103FA000E3FB0136E0E770BD70B504460D46002620
:103FB000228AB3B29A420CD8606BC0B10368DB6846
:103FC0009847A0B1606B29460368BDE870409B68C4
:103FD0001847B3B204EB83035868A84205D090F8A1
:103FE000373013B100211CF0BFFB0136E0E770BD94
:103FF00070B50446C06B0D4650B10368DB68984746
:1040000030B1E06B29460368BDE870409B681847F3
:1040100070BD70B50446806B0D4650B10368DB6817
:10402000984730B1A06B29460368BDE870409B6893
:10403000184770BD036870B504461B6B154698475A
:104040002368204629465B6BBDE87040184770B571
:1040500004461D46BDF91060FFF7ECFF23682946B2
:1040600020469B6B9847236831462046DB6BBDE8B2
:10407000704018474FF480710022818405498262A4
:104080000160C0E90122C0E90322C0E90522C0E9BC
:1040900007227047EC5B04080022C0E90122C0E956
:1040A0000322C0E90522C0E907224FF4807282840E
:1040B000014A0260704700BFA04E040810B50446D4
:1040C0002622002139F04CFF2046FFF7E5FF044B84
:1040D00020462360FF2384F826300023A36210BD0E
:1040E0000861040838B504460D462622002139F03F
:1040F00037FF2046FFF7D0FF064B204629462360B6
:104100002B88E384FF2384F828301CF0CAF920466A
:1041100038BD00BFF461040800224FF0FF31826017
:10412000C0E90021704710B50446FFF7F5FF2046AF
:1041300010BD000010B504460021262239F010FF02
:104140002046FFF7A9FF094B4FF47F0204F13C0022
:104150002360074BA3624FF6FF73A3850023C4E9D6
:104160000C322387FFF7D8FF204610BD7860040883
:10417000084F040810B50446FFF7DCFF024B204649
:1041800023600023A36410BD184F040810B5044633
:104190002622002139F0E4FE2046FFF77DFF054B83
:1041A000204623600023A36284F82C30012384F886
:1041B000243010BD945F0408138883861CF063B814
:1041C00010B50446FFF7E2FF084B4FF0FF322046E0
:1041D00023604FF6FF73E3856FF07F43C4E90C2340
:1041E000002384F83830E36310BD00BF6062040828
:1041F00010B50446FFF7CAFF4FF6FF73044A204686
:10420000E385238684F832302260A38610BD00BF88
:10421000046004082DE9F04F0446ADF2DC5D002592
:104220001FF05AFDA046EA4BE56304F5B27948F861
:10423000403B4046FFF742FF04F16C0304F5EE7A81
:1042400004F50A7B18460B9319F0E0FE4846FFF789
:1042500011FF04F5C8730126DE4F18460A93FFF7D5
:1042600089FF5046FFF786FF5846FFF783FF04F5A6
:104270001D731846CDF82035FFF7BAFF04F52B73F0
:104280001846CDF82435FFF7B3FF04F53973184607
:10429000CDF82835FFF7ACFF04F547731846CDF885
:1042A0002C35FFF7A5FF04F555731846CDF83035CA
:1042B000FFF79EFF04F563731846CDF83435FFF71A
:1042C00097FF04F5717318469793FFF733FF04F2D5
:1042D0000C4318469893FFF72DFF04F254431846F9
:1042E0009993FFF727FF04F29C4318469A93FFF730
:1042F00021FF04F2E44318469193FFF71BFF04F2F9
:104300002C5318469293FFF715FF04F27453184686
:104310009393FFF70FFF04F2BC5318469493FFF7F3
:1043200009FF04F204631846CDF83835FFF760FF43
:1043300004F23C631846CDF83C35FFF759FF04F210
:1043400074631846CDF84035FFF752FF04F2AC63B2
:104350001846CDF84435FFF74BFF04F2E4631846E6
:104360009593FFF7E7FE04F22C7318469693FFF738
:10437000E1FE04F274731846CDF84835FFF738FFB4
:1043800004F2AC7318469B93FFF7D4FE04F2F47367
:10439000914A2821F893C4F80C382423C4F8F42750
:1043A000C4F81038F89BC4F82018C4F81C3804F579
:1043B0000363A4F80458C4F808781846C4F81468CD
:1043C000C4F81878C4F82468C4F82858C4F82C58DD
:1043D0009C93FFF7F5FE04F5076318469D93FFF7DE
:1043E000EFFE04F50B6318469E93FFF7E9FE04F514
:1043F0000F63794A2821F993C4F808392423C4F8B3
:10440000F028C4F80C39F99BC4F81C19C4F8183901
:1044100004F62C13A4F80059C4F804791846C4F81B
:104420001069C4F814790DF5B667C4F82069C4F8AA
:104430002459C4F828599F93FFF7C2FE04F66C1361
:104440001846A093FFF7BCFE04F6AC131846A193E0
:10445000FFF7B6FE04F6EC13604A2821A293C4F8D5
:10446000083A2423C4F8EC29C4F80C3AA29B5C4A0D
:10447000C4F8183A04F62C23C4F8042AC4F8142A01
:104480001846C4F81C1AA4F8005AC4F8106AC4F8F4
:10449000206AC4F8245AC4F8285A4FF6FF75A3932B
:1044A000FFF78EFE04F66C232E461846A493FFF702
:1044B00087FE04F6AC231846A593FFF781FE04F6A9
:1044C000EC231846A693FFF77BFE04F62C33184620
:1044D000A793FFF72FFE04F674331846A893FFF74F
:1044E00029FE04F6BC331846A993FFF723FE04F611
:1044F00004431846AA93FFF71DFE04F64C431846E2
:104500000993FFF7B7FD04F678430DF2CC51ADF8EF
:10451000CC551846CDF84C35FFF7E4FD04F6A4431E
:104520000DF2CC51ADF8CC551846CDF85035FFF70B
:10453000D9FD04F54D631846CDF85435FFF71AFE42
:1045400004F61C531846CDF85835FFF713FE04F651
:1045500068531846CDF85C35FFF70CFE04F6B453EB
:104560001846CDF86035FFF705FE04F56063184680
:10457000CDF86435FFF7FEFD04F64C631846CDF820
:104580006835FFF7F7FD04F698631846CDF86C35EB
:10459000FFF7F0FD04F6E4631846CDF87035FFF739
:1045A000E9FD04F573631846CDF87435FFF7E2FDB5
:1045B00004F67C731846CDF87835FFF7DBFD04F67A
:1045C000C8731846CDF87C35FFF7D4FD0AE000BF6C
:1045D00058500408A84F0408C04F04080C500408A1
:1045E000F44F040804F5805314331846AB93FFF7D7
:1045F000C1FD04F583531846CDF88035FFF7BAFDA9
:1046000004F585530C331846AC93FFF7B3FD04F55E
:10461000875318331846AD93FFF7ACFD04F58A5362
:1046200004331846AE93FFF7A5FD04F58C53103301
:104630001846AF93FFF79EFD04F58E531C331846C2
:10464000B093FFF797FD04F5915308331846B193E3
:10465000FFF790FD04F5935314331846B293FFF718
:1046600089FD04F5965318460E9319F073FB04F573
:1046700099531846CDF88435FFF77CFD04F59B531C
:104680000C331846B393FFF775FD04F59D531833AB
:104690001846B493FFF76EFD04F5A0530433184693
:1046A000B593FFF767FD04F5A25310331846B69390
:1046B000FFF760FD04F5A4531C331846B793FFF7CA
:1046C00059FD04F5A753083318460D9319F042FB22
:1046D00004F5AA5308331846B893FFF74BFD04F5C9
:1046E000AC5314331846B993FFF744FD04F5AF53A8
:1046F0001846CDF88835FFF73DFD04F5B1530C336E
:104700001846BA93FFF736FD04F5B353183318462D
:10471000BB93FFF72FFD04F5B65304331846BC9343
:10472000FFF728FD04F5B853103318460C93FFF734
:10473000A1FC04F5B9531C3318460393FFF79AFC08
:1047400004F5BB5308331846FA93FFF7B7FC04F59A
:10475000BC53143318461193FFF7ECFC04F5BE5319
:104760001C331846FB93FFF7A9FC04F5C05308332C
:1047700018461293FFF7DEFC04F5C25310331846B7
:10478000FC93FFF79BFC04F5C3531C3318461393AB
:10479000FFF7D0FC04F5C65304331846FD93FFF72A
:1047A0008DFC04F5C753103318461493FFF7C2FC71
:1047B00004F5C95318331846FE93FFF77FFC04F540
:1047C000CB53043318461593FFF7B4FC04F5CD53CF
:1047D0000C331846FF93FFF771FC04F5CE531833E2
:1047E00018461693FFF7A6FC04F5D1531846CDF8EA
:1047F0009435FFF763FC04F5D2530C331846179336
:10480000FFF798FC04F5D45314331846CDF8003460
:10481000FFF754FC04F5D6531846BD93FFF78AFC06
:1048200004F5D85308331846CDF80434FFF746FC96
:1048300004F5D953143318461893FFF77BFC04F59D
:10484000DB531C331846CDF80834FFF737FC04F56A
:10485000DD53083318461993FFF76CFC04F5DF535A
:1048600010331846CDF80C34FFF728FC04F5E0535C
:104870001C3318461A93FFF75DFC04F5E353043329
:104880001846CDF81034FFF719FC04F5E453103343
:1048900018461B93FFF74EFC04F5E65318331846F1
:1048A000CDF81434FFF70AFC04F5E8530433184636
:1048B0001C93FFF73FFC04F5EA530C331846CDF880
:1048C0001834FFF7FBFB04F5EB53183318461D9320
:1048D000FFF730FC04F5EE531846CDF89835FFF796
:1048E000EDFB04F5EF530C3318461E93FFF722FC43
:1048F00004F5F15314331846CDF81C34FFF7DEFBF2
:1049000004F5F3531846BE93FFF714FC04F5F55372
:1049100008331846CDF82034FFF7D0FB04F5F653E2
:10492000143318461F93FFF705FC04F5F8531C33A6
:104930001846CDF82434FFF7C1FB04F5FA530833C9
:1049400018462093FFF7F6FB04F5FC531033184686
:10495000CDF82834FFF7B2FB04F5FD531C3318469D
:104960002193FFF7E7FB04F5005304331846CDF815
:104970002C34FFF7A3FB04F5005330331846229381
:10498000FFF7D8FB04F5015338331846CDF830341F
:10499000FFF794FB04F50253243318462393FFF7E3
:1049A000C9FB04F503532C331846CDF83434FFF714
:1049B00085FB04F50453183318462493FFF7BAFB1C
:1049C00004F5055320331846CDF83834FFF776FB4D
:1049D00004F506530C3318462593FFF7ABFB04F59B
:1049E000075314331846CDF83C34FFF767FB04F542
:1049F00008531846BF93FFF79DFB04F5095308338E
:104A00001846CDF84034FFF759FB04F50953343309
:104A100018462693FFF78EFB04F50A533C331846DD
:104A2000CDF84434FFF74AFB04F50B5328331846FE
:104A30002793FFF77FFB04F50C5330331846CDF86E
:104A40004834FFF73BFB04F50D531C3318462893FD
:104A5000FFF770FB04F50E5324331846CDF84C34A1
:104A6000FFF72CFB04F50F53103318462993FFF77B
:104A700061FB04F51053183318462A93FFF75AFBCD
:104A800004F51153203318460793FFF7F3FA04F5A2
:104A900012530C331846CDF85034FFF70FFB04F5D2
:104AA0001253383318462B93FFF744FB04F5145385
:104AB0001846CDF89C35FFF701FB04F514532C3351
:104AC00018462C93FFF736FB04F51553343318467C
:104AD000CDF85434FFF7F2FA04F516532033184694
:104AE0002D93FFF727FB04F5175328331846CDF80D
:104AF0005834FFF7E3FA04F51853143318462E938D
:104B0000FFF718FB04F519531C331846CDF85C3435
:104B1000FFF7D4FA04F51A53083318462F93FFF71A
:104B200009FB04F51B5310331846CDF86034FFF72A
:104B3000C5FA04F51B533C3318463093FFF7FAFAD5
:104B400004F51D5304331846CDF86434FFF7B6FA64
:104B500004F51D53303318463193FFF7EBFA04F593
:104B60001E5338331846CDF86834FFF7A7FA04F51A
:104B70001F53243318463293FFF7DCFA04F5205311
:104B80002C331846CDF86C34FFF798FA04F521530E
:104B9000183318463393FFF7CDFA04F52253203328
:104BA0001846CDF87034FFF789FA04F523530C3317
:104BB00018463493FFF7BEFA04F52453143318460D
:104BC000CDF87434FFF77AFA04F525531846C093EC
:104BD000FFF7B0FA04F5265308331846CDF87834B9
:104BE000FFF76CFA04F52653343318463593FFF774
:104BF000A1FA04F527533C331846CDF87C34FFF76F
:104C00005DFA04F52853283318463693FFF792FAD5
:104C100004F5295330331846CDF88034FFF74EFAA7
:104C200004F52A531C3318463793FFF783FA04F52B
:104C30002B53243318463893FFF77CFA04F52C5392
:104C40002C3318460893FFF715FA04F52D53183343
:104C50001846CDF88434FFF731FA04F52E530433A7
:104C600018463993FFF766FA04F52F530C331846AC
:104C7000CDF88834FFF722FA04F52F53383318465D
:104C80003A93FFF757FA04F531531846CDF8A0359B
:104C9000FFF714FA04F531532C3318463B93FFF712
:104CA00049FA04F5325334331846CDF88C34FFF703
:104CB00005FA04F53353203318463C93FFF73AFACC
:104CC00004F5345328331846CDF89034FFF7F6F93D
:104CD00004F53553143318463D93FFF72BFA04F5CA
:104CE00036531C331846CDF89434FFF7E7F904F532
:104CF0003753083318463E93FFF71CFA04F5385330
:104D000010331846CDF89834FFF7D8F904F5385326
:104D10003C3318463F93FFF70DFA04F53A5304333A
:104D20001846CDF89C34FFF7C9F904F53A533033EF
:104D300018464093FFF7FEF904F53B533833184605
:104D4000CDF8A034FFF7BAF904F53C5324331846E4
:104D50004193FFF7EFF904F53D532C331846CDF896
:104D6000A434FFF7ABF904F53E53183318464293C9
:104D7000FFF7E0F904F53F5320331846CDF8A83487
:104D8000FFF79CF904F540530C3318464393FFF7A3
:104D9000D1F904F5415314331846CDF8AC34FFF77C
:104DA0008DF904F542531846C193FFF7C3F904F592
:104DB000435308331846CDF8B034FFF77FF904F5B4
:104DC0004353343318464493FFF7B4F904F544537E
:104DD0003C331846CDF8B434FFF770F904F5455369
:104DE000283318464593FFF7A5F904F546533033A9
:104DF00018464693FFF79EF904F547533833184693
:104E00000493FFF737F904F5485324331846CDF8D7
:104E1000B834FFF753F904F5495310331846479354
:104E2000FFF788F904F54A5318331846CDF8BC3417
:104E3000FFF744F904F54B53043318464893FFF742
:104E400079F904F54C530C331846CDF8C034FFF70C
:104E500035F904F54C53383318464993FFF76AF98E
:104E600004F54E531846CDF8A435FFF727F904F59D
:104E70004E532C3318464A93FFF75CF904F54F5311
:104E800034331846CDF8C434FFF718F904F55053FD
:104E9000203318464B93FFF74DF904F5515328334F
:104EA0001846CDF8C834FFF709F904F55253143306
:104EB00018464C93FFF73EF904F553531C3318463C
:104EC000CDF8CC34FFF7FAF804F5545308331846FC
:104ED0004D93FFF72FF904F5555310331846CDF8CD
:104EE000D034FFF7EBF804F555533C3318464E9396
:104EF000FFF720F904F5575304331846CDF8D4349E
:104F0000FFF7DCF804F55753303318464F93FFF79B
:104F100011F904F5585338331846CDF8D834FFF753
:104F2000CDF804F55953243318465093FFF702F98E
:104F300004F55A532C331846CDF8DC34FFF7BEF88D
:104F400004F55B53183318465193FFF7F3F804F553
:104F50005C5320331846CDF8E034FFF7AFF804F582
:104F60005D530C3318465293FFF7E4F804F55E5393
:104F700014331846CDF8E434FFF7A0F804F55F5376
:104F80001846C293FFF7D6F804F560530833184665
:104F9000CDF8E834FFF792F804F56053343318463F
:104FA0005393FFF7C7F804F561533C331846CDF827
:104FB000EC34FFF783F804F5625328331846549312
:104FC000FFF7B8F804F5635330331846CDF8F034E2
:104FD000FFF774F804F564531C3318465593FFF734
:104FE000A9F804F5655324331846CDF8F434FFF7D7
:104FF00065F804F56653103318465693FFF79AF890
:1050000004F5675318331846CDF8F834FFF756F80F
:1050100004F56853043318465793FFF78BF804F5EB
:1050200069530C331846CDF8FC34FFF747F804F504
:105030006953383318465893FFF77CF804F56B53DF
:105040001846CDF8A835FFF739F804F56B532C3323
:1050500018465993FFF76EF804F56C53343318462D
:10506000CDF80035FFF72AF804F56D5320331846C4
:105070005A93FFF75FF804F56E5328331846CDF8BE
:105080000435FFF71BF804F56F53143318465B9390
:10509000FFF750F804F570531C331846CDF8083567
:1050A000FFF70CF804F57153083318465C93FFF7CB
:1050B00041F804F5725310331846CDF80C35FEF75D
:1050C000FDFF04F572533C3318465D93FFF732F849
:1050D00004F5745304331846CDF81035FEF7EEFF8F
:1050E00004F57453303318465E93FFF723F804F544
:1050F000755338331846CDF81435FEF7DFFF04F545
:105100007653243318465F93FFF714F804F577536A
:105110002C331846CDF81835FEF7D0FF04F5785338
:10512000183318466093FFF705F804F579532033D8
:105130001846CDF81C35FEF7C1FF04F57A530C3341
:1051400018466193FEF7F6FF04F57B5314331846B7
:105150006293FEF7EFFF04F57C531C3318460F9360
:10516000FEF7E8FF04F57D5324331846C393FFF799
:105170003FF804F57E531C3318461093FEF7DAFF10
:1051800004F57F5324331846C493FFF731F804F530
:1051900080431C3318466393FEF76CFF04F580438D
:1051A000ADF8CC550DF2CC55483329461846C59379
:1051B000FEF798FF04F580432946ADF8CC657433BB
:1051C00000261846C693FEF78DFF04F58143203371
:1051D0001846059318F0BEFD04F582431846CDF835
:1051E0008C35FEF7C7FF04F582434C331846C7934E
:1051F000FEF7C0FF04F5834318331846C893FEF743
:10520000B9FF04F5834364331846C993FEF7B2FF30
:1052100004F5844330331846CA93FEF7ABFF04F518
:1052200084437C331846CB93FEF7A4FF04F58543F3
:1052300048331846CC93FEF79DFF04F5864314339C
:105240001846CD93FEF796FF04F586436033184663
:10525000CE93FEF78FFF04F587432C331846CF9388
:10526000FEF788FF04F5874378331846D093FEF79E
:1052700081FF04F5884344331846D193FEF77AFF43
:1052800004F5894310331846D293FEF773FF04F5F3
:1052900089435C331846D393FEF76CFF04F58A43C9
:1052A00028331846D493FEF765FF04F58A43743318
:1052B0001846D593FEF75EFF04F58B43403318463E
:1052C000D693FEF757FF04F58C430C331846D7935B
:1052D000FEF750FF04F58C4358331846D893FEF779
:1052E00049FF04F58D4324331846D993FEF742FF56
:1052F00004F58D4370331846DA93FEF73BFF04F54F
:105300008E433C331846DB93FEF734FF04F58F439E
:1053100008331846DC93FEF72DFF04F58F43543312
:105320001846DD93FEF726FF04F590432033184618
:105330006493FEF7FFFE04F59043683318466593C7
:10534000FEF7F8FE04F59143303318466693FEF7F6
:10535000F1FE04F59143783318466793FEF7EAFEB1
:1053600004F59243403318466893FEF7E3FE04F5D4
:105370009343083318466993FEF7DCFE04F5934324
:10538000503318466A93FEF7D5FE04F5944318335C
:1053900018466B93FEF7CEFE04F59443603318462F
:1053A0006C93FEF7C7FE04F59543283318466D93BA
:1053B000FEF7C0FE04F59543703318466E93FEF772
:1053C000B9FE04F59643383318466F93FEF7B2FEE4
:1053D00004F597431846DE93FEF7ACFE04F59743B9
:1053E000483318467093FEF7A5FE04F59843103332
:1053F00018467193FEF79EFE04F5984358331846FD
:105400007293FEF797FE04F5994320331846739381
:10541000FEF790FE04F59943683318467493FEF73F
:1054200089FE04F59A43303318467593FEF782FEE1
:1054300004F59A43783318467693FEF77BFE04F51D
:105440009B43403318467793FEF774FE04F59C4364
:10545000083318467893FEF76DFE04F59C435033ED
:1054600018467993FEF766FE04F59D4318331846F7
:105470007A93FEF75FFE04F59D436033184606936A
:1054800018F068FC04F59E4340331846DF93FEF79E
:1054900071FE04F59F430C331846E093FEF76AFE55
:1054A00004F59F4358331846E193FEF763FE04F575
:1054B000A04324331846E293FEF75CFE04F5A043B4
:1054C00070331846E393FEF755FE04F5A1433C33D1
:1054D0001846E493FEF74EFE04F5A243083318463F
:1054E000E593FEF747FE04F5A24354331846E693CE
:1054F000FEF740FE04F5A34320331846E793FEF77A
:1055000039FE04F5A3436C331846E893FEF732FEE8
:1055100004F5A44338331846E993FEF72BFE04F54F
:10552000A54304331846EA93FEF724FE04F5A54389
:1055300050331846EB93FEF71DFE04F5A6431C33CB
:105540001846EC93FEF716FE04F5A643683318469A
:10555000ED93FEF70FFE04F5A74334331846EE93A0
:10556000FEF708FE04F5A8431846CDF89035FEF77F
:1055700001FE04F5A8434C331846EF93FEF7FAFDFD
:1055800004F5A94318331846F093FEF7F3FD04F52C
:10559000A94364331846F193FEF7ECFD04F5AA43E2
:1055A00030331846F293FEF7E5FD04F5AA437C3349
:1055B0001846F393FEF7DEFD04F5AB434833184677
:1055C000F493FEF7D7FD04F5AC4314331846F59376
:1055D000FEF7D0FD04F5AC43603318467B93FEF72D
:1055E000A9FD04F5AD43283318467C93FEF7A2FDD0
:1055F00004F5AD43703318467D93FEF79BFD04F52B
:10560000AE43383318467E93FEF794FD04F5AF435E
:105610001846F693FEF78EFD04F5AF43483318465F
:105620007F93FEF787FD04F5B0431033184680934F
:10563000FEF780FD04F5B043583318468193FEF71A
:1056400079FD04F5B143203318468293FEF772FDCD
:1056500004F5B143683318468393FEF76BFD04F5F8
:10566000B243303318468493FEF764FD04F5B24329
:10567000783318468593FEF75DFD04F5B343403358
:1056800018468693FEF756FD04F5B44308331846D2
:105690008793FEF74FFD04F5B443503318468893C3
:1056A000FEF748FD04F5B543183318468993FEF715
:1056B00041FD04F5B543603318468A93FEF73AFD81
:1056C00004F5B643283318468B93FEF733FD04F5F3
:1056D000B643703318468C93FEF72CFD04F5B743A0
:1056E000383318468D93FEF725FD04F5B843184668
:1056F000F793FEF71FFD04F5B843483318468E9321
:10570000FEF718FD04F5B943103318468F93FEF7E2
:1057100011FD04F5B943583318469093FEF70AFD7E
:1057200004F5C043E74A3146C3F844634046C3E941
:10573000CE24E54AC3F840234FF448733246009321
:105740004FF4A063FEF783FC4FF07F434146201DDA
:10575000A3664FF0FF3818F016F8324631460B9822
:10576000FEF768FC07232A460DF5B961ADF8C83588
:1057700008230B98ADF8CC3518F0E5FC40F2073261
:105780000B984FF4207118F095FB0B98322118F00C
:105790001AFB0B98322118F08BFBCC4B40F25122B4
:1057A0000A98C4F86C318121FEF744FCD4F890319A
:1057B0000A993846C4F8C081A4F8C461D3F884308B
:1057C00098470A9B97E807003C3383E8070004F5F5
:1057D000BA4204F5A0430A982032A3F8206DCDF810
:1057E000AC35C4F8D8211AF015FBB94BD3222946A1
:1057F0000A98CDF8CC35ADF8D0251AF02BFB0A99D4
:10580000484617F0C0FF504640F282228121FEF741
:1058100011FCD4F8DC2151463846C4F80C82A4F8B7
:105820001062D2F88420904704F5067CDDF8AC3590
:1058300097E807008CE8070004F5BA42A3F8266D44
:1058400050460A932632C4F824221AF0E3FAA04BF9
:10585000D22229465046CDF8CC35ADF8D0251AF0E5
:10586000F9FA5146484617F08EFF584640F2B522E5
:105870008121FEF7DFFBD4F8282259463846C4F8C8
:1058800058824FF01E0AA4F85C62D2F88420904738
:1058900004F5197C0A9B97E807008CE80700A3F839
:1058A0002C6D04F5BA4358462C33C4F870321AF004
:1058B000B1FA874B29465846CDF8CC35D123ADF8FF
:1058C000D0351AF0C7FA5946484617F05CFFDDF8A4
:1058D0002005232240F21721FEF7ACFB2A232A469B
:1058E0000DF5B961ADF8C8352B23DDF820054FF073
:1058F000010BADF8CC35FEF75FFC04F5C642DDF8D0
:10590000201548463832C4F89C220A9217F03BFF13
:10591000DDF82405A22240F24D21FEF78BFB102377
:105920002A460DF5B961ADF8C8351123DDF8240517
:10593000ADF8CC35FEF740FC0A9A4846DDF8241550
:10594000C4F8D42217F01FFFDDF828054FF4847245
:10595000E621FEF76FFB4FF0280229230DF5B96110
:10596000DDF82805ADF8CC252A46ADF8C835FEF798
:1059700023FC0A9A4846DDF82815C4F80C2317F0D2
:1059800002FFDDF82C0540F28712E621FEF752FBFC
:1059900027232A460DF5B961ADF8C8352623DDF871
:1059A0002C05ADF8CC35FEF707FC0A9A4846DDF821
:1059B0002C15C4F8442317F0E6FEDDF8300540F25C
:1059C0000222E621FEF736FB4FF02C022D230DF5C7
:1059D000B961DDF83005ADF8CC252A46ADF8C835FB
:1059E000FEF7EAFB0A9A4846DDF83015C4F87C2336
:1059F00017F0C9FEDDF834058C22E621FEF71AFB0C
:105A000023232A460DF5B961DDF83405ADF8CC3510
:105A1000ADF8C8A5FEF7D0FB0A9A4846DDF8341564
:105A2000C4F8B42317F0AFFEB62297981721FEF7FB
:105A300001FB97993846C4F8F483A4F8F86319F089
:105A400043FF979A02F13C0397E8070083E80700B9
:105A50001F4B29469798CDF8CC35C023ADF8D035EB
:105A60001AF0F8F99799484617F08DFE4FF499729D
:105A700098981721FEF7DEFA98993846C4F83C84C6
:105A8000A4F8406419F020FF989A02F13C0397E8CB
:105A9000070083E807000E4B29469898CDF8CC35CF
:105AA000BF23ADF8D0351AF0D5F99899484617F0CC
:105AB0006AFE4FF4DB7299981721FEF7BBFA9999A9
:105AC000384607E0405004084F3B0008000520031B
:105AD000084F0408C4F88484A4F8886419F0F4FE1C
:105AE000999A02F13C0397E8070083E80700DF4B2F
:105AF00029469998CDF8CC35BE23ADF8D0351AF0AB
